{
  "contractName": "JBA",
  "abi": [
    {
      "inputs": [],
      "stateMutability": "nonpayable",
      "type": "constructor"
    },
    {
      "anonymous": false,
      "inputs": [
        {
          "indexed": true,
          "internalType": "address",
          "name": "owner",
          "type": "address"
        },
        {
          "indexed": true,
          "internalType": "address",
          "name": "approved",
          "type": "address"
        },
        {
          "indexed": true,
          "internalType": "uint256",
          "name": "tokenId",
          "type": "uint256"
        }
      ],
      "name": "Approval",
      "type": "event"
    },
    {
      "anonymous": false,
      "inputs": [
        {
          "indexed": true,
          "internalType": "address",
          "name": "owner",
          "type": "address"
        },
        {
          "indexed": true,
          "internalType": "address",
          "name": "operator",
          "type": "address"
        },
        {
          "indexed": false,
          "internalType": "bool",
          "name": "approved",
          "type": "bool"
        }
      ],
      "name": "ApprovalForAll",
      "type": "event"
    },
    {
      "anonymous": false,
      "inputs": [
        {
          "indexed": false,
          "internalType": "address",
          "name": "account",
          "type": "address"
        }
      ],
      "name": "Paused",
      "type": "event"
    },
    {
      "anonymous": false,
      "inputs": [
        {
          "indexed": true,
          "internalType": "bytes32",
          "name": "role",
          "type": "bytes32"
        },
        {
          "indexed": true,
          "internalType": "bytes32",
          "name": "previousAdminRole",
          "type": "bytes32"
        },
        {
          "indexed": true,
          "internalType": "bytes32",
          "name": "newAdminRole",
          "type": "bytes32"
        }
      ],
      "name": "RoleAdminChanged",
      "type": "event"
    },
    {
      "anonymous": false,
      "inputs": [
        {
          "indexed": true,
          "internalType": "bytes32",
          "name": "role",
          "type": "bytes32"
        },
        {
          "indexed": true,
          "internalType": "address",
          "name": "account",
          "type": "address"
        },
        {
          "indexed": true,
          "internalType": "address",
          "name": "sender",
          "type": "address"
        }
      ],
      "name": "RoleGranted",
      "type": "event"
    },
    {
      "anonymous": false,
      "inputs": [
        {
          "indexed": true,
          "internalType": "bytes32",
          "name": "role",
          "type": "bytes32"
        },
        {
          "indexed": true,
          "internalType": "address",
          "name": "account",
          "type": "address"
        },
        {
          "indexed": true,
          "internalType": "address",
          "name": "sender",
          "type": "address"
        }
      ],
      "name": "RoleRevoked",
      "type": "event"
    },
    {
      "anonymous": false,
      "inputs": [
        {
          "indexed": true,
          "internalType": "address",
          "name": "from",
          "type": "address"
        },
        {
          "indexed": true,
          "internalType": "address",
          "name": "to",
          "type": "address"
        },
        {
          "indexed": true,
          "internalType": "uint256",
          "name": "tokenId",
          "type": "uint256"
        }
      ],
      "name": "Transfer",
      "type": "event"
    },
    {
      "anonymous": false,
      "inputs": [
        {
          "indexed": false,
          "internalType": "address",
          "name": "account",
          "type": "address"
        }
      ],
      "name": "Unpaused",
      "type": "event"
    },
    {
      "inputs": [],
      "name": "DEFAULT_ADMIN_ROLE",
      "outputs": [
        {
          "internalType": "bytes32",
          "name": "",
          "type": "bytes32"
        }
      ],
      "stateMutability": "view",
      "type": "function",
      "constant": true
    },
    {
      "inputs": [],
      "name": "MINTER_ROLE",
      "outputs": [
        {
          "internalType": "bytes32",
          "name": "",
          "type": "bytes32"
        }
      ],
      "stateMutability": "view",
      "type": "function",
      "constant": true
    },
    {
      "inputs": [],
      "name": "PAUSER_ROLE",
      "outputs": [
        {
          "internalType": "bytes32",
          "name": "",
          "type": "bytes32"
        }
      ],
      "stateMutability": "view",
      "type": "function",
      "constant": true
    },
    {
      "inputs": [
        {
          "internalType": "address",
          "name": "to",
          "type": "address"
        },
        {
          "internalType": "uint256",
          "name": "tokenId",
          "type": "uint256"
        }
      ],
      "name": "approve",
      "outputs": [],
      "stateMutability": "nonpayable",
      "type": "function"
    },
    {
      "inputs": [
        {
          "internalType": "address",
          "name": "owner",
          "type": "address"
        }
      ],
      "name": "balanceOf",
      "outputs": [
        {
          "internalType": "uint256",
          "name": "",
          "type": "uint256"
        }
      ],
      "stateMutability": "view",
      "type": "function",
      "constant": true
    },
    {
      "inputs": [
        {
          "internalType": "uint256",
          "name": "tokenId",
          "type": "uint256"
        }
      ],
      "name": "burn",
      "outputs": [],
      "stateMutability": "nonpayable",
      "type": "function"
    },
    {
      "inputs": [
        {
          "internalType": "uint256",
          "name": "tokenId",
          "type": "uint256"
        }
      ],
      "name": "getApproved",
      "outputs": [
        {
          "internalType": "address",
          "name": "",
          "type": "address"
        }
      ],
      "stateMutability": "view",
      "type": "function",
      "constant": true
    },
    {
      "inputs": [
        {
          "internalType": "bytes32",
          "name": "role",
          "type": "bytes32"
        }
      ],
      "name": "getRoleAdmin",
      "outputs": [
        {
          "internalType": "bytes32",
          "name": "",
          "type": "bytes32"
        }
      ],
      "stateMutability": "view",
      "type": "function",
      "constant": true
    },
    {
      "inputs": [
        {
          "internalType": "bytes32",
          "name": "role",
          "type": "bytes32"
        },
        {
          "internalType": "address",
          "name": "account",
          "type": "address"
        }
      ],
      "name": "grantRole",
      "outputs": [],
      "stateMutability": "nonpayable",
      "type": "function"
    },
    {
      "inputs": [
        {
          "internalType": "bytes32",
          "name": "role",
          "type": "bytes32"
        },
        {
          "internalType": "address",
          "name": "account",
          "type": "address"
        }
      ],
      "name": "hasRole",
      "outputs": [
        {
          "internalType": "bool",
          "name": "",
          "type": "bool"
        }
      ],
      "stateMutability": "view",
      "type": "function",
      "constant": true
    },
    {
      "inputs": [
        {
          "internalType": "address",
          "name": "owner",
          "type": "address"
        },
        {
          "internalType": "address",
          "name": "operator",
          "type": "address"
        }
      ],
      "name": "isApprovedForAll",
      "outputs": [
        {
          "internalType": "bool",
          "name": "",
          "type": "bool"
        }
      ],
      "stateMutability": "view",
      "type": "function",
      "constant": true
    },
    {
      "inputs": [],
      "name": "name",
      "outputs": [
        {
          "internalType": "string",
          "name": "",
          "type": "string"
        }
      ],
      "stateMutability": "view",
      "type": "function",
      "constant": true
    },
    {
      "inputs": [
        {
          "internalType": "uint256",
          "name": "tokenId",
          "type": "uint256"
        }
      ],
      "name": "ownerOf",
      "outputs": [
        {
          "internalType": "address",
          "name": "",
          "type": "address"
        }
      ],
      "stateMutability": "view",
      "type": "function",
      "constant": true
    },
    {
      "inputs": [],
      "name": "paused",
      "outputs": [
        {
          "internalType": "bool",
          "name": "",
          "type": "bool"
        }
      ],
      "stateMutability": "view",
      "type": "function",
      "constant": true
    },
    {
      "inputs": [
        {
          "internalType": "bytes32",
          "name": "role",
          "type": "bytes32"
        },
        {
          "internalType": "address",
          "name": "account",
          "type": "address"
        }
      ],
      "name": "renounceRole",
      "outputs": [],
      "stateMutability": "nonpayable",
      "type": "function"
    },
    {
      "inputs": [
        {
          "internalType": "bytes32",
          "name": "role",
          "type": "bytes32"
        },
        {
          "internalType": "address",
          "name": "account",
          "type": "address"
        }
      ],
      "name": "revokeRole",
      "outputs": [],
      "stateMutability": "nonpayable",
      "type": "function"
    },
    {
      "inputs": [
        {
          "internalType": "address",
          "name": "from",
          "type": "address"
        },
        {
          "internalType": "address",
          "name": "to",
          "type": "address"
        },
        {
          "internalType": "uint256",
          "name": "tokenId",
          "type": "uint256"
        }
      ],
      "name": "safeTransferFrom",
      "outputs": [],
      "stateMutability": "nonpayable",
      "type": "function"
    },
    {
      "inputs": [
        {
          "internalType": "address",
          "name": "from",
          "type": "address"
        },
        {
          "internalType": "address",
          "name": "to",
          "type": "address"
        },
        {
          "internalType": "uint256",
          "name": "tokenId",
          "type": "uint256"
        },
        {
          "internalType": "bytes",
          "name": "_data",
          "type": "bytes"
        }
      ],
      "name": "safeTransferFrom",
      "outputs": [],
      "stateMutability": "nonpayable",
      "type": "function"
    },
    {
      "inputs": [
        {
          "internalType": "address",
          "name": "operator",
          "type": "address"
        },
        {
          "internalType": "bool",
          "name": "approved",
          "type": "bool"
        }
      ],
      "name": "setApprovalForAll",
      "outputs": [],
      "stateMutability": "nonpayable",
      "type": "function"
    },
    {
      "inputs": [],
      "name": "symbol",
      "outputs": [
        {
          "internalType": "string",
          "name": "",
          "type": "string"
        }
      ],
      "stateMutability": "view",
      "type": "function",
      "constant": true
    },
    {
      "inputs": [
        {
          "internalType": "uint256",
          "name": "index",
          "type": "uint256"
        }
      ],
      "name": "tokenByIndex",
      "outputs": [
        {
          "internalType": "uint256",
          "name": "",
          "type": "uint256"
        }
      ],
      "stateMutability": "view",
      "type": "function",
      "constant": true
    },
    {
      "inputs": [
        {
          "internalType": "address",
          "name": "owner",
          "type": "address"
        },
        {
          "internalType": "uint256",
          "name": "index",
          "type": "uint256"
        }
      ],
      "name": "tokenOfOwnerByIndex",
      "outputs": [
        {
          "internalType": "uint256",
          "name": "",
          "type": "uint256"
        }
      ],
      "stateMutability": "view",
      "type": "function",
      "constant": true
    },
    {
      "inputs": [
        {
          "internalType": "uint256",
          "name": "tokenId",
          "type": "uint256"
        }
      ],
      "name": "tokenURI",
      "outputs": [
        {
          "internalType": "string",
          "name": "",
          "type": "string"
        }
      ],
      "stateMutability": "view",
      "type": "function",
      "constant": true
    },
    {
      "inputs": [],
      "name": "totalSupply",
      "outputs": [
        {
          "internalType": "uint256",
          "name": "",
          "type": "uint256"
        }
      ],
      "stateMutability": "view",
      "type": "function",
      "constant": true
    },
    {
      "inputs": [
        {
          "internalType": "address",
          "name": "from",
          "type": "address"
        },
        {
          "internalType": "address",
          "name": "to",
          "type": "address"
        },
        {
          "internalType": "uint256",
          "name": "tokenId",
          "type": "uint256"
        }
      ],
      "name": "transferFrom",
      "outputs": [],
      "stateMutability": "nonpayable",
      "type": "function"
    },
    {
      "inputs": [
        {
          "internalType": "address",
          "name": "admin",
          "type": "address"
        }
      ],
      "name": "initialize",
      "outputs": [],
      "stateMutability": "nonpayable",
      "type": "function"
    },
    {
      "inputs": [],
      "name": "pause",
      "outputs": [],
      "stateMutability": "nonpayable",
      "type": "function"
    },
    {
      "inputs": [],
      "name": "unpause",
      "outputs": [],
      "stateMutability": "nonpayable",
      "type": "function"
    },
    {
      "inputs": [
        {
          "internalType": "address",
          "name": "to",
          "type": "address"
        }
      ],
      "name": "safeMint",
      "outputs": [],
      "stateMutability": "nonpayable",
      "type": "function"
    },
    {
      "inputs": [
        {
          "internalType": "bytes4",
          "name": "interfaceId",
          "type": "bytes4"
        }
      ],
      "name": "supportsInterface",
      "outputs": [
        {
          "internalType": "bool",
          "name": "",
          "type": "bool"
        }
      ],
      "stateMutability": "view",
      "type": "function",
      "constant": true
    }
  ],
  "bytecode": "0x60806040523480156200001157600080fd5b50600060019054906101000a900460ff166200003c5760008054906101000a900460ff16156200004d565b6200004c6200010960201b60201c565b5b6200008f576040517f08c379a00000000000000000000000000000000000000000000000000000000081526004016200008690620001d1565b60405180910390fd5b60008060019054906101000a900460ff161590508015620000e0576001600060016101000a81548160ff02191690831515021790555060016000806101000a81548160ff0219169083151502179055505b8015620001025760008060016101000a81548160ff0219169083151502179055505b50620001f3565b600062000121306200012760201b6200123d1760201c565b15905090565b6000808273ffffffffffffffffffffffffffffffffffffffff163b119050919050565b600082825260208201905092915050565b7f496e697469616c697a61626c653a20636f6e747261637420697320616c72656160008201527f647920696e697469616c697a6564000000000000000000000000000000000000602082015250565b6000620001b9602e836200014a565b9150620001c6826200015b565b604082019050919050565b60006020820190508181036000830152620001ec81620001aa565b9050919050565b61472780620002036000396000f3fe608060405234801561001057600080fd5b50600436106101da5760003560e01c80635c975abb11610104578063a22cb465116100a2578063d539139311610071578063d539139314610551578063d547741f1461056f578063e63ab1e91461058b578063e985e9c5146105a9576101da565b8063a22cb465146104cd578063b88d4fde146104e9578063c4d66de814610505578063c87b56dd14610521576101da565b80638456cb59116100de5780638456cb591461045757806391d148541461046157806395d89b4114610491578063a217fddf146104af576101da565b80635c975abb146103d95780636352211e146103f757806370a0823114610427576101da565b80632f2ff15d1161017c57806340d097c31161014b57806340d097c31461035557806342842e0e1461037157806342966c681461038d5780634f6ccce7146103a9576101da565b80632f2ff15d146102e35780632f745c59146102ff57806336568abe1461032f5780633f4ba83a1461034b576101da565b8063095ea7b3116101b8578063095ea7b31461025d57806318160ddd1461027957806323b872dd14610297578063248a9ca3146102b3576101da565b806301ffc9a7146101df57806306fdde031461020f578063081812fc1461022d575b600080fd5b6101f960048036038101906101f49190612fa8565b6105d9565b6040516102069190612ff0565b60405180910390f35b6102176105eb565b60405161022491906130a4565b60405180910390f35b610247600480360381019061024291906130fc565b61067d565b604051610254919061316a565b60405180910390f35b610277600480360381019061027291906131b1565b610702565b005b61028161081a565b60405161028e9190613200565b60405180910390f35b6102b160048036038101906102ac919061321b565b610827565b005b6102cd60048036038101906102c891906132a4565b610887565b6040516102da91906132e0565b60405180910390f35b6102fd60048036038101906102f891906132fb565b6108a7565b005b610319600480360381019061031491906131b1565b6108d0565b6040516103269190613200565b60405180910390f35b610349600480360381019061034491906132fb565b610975565b005b6103536109f8565b005b61036f600480360381019061036a919061333b565b610a35565b005b61038b6004803603810190610386919061321b565b610a90565b005b6103a760048036038101906103a291906130fc565b610ab0565b005b6103c360048036038101906103be91906130fc565b610b0c565b6040516103d09190613200565b60405180910390f35b6103e1610b7d565b6040516103ee9190612ff0565b60405180910390f35b610411600480360381019061040c91906130fc565b610b94565b60405161041e919061316a565b60405180910390f35b610441600480360381019061043c919061333b565b610c46565b60405161044e9190613200565b60405180910390f35b61045f610cfe565b005b61047b600480360381019061047691906132fb565b610d3b565b6040516104889190612ff0565b60405180910390f35b610499610da6565b6040516104a691906130a4565b60405180910390f35b6104b7610e38565b6040516104c491906132e0565b60405180910390f35b6104e760048036038101906104e29190613394565b610e3f565b005b61050360048036038101906104fe9190613509565b610e55565b005b61051f600480360381019061051a919061333b565b610eb7565b005b61053b600480360381019061053691906130fc565b611091565b60405161054891906130a4565b60405180910390f35b610559611138565b60405161056691906132e0565b60405180910390f35b610589600480360381019061058491906132fb565b61115c565b005b610593611185565b6040516105a091906132e0565b60405180910390f35b6105c360048036038101906105be919061358c565b6111a9565b6040516105d09190612ff0565b60405180910390f35b60006105e482611260565b9050919050565b6060606580546105fa906135fb565b80601f0160208091040260200160405190810160405280929190818152602001828054610626906135fb565b80156106735780601f1061064857610100808354040283529160200191610673565b820191906000526020600020905b81548152906001019060200180831161065657829003601f168201915b5050505050905090565b6000610688826112da565b6106c7576040517f08c379a00000000000000000000000000000000000000000000000000000000081526004016106be9061369f565b60405180910390fd5b6069600083815260200190815260200160002060009054906101000a900473ffffffffffffffffffffffffffffffffffffffff169050919050565b600061070d82610b94565b90508073ffffffffffffffffffffffffffffffffffffffff168373ffffffffffffffffffffffffffffffffffffffff16141561077e576040517f08c379a000000000000000000000000000000000000000000000000000000000815260040161077590613731565b60405180910390fd5b8073ffffffffffffffffffffffffffffffffffffffff1661079d611346565b73ffffffffffffffffffffffffffffffffffffffff1614806107cc57506107cb816107c6611346565b6111a9565b5b61080b576040517f08c379a0000000000000000000000000000000000000000000000000000000008152600401610802906137c3565b60405180910390fd5b610815838361134e565b505050565b6000609980549050905090565b610838610832611346565b82611407565b610877576040517f08c379a000000000000000000000000000000000000000000000000000000000815260040161086e90613855565b60405180910390fd5b6108828383836114e5565b505050565b600060fb6000838152602001908152602001600020600101549050919050565b6108b082610887565b6108c1816108bc611346565b61174c565b6108cb83836117e9565b505050565b60006108db83610c46565b821061091c576040517f08c379a0000000000000000000000000000000000000000000000000000000008152600401610913906138e7565b60405180910390fd5b609760008473ffffffffffffffffffffffffffffffffffffffff1673ffffffffffffffffffffffffffffffffffffffff168152602001908152602001600020600083815260200190815260200160002054905092915050565b61097d611346565b73ffffffffffffffffffffffffffffffffffffffff168173ffffffffffffffffffffffffffffffffffffffff16146109ea576040517f08c379a00000000000000000000000000000000000000000000000000000000081526004016109e190613979565b60405180910390fd5b6109f482826118ca565b5050565b7f65d7a28e3265b37a6474929f336521b332c1681b933f6cb9f3376673440d862a610a2a81610a25611346565b61174c565b610a326119ac565b50565b7f9f2df0fed2c77648de5860a4cc508cd0818c85b8b8a1ab4ceeef8d981c8956a6610a6781610a62611346565b61174c565b6000610a7461015f611a4e565b9050610a8161015f611a5c565b610a8b8382611a72565b505050565b610aab83838360405180602001604052806000815250610e55565b505050565b610ac1610abb611346565b82611407565b610b00576040517f08c379a0000000000000000000000000000000000000000000000000000000008152600401610af790613a0b565b60405180910390fd5b610b0981611a90565b50565b6000610b1661081a565b8210610b57576040517f08c379a0000000000000000000000000000000000000000000000000000000008152600401610b4e90613a9d565b60405180910390fd5b60998281548110610b6b57610b6a613abd565b5b90600052602060002001549050919050565b600060c960009054906101000a900460ff16905090565b6000806067600084815260200190815260200160002060009054906101000a900473ffffffffffffffffffffffffffffffffffffffff169050600073ffffffffffffffffffffffffffffffffffffffff168173ffffffffffffffffffffffffffffffffffffffff161415610c3d576040517f08c379a0000000000000000000000000000000000000000000000000000000008152600401610c3490613b5e565b60405180910390fd5b80915050919050565b60008073ffffffffffffffffffffffffffffffffffffffff168273ffffffffffffffffffffffffffffffffffffffff161415610cb7576040517f08c379a0000000000000000000000000000000000000000000000000000000008152600401610cae90613bf0565b60405180910390fd5b606860008373ffffffffffffffffffffffffffffffffffffffff1673ffffffffffffffffffffffffffffffffffffffff168152602001908152602001600020549050919050565b7f65d7a28e3265b37a6474929f336521b332c1681b933f6cb9f3376673440d862a610d3081610d2b611346565b61174c565b610d38611bad565b50565b600060fb600084815260200190815260200160002060000160008373ffffffffffffffffffffffffffffffffffffffff1673ffffffffffffffffffffffffffffffffffffffff16815260200190815260200160002060009054906101000a900460ff16905092915050565b606060668054610db5906135fb565b80601f0160208091040260200160405190810160405280929190818152602001828054610de1906135fb565b8015610e2e5780601f10610e0357610100808354040283529160200191610e2e565b820191906000526020600020905b815481529060010190602001808311610e1157829003601f168201915b5050505050905090565b6000801b81565b610e51610e4a611346565b8383611c50565b5050565b610e66610e60611346565b83611407565b610ea5576040517f08c379a0000000000000000000000000000000000000000000000000000000008152600401610e9c90613855565b60405180910390fd5b610eb184848484611dbd565b50505050565b600060019054906101000a900460ff16610edf5760008054906101000a900460ff1615610ee8565b610ee7611e19565b5b610f27576040517f08c379a0000000000000000000000000000000000000000000000000000000008152600401610f1e90613c82565b60405180910390fd5b60008060019054906101000a900460ff161590508015610f77576001600060016101000a81548160ff02191690831515021790555060016000806101000a81548160ff0219169083151502179055505b610feb6040518060400160405280600381526020017f4a424100000000000000000000000000000000000000000000000000000000008152506040518060400160405280600381526020017f4a42410000000000000000000000000000000000000000000000000000000000815250611e2a565b610ff3611e87565b610ffb611ed8565b611003611f31565b61100b611f82565b6110186000801b836117e9565b6110427f65d7a28e3265b37a6474929f336521b332c1681b933f6cb9f3376673440d862a836117e9565b61106c7f9f2df0fed2c77648de5860a4cc508cd0818c85b8b8a1ab4ceeef8d981c8956a6836117e9565b801561108d5760008060016101000a81548160ff0219169083151502179055505b5050565b606061109c826112da565b6110db576040517f08c379a00000000000000000000000000000000000000000000000000000000081526004016110d290613d14565b60405180910390fd5b60006110e5611fd3565b905060008151116111055760405180602001604052806000815250611130565b8061110f84612010565b604051602001611120929190613d70565b6040516020818303038152906040525b915050919050565b7f9f2df0fed2c77648de5860a4cc508cd0818c85b8b8a1ab4ceeef8d981c8956a681565b61116582610887565b61117681611171611346565b61174c565b61118083836118ca565b505050565b7f65d7a28e3265b37a6474929f336521b332c1681b933f6cb9f3376673440d862a81565b6000606a60008473ffffffffffffffffffffffffffffffffffffffff1673ffffffffffffffffffffffffffffffffffffffff16815260200190815260200160002060008373ffffffffffffffffffffffffffffffffffffffff1673ffffffffffffffffffffffffffffffffffffffff16815260200190815260200160002060009054906101000a900460ff16905092915050565b6000808273ffffffffffffffffffffffffffffffffffffffff163b119050919050565b60007f7965db0b000000000000000000000000000000000000000000000000000000007bffffffffffffffffffffffffffffffffffffffffffffffffffffffff1916827bffffffffffffffffffffffffffffffffffffffffffffffffffffffff191614806112d357506112d282612171565b5b9050919050565b60008073ffffffffffffffffffffffffffffffffffffffff166067600084815260200190815260200160002060009054906101000a900473ffffffffffffffffffffffffffffffffffffffff1673ffffffffffffffffffffffffffffffffffffffff1614159050919050565b600033905090565b816069600083815260200190815260200160002060006101000a81548173ffffffffffffffffffffffffffffffffffffffff021916908373ffffffffffffffffffffffffffffffffffffffff160217905550808273ffffffffffffffffffffffffffffffffffffffff166113c183610b94565b73ffffffffffffffffffffffffffffffffffffffff167f8c5be1e5ebec7d5bd14f71427d1e84f3dd0314c0f7b2291e5b200ac8c7c3b92560405160405180910390a45050565b6000611412826112da565b611451576040517f08c379a000000000000000000000000000000000000000000000000000000000815260040161144890613e06565b60405180910390fd5b600061145c83610b94565b90508073ffffffffffffffffffffffffffffffffffffffff168473ffffffffffffffffffffffffffffffffffffffff1614806114cb57508373ffffffffffffffffffffffffffffffffffffffff166114b38461067d565b73ffffffffffffffffffffffffffffffffffffffff16145b806114dc57506114db81856111a9565b5b91505092915050565b8273ffffffffffffffffffffffffffffffffffffffff1661150582610b94565b73ffffffffffffffffffffffffffffffffffffffff161461155b576040517f08c379a000000000000000000000000000000000000000000000000000000000815260040161155290613e98565b60405180910390fd5b600073ffffffffffffffffffffffffffffffffffffffff168273ffffffffffffffffffffffffffffffffffffffff1614156115cb576040517f08c379a00000000000000000000000000000000000000000000000000000000081526004016115c290613f2a565b60405180910390fd5b6115d68383836121eb565b6115e160008261134e565b6001606860008573ffffffffffffffffffffffffffffffffffffffff1673ffffffffffffffffffffffffffffffffffffffff16815260200190815260200160002060008282546116319190613f79565b925050819055506001606860008473ffffffffffffffffffffffffffffffffffffffff1673ffffffffffffffffffffffffffffffffffffffff16815260200190815260200160002060008282546116889190613fad565b92505081905550816067600083815260200190815260200160002060006101000a81548173ffffffffffffffffffffffffffffffffffffffff021916908373ffffffffffffffffffffffffffffffffffffffff160217905550808273ffffffffffffffffffffffffffffffffffffffff168473ffffffffffffffffffffffffffffffffffffffff167fddf252ad1be2c89b69c2b068fc378daa952ba7f163c4a11628f55a4df523b3ef60405160405180910390a4611747838383612243565b505050565b6117568282610d3b565b6117e55761177b8173ffffffffffffffffffffffffffffffffffffffff166014612248565b6117898360001c6020612248565b60405160200161179a92919061409b565b6040516020818303038152906040526040517f08c379a00000000000000000000000000000000000000000000000000000000081526004016117dc91906130a4565b60405180910390fd5b5050565b6117f38282610d3b565b6118c657600160fb600084815260200190815260200160002060000160008373ffffffffffffffffffffffffffffffffffffffff1673ffffffffffffffffffffffffffffffffffffffff16815260200190815260200160002060006101000a81548160ff02191690831515021790555061186b611346565b73ffffffffffffffffffffffffffffffffffffffff168173ffffffffffffffffffffffffffffffffffffffff16837f2f8788117e7eff1d82e926ec794901d17c78024a50270940304540a733656f0d60405160405180910390a45b5050565b6118d48282610d3b565b156119a857600060fb600084815260200190815260200160002060000160008373ffffffffffffffffffffffffffffffffffffffff1673ffffffffffffffffffffffffffffffffffffffff16815260200190815260200160002060006101000a81548160ff02191690831515021790555061194d611346565b73ffffffffffffffffffffffffffffffffffffffff168173ffffffffffffffffffffffffffffffffffffffff16837ff6391f5c32d9c69d2a47ea670b442974b53935d1edc7fd64eb21e047a839171b60405160405180910390a45b5050565b6119b4610b7d565b6119f3576040517f08c379a00000000000000000000000000000000000000000000000000000000081526004016119ea90614121565b60405180910390fd5b600060c960006101000a81548160ff0219169083151502179055507f5db9ee0a495bf2e6ff9c91a7834c1ba4fdd244a5e8aa4e537bd38aeae4b073aa611a37611346565b604051611a44919061316a565b60405180910390a1565b600081600001549050919050565b6001816000016000828254019250508190555050565b611a8c828260405180602001604052806000815250612484565b5050565b6000611a9b82610b94565b9050611aa9816000846121eb565b611ab460008361134e565b6001606860008373ffffffffffffffffffffffffffffffffffffffff1673ffffffffffffffffffffffffffffffffffffffff1681526020019081526020016000206000828254611b049190613f79565b925050819055506067600083815260200190815260200160002060006101000a81549073ffffffffffffffffffffffffffffffffffffffff021916905581600073ffffffffffffffffffffffffffffffffffffffff168273ffffffffffffffffffffffffffffffffffffffff167fddf252ad1be2c89b69c2b068fc378daa952ba7f163c4a11628f55a4df523b3ef60405160405180910390a4611ba981600084612243565b5050565b611bb5610b7d565b15611bf5576040517f08c379a0000000000000000000000000000000000000000000000000000000008152600401611bec9061418d565b60405180910390fd5b600160c960006101000a81548160ff0219169083151502179055507f62e78cea01bee320cd4e420270b5ea74000d11b0c9f74754ebdbfc544b05a258611c39611346565b604051611c46919061316a565b60405180910390a1565b8173ffffffffffffffffffffffffffffffffffffffff168373ffffffffffffffffffffffffffffffffffffffff161415611cbf576040517f08c379a0000000000000000000000000000000000000000000000000000000008152600401611cb6906141f9565b60405180910390fd5b80606a60008573ffffffffffffffffffffffffffffffffffffffff1673ffffffffffffffffffffffffffffffffffffffff16815260200190815260200160002060008473ffffffffffffffffffffffffffffffffffffffff1673ffffffffffffffffffffffffffffffffffffffff16815260200190815260200160002060006101000a81548160ff0219169083151502179055508173ffffffffffffffffffffffffffffffffffffffff168373ffffffffffffffffffffffffffffffffffffffff167f17307eab39ab6107e8899845ad3d59bd9653f200f220920489ca2b5937696c3183604051611db09190612ff0565b60405180910390a3505050565b611dc88484846114e5565b611dd4848484846124df565b611e13576040517f08c379a0000000000000000000000000000000000000000000000000000000008152600401611e0a9061428b565b60405180910390fd5b50505050565b6000611e243061123d565b15905090565b600060019054906101000a900460ff16611e79576040517f08c379a0000000000000000000000000000000000000000000000000000000008152600401611e709061431d565b60405180910390fd5b611e838282612667565b5050565b600060019054906101000a900460ff16611ed6576040517f08c379a0000000000000000000000000000000000000000000000000000000008152600401611ecd9061431d565b60405180910390fd5b565b600060019054906101000a900460ff16611f27576040517f08c379a0000000000000000000000000000000000000000000000000000000008152600401611f1e9061431d565b60405180910390fd5b611f2f6126e8565b565b600060019054906101000a900460ff16611f80576040517f08c379a0000000000000000000000000000000000000000000000000000000008152600401611f779061431d565b60405180910390fd5b565b600060019054906101000a900460ff16611fd1576040517f08c379a0000000000000000000000000000000000000000000000000000000008152600401611fc89061431d565b60405180910390fd5b565b60606040518060400160405280601781526020017f68747470733a2f2f6a62612e76657263656c2e6170702f000000000000000000815250905090565b60606000821415612058576040518060400160405280600181526020017f3000000000000000000000000000000000000000000000000000000000000000815250905061216c565b600082905060005b6000821461208a5780806120739061433d565b915050600a8261208391906143b5565b9150612060565b60008167ffffffffffffffff8111156120a6576120a56133de565b5b6040519080825280601f01601f1916602001820160405280156120d85781602001600182028036833780820191505090505b5090505b60008514612165576001826120f19190613f79565b9150600a8561210091906143e6565b603061210c9190613fad565b60f81b81838151811061212257612121613abd565b5b60200101907effffffffffffffffffffffffffffffffffffffffffffffffffffffffffffff1916908160001a905350600a8561215e91906143b5565b94506120dc565b8093505050505b919050565b60007f780e9d63000000000000000000000000000000000000000000000000000000007bffffffffffffffffffffffffffffffffffffffffffffffffffffffff1916827bffffffffffffffffffffffffffffffffffffffffffffffffffffffff191614806121e457506121e382612754565b5b9050919050565b6121f3610b7d565b15612233576040517f08c379a000000000000000000000000000000000000000000000000000000000815260040161222a9061418d565b60405180910390fd5b61223e838383612836565b505050565b505050565b60606000600283600261225b9190614417565b6122659190613fad565b67ffffffffffffffff81111561227e5761227d6133de565b5b6040519080825280601f01601f1916602001820160405280156122b05781602001600182028036833780820191505090505b5090507f3000000000000000000000000000000000000000000000000000000000000000816000815181106122e8576122e7613abd565b5b60200101907effffffffffffffffffffffffffffffffffffffffffffffffffffffffffffff1916908160001a9053507f78000000000000000000000000000000000000000000000000000000000000008160018151811061234c5761234b613abd565b5b60200101907effffffffffffffffffffffffffffffffffffffffffffffffffffffffffffff1916908160001a9053506000600184600261238c9190614417565b6123969190613fad565b90505b6001811115612436577f3031323334353637383961626364656600000000000000000000000000000000600f8616601081106123d8576123d7613abd565b5b1a60f81b8282815181106123ef576123ee613abd565b5b60200101907effffffffffffffffffffffffffffffffffffffffffffffffffffffffffffff1916908160001a905350600485901c94508061242f90614471565b9050612399565b506000841461247a576040517f08c379a0000000000000000000000000000000000000000000000000000000008152600401612471906144e7565b60405180910390fd5b8091505092915050565b61248e838361294a565b61249b60008484846124df565b6124da576040517f08c379a00000000000000000000000000000000000000000000000000000000081526004016124d19061428b565b60405180910390fd5b505050565b60006125008473ffffffffffffffffffffffffffffffffffffffff1661123d565b1561265a578373ffffffffffffffffffffffffffffffffffffffff1663150b7a02612529611346565b8786866040518563ffffffff1660e01b815260040161254b949392919061455c565b6020604051808303816000875af192505050801561258757506040513d601f19601f8201168201806040525081019061258491906145bd565b60015b61260a573d80600081146125b7576040519150601f19603f3d011682016040523d82523d6000602084013e6125bc565b606091505b50600081511415612602576040517f08c379a00000000000000000000000000000000000000000000000000000000081526004016125f99061428b565b60405180910390fd5b805181602001fd5b63150b7a0260e01b7bffffffffffffffffffffffffffffffffffffffffffffffffffffffff1916817bffffffffffffffffffffffffffffffffffffffffffffffffffffffff19161491505061265f565b600190505b949350505050565b600060019054906101000a900460ff166126b6576040517f08c379a00000000000000000000000000000000000000000000000000000000081526004016126ad9061431d565b60405180910390fd5b81606590805190602001906126cc929190612e99565b5080606690805190602001906126e3929190612e99565b505050565b600060019054906101000a900460ff16612737576040517f08c379a000000000000000000000000000000000000000000000000000000000815260040161272e9061431d565b60405180910390fd5b600060c960006101000a81548160ff021916908315150217905550565b60007f80ac58cd000000000000000000000000000000000000000000000000000000007bffffffffffffffffffffffffffffffffffffffffffffffffffffffff1916827bffffffffffffffffffffffffffffffffffffffffffffffffffffffff1916148061281f57507f5b5e139f000000000000000000000000000000000000000000000000000000007bffffffffffffffffffffffffffffffffffffffffffffffffffffffff1916827bffffffffffffffffffffffffffffffffffffffffffffffffffffffff1916145b8061282f575061282e82612b24565b5b9050919050565b612841838383612b8e565b600073ffffffffffffffffffffffffffffffffffffffff168373ffffffffffffffffffffffffffffffffffffffff1614156128845761287f81612b93565b6128c3565b8173ffffffffffffffffffffffffffffffffffffffff168373ffffffffffffffffffffffffffffffffffffffff16146128c2576128c18382612bdc565b5b5b600073ffffffffffffffffffffffffffffffffffffffff168273ffffffffffffffffffffffffffffffffffffffff1614156129065761290181612d49565b612945565b8273ffffffffffffffffffffffffffffffffffffffff168273ffffffffffffffffffffffffffffffffffffffff1614612944576129438282612e1a565b5b5b505050565b600073ffffffffffffffffffffffffffffffffffffffff168273ffffffffffffffffffffffffffffffffffffffff1614156129ba576040517f08c379a00000000000000000000000000000000000000000000000000000000081526004016129b190614636565b60405180910390fd5b6129c3816112da565b15612a03576040517f08c379a00000000000000000000000000000000000000000000000000000000081526004016129fa906146a2565b60405180910390fd5b612a0f600083836121eb565b6001606860008473ffffffffffffffffffffffffffffffffffffffff1673ffffffffffffffffffffffffffffffffffffffff1681526020019081526020016000206000828254612a5f9190613fad565b92505081905550816067600083815260200190815260200160002060006101000a81548173ffffffffffffffffffffffffffffffffffffffff021916908373ffffffffffffffffffffffffffffffffffffffff160217905550808273ffffffffffffffffffffffffffffffffffffffff16600073ffffffffffffffffffffffffffffffffffffffff167fddf252ad1be2c89b69c2b068fc378daa952ba7f163c4a11628f55a4df523b3ef60405160405180910390a4612b2060008383612243565b5050565b60007f01ffc9a7000000000000000000000000000000000000000000000000000000007bffffffffffffffffffffffffffffffffffffffffffffffffffffffff1916827bffffffffffffffffffffffffffffffffffffffffffffffffffffffff1916149050919050565b505050565b609980549050609a600083815260200190815260200160002081905550609981908060018154018082558091505060019003906000526020600020016000909190919091505550565b60006001612be984610c46565b612bf39190613f79565b9050600060986000848152602001908152602001600020549050818114612cd8576000609760008673ffffffffffffffffffffffffffffffffffffffff1673ffffffffffffffffffffffffffffffffffffffff168152602001908152602001600020600084815260200190815260200160002054905080609760008773ffffffffffffffffffffffffffffffffffffffff1673ffffffffffffffffffffffffffffffffffffffff168152602001908152602001600020600084815260200190815260200160002081905550816098600083815260200190815260200160002081905550505b6098600084815260200190815260200160002060009055609760008573ffffffffffffffffffffffffffffffffffffffff1673ffffffffffffffffffffffffffffffffffffffff16815260200190815260200160002060008381526020019081526020016000206000905550505050565b60006001609980549050612d5d9190613f79565b90506000609a6000848152602001908152602001600020549050600060998381548110612d8d57612d8c613abd565b5b906000526020600020015490508060998381548110612daf57612dae613abd565b5b906000526020600020018190555081609a600083815260200190815260200160002081905550609a6000858152602001908152602001600020600090556099805480612dfe57612dfd6146c2565b5b6001900381819060005260206000200160009055905550505050565b6000612e2583610c46565b905081609760008573ffffffffffffffffffffffffffffffffffffffff1673ffffffffffffffffffffffffffffffffffffffff168152602001908152602001600020600083815260200190815260200160002081905550806098600084815260200190815260200160002081905550505050565b828054612ea5906135fb565b90600052602060002090601f016020900481019282612ec75760008555612f0e565b82601f10612ee057805160ff1916838001178555612f0e565b82800160010185558215612f0e579182015b82811115612f0d578251825591602001919060010190612ef2565b5b509050612f1b9190612f1f565b5090565b5b80821115612f38576000816000905550600101612f20565b5090565b6000604051905090565b600080fd5b600080fd5b60007fffffffff0000000000000000000000000000000000000000000000000000000082169050919050565b612f8581612f50565b8114612f9057600080fd5b50565b600081359050612fa281612f7c565b92915050565b600060208284031215612fbe57612fbd612f46565b5b6000612fcc84828501612f93565b91505092915050565b60008115159050919050565b612fea81612fd5565b82525050565b60006020820190506130056000830184612fe1565b92915050565b600081519050919050565b600082825260208201905092915050565b60005b8381101561304557808201518184015260208101905061302a565b83811115613054576000848401525b50505050565b6000601f19601f8301169050919050565b60006130768261300b565b6130808185613016565b9350613090818560208601613027565b6130998161305a565b840191505092915050565b600060208201905081810360008301526130be818461306b565b905092915050565b6000819050919050565b6130d9816130c6565b81146130e457600080fd5b50565b6000813590506130f6816130d0565b92915050565b60006020828403121561311257613111612f46565b5b6000613120848285016130e7565b91505092915050565b600073ffffffffffffffffffffffffffffffffffffffff82169050919050565b600061315482613129565b9050919050565b61316481613149565b82525050565b600060208201905061317f600083018461315b565b92915050565b61318e81613149565b811461319957600080fd5b50565b6000813590506131ab81613185565b92915050565b600080604083850312156131c8576131c7612f46565b5b60006131d68582860161319c565b92505060206131e7858286016130e7565b9150509250929050565b6131fa816130c6565b82525050565b600060208201905061321560008301846131f1565b92915050565b60008060006060848603121561323457613233612f46565b5b60006132428682870161319c565b93505060206132538682870161319c565b9250506040613264868287016130e7565b9150509250925092565b6000819050919050565b6132818161326e565b811461328c57600080fd5b50565b60008135905061329e81613278565b92915050565b6000602082840312156132ba576132b9612f46565b5b60006132c88482850161328f565b91505092915050565b6132da8161326e565b82525050565b60006020820190506132f560008301846132d1565b92915050565b6000806040838503121561331257613311612f46565b5b60006133208582860161328f565b92505060206133318582860161319c565b9150509250929050565b60006020828403121561335157613350612f46565b5b600061335f8482850161319c565b91505092915050565b61337181612fd5565b811461337c57600080fd5b50565b60008135905061338e81613368565b92915050565b600080604083850312156133ab576133aa612f46565b5b60006133b98582860161319c565b92505060206133ca8582860161337f565b9150509250929050565b600080fd5b600080fd5b7f4e487b7100000000000000000000000000000000000000000000000000000000600052604160045260246000fd5b6134168261305a565b810181811067ffffffffffffffff82111715613435576134346133de565b5b80604052505050565b6000613448612f3c565b9050613454828261340d565b919050565b600067ffffffffffffffff821115613474576134736133de565b5b61347d8261305a565b9050602081019050919050565b82818337600083830152505050565b60006134ac6134a784613459565b61343e565b9050828152602081018484840111156134c8576134c76133d9565b5b6134d384828561348a565b509392505050565b600082601f8301126134f0576134ef6133d4565b5b8135613500848260208601613499565b91505092915050565b6000806000806080858703121561352357613522612f46565b5b60006135318782880161319c565b94505060206135428782880161319c565b9350506040613553878288016130e7565b925050606085013567ffffffffffffffff81111561357457613573612f4b565b5b613580878288016134db565b91505092959194509250565b600080604083850312156135a3576135a2612f46565b5b60006135b18582860161319c565b92505060206135c28582860161319c565b9150509250929050565b7f4e487b7100000000000000000000000000000000000000000000000000000000600052602260045260246000fd5b6000600282049050600182168061361357607f821691505b60208210811415613627576136266135cc565b5b50919050565b7f4552433732313a20617070726f76656420717565727920666f72206e6f6e657860008201527f697374656e7420746f6b656e0000000000000000000000000000000000000000602082015250565b6000613689602c83613016565b91506136948261362d565b604082019050919050565b600060208201905081810360008301526136b88161367c565b9050919050565b7f4552433732313a20617070726f76616c20746f2063757272656e74206f776e6560008201527f7200000000000000000000000000000000000000000000000000000000000000602082015250565b600061371b602183613016565b9150613726826136bf565b604082019050919050565b6000602082019050818103600083015261374a8161370e565b9050919050565b7f4552433732313a20617070726f76652063616c6c6572206973206e6f74206f7760008201527f6e6572206e6f7220617070726f76656420666f7220616c6c0000000000000000602082015250565b60006137ad603883613016565b91506137b882613751565b604082019050919050565b600060208201905081810360008301526137dc816137a0565b9050919050565b7f4552433732313a207472616e736665722063616c6c6572206973206e6f74206f60008201527f776e6572206e6f7220617070726f766564000000000000000000000000000000602082015250565b600061383f603183613016565b915061384a826137e3565b604082019050919050565b6000602082019050818103600083015261386e81613832565b9050919050565b7f455243373231456e756d657261626c653a206f776e657220696e646578206f7560008201527f74206f6620626f756e6473000000000000000000000000000000000000000000602082015250565b60006138d1602b83613016565b91506138dc82613875565b604082019050919050565b60006020820190508181036000830152613900816138c4565b9050919050565b7f416363657373436f6e74726f6c3a2063616e206f6e6c792072656e6f756e636560008201527f20726f6c657320666f722073656c660000000000000000000000000000000000602082015250565b6000613963602f83613016565b915061396e82613907565b604082019050919050565b6000602082019050818103600083015261399281613956565b9050919050565b7f4552433732314275726e61626c653a2063616c6c6572206973206e6f74206f7760008201527f6e6572206e6f7220617070726f76656400000000000000000000000000000000602082015250565b60006139f5603083613016565b9150613a0082613999565b604082019050919050565b60006020820190508181036000830152613a24816139e8565b9050919050565b7f455243373231456e756d657261626c653a20676c6f62616c20696e646578206f60008201527f7574206f6620626f756e64730000000000000000000000000000000000000000602082015250565b6000613a87602c83613016565b9150613a9282613a2b565b604082019050919050565b60006020820190508181036000830152613ab681613a7a565b9050919050565b7f4e487b7100000000000000000000000000000000000000000000000000000000600052603260045260246000fd5b7f4552433732313a206f776e657220717565727920666f72206e6f6e657869737460008201527f656e7420746f6b656e0000000000000000000000000000000000000000000000602082015250565b6000613b48602983613016565b9150613b5382613aec565b604082019050919050565b60006020820190508181036000830152613b7781613b3b565b9050919050565b7f4552433732313a2062616c616e636520717565727920666f7220746865207a6560008201527f726f206164647265737300000000000000000000000000000000000000000000602082015250565b6000613bda602a83613016565b9150613be582613b7e565b604082019050919050565b60006020820190508181036000830152613c0981613bcd565b9050919050565b7f496e697469616c697a61626c653a20636f6e747261637420697320616c72656160008201527f647920696e697469616c697a6564000000000000000000000000000000000000602082015250565b6000613c6c602e83613016565b9150613c7782613c10565b604082019050919050565b60006020820190508181036000830152613c9b81613c5f565b9050919050565b7f4552433732314d657461646174613a2055524920717565727920666f72206e6f60008201527f6e6578697374656e7420746f6b656e0000000000000000000000000000000000602082015250565b6000613cfe602f83613016565b9150613d0982613ca2565b604082019050919050565b60006020820190508181036000830152613d2d81613cf1565b9050919050565b600081905092915050565b6000613d4a8261300b565b613d548185613d34565b9350613d64818560208601613027565b80840191505092915050565b6000613d7c8285613d3f565b9150613d888284613d3f565b91508190509392505050565b7f4552433732313a206f70657261746f7220717565727920666f72206e6f6e657860008201527f697374656e7420746f6b656e0000000000000000000000000000000000000000602082015250565b6000613df0602c83613016565b9150613dfb82613d94565b604082019050919050565b60006020820190508181036000830152613e1f81613de3565b9050919050565b7f4552433732313a207472616e736665722066726f6d20696e636f72726563742060008201527f6f776e6572000000000000000000000000000000000000000000000000000000602082015250565b6000613e82602583613016565b9150613e8d82613e26565b604082019050919050565b60006020820190508181036000830152613eb181613e75565b9050919050565b7f4552433732313a207472616e7366657220746f20746865207a65726f2061646460008201527f7265737300000000000000000000000000000000000000000000000000000000602082015250565b6000613f14602483613016565b9150613f1f82613eb8565b604082019050919050565b60006020820190508181036000830152613f4381613f07565b9050919050565b7f4e487b7100000000000000000000000000000000000000000000000000000000600052601160045260246000fd5b6000613f84826130c6565b9150613f8f836130c6565b925082821015613fa257613fa1613f4a565b5b828203905092915050565b6000613fb8826130c6565b9150613fc3836130c6565b9250827fffffffffffffffffffffffffffffffffffffffffffffffffffffffffffffffff03821115613ff857613ff7613f4a565b5b828201905092915050565b7f416363657373436f6e74726f6c3a206163636f756e7420000000000000000000600082015250565b6000614039601783613d34565b915061404482614003565b601782019050919050565b7f206973206d697373696e6720726f6c6520000000000000000000000000000000600082015250565b6000614085601183613d34565b91506140908261404f565b601182019050919050565b60006140a68261402c565b91506140b28285613d3f565b91506140bd82614078565b91506140c98284613d3f565b91508190509392505050565b7f5061757361626c653a206e6f7420706175736564000000000000000000000000600082015250565b600061410b601483613016565b9150614116826140d5565b602082019050919050565b6000602082019050818103600083015261413a816140fe565b9050919050565b7f5061757361626c653a2070617573656400000000000000000000000000000000600082015250565b6000614177601083613016565b915061418282614141565b602082019050919050565b600060208201905081810360008301526141a68161416a565b9050919050565b7f4552433732313a20617070726f766520746f2063616c6c657200000000000000600082015250565b60006141e3601983613016565b91506141ee826141ad565b602082019050919050565b60006020820190508181036000830152614212816141d6565b9050919050565b7f4552433732313a207472616e7366657220746f206e6f6e20455243373231526560008201527f63656976657220696d706c656d656e7465720000000000000000000000000000602082015250565b6000614275603283613016565b915061428082614219565b604082019050919050565b600060208201905081810360008301526142a481614268565b9050919050565b7f496e697469616c697a61626c653a20636f6e7472616374206973206e6f74206960008201527f6e697469616c697a696e67000000000000000000000000000000000000000000602082015250565b6000614307602b83613016565b9150614312826142ab565b604082019050919050565b60006020820190508181036000830152614336816142fa565b9050919050565b6000614348826130c6565b91507fffffffffffffffffffffffffffffffffffffffffffffffffffffffffffffffff82141561437b5761437a613f4a565b5b600182019050919050565b7f4e487b7100000000000000000000000000000000000000000000000000000000600052601260045260246000fd5b60006143c0826130c6565b91506143cb836130c6565b9250826143db576143da614386565b5b828204905092915050565b60006143f1826130c6565b91506143fc836130c6565b92508261440c5761440b614386565b5b828206905092915050565b6000614422826130c6565b915061442d836130c6565b9250817fffffffffffffffffffffffffffffffffffffffffffffffffffffffffffffffff048311821515161561446657614465613f4a565b5b828202905092915050565b600061447c826130c6565b915060008214156144905761448f613f4a565b5b600182039050919050565b7f537472696e67733a20686578206c656e67746820696e73756666696369656e74600082015250565b60006144d1602083613016565b91506144dc8261449b565b602082019050919050565b60006020820190508181036000830152614500816144c4565b9050919050565b600081519050919050565b600082825260208201905092915050565b600061452e82614507565b6145388185614512565b9350614548818560208601613027565b6145518161305a565b840191505092915050565b6000608082019050614571600083018761315b565b61457e602083018661315b565b61458b60408301856131f1565b818103606083015261459d8184614523565b905095945050505050565b6000815190506145b781612f7c565b92915050565b6000602082840312156145d3576145d2612f46565b5b60006145e1848285016145a8565b91505092915050565b7f4552433732313a206d696e7420746f20746865207a65726f2061646472657373600082015250565b6000614620602083613016565b915061462b826145ea565b602082019050919050565b6000602082019050818103600083015261464f81614613565b9050919050565b7f4552433732313a20746f6b656e20616c7265616479206d696e74656400000000600082015250565b600061468c601c83613016565b915061469782614656565b602082019050919050565b600060208201905081810360008301526146bb8161467f565b9050919050565b7f4e487b7100000000000000000000000000000000000000000000000000000000600052603160045260246000fdfea2646970667358221220e5bd014d3b7abe86ad403c3f0cd58c1b90758e2fc6fff7fc4ac83d3964b0345f64736f6c634300080b0033",
  "immutableReferences": {},
  "source": "// SPDX-License-Identifier: MIT\npragma solidity ^0.8.4;\n\nimport \"@openzeppelin/contracts-upgradeable/token/ERC721/ERC721Upgradeable.sol\";\nimport \"@openzeppelin/contracts-upgradeable/token/ERC721/extensions/ERC721EnumerableUpgradeable.sol\";\nimport \"@openzeppelin/contracts-upgradeable/security/PausableUpgradeable.sol\";\nimport \"@openzeppelin/contracts-upgradeable/access/AccessControlUpgradeable.sol\";\nimport \"@openzeppelin/contracts-upgradeable/token/ERC721/extensions/ERC721BurnableUpgradeable.sol\";\nimport \"@openzeppelin/contracts-upgradeable/proxy/utils/Initializable.sol\";\nimport \"@openzeppelin/contracts-upgradeable/utils/CountersUpgradeable.sol\";\n\ncontract JBA is Initializable, ERC721Upgradeable, ERC721EnumerableUpgradeable, PausableUpgradeable, AccessControlUpgradeable, ERC721BurnableUpgradeable {\n    using CountersUpgradeable for CountersUpgradeable.Counter;\n\n    bytes32 public constant PAUSER_ROLE = keccak256(\"PAUSER_ROLE\");\n    bytes32 public constant MINTER_ROLE = keccak256(\"MINTER_ROLE\");\n    CountersUpgradeable.Counter private _tokenIdCounter;\n\n    /// @custom:oz-upgrades-unsafe-allow constructor\n    constructor() initializer {}\n\n    function initialize(address admin) initializer public {\n        __ERC721_init(\"JBA\", \"JBA\");\n        __ERC721Enumerable_init();\n        __Pausable_init();\n        __AccessControl_init();\n        __ERC721Burnable_init();\n\n        _grantRole(DEFAULT_ADMIN_ROLE, admin);\n        _grantRole(PAUSER_ROLE, admin);\n        _grantRole(MINTER_ROLE, admin);\n    }\n\n    function _baseURI() internal pure override returns (string memory) {\n        return \"https://jba.vercel.app/\";\n    }\n\n    function pause() public onlyRole(PAUSER_ROLE) {\n        _pause();\n    }\n\n    function unpause() public onlyRole(PAUSER_ROLE) {\n        _unpause();\n    }\n\n    function safeMint(address to) public onlyRole(MINTER_ROLE) {\n        uint256 tokenId = _tokenIdCounter.current();\n        _tokenIdCounter.increment();\n        _safeMint(to, tokenId);\n    }\n\n    function _beforeTokenTransfer(address from, address to, uint256 tokenId)\n        internal\n        whenNotPaused\n        override(ERC721Upgradeable, ERC721EnumerableUpgradeable)\n    {\n        super._beforeTokenTransfer(from, to, tokenId);\n    }\n\n    // The following functions are overrides required by Solidity.\n\n    function supportsInterface(bytes4 interfaceId)\n        public\n        view\n        override(ERC721Upgradeable, ERC721EnumerableUpgradeable, AccessControlUpgradeable)\n        returns (bool)\n    {\n        return super.supportsInterface(interfaceId);\n    }\n}\n",
  "sourcePath": "/home/hungdevjs/Documents/blockchain-tuts/smart-contract-react/truffle/contracts/JBA.sol",
  "compiler": {
    "name": "solc",
    "version": "0.8.11+commit.d7f03943.Emscripten.clang"
  },
  "schemaVersion": "3.4.5",
  "updatedAt": "2022-02-23T16:12:24.511Z",
  "networkType": "ethereum",
  "devdoc": {
    "kind": "dev",
    "methods": {
      "approve(address,uint256)": {
        "details": "See {IERC721-approve}."
      },
      "balanceOf(address)": {
        "details": "See {IERC721-balanceOf}."
      },
      "burn(uint256)": {
        "details": "Burns `tokenId`. See {ERC721-_burn}. Requirements: - The caller must own `tokenId` or be an approved operator."
      },
      "constructor": {
        "custom:oz-upgrades-unsafe-allow": "constructor"
      },
      "getApproved(uint256)": {
        "details": "See {IERC721-getApproved}."
      },
      "getRoleAdmin(bytes32)": {
        "details": "Returns the admin role that controls `role`. See {grantRole} and {revokeRole}. To change a role's admin, use {_setRoleAdmin}."
      },
      "grantRole(bytes32,address)": {
        "details": "Grants `role` to `account`. If `account` had not been already granted `role`, emits a {RoleGranted} event. Requirements: - the caller must have ``role``'s admin role."
      },
      "hasRole(bytes32,address)": {
        "details": "Returns `true` if `account` has been granted `role`."
      },
      "isApprovedForAll(address,address)": {
        "details": "See {IERC721-isApprovedForAll}."
      },
      "name()": {
        "details": "See {IERC721Metadata-name}."
      },
      "ownerOf(uint256)": {
        "details": "See {IERC721-ownerOf}."
      },
      "paused()": {
        "details": "Returns true if the contract is paused, and false otherwise."
      },
      "renounceRole(bytes32,address)": {
        "details": "Revokes `role` from the calling account. Roles are often managed via {grantRole} and {revokeRole}: this function's purpose is to provide a mechanism for accounts to lose their privileges if they are compromised (such as when a trusted device is misplaced). If the calling account had been revoked `role`, emits a {RoleRevoked} event. Requirements: - the caller must be `account`."
      },
      "revokeRole(bytes32,address)": {
        "details": "Revokes `role` from `account`. If `account` had been granted `role`, emits a {RoleRevoked} event. Requirements: - the caller must have ``role``'s admin role."
      },
      "safeTransferFrom(address,address,uint256)": {
        "details": "See {IERC721-safeTransferFrom}."
      },
      "safeTransferFrom(address,address,uint256,bytes)": {
        "details": "See {IERC721-safeTransferFrom}."
      },
      "setApprovalForAll(address,bool)": {
        "details": "See {IERC721-setApprovalForAll}."
      },
      "symbol()": {
        "details": "See {IERC721Metadata-symbol}."
      },
      "tokenByIndex(uint256)": {
        "details": "See {IERC721Enumerable-tokenByIndex}."
      },
      "tokenOfOwnerByIndex(address,uint256)": {
        "details": "See {IERC721Enumerable-tokenOfOwnerByIndex}."
      },
      "tokenURI(uint256)": {
        "details": "See {IERC721Metadata-tokenURI}."
      },
      "totalSupply()": {
        "details": "See {IERC721Enumerable-totalSupply}."
      },
      "transferFrom(address,address,uint256)": {
        "details": "See {IERC721-transferFrom}."
      }
    },
    "version": 1
  },
  "userdoc": {
    "kind": "user",
    "methods": {},
    "version": 1
  }
}