{
  "contractName": "JBA",
  "abi": [
    {
      "inputs": [],
      "stateMutability": "nonpayable",
      "type": "constructor"
    },
    {
      "anonymous": false,
      "inputs": [
        {
          "indexed": true,
          "internalType": "address",
          "name": "owner",
          "type": "address"
        },
        {
          "indexed": true,
          "internalType": "address",
          "name": "approved",
          "type": "address"
        },
        {
          "indexed": true,
          "internalType": "uint256",
          "name": "tokenId",
          "type": "uint256"
        }
      ],
      "name": "Approval",
      "type": "event"
    },
    {
      "anonymous": false,
      "inputs": [
        {
          "indexed": true,
          "internalType": "address",
          "name": "owner",
          "type": "address"
        },
        {
          "indexed": true,
          "internalType": "address",
          "name": "operator",
          "type": "address"
        },
        {
          "indexed": false,
          "internalType": "bool",
          "name": "approved",
          "type": "bool"
        }
      ],
      "name": "ApprovalForAll",
      "type": "event"
    },
    {
      "anonymous": false,
      "inputs": [
        {
          "indexed": false,
          "internalType": "address",
          "name": "account",
          "type": "address"
        }
      ],
      "name": "Paused",
      "type": "event"
    },
    {
      "anonymous": false,
      "inputs": [
        {
          "indexed": true,
          "internalType": "bytes32",
          "name": "role",
          "type": "bytes32"
        },
        {
          "indexed": true,
          "internalType": "bytes32",
          "name": "previousAdminRole",
          "type": "bytes32"
        },
        {
          "indexed": true,
          "internalType": "bytes32",
          "name": "newAdminRole",
          "type": "bytes32"
        }
      ],
      "name": "RoleAdminChanged",
      "type": "event"
    },
    {
      "anonymous": false,
      "inputs": [
        {
          "indexed": true,
          "internalType": "bytes32",
          "name": "role",
          "type": "bytes32"
        },
        {
          "indexed": true,
          "internalType": "address",
          "name": "account",
          "type": "address"
        },
        {
          "indexed": true,
          "internalType": "address",
          "name": "sender",
          "type": "address"
        }
      ],
      "name": "RoleGranted",
      "type": "event"
    },
    {
      "anonymous": false,
      "inputs": [
        {
          "indexed": true,
          "internalType": "bytes32",
          "name": "role",
          "type": "bytes32"
        },
        {
          "indexed": true,
          "internalType": "address",
          "name": "account",
          "type": "address"
        },
        {
          "indexed": true,
          "internalType": "address",
          "name": "sender",
          "type": "address"
        }
      ],
      "name": "RoleRevoked",
      "type": "event"
    },
    {
      "anonymous": false,
      "inputs": [
        {
          "indexed": true,
          "internalType": "address",
          "name": "from",
          "type": "address"
        },
        {
          "indexed": true,
          "internalType": "address",
          "name": "to",
          "type": "address"
        },
        {
          "indexed": true,
          "internalType": "uint256",
          "name": "tokenId",
          "type": "uint256"
        }
      ],
      "name": "Transfer",
      "type": "event"
    },
    {
      "anonymous": false,
      "inputs": [
        {
          "indexed": false,
          "internalType": "address",
          "name": "account",
          "type": "address"
        }
      ],
      "name": "Unpaused",
      "type": "event"
    },
    {
      "inputs": [],
      "name": "DEFAULT_ADMIN_ROLE",
      "outputs": [
        {
          "internalType": "bytes32",
          "name": "",
          "type": "bytes32"
        }
      ],
      "stateMutability": "view",
      "type": "function",
      "constant": true
    },
    {
      "inputs": [],
      "name": "MINTER_ROLE",
      "outputs": [
        {
          "internalType": "bytes32",
          "name": "",
          "type": "bytes32"
        }
      ],
      "stateMutability": "view",
      "type": "function",
      "constant": true
    },
    {
      "inputs": [],
      "name": "PAUSER_ROLE",
      "outputs": [
        {
          "internalType": "bytes32",
          "name": "",
          "type": "bytes32"
        }
      ],
      "stateMutability": "view",
      "type": "function",
      "constant": true
    },
    {
      "inputs": [
        {
          "internalType": "address",
          "name": "to",
          "type": "address"
        },
        {
          "internalType": "uint256",
          "name": "tokenId",
          "type": "uint256"
        }
      ],
      "name": "approve",
      "outputs": [],
      "stateMutability": "nonpayable",
      "type": "function"
    },
    {
      "inputs": [
        {
          "internalType": "address",
          "name": "owner",
          "type": "address"
        }
      ],
      "name": "balanceOf",
      "outputs": [
        {
          "internalType": "uint256",
          "name": "",
          "type": "uint256"
        }
      ],
      "stateMutability": "view",
      "type": "function",
      "constant": true
    },
    {
      "inputs": [
        {
          "internalType": "uint256",
          "name": "tokenId",
          "type": "uint256"
        }
      ],
      "name": "burn",
      "outputs": [],
      "stateMutability": "nonpayable",
      "type": "function"
    },
    {
      "inputs": [
        {
          "internalType": "uint256",
          "name": "tokenId",
          "type": "uint256"
        }
      ],
      "name": "getApproved",
      "outputs": [
        {
          "internalType": "address",
          "name": "",
          "type": "address"
        }
      ],
      "stateMutability": "view",
      "type": "function",
      "constant": true
    },
    {
      "inputs": [
        {
          "internalType": "bytes32",
          "name": "role",
          "type": "bytes32"
        }
      ],
      "name": "getRoleAdmin",
      "outputs": [
        {
          "internalType": "bytes32",
          "name": "",
          "type": "bytes32"
        }
      ],
      "stateMutability": "view",
      "type": "function",
      "constant": true
    },
    {
      "inputs": [
        {
          "internalType": "bytes32",
          "name": "role",
          "type": "bytes32"
        },
        {
          "internalType": "address",
          "name": "account",
          "type": "address"
        }
      ],
      "name": "grantRole",
      "outputs": [],
      "stateMutability": "nonpayable",
      "type": "function"
    },
    {
      "inputs": [
        {
          "internalType": "bytes32",
          "name": "role",
          "type": "bytes32"
        },
        {
          "internalType": "address",
          "name": "account",
          "type": "address"
        }
      ],
      "name": "hasRole",
      "outputs": [
        {
          "internalType": "bool",
          "name": "",
          "type": "bool"
        }
      ],
      "stateMutability": "view",
      "type": "function",
      "constant": true
    },
    {
      "inputs": [
        {
          "internalType": "address",
          "name": "owner",
          "type": "address"
        },
        {
          "internalType": "address",
          "name": "operator",
          "type": "address"
        }
      ],
      "name": "isApprovedForAll",
      "outputs": [
        {
          "internalType": "bool",
          "name": "",
          "type": "bool"
        }
      ],
      "stateMutability": "view",
      "type": "function",
      "constant": true
    },
    {
      "inputs": [],
      "name": "name",
      "outputs": [
        {
          "internalType": "string",
          "name": "",
          "type": "string"
        }
      ],
      "stateMutability": "view",
      "type": "function",
      "constant": true
    },
    {
      "inputs": [
        {
          "internalType": "uint256",
          "name": "tokenId",
          "type": "uint256"
        }
      ],
      "name": "ownerOf",
      "outputs": [
        {
          "internalType": "address",
          "name": "",
          "type": "address"
        }
      ],
      "stateMutability": "view",
      "type": "function",
      "constant": true
    },
    {
      "inputs": [],
      "name": "paused",
      "outputs": [
        {
          "internalType": "bool",
          "name": "",
          "type": "bool"
        }
      ],
      "stateMutability": "view",
      "type": "function",
      "constant": true
    },
    {
      "inputs": [
        {
          "internalType": "bytes32",
          "name": "role",
          "type": "bytes32"
        },
        {
          "internalType": "address",
          "name": "account",
          "type": "address"
        }
      ],
      "name": "renounceRole",
      "outputs": [],
      "stateMutability": "nonpayable",
      "type": "function"
    },
    {
      "inputs": [
        {
          "internalType": "bytes32",
          "name": "role",
          "type": "bytes32"
        },
        {
          "internalType": "address",
          "name": "account",
          "type": "address"
        }
      ],
      "name": "revokeRole",
      "outputs": [],
      "stateMutability": "nonpayable",
      "type": "function"
    },
    {
      "inputs": [
        {
          "internalType": "address",
          "name": "from",
          "type": "address"
        },
        {
          "internalType": "address",
          "name": "to",
          "type": "address"
        },
        {
          "internalType": "uint256",
          "name": "tokenId",
          "type": "uint256"
        }
      ],
      "name": "safeTransferFrom",
      "outputs": [],
      "stateMutability": "nonpayable",
      "type": "function"
    },
    {
      "inputs": [
        {
          "internalType": "address",
          "name": "from",
          "type": "address"
        },
        {
          "internalType": "address",
          "name": "to",
          "type": "address"
        },
        {
          "internalType": "uint256",
          "name": "tokenId",
          "type": "uint256"
        },
        {
          "internalType": "bytes",
          "name": "_data",
          "type": "bytes"
        }
      ],
      "name": "safeTransferFrom",
      "outputs": [],
      "stateMutability": "nonpayable",
      "type": "function"
    },
    {
      "inputs": [
        {
          "internalType": "address",
          "name": "operator",
          "type": "address"
        },
        {
          "internalType": "bool",
          "name": "approved",
          "type": "bool"
        }
      ],
      "name": "setApprovalForAll",
      "outputs": [],
      "stateMutability": "nonpayable",
      "type": "function"
    },
    {
      "inputs": [],
      "name": "symbol",
      "outputs": [
        {
          "internalType": "string",
          "name": "",
          "type": "string"
        }
      ],
      "stateMutability": "view",
      "type": "function",
      "constant": true
    },
    {
      "inputs": [
        {
          "internalType": "uint256",
          "name": "index",
          "type": "uint256"
        }
      ],
      "name": "tokenByIndex",
      "outputs": [
        {
          "internalType": "uint256",
          "name": "",
          "type": "uint256"
        }
      ],
      "stateMutability": "view",
      "type": "function",
      "constant": true
    },
    {
      "inputs": [
        {
          "internalType": "address",
          "name": "owner",
          "type": "address"
        },
        {
          "internalType": "uint256",
          "name": "index",
          "type": "uint256"
        }
      ],
      "name": "tokenOfOwnerByIndex",
      "outputs": [
        {
          "internalType": "uint256",
          "name": "",
          "type": "uint256"
        }
      ],
      "stateMutability": "view",
      "type": "function",
      "constant": true
    },
    {
      "inputs": [
        {
          "internalType": "uint256",
          "name": "tokenId",
          "type": "uint256"
        }
      ],
      "name": "tokenURI",
      "outputs": [
        {
          "internalType": "string",
          "name": "",
          "type": "string"
        }
      ],
      "stateMutability": "view",
      "type": "function",
      "constant": true
    },
    {
      "inputs": [],
      "name": "totalSupply",
      "outputs": [
        {
          "internalType": "uint256",
          "name": "",
          "type": "uint256"
        }
      ],
      "stateMutability": "view",
      "type": "function",
      "constant": true
    },
    {
      "inputs": [
        {
          "internalType": "address",
          "name": "from",
          "type": "address"
        },
        {
          "internalType": "address",
          "name": "to",
          "type": "address"
        },
        {
          "internalType": "uint256",
          "name": "tokenId",
          "type": "uint256"
        }
      ],
      "name": "transferFrom",
      "outputs": [],
      "stateMutability": "nonpayable",
      "type": "function"
    },
    {
      "inputs": [],
      "name": "pause",
      "outputs": [],
      "stateMutability": "nonpayable",
      "type": "function"
    },
    {
      "inputs": [],
      "name": "unpause",
      "outputs": [],
      "stateMutability": "nonpayable",
      "type": "function"
    },
    {
      "inputs": [
        {
          "internalType": "address",
          "name": "to",
          "type": "address"
        }
      ],
      "name": "safeMint",
      "outputs": [],
      "stateMutability": "nonpayable",
      "type": "function"
    },
    {
      "inputs": [
        {
          "internalType": "bytes4",
          "name": "interfaceId",
          "type": "bytes4"
        }
      ],
      "name": "supportsInterface",
      "outputs": [
        {
          "internalType": "bool",
          "name": "",
          "type": "bool"
        }
      ],
      "stateMutability": "view",
      "type": "function",
      "constant": true
    }
  ],
  "bytecode": "0x60806040523480156200001157600080fd5b506040518060400160405280600381526020017f4a424100000000000000000000000000000000000000000000000000000000008152506040518060400160405280600381526020017f4a42410000000000000000000000000000000000000000000000000000000000815250816000908051906020019062000096929190620002b1565b508060019080519060200190620000af929190620002b1565b5050506000600a60006101000a81548160ff021916908315150217905550620000e26000801b336200014c60201b60201c565b620001147f65d7a28e3265b37a6474929f336521b332c1681b933f6cb9f3376673440d862a336200014c60201b60201c565b620001467f9f2df0fed2c77648de5860a4cc508cd0818c85b8b8a1ab4ceeef8d981c8956a6336200014c60201b60201c565b620003c6565b6200015e82826200023e60201b60201c565b6200023a576001600b600084815260200190815260200160002060000160008373ffffffffffffffffffffffffffffffffffffffff1673ffffffffffffffffffffffffffffffffffffffff16815260200190815260200160002060006101000a81548160ff021916908315150217905550620001df620002a960201b60201c565b73ffffffffffffffffffffffffffffffffffffffff168173ffffffffffffffffffffffffffffffffffffffff16837f2f8788117e7eff1d82e926ec794901d17c78024a50270940304540a733656f0d60405160405180910390a45b5050565b6000600b600084815260200190815260200160002060000160008373ffffffffffffffffffffffffffffffffffffffff1673ffffffffffffffffffffffffffffffffffffffff16815260200190815260200160002060009054906101000a900460ff16905092915050565b600033905090565b828054620002bf9062000390565b90600052602060002090601f016020900481019282620002e357600085556200032f565b82601f10620002fe57805160ff19168380011785556200032f565b828001600101855582156200032f579182015b828111156200032e57825182559160200191906001019062000311565b5b5090506200033e919062000342565b5090565b5b808211156200035d57600081600090555060010162000343565b5090565b7f4e487b7100000000000000000000000000000000000000000000000000000000600052602260045260246000fd5b60006002820490506001821680620003a957607f821691505b60208210811415620003c057620003bf62000361565b5b50919050565b6140b680620003d66000396000f3fe608060405234801561001057600080fd5b50600436106101cf5760003560e01c80634f6ccce711610104578063a217fddf116100a2578063d539139311610071578063d53913931461052a578063d547741f14610548578063e63ab1e914610564578063e985e9c514610582576101cf565b8063a217fddf146104a4578063a22cb465146104c2578063b88d4fde146104de578063c87b56dd146104fa576101cf565b806370a08231116100de57806370a082311461041c5780638456cb591461044c57806391d148541461045657806395d89b4114610486576101cf565b80634f6ccce71461039e5780635c975abb146103ce5780636352211e146103ec576101cf565b80632f2ff15d116101715780633f4ba83a1161014b5780633f4ba83a1461034057806340d097c31461034a57806342842e0e1461036657806342966c6814610382576101cf565b80632f2ff15d146102d85780632f745c59146102f457806336568abe14610324576101cf565b8063095ea7b3116101ad578063095ea7b31461025257806318160ddd1461026e57806323b872dd1461028c578063248a9ca3146102a8576101cf565b806301ffc9a7146101d457806306fdde0314610204578063081812fc14610222575b600080fd5b6101ee60048036038101906101e99190612a5b565b6105b2565b6040516101fb9190612aa3565b60405180910390f35b61020c6105c4565b6040516102199190612b57565b60405180910390f35b61023c60048036038101906102379190612baf565b610656565b6040516102499190612c1d565b60405180910390f35b61026c60048036038101906102679190612c64565b6106db565b005b6102766107f3565b6040516102839190612cb3565b60405180910390f35b6102a660048036038101906102a19190612cce565b610800565b005b6102c260048036038101906102bd9190612d57565b610860565b6040516102cf9190612d93565b60405180910390f35b6102f260048036038101906102ed9190612dae565b610880565b005b61030e60048036038101906103099190612c64565b6108a9565b60405161031b9190612cb3565b60405180910390f35b61033e60048036038101906103399190612dae565b61094e565b005b6103486109d1565b005b610364600480360381019061035f9190612dee565b610a0e565b005b610380600480360381019061037b9190612cce565b610a67565b005b61039c60048036038101906103979190612baf565b610a87565b005b6103b860048036038101906103b39190612baf565b610ae3565b6040516103c59190612cb3565b60405180910390f35b6103d6610b54565b6040516103e39190612aa3565b60405180910390f35b61040660048036038101906104019190612baf565b610b6b565b6040516104139190612c1d565b60405180910390f35b61043660048036038101906104319190612dee565b610c1d565b6040516104439190612cb3565b60405180910390f35b610454610cd5565b005b610470600480360381019061046b9190612dae565b610d12565b60405161047d9190612aa3565b60405180910390f35b61048e610d7d565b60405161049b9190612b57565b60405180910390f35b6104ac610e0f565b6040516104b99190612d93565b60405180910390f35b6104dc60048036038101906104d79190612e47565b610e16565b005b6104f860048036038101906104f39190612fbc565b610e2c565b005b610514600480360381019061050f9190612baf565b610e8e565b6040516105219190612b57565b60405180910390f35b610532610f35565b60405161053f9190612d93565b60405180910390f35b610562600480360381019061055d9190612dae565b610f59565b005b61056c610f82565b6040516105799190612d93565b60405180910390f35b61059c6004803603810190610597919061303f565b610fa6565b6040516105a99190612aa3565b60405180910390f35b60006105bd8261103a565b9050919050565b6060600080546105d3906130ae565b80601f01602080910402602001604051908101604052809291908181526020018280546105ff906130ae565b801561064c5780601f106106215761010080835404028352916020019161064c565b820191906000526020600020905b81548152906001019060200180831161062f57829003601f168201915b5050505050905090565b6000610661826110b4565b6106a0576040517f08c379a000000000000000000000000000000000000000000000000000000000815260040161069790613152565b60405180910390fd5b6004600083815260200190815260200160002060009054906101000a900473ffffffffffffffffffffffffffffffffffffffff169050919050565b60006106e682610b6b565b90508073ffffffffffffffffffffffffffffffffffffffff168373ffffffffffffffffffffffffffffffffffffffff161415610757576040517f08c379a000000000000000000000000000000000000000000000000000000000815260040161074e906131e4565b60405180910390fd5b8073ffffffffffffffffffffffffffffffffffffffff16610776611120565b73ffffffffffffffffffffffffffffffffffffffff1614806107a557506107a48161079f611120565b610fa6565b5b6107e4576040517f08c379a00000000000000000000000000000000000000000000000000000000081526004016107db90613276565b60405180910390fd5b6107ee8383611128565b505050565b6000600880549050905090565b61081161080b611120565b826111e1565b610850576040517f08c379a000000000000000000000000000000000000000000000000000000000815260040161084790613308565b60405180910390fd5b61085b8383836112bf565b505050565b6000600b6000838152602001908152602001600020600101549050919050565b61088982610860565b61089a81610895611120565b611526565b6108a483836115c3565b505050565b60006108b483610c1d565b82106108f5576040517f08c379a00000000000000000000000000000000000000000000000000000000081526004016108ec9061339a565b60405180910390fd5b600660008473ffffffffffffffffffffffffffffffffffffffff1673ffffffffffffffffffffffffffffffffffffffff168152602001908152602001600020600083815260200190815260200160002054905092915050565b610956611120565b73ffffffffffffffffffffffffffffffffffffffff168173ffffffffffffffffffffffffffffffffffffffff16146109c3576040517f08c379a00000000000000000000000000000000000000000000000000000000081526004016109ba9061342c565b60405180910390fd5b6109cd82826116a4565b5050565b7f65d7a28e3265b37a6474929f336521b332c1681b933f6cb9f3376673440d862a610a03816109fe611120565b611526565b610a0b611786565b50565b7f9f2df0fed2c77648de5860a4cc508cd0818c85b8b8a1ab4ceeef8d981c8956a6610a4081610a3b611120565b611526565b6000610a4c600c611828565b9050610a58600c611836565b610a62838261184c565b505050565b610a8283838360405180602001604052806000815250610e2c565b505050565b610a98610a92611120565b826111e1565b610ad7576040517f08c379a0000000000000000000000000000000000000000000000000000000008152600401610ace906134be565b60405180910390fd5b610ae08161186a565b50565b6000610aed6107f3565b8210610b2e576040517f08c379a0000000000000000000000000000000000000000000000000000000008152600401610b2590613550565b60405180910390fd5b60088281548110610b4257610b41613570565b5b90600052602060002001549050919050565b6000600a60009054906101000a900460ff16905090565b6000806002600084815260200190815260200160002060009054906101000a900473ffffffffffffffffffffffffffffffffffffffff169050600073ffffffffffffffffffffffffffffffffffffffff168173ffffffffffffffffffffffffffffffffffffffff161415610c14576040517f08c379a0000000000000000000000000000000000000000000000000000000008152600401610c0b90613611565b60405180910390fd5b80915050919050565b60008073ffffffffffffffffffffffffffffffffffffffff168273ffffffffffffffffffffffffffffffffffffffff161415610c8e576040517f08c379a0000000000000000000000000000000000000000000000000000000008152600401610c85906136a3565b60405180910390fd5b600360008373ffffffffffffffffffffffffffffffffffffffff1673ffffffffffffffffffffffffffffffffffffffff168152602001908152602001600020549050919050565b7f65d7a28e3265b37a6474929f336521b332c1681b933f6cb9f3376673440d862a610d0781610d02611120565b611526565b610d0f611987565b50565b6000600b600084815260200190815260200160002060000160008373ffffffffffffffffffffffffffffffffffffffff1673ffffffffffffffffffffffffffffffffffffffff16815260200190815260200160002060009054906101000a900460ff16905092915050565b606060018054610d8c906130ae565b80601f0160208091040260200160405190810160405280929190818152602001828054610db8906130ae565b8015610e055780601f10610dda57610100808354040283529160200191610e05565b820191906000526020600020905b815481529060010190602001808311610de857829003601f168201915b5050505050905090565b6000801b81565b610e28610e21611120565b8383611a2a565b5050565b610e3d610e37611120565b836111e1565b610e7c576040517f08c379a0000000000000000000000000000000000000000000000000000000008152600401610e7390613308565b60405180910390fd5b610e8884848484611b97565b50505050565b6060610e99826110b4565b610ed8576040517f08c379a0000000000000000000000000000000000000000000000000000000008152600401610ecf90613735565b60405180910390fd5b6000610ee2611bf3565b90506000815111610f025760405180602001604052806000815250610f2d565b80610f0c84611c30565b604051602001610f1d929190613791565b6040516020818303038152906040525b915050919050565b7f9f2df0fed2c77648de5860a4cc508cd0818c85b8b8a1ab4ceeef8d981c8956a681565b610f6282610860565b610f7381610f6e611120565b611526565b610f7d83836116a4565b505050565b7f65d7a28e3265b37a6474929f336521b332c1681b933f6cb9f3376673440d862a81565b6000600560008473ffffffffffffffffffffffffffffffffffffffff1673ffffffffffffffffffffffffffffffffffffffff16815260200190815260200160002060008373ffffffffffffffffffffffffffffffffffffffff1673ffffffffffffffffffffffffffffffffffffffff16815260200190815260200160002060009054906101000a900460ff16905092915050565b60007f7965db0b000000000000000000000000000000000000000000000000000000007bffffffffffffffffffffffffffffffffffffffffffffffffffffffff1916827bffffffffffffffffffffffffffffffffffffffffffffffffffffffff191614806110ad57506110ac82611d91565b5b9050919050565b60008073ffffffffffffffffffffffffffffffffffffffff166002600084815260200190815260200160002060009054906101000a900473ffffffffffffffffffffffffffffffffffffffff1673ffffffffffffffffffffffffffffffffffffffff1614159050919050565b600033905090565b816004600083815260200190815260200160002060006101000a81548173ffffffffffffffffffffffffffffffffffffffff021916908373ffffffffffffffffffffffffffffffffffffffff160217905550808273ffffffffffffffffffffffffffffffffffffffff1661119b83610b6b565b73ffffffffffffffffffffffffffffffffffffffff167f8c5be1e5ebec7d5bd14f71427d1e84f3dd0314c0f7b2291e5b200ac8c7c3b92560405160405180910390a45050565b60006111ec826110b4565b61122b576040517f08c379a000000000000000000000000000000000000000000000000000000000815260040161122290613827565b60405180910390fd5b600061123683610b6b565b90508073ffffffffffffffffffffffffffffffffffffffff168473ffffffffffffffffffffffffffffffffffffffff1614806112a557508373ffffffffffffffffffffffffffffffffffffffff1661128d84610656565b73ffffffffffffffffffffffffffffffffffffffff16145b806112b657506112b58185610fa6565b5b91505092915050565b8273ffffffffffffffffffffffffffffffffffffffff166112df82610b6b565b73ffffffffffffffffffffffffffffffffffffffff1614611335576040517f08c379a000000000000000000000000000000000000000000000000000000000815260040161132c906138b9565b60405180910390fd5b600073ffffffffffffffffffffffffffffffffffffffff168273ffffffffffffffffffffffffffffffffffffffff1614156113a5576040517f08c379a000000000000000000000000000000000000000000000000000000000815260040161139c9061394b565b60405180910390fd5b6113b0838383611e0b565b6113bb600082611128565b6001600360008573ffffffffffffffffffffffffffffffffffffffff1673ffffffffffffffffffffffffffffffffffffffff168152602001908152602001600020600082825461140b919061399a565b925050819055506001600360008473ffffffffffffffffffffffffffffffffffffffff1673ffffffffffffffffffffffffffffffffffffffff168152602001908152602001600020600082825461146291906139ce565b92505081905550816002600083815260200190815260200160002060006101000a81548173ffffffffffffffffffffffffffffffffffffffff021916908373ffffffffffffffffffffffffffffffffffffffff160217905550808273ffffffffffffffffffffffffffffffffffffffff168473ffffffffffffffffffffffffffffffffffffffff167fddf252ad1be2c89b69c2b068fc378daa952ba7f163c4a11628f55a4df523b3ef60405160405180910390a4611521838383611e63565b505050565b6115308282610d12565b6115bf576115558173ffffffffffffffffffffffffffffffffffffffff166014611e68565b6115638360001c6020611e68565b604051602001611574929190613abc565b6040516020818303038152906040526040517f08c379a00000000000000000000000000000000000000000000000000000000081526004016115b69190612b57565b60405180910390fd5b5050565b6115cd8282610d12565b6116a0576001600b600084815260200190815260200160002060000160008373ffffffffffffffffffffffffffffffffffffffff1673ffffffffffffffffffffffffffffffffffffffff16815260200190815260200160002060006101000a81548160ff021916908315150217905550611645611120565b73ffffffffffffffffffffffffffffffffffffffff168173ffffffffffffffffffffffffffffffffffffffff16837f2f8788117e7eff1d82e926ec794901d17c78024a50270940304540a733656f0d60405160405180910390a45b5050565b6116ae8282610d12565b15611782576000600b600084815260200190815260200160002060000160008373ffffffffffffffffffffffffffffffffffffffff1673ffffffffffffffffffffffffffffffffffffffff16815260200190815260200160002060006101000a81548160ff021916908315150217905550611727611120565b73ffffffffffffffffffffffffffffffffffffffff168173ffffffffffffffffffffffffffffffffffffffff16837ff6391f5c32d9c69d2a47ea670b442974b53935d1edc7fd64eb21e047a839171b60405160405180910390a45b5050565b61178e610b54565b6117cd576040517f08c379a00000000000000000000000000000000000000000000000000000000081526004016117c490613b42565b60405180910390fd5b6000600a60006101000a81548160ff0219169083151502179055507f5db9ee0a495bf2e6ff9c91a7834c1ba4fdd244a5e8aa4e537bd38aeae4b073aa611811611120565b60405161181e9190612c1d565b60405180910390a1565b600081600001549050919050565b6001816000016000828254019250508190555050565b6118668282604051806020016040528060008152506120a4565b5050565b600061187582610b6b565b905061188381600084611e0b565b61188e600083611128565b6001600360008373ffffffffffffffffffffffffffffffffffffffff1673ffffffffffffffffffffffffffffffffffffffff16815260200190815260200160002060008282546118de919061399a565b925050819055506002600083815260200190815260200160002060006101000a81549073ffffffffffffffffffffffffffffffffffffffff021916905581600073ffffffffffffffffffffffffffffffffffffffff168273ffffffffffffffffffffffffffffffffffffffff167fddf252ad1be2c89b69c2b068fc378daa952ba7f163c4a11628f55a4df523b3ef60405160405180910390a461198381600084611e63565b5050565b61198f610b54565b156119cf576040517f08c379a00000000000000000000000000000000000000000000000000000000081526004016119c690613bae565b60405180910390fd5b6001600a60006101000a81548160ff0219169083151502179055507f62e78cea01bee320cd4e420270b5ea74000d11b0c9f74754ebdbfc544b05a258611a13611120565b604051611a209190612c1d565b60405180910390a1565b8173ffffffffffffffffffffffffffffffffffffffff168373ffffffffffffffffffffffffffffffffffffffff161415611a99576040517f08c379a0000000000000000000000000000000000000000000000000000000008152600401611a9090613c1a565b60405180910390fd5b80600560008573ffffffffffffffffffffffffffffffffffffffff1673ffffffffffffffffffffffffffffffffffffffff16815260200190815260200160002060008473ffffffffffffffffffffffffffffffffffffffff1673ffffffffffffffffffffffffffffffffffffffff16815260200190815260200160002060006101000a81548160ff0219169083151502179055508173ffffffffffffffffffffffffffffffffffffffff168373ffffffffffffffffffffffffffffffffffffffff167f17307eab39ab6107e8899845ad3d59bd9653f200f220920489ca2b5937696c3183604051611b8a9190612aa3565b60405180910390a3505050565b611ba28484846112bf565b611bae848484846120ff565b611bed576040517f08c379a0000000000000000000000000000000000000000000000000000000008152600401611be490613cac565b60405180910390fd5b50505050565b60606040518060400160405280601781526020017f68747470733a2f2f6a62612e76657263656c2e6170702f000000000000000000815250905090565b60606000821415611c78576040518060400160405280600181526020017f30000000000000000000000000000000000000000000000000000000000000008152509050611d8c565b600082905060005b60008214611caa578080611c9390613ccc565b915050600a82611ca39190613d44565b9150611c80565b60008167ffffffffffffffff811115611cc657611cc5612e91565b5b6040519080825280601f01601f191660200182016040528015611cf85781602001600182028036833780820191505090505b5090505b60008514611d8557600182611d11919061399a565b9150600a85611d209190613d75565b6030611d2c91906139ce565b60f81b818381518110611d4257611d41613570565b5b60200101907effffffffffffffffffffffffffffffffffffffffffffffffffffffffffffff1916908160001a905350600a85611d7e9190613d44565b9450611cfc565b8093505050505b919050565b60007f780e9d63000000000000000000000000000000000000000000000000000000007bffffffffffffffffffffffffffffffffffffffffffffffffffffffff1916827bffffffffffffffffffffffffffffffffffffffffffffffffffffffff19161480611e045750611e0382612287565b5b9050919050565b611e13610b54565b15611e53576040517f08c379a0000000000000000000000000000000000000000000000000000000008152600401611e4a90613bae565b60405180910390fd5b611e5e838383612369565b505050565b505050565b606060006002836002611e7b9190613da6565b611e8591906139ce565b67ffffffffffffffff811115611e9e57611e9d612e91565b5b6040519080825280601f01601f191660200182016040528015611ed05781602001600182028036833780820191505090505b5090507f300000000000000000000000000000000000000000000000000000000000000081600081518110611f0857611f07613570565b5b60200101907effffffffffffffffffffffffffffffffffffffffffffffffffffffffffffff1916908160001a9053507f780000000000000000000000000000000000000000000000000000000000000081600181518110611f6c57611f6b613570565b5b60200101907effffffffffffffffffffffffffffffffffffffffffffffffffffffffffffff1916908160001a90535060006001846002611fac9190613da6565b611fb691906139ce565b90505b6001811115612056577f3031323334353637383961626364656600000000000000000000000000000000600f861660108110611ff857611ff7613570565b5b1a60f81b82828151811061200f5761200e613570565b5b60200101907effffffffffffffffffffffffffffffffffffffffffffffffffffffffffffff1916908160001a905350600485901c94508061204f90613e00565b9050611fb9565b506000841461209a576040517f08c379a000000000000000000000000000000000000000000000000000000000815260040161209190613e76565b60405180910390fd5b8091505092915050565b6120ae838361247d565b6120bb60008484846120ff565b6120fa576040517f08c379a00000000000000000000000000000000000000000000000000000000081526004016120f190613cac565b60405180910390fd5b505050565b60006121208473ffffffffffffffffffffffffffffffffffffffff16612657565b1561227a578373ffffffffffffffffffffffffffffffffffffffff1663150b7a02612149611120565b8786866040518563ffffffff1660e01b815260040161216b9493929190613eeb565b6020604051808303816000875af19250505080156121a757506040513d601f19601f820116820180604052508101906121a49190613f4c565b60015b61222a573d80600081146121d7576040519150601f19603f3d011682016040523d82523d6000602084013e6121dc565b606091505b50600081511415612222576040517f08c379a000000000000000000000000000000000000000000000000000000000815260040161221990613cac565b60405180910390fd5b805181602001fd5b63150b7a0260e01b7bffffffffffffffffffffffffffffffffffffffffffffffffffffffff1916817bffffffffffffffffffffffffffffffffffffffffffffffffffffffff19161491505061227f565b600190505b949350505050565b60007f80ac58cd000000000000000000000000000000000000000000000000000000007bffffffffffffffffffffffffffffffffffffffffffffffffffffffff1916827bffffffffffffffffffffffffffffffffffffffffffffffffffffffff1916148061235257507f5b5e139f000000000000000000000000000000000000000000000000000000007bffffffffffffffffffffffffffffffffffffffffffffffffffffffff1916827bffffffffffffffffffffffffffffffffffffffffffffffffffffffff1916145b8061236257506123618261267a565b5b9050919050565b6123748383836126e4565b600073ffffffffffffffffffffffffffffffffffffffff168373ffffffffffffffffffffffffffffffffffffffff1614156123b7576123b2816126e9565b6123f6565b8173ffffffffffffffffffffffffffffffffffffffff168373ffffffffffffffffffffffffffffffffffffffff16146123f5576123f48382612732565b5b5b600073ffffffffffffffffffffffffffffffffffffffff168273ffffffffffffffffffffffffffffffffffffffff161415612439576124348161289f565b612478565b8273ffffffffffffffffffffffffffffffffffffffff168273ffffffffffffffffffffffffffffffffffffffff1614612477576124768282612970565b5b5b505050565b600073ffffffffffffffffffffffffffffffffffffffff168273ffffffffffffffffffffffffffffffffffffffff1614156124ed576040517f08c379a00000000000000000000000000000000000000000000000000000000081526004016124e490613fc5565b60405180910390fd5b6124f6816110b4565b15612536576040517f08c379a000000000000000000000000000000000000000000000000000000000815260040161252d90614031565b60405180910390fd5b61254260008383611e0b565b6001600360008473ffffffffffffffffffffffffffffffffffffffff1673ffffffffffffffffffffffffffffffffffffffff168152602001908152602001600020600082825461259291906139ce565b92505081905550816002600083815260200190815260200160002060006101000a81548173ffffffffffffffffffffffffffffffffffffffff021916908373ffffffffffffffffffffffffffffffffffffffff160217905550808273ffffffffffffffffffffffffffffffffffffffff16600073ffffffffffffffffffffffffffffffffffffffff167fddf252ad1be2c89b69c2b068fc378daa952ba7f163c4a11628f55a4df523b3ef60405160405180910390a461265360008383611e63565b5050565b6000808273ffffffffffffffffffffffffffffffffffffffff163b119050919050565b60007f01ffc9a7000000000000000000000000000000000000000000000000000000007bffffffffffffffffffffffffffffffffffffffffffffffffffffffff1916827bffffffffffffffffffffffffffffffffffffffffffffffffffffffff1916149050919050565b505050565b6008805490506009600083815260200190815260200160002081905550600881908060018154018082558091505060019003906000526020600020016000909190919091505550565b6000600161273f84610c1d565b612749919061399a565b905060006007600084815260200190815260200160002054905081811461282e576000600660008673ffffffffffffffffffffffffffffffffffffffff1673ffffffffffffffffffffffffffffffffffffffff168152602001908152602001600020600084815260200190815260200160002054905080600660008773ffffffffffffffffffffffffffffffffffffffff1673ffffffffffffffffffffffffffffffffffffffff168152602001908152602001600020600084815260200190815260200160002081905550816007600083815260200190815260200160002081905550505b6007600084815260200190815260200160002060009055600660008573ffffffffffffffffffffffffffffffffffffffff1673ffffffffffffffffffffffffffffffffffffffff16815260200190815260200160002060008381526020019081526020016000206000905550505050565b600060016008805490506128b3919061399a565b90506000600960008481526020019081526020016000205490506000600883815481106128e3576128e2613570565b5b90600052602060002001549050806008838154811061290557612904613570565b5b90600052602060002001819055508160096000838152602001908152602001600020819055506009600085815260200190815260200160002060009055600880548061295457612953614051565b5b6001900381819060005260206000200160009055905550505050565b600061297b83610c1d565b905081600660008573ffffffffffffffffffffffffffffffffffffffff1673ffffffffffffffffffffffffffffffffffffffff168152602001908152602001600020600083815260200190815260200160002081905550806007600084815260200190815260200160002081905550505050565b6000604051905090565b600080fd5b600080fd5b60007fffffffff0000000000000000000000000000000000000000000000000000000082169050919050565b612a3881612a03565b8114612a4357600080fd5b50565b600081359050612a5581612a2f565b92915050565b600060208284031215612a7157612a706129f9565b5b6000612a7f84828501612a46565b91505092915050565b60008115159050919050565b612a9d81612a88565b82525050565b6000602082019050612ab86000830184612a94565b92915050565b600081519050919050565b600082825260208201905092915050565b60005b83811015612af8578082015181840152602081019050612add565b83811115612b07576000848401525b50505050565b6000601f19601f8301169050919050565b6000612b2982612abe565b612b338185612ac9565b9350612b43818560208601612ada565b612b4c81612b0d565b840191505092915050565b60006020820190508181036000830152612b718184612b1e565b905092915050565b6000819050919050565b612b8c81612b79565b8114612b9757600080fd5b50565b600081359050612ba981612b83565b92915050565b600060208284031215612bc557612bc46129f9565b5b6000612bd384828501612b9a565b91505092915050565b600073ffffffffffffffffffffffffffffffffffffffff82169050919050565b6000612c0782612bdc565b9050919050565b612c1781612bfc565b82525050565b6000602082019050612c326000830184612c0e565b92915050565b612c4181612bfc565b8114612c4c57600080fd5b50565b600081359050612c5e81612c38565b92915050565b60008060408385031215612c7b57612c7a6129f9565b5b6000612c8985828601612c4f565b9250506020612c9a85828601612b9a565b9150509250929050565b612cad81612b79565b82525050565b6000602082019050612cc86000830184612ca4565b92915050565b600080600060608486031215612ce757612ce66129f9565b5b6000612cf586828701612c4f565b9350506020612d0686828701612c4f565b9250506040612d1786828701612b9a565b9150509250925092565b6000819050919050565b612d3481612d21565b8114612d3f57600080fd5b50565b600081359050612d5181612d2b565b92915050565b600060208284031215612d6d57612d6c6129f9565b5b6000612d7b84828501612d42565b91505092915050565b612d8d81612d21565b82525050565b6000602082019050612da86000830184612d84565b92915050565b60008060408385031215612dc557612dc46129f9565b5b6000612dd385828601612d42565b9250506020612de485828601612c4f565b9150509250929050565b600060208284031215612e0457612e036129f9565b5b6000612e1284828501612c4f565b91505092915050565b612e2481612a88565b8114612e2f57600080fd5b50565b600081359050612e4181612e1b565b92915050565b60008060408385031215612e5e57612e5d6129f9565b5b6000612e6c85828601612c4f565b9250506020612e7d85828601612e32565b9150509250929050565b600080fd5b600080fd5b7f4e487b7100000000000000000000000000000000000000000000000000000000600052604160045260246000fd5b612ec982612b0d565b810181811067ffffffffffffffff82111715612ee857612ee7612e91565b5b80604052505050565b6000612efb6129ef565b9050612f078282612ec0565b919050565b600067ffffffffffffffff821115612f2757612f26612e91565b5b612f3082612b0d565b9050602081019050919050565b82818337600083830152505050565b6000612f5f612f5a84612f0c565b612ef1565b905082815260208101848484011115612f7b57612f7a612e8c565b5b612f86848285612f3d565b509392505050565b600082601f830112612fa357612fa2612e87565b5b8135612fb3848260208601612f4c565b91505092915050565b60008060008060808587031215612fd657612fd56129f9565b5b6000612fe487828801612c4f565b9450506020612ff587828801612c4f565b935050604061300687828801612b9a565b925050606085013567ffffffffffffffff811115613027576130266129fe565b5b61303387828801612f8e565b91505092959194509250565b60008060408385031215613056576130556129f9565b5b600061306485828601612c4f565b925050602061307585828601612c4f565b9150509250929050565b7f4e487b7100000000000000000000000000000000000000000000000000000000600052602260045260246000fd5b600060028204905060018216806130c657607f821691505b602082108114156130da576130d961307f565b5b50919050565b7f4552433732313a20617070726f76656420717565727920666f72206e6f6e657860008201527f697374656e7420746f6b656e0000000000000000000000000000000000000000602082015250565b600061313c602c83612ac9565b9150613147826130e0565b604082019050919050565b6000602082019050818103600083015261316b8161312f565b9050919050565b7f4552433732313a20617070726f76616c20746f2063757272656e74206f776e6560008201527f7200000000000000000000000000000000000000000000000000000000000000602082015250565b60006131ce602183612ac9565b91506131d982613172565b604082019050919050565b600060208201905081810360008301526131fd816131c1565b9050919050565b7f4552433732313a20617070726f76652063616c6c6572206973206e6f74206f7760008201527f6e6572206e6f7220617070726f76656420666f7220616c6c0000000000000000602082015250565b6000613260603883612ac9565b915061326b82613204565b604082019050919050565b6000602082019050818103600083015261328f81613253565b9050919050565b7f4552433732313a207472616e736665722063616c6c6572206973206e6f74206f60008201527f776e6572206e6f7220617070726f766564000000000000000000000000000000602082015250565b60006132f2603183612ac9565b91506132fd82613296565b604082019050919050565b60006020820190508181036000830152613321816132e5565b9050919050565b7f455243373231456e756d657261626c653a206f776e657220696e646578206f7560008201527f74206f6620626f756e6473000000000000000000000000000000000000000000602082015250565b6000613384602b83612ac9565b915061338f82613328565b604082019050919050565b600060208201905081810360008301526133b381613377565b9050919050565b7f416363657373436f6e74726f6c3a2063616e206f6e6c792072656e6f756e636560008201527f20726f6c657320666f722073656c660000000000000000000000000000000000602082015250565b6000613416602f83612ac9565b9150613421826133ba565b604082019050919050565b6000602082019050818103600083015261344581613409565b9050919050565b7f4552433732314275726e61626c653a2063616c6c6572206973206e6f74206f7760008201527f6e6572206e6f7220617070726f76656400000000000000000000000000000000602082015250565b60006134a8603083612ac9565b91506134b38261344c565b604082019050919050565b600060208201905081810360008301526134d78161349b565b9050919050565b7f455243373231456e756d657261626c653a20676c6f62616c20696e646578206f60008201527f7574206f6620626f756e64730000000000000000000000000000000000000000602082015250565b600061353a602c83612ac9565b9150613545826134de565b604082019050919050565b600060208201905081810360008301526135698161352d565b9050919050565b7f4e487b7100000000000000000000000000000000000000000000000000000000600052603260045260246000fd5b7f4552433732313a206f776e657220717565727920666f72206e6f6e657869737460008201527f656e7420746f6b656e0000000000000000000000000000000000000000000000602082015250565b60006135fb602983612ac9565b91506136068261359f565b604082019050919050565b6000602082019050818103600083015261362a816135ee565b9050919050565b7f4552433732313a2062616c616e636520717565727920666f7220746865207a6560008201527f726f206164647265737300000000000000000000000000000000000000000000602082015250565b600061368d602a83612ac9565b915061369882613631565b604082019050919050565b600060208201905081810360008301526136bc81613680565b9050919050565b7f4552433732314d657461646174613a2055524920717565727920666f72206e6f60008201527f6e6578697374656e7420746f6b656e0000000000000000000000000000000000602082015250565b600061371f602f83612ac9565b915061372a826136c3565b604082019050919050565b6000602082019050818103600083015261374e81613712565b9050919050565b600081905092915050565b600061376b82612abe565b6137758185613755565b9350613785818560208601612ada565b80840191505092915050565b600061379d8285613760565b91506137a98284613760565b91508190509392505050565b7f4552433732313a206f70657261746f7220717565727920666f72206e6f6e657860008201527f697374656e7420746f6b656e0000000000000000000000000000000000000000602082015250565b6000613811602c83612ac9565b915061381c826137b5565b604082019050919050565b6000602082019050818103600083015261384081613804565b9050919050565b7f4552433732313a207472616e736665722066726f6d20696e636f72726563742060008201527f6f776e6572000000000000000000000000000000000000000000000000000000602082015250565b60006138a3602583612ac9565b91506138ae82613847565b604082019050919050565b600060208201905081810360008301526138d281613896565b9050919050565b7f4552433732313a207472616e7366657220746f20746865207a65726f2061646460008201527f7265737300000000000000000000000000000000000000000000000000000000602082015250565b6000613935602483612ac9565b9150613940826138d9565b604082019050919050565b6000602082019050818103600083015261396481613928565b9050919050565b7f4e487b7100000000000000000000000000000000000000000000000000000000600052601160045260246000fd5b60006139a582612b79565b91506139b083612b79565b9250828210156139c3576139c261396b565b5b828203905092915050565b60006139d982612b79565b91506139e483612b79565b9250827fffffffffffffffffffffffffffffffffffffffffffffffffffffffffffffffff03821115613a1957613a1861396b565b5b828201905092915050565b7f416363657373436f6e74726f6c3a206163636f756e7420000000000000000000600082015250565b6000613a5a601783613755565b9150613a6582613a24565b601782019050919050565b7f206973206d697373696e6720726f6c6520000000000000000000000000000000600082015250565b6000613aa6601183613755565b9150613ab182613a70565b601182019050919050565b6000613ac782613a4d565b9150613ad38285613760565b9150613ade82613a99565b9150613aea8284613760565b91508190509392505050565b7f5061757361626c653a206e6f7420706175736564000000000000000000000000600082015250565b6000613b2c601483612ac9565b9150613b3782613af6565b602082019050919050565b60006020820190508181036000830152613b5b81613b1f565b9050919050565b7f5061757361626c653a2070617573656400000000000000000000000000000000600082015250565b6000613b98601083612ac9565b9150613ba382613b62565b602082019050919050565b60006020820190508181036000830152613bc781613b8b565b9050919050565b7f4552433732313a20617070726f766520746f2063616c6c657200000000000000600082015250565b6000613c04601983612ac9565b9150613c0f82613bce565b602082019050919050565b60006020820190508181036000830152613c3381613bf7565b9050919050565b7f4552433732313a207472616e7366657220746f206e6f6e20455243373231526560008201527f63656976657220696d706c656d656e7465720000000000000000000000000000602082015250565b6000613c96603283612ac9565b9150613ca182613c3a565b604082019050919050565b60006020820190508181036000830152613cc581613c89565b9050919050565b6000613cd782612b79565b91507fffffffffffffffffffffffffffffffffffffffffffffffffffffffffffffffff821415613d0a57613d0961396b565b5b600182019050919050565b7f4e487b7100000000000000000000000000000000000000000000000000000000600052601260045260246000fd5b6000613d4f82612b79565b9150613d5a83612b79565b925082613d6a57613d69613d15565b5b828204905092915050565b6000613d8082612b79565b9150613d8b83612b79565b925082613d9b57613d9a613d15565b5b828206905092915050565b6000613db182612b79565b9150613dbc83612b79565b9250817fffffffffffffffffffffffffffffffffffffffffffffffffffffffffffffffff0483118215151615613df557613df461396b565b5b828202905092915050565b6000613e0b82612b79565b91506000821415613e1f57613e1e61396b565b5b600182039050919050565b7f537472696e67733a20686578206c656e67746820696e73756666696369656e74600082015250565b6000613e60602083612ac9565b9150613e6b82613e2a565b602082019050919050565b60006020820190508181036000830152613e8f81613e53565b9050919050565b600081519050919050565b600082825260208201905092915050565b6000613ebd82613e96565b613ec78185613ea1565b9350613ed7818560208601612ada565b613ee081612b0d565b840191505092915050565b6000608082019050613f006000830187612c0e565b613f0d6020830186612c0e565b613f1a6040830185612ca4565b8181036060830152613f2c8184613eb2565b905095945050505050565b600081519050613f4681612a2f565b92915050565b600060208284031215613f6257613f616129f9565b5b6000613f7084828501613f37565b91505092915050565b7f4552433732313a206d696e7420746f20746865207a65726f2061646472657373600082015250565b6000613faf602083612ac9565b9150613fba82613f79565b602082019050919050565b60006020820190508181036000830152613fde81613fa2565b9050919050565b7f4552433732313a20746f6b656e20616c7265616479206d696e74656400000000600082015250565b600061401b601c83612ac9565b915061402682613fe5565b602082019050919050565b6000602082019050818103600083015261404a8161400e565b9050919050565b7f4e487b7100000000000000000000000000000000000000000000000000000000600052603160045260246000fdfea2646970667358221220070fd67211aa1794d14fd21631aceda59b656e24e233ef5cf5eae7c84ee006c664736f6c634300080b0033",
  "immutableReferences": {},
  "source": "// SPDX-License-Identifier: MIT\npragma solidity ^0.8.11;\n\nimport \"@openzeppelin/contracts/token/ERC721/ERC721.sol\";\nimport \"@openzeppelin/contracts/token/ERC721/extensions/ERC721Enumerable.sol\";\nimport \"@openzeppelin/contracts/security/Pausable.sol\";\nimport \"@openzeppelin/contracts/access/AccessControl.sol\";\nimport \"@openzeppelin/contracts/token/ERC721/extensions/ERC721Burnable.sol\";\nimport \"@openzeppelin/contracts/utils/Counters.sol\";\n\ncontract JBA is ERC721, ERC721Enumerable, Pausable, AccessControl, ERC721Burnable {\n    using Counters for Counters.Counter;\n\n    bytes32 public constant PAUSER_ROLE = keccak256(\"PAUSER_ROLE\");\n    bytes32 public constant MINTER_ROLE = keccak256(\"MINTER_ROLE\");\n\n    Counters.Counter private _tokenIdCounter;\n\n    constructor() ERC721(\"JBA\", \"JBA\") {\n        _grantRole(DEFAULT_ADMIN_ROLE, msg.sender);\n        _grantRole(PAUSER_ROLE, msg.sender);\n        _grantRole(MINTER_ROLE, msg.sender);\n    }\n\n    function _baseURI() internal pure override returns (string memory) {\n        return \"https://jba.vercel.app/\";\n    }\n\n    function pause() public onlyRole(PAUSER_ROLE) {\n        _pause();\n    }\n\n    function unpause() public onlyRole(PAUSER_ROLE) {\n        _unpause();\n    }\n\n    function safeMint(address to) public onlyRole(MINTER_ROLE) {\n        uint256 tokenId = _tokenIdCounter.current();\n        _tokenIdCounter.increment();\n        _safeMint(to, tokenId);\n    }\n\n    function _beforeTokenTransfer(address from, address to, uint256 tokenId)\n        internal\n        whenNotPaused\n        override(ERC721, ERC721Enumerable)\n    {\n        super._beforeTokenTransfer(from, to, tokenId);\n    }\n\n    // The following functions are overrides required by Solidity.\n\n    function supportsInterface(bytes4 interfaceId)\n        public\n        view\n        override(ERC721, ERC721Enumerable, AccessControl)\n        returns (bool)\n    {\n        return super.supportsInterface(interfaceId);\n    }\n}\n",
  "sourcePath": "/home/hungdevjs/Documents/blockchain-tuts/smart-contract-react/truffle/contracts/JBA.sol",
  "compiler": {
    "name": "solc",
    "version": "0.8.11+commit.d7f03943.Emscripten.clang"
  },
  "schemaVersion": "3.4.5",
  "updatedAt": "2022-02-23T08:37:13.670Z",
  "networkType": "ethereum",
  "devdoc": {
    "kind": "dev",
    "methods": {
      "approve(address,uint256)": {
        "details": "See {IERC721-approve}."
      },
      "balanceOf(address)": {
        "details": "See {IERC721-balanceOf}."
      },
      "burn(uint256)": {
        "details": "Burns `tokenId`. See {ERC721-_burn}. Requirements: - The caller must own `tokenId` or be an approved operator."
      },
      "getApproved(uint256)": {
        "details": "See {IERC721-getApproved}."
      },
      "getRoleAdmin(bytes32)": {
        "details": "Returns the admin role that controls `role`. See {grantRole} and {revokeRole}. To change a role's admin, use {_setRoleAdmin}."
      },
      "grantRole(bytes32,address)": {
        "details": "Grants `role` to `account`. If `account` had not been already granted `role`, emits a {RoleGranted} event. Requirements: - the caller must have ``role``'s admin role."
      },
      "hasRole(bytes32,address)": {
        "details": "Returns `true` if `account` has been granted `role`."
      },
      "isApprovedForAll(address,address)": {
        "details": "See {IERC721-isApprovedForAll}."
      },
      "name()": {
        "details": "See {IERC721Metadata-name}."
      },
      "ownerOf(uint256)": {
        "details": "See {IERC721-ownerOf}."
      },
      "paused()": {
        "details": "Returns true if the contract is paused, and false otherwise."
      },
      "renounceRole(bytes32,address)": {
        "details": "Revokes `role` from the calling account. Roles are often managed via {grantRole} and {revokeRole}: this function's purpose is to provide a mechanism for accounts to lose their privileges if they are compromised (such as when a trusted device is misplaced). If the calling account had been revoked `role`, emits a {RoleRevoked} event. Requirements: - the caller must be `account`."
      },
      "revokeRole(bytes32,address)": {
        "details": "Revokes `role` from `account`. If `account` had been granted `role`, emits a {RoleRevoked} event. Requirements: - the caller must have ``role``'s admin role."
      },
      "safeTransferFrom(address,address,uint256)": {
        "details": "See {IERC721-safeTransferFrom}."
      },
      "safeTransferFrom(address,address,uint256,bytes)": {
        "details": "See {IERC721-safeTransferFrom}."
      },
      "setApprovalForAll(address,bool)": {
        "details": "See {IERC721-setApprovalForAll}."
      },
      "symbol()": {
        "details": "See {IERC721Metadata-symbol}."
      },
      "tokenByIndex(uint256)": {
        "details": "See {IERC721Enumerable-tokenByIndex}."
      },
      "tokenOfOwnerByIndex(address,uint256)": {
        "details": "See {IERC721Enumerable-tokenOfOwnerByIndex}."
      },
      "tokenURI(uint256)": {
        "details": "See {IERC721Metadata-tokenURI}."
      },
      "totalSupply()": {
        "details": "See {IERC721Enumerable-totalSupply}."
      },
      "transferFrom(address,address,uint256)": {
        "details": "See {IERC721-transferFrom}."
      }
    },
    "version": 1
  },
  "userdoc": {
    "kind": "user",
    "methods": {},
    "version": 1
  }
}