{
  "contractName": "Minter",
  "abi": [
    {
      "inputs": [
        {
          "internalType": "address payable",
          "name": "_JBAAddress",
          "type": "address"
        }
      ],
      "stateMutability": "nonpayable",
      "type": "constructor"
    },
    {
      "anonymous": false,
      "inputs": [
        {
          "indexed": false,
          "internalType": "uint256",
          "name": "amount",
          "type": "uint256"
        },
        {
          "indexed": false,
          "internalType": "uint256",
          "name": "gas",
          "type": "uint256"
        }
      ],
      "name": "Log",
      "type": "event"
    },
    {
      "anonymous": false,
      "inputs": [
        {
          "indexed": true,
          "internalType": "address",
          "name": "previousOwner",
          "type": "address"
        },
        {
          "indexed": true,
          "internalType": "address",
          "name": "newOwner",
          "type": "address"
        }
      ],
      "name": "OwnershipTransferred",
      "type": "event"
    },
    {
      "anonymous": false,
      "inputs": [
        {
          "indexed": false,
          "internalType": "bool",
          "name": "success",
          "type": "bool"
        },
        {
          "indexed": false,
          "internalType": "bytes",
          "name": "data",
          "type": "bytes"
        }
      ],
      "name": "ResultsFromCall",
      "type": "event"
    },
    {
      "stateMutability": "payable",
      "type": "fallback",
      "payable": true
    },
    {
      "inputs": [],
      "name": "BASE_PRICE",
      "outputs": [
        {
          "internalType": "uint256",
          "name": "",
          "type": "uint256"
        }
      ],
      "stateMutability": "view",
      "type": "function",
      "constant": true
    },
    {
      "inputs": [],
      "name": "FREE_MINT",
      "outputs": [
        {
          "internalType": "uint256",
          "name": "",
          "type": "uint256"
        }
      ],
      "stateMutability": "view",
      "type": "function",
      "constant": true
    },
    {
      "inputs": [],
      "name": "MAX_JBA",
      "outputs": [
        {
          "internalType": "uint256",
          "name": "",
          "type": "uint256"
        }
      ],
      "stateMutability": "view",
      "type": "function",
      "constant": true
    },
    {
      "inputs": [],
      "name": "MAX_PER_WALLET",
      "outputs": [
        {
          "internalType": "uint256",
          "name": "",
          "type": "uint256"
        }
      ],
      "stateMutability": "view",
      "type": "function",
      "constant": true
    },
    {
      "inputs": [],
      "name": "owner",
      "outputs": [
        {
          "internalType": "address",
          "name": "",
          "type": "address"
        }
      ],
      "stateMutability": "view",
      "type": "function",
      "constant": true
    },
    {
      "inputs": [],
      "name": "renounceOwnership",
      "outputs": [],
      "stateMutability": "nonpayable",
      "type": "function"
    },
    {
      "inputs": [
        {
          "internalType": "address",
          "name": "newOwner",
          "type": "address"
        }
      ],
      "name": "transferOwnership",
      "outputs": [],
      "stateMutability": "nonpayable",
      "type": "function"
    },
    {
      "stateMutability": "payable",
      "type": "receive",
      "payable": true
    },
    {
      "inputs": [],
      "name": "getBalance",
      "outputs": [
        {
          "internalType": "uint256",
          "name": "",
          "type": "uint256"
        }
      ],
      "stateMutability": "view",
      "type": "function",
      "constant": true
    },
    {
      "inputs": [
        {
          "internalType": "address",
          "name": "to",
          "type": "address"
        }
      ],
      "name": "mint",
      "outputs": [],
      "stateMutability": "payable",
      "type": "function",
      "payable": true
    },
    {
      "inputs": [
        {
          "internalType": "address",
          "name": "to",
          "type": "address"
        },
        {
          "internalType": "uint256",
          "name": "batchMintAmt",
          "type": "uint256"
        }
      ],
      "name": "batchMint",
      "outputs": [],
      "stateMutability": "payable",
      "type": "function",
      "payable": true
    },
    {
      "inputs": [],
      "name": "withdraw",
      "outputs": [],
      "stateMutability": "nonpayable",
      "type": "function"
    },
    {
      "inputs": [
        {
          "internalType": "address payable",
          "name": "_address",
          "type": "address"
        }
      ],
      "name": "setContractAddress",
      "outputs": [],
      "stateMutability": "nonpayable",
      "type": "function"
    },
    {
      "inputs": [
        {
          "internalType": "uint256",
          "name": "_basePrice",
          "type": "uint256"
        }
      ],
      "name": "setBasePrice",
      "outputs": [],
      "stateMutability": "nonpayable",
      "type": "function"
    }
  ],
  "bytecode": "0x608060405266b1a2bc2ec500006001553480156200001c57600080fd5b5060405162001ba638038062001ba6833981810160405281019062000042919062000221565b6200006262000056620000eb60201b60201c565b620000f360201b60201c565b80600360006101000a81548173ffffffffffffffffffffffffffffffffffffffff021916908373ffffffffffffffffffffffffffffffffffffffff16021790555080600260006101000a81548173ffffffffffffffffffffffffffffffffffffffff021916908373ffffffffffffffffffffffffffffffffffffffff1602179055505062000253565b600033905090565b60008060009054906101000a900473ffffffffffffffffffffffffffffffffffffffff169050816000806101000a81548173ffffffffffffffffffffffffffffffffffffffff021916908373ffffffffffffffffffffffffffffffffffffffff1602179055508173ffffffffffffffffffffffffffffffffffffffff168173ffffffffffffffffffffffffffffffffffffffff167f8be0079c531659141344cd1fd0a4f28419497f9722a3daafe3b4186f6b6457e060405160405180910390a35050565b600080fd5b600073ffffffffffffffffffffffffffffffffffffffff82169050919050565b6000620001e982620001bc565b9050919050565b620001fb81620001dc565b81146200020757600080fd5b50565b6000815190506200021b81620001f0565b92915050565b6000602082840312156200023a5762000239620001b7565b5b60006200024a848285016200020a565b91505092915050565b61194380620002636000396000f3fe6080604052600436106100c65760003560e01c80636a6278421161007f578063db065b1d11610059578063db065b1d1461020a578063de4b326214610235578063f2fde38b1461025e578063f86325ed14610287576100cd565b80636a627842146101ac578063715018a6146101c85780638da5cb5b146101df576100cd565b80630a74d75f146100cf5780630f2cdd6c146100fa57806312065fe0146101255780633ccfd60b1461015057806343508b0514610167578063477bddaa14610183576100cd565b366100cd57005b005b3480156100db57600080fd5b506100e46102b2565b6040516100f19190611061565b60405180910390f35b34801561010657600080fd5b5061010f6102b8565b60405161011c9190611061565b60405180910390f35b34801561013157600080fd5b5061013a6102bd565b6040516101479190611061565b60405180910390f35b34801561015c57600080fd5b506101656102c5565b005b610181600480360381019061017c919061110b565b610475565b005b34801561018f57600080fd5b506101aa60048036038101906101a59190611189565b610778565b005b6101c660048036038101906101c191906111b6565b610879565b005b3480156101d457600080fd5b506101dd610d41565b005b3480156101eb57600080fd5b506101f4610dc9565b60405161020191906111f2565b60405180910390f35b34801561021657600080fd5b5061021f610df2565b60405161022c9190611061565b60405180910390f35b34801561024157600080fd5b5061025c6004803603810190610257919061120d565b610df8565b005b34801561026a57600080fd5b50610285600480360381019061028091906111b6565b610e7e565b005b34801561029357600080fd5b5061029c610f76565b6040516102a99190611061565b60405180910390f35b61037881565b600581565b600047905090565b6102cd610f7c565b73ffffffffffffffffffffffffffffffffffffffff166102eb610dc9565b73ffffffffffffffffffffffffffffffffffffffff1614610341576040517f08c379a000000000000000000000000000000000000000000000000000000000815260040161033890611297565b60405180910390fd5b600047905060008111610389576040517f08c379a000000000000000000000000000000000000000000000000000000000815260040161038090611303565b60405180910390fd5b6000803373ffffffffffffffffffffffffffffffffffffffff16836040516103b090611354565b60006040518083038185875af1925050503d80600081146103ed576040519150601f19603f3d011682016040523d82523d6000602084013e6103f2565b606091505b509150915081610437576040517f08c379a000000000000000000000000000000000000000000000000000000000815260040161042e906113b5565b60405180910390fd5b7ffe0c8fdb7358cac52628b197c1f1419c599e01d9894a88eefab41a1a1839d2918282604051610468929190611489565b60405180910390a1505050565b61037881600260009054906101000a900473ffffffffffffffffffffffffffffffffffffffff1673ffffffffffffffffffffffffffffffffffffffff166318160ddd6040518163ffffffff1660e01b8152600401602060405180830381865afa1580156104e6573d6000803e3d6000fd5b505050506040513d601f19601f8201168201806040525081019061050a91906114ce565b610514919061152a565b1115610555576040517f08c379a000000000000000000000000000000000000000000000000000000000815260040161054c906115cc565b60405180910390fd5b600581600260009054906101000a900473ffffffffffffffffffffffffffffffffffffffff1673ffffffffffffffffffffffffffffffffffffffff166370a08231856040518263ffffffff1660e01b81526004016105b391906111f2565b602060405180830381865afa1580156105d0573d6000803e3d6000fd5b505050506040513d601f19601f820116820180604052508101906105f491906114ce565b6105fe919061152a565b111561063f576040517f08c379a00000000000000000000000000000000000000000000000000000000081526004016106369061165e565b60405180910390fd5b8060015461064d919061167e565b34101561068f576040517f08c379a000000000000000000000000000000000000000000000000000000000815260040161068690611724565b60405180910390fd5b60005b8181101561073a57600260009054906101000a900473ffffffffffffffffffffffffffffffffffffffff1673ffffffffffffffffffffffffffffffffffffffff166340d097c3846040518263ffffffff1660e01b81526004016106f591906111f2565b600060405180830381600087803b15801561070f57600080fd5b505af1158015610723573d6000803e3d6000fd5b50505050808061073290611744565b915050610692565b507fbd0faddf87043dd749c1b9d4dca8a12589b8cb5e2106832111ce23f219b14367345a60405161076c92919061178d565b60405180910390a15050565b610780610f7c565b73ffffffffffffffffffffffffffffffffffffffff1661079e610dc9565b73ffffffffffffffffffffffffffffffffffffffff16146107f4576040517f08c379a00000000000000000000000000000000000000000000000000000000081526004016107eb90611297565b60405180910390fd5b80600360006101000a81548173ffffffffffffffffffffffffffffffffffffffff021916908373ffffffffffffffffffffffffffffffffffffffff16021790555080600260006101000a81548173ffffffffffffffffffffffffffffffffffffffff021916908373ffffffffffffffffffffffffffffffffffffffff16021790555050565b600260009054906101000a900473ffffffffffffffffffffffffffffffffffffffff1673ffffffffffffffffffffffffffffffffffffffff16636f9170f6826040518263ffffffff1660e01b81526004016108d491906111f2565b602060405180830381865afa1580156108f1573d6000803e3d6000fd5b505050506040513d601f19601f8201168201806040525081019061091591906117e2565b610954576040517f08c379a000000000000000000000000000000000000000000000000000000000815260040161094b9061185b565b60405180910390fd5b610378600260009054906101000a900473ffffffffffffffffffffffffffffffffffffffff1673ffffffffffffffffffffffffffffffffffffffff166318160ddd6040518163ffffffff1660e01b8152600401602060405180830381865afa1580156109c4573d6000803e3d6000fd5b505050506040513d601f19601f820116820180604052508101906109e891906114ce565b10610a28576040517f08c379a0000000000000000000000000000000000000000000000000000000008152600401610a1f906115cc565b60405180910390fd5b6005600260009054906101000a900473ffffffffffffffffffffffffffffffffffffffff1673ffffffffffffffffffffffffffffffffffffffff166370a08231836040518263ffffffff1660e01b8152600401610a8591906111f2565b602060405180830381865afa158015610aa2573d6000803e3d6000fd5b505050506040513d601f19601f82011682018060405250810190610ac691906114ce565b10610b06576040517f08c379a0000000000000000000000000000000000000000000000000000000008152600401610afd9061165e565b60405180910390fd5b6101bc600260009054906101000a900473ffffffffffffffffffffffffffffffffffffffff1673ffffffffffffffffffffffffffffffffffffffff166318160ddd6040518163ffffffff1660e01b8152600401602060405180830381865afa158015610b76573d6000803e3d6000fd5b505050506040513d601f19601f82011682018060405250810190610b9a91906114ce565b1015610c3257600260009054906101000a900473ffffffffffffffffffffffffffffffffffffffff1673ffffffffffffffffffffffffffffffffffffffff166340d097c3826040518263ffffffff1660e01b8152600401610bfb91906111f2565b600060405180830381600087803b158015610c1557600080fd5b505af1158015610c29573d6000803e3d6000fd5b50505050610d05565b600154341015610c77576040517f08c379a0000000000000000000000000000000000000000000000000000000008152600401610c6e90611724565b60405180910390fd5b600260009054906101000a900473ffffffffffffffffffffffffffffffffffffffff1673ffffffffffffffffffffffffffffffffffffffff166340d097c3826040518263ffffffff1660e01b8152600401610cd291906111f2565b600060405180830381600087803b158015610cec57600080fd5b505af1158015610d00573d6000803e3d6000fd5b505050505b7fbd0faddf87043dd749c1b9d4dca8a12589b8cb5e2106832111ce23f219b14367345a604051610d3692919061178d565b60405180910390a150565b610d49610f7c565b73ffffffffffffffffffffffffffffffffffffffff16610d67610dc9565b73ffffffffffffffffffffffffffffffffffffffff1614610dbd576040517f08c379a0000000000000000000000000000000000000000000000000000000008152600401610db490611297565b60405180910390fd5b610dc76000610f84565b565b60008060009054906101000a900473ffffffffffffffffffffffffffffffffffffffff16905090565b6101bc81565b610e00610f7c565b73ffffffffffffffffffffffffffffffffffffffff16610e1e610dc9565b73ffffffffffffffffffffffffffffffffffffffff1614610e74576040517f08c379a0000000000000000000000000000000000000000000000000000000008152600401610e6b90611297565b60405180910390fd5b8060018190555050565b610e86610f7c565b73ffffffffffffffffffffffffffffffffffffffff16610ea4610dc9565b73ffffffffffffffffffffffffffffffffffffffff1614610efa576040517f08c379a0000000000000000000000000000000000000000000000000000000008152600401610ef190611297565b60405180910390fd5b600073ffffffffffffffffffffffffffffffffffffffff168173ffffffffffffffffffffffffffffffffffffffff161415610f6a576040517f08c379a0000000000000000000000000000000000000000000000000000000008152600401610f61906118ed565b60405180910390fd5b610f7381610f84565b50565b60015481565b600033905090565b60008060009054906101000a900473ffffffffffffffffffffffffffffffffffffffff169050816000806101000a81548173ffffffffffffffffffffffffffffffffffffffff021916908373ffffffffffffffffffffffffffffffffffffffff1602179055508173ffffffffffffffffffffffffffffffffffffffff168173ffffffffffffffffffffffffffffffffffffffff167f8be0079c531659141344cd1fd0a4f28419497f9722a3daafe3b4186f6b6457e060405160405180910390a35050565b6000819050919050565b61105b81611048565b82525050565b60006020820190506110766000830184611052565b92915050565b600080fd5b600073ffffffffffffffffffffffffffffffffffffffff82169050919050565b60006110ac82611081565b9050919050565b6110bc816110a1565b81146110c757600080fd5b50565b6000813590506110d9816110b3565b92915050565b6110e881611048565b81146110f357600080fd5b50565b600081359050611105816110df565b92915050565b600080604083850312156111225761112161107c565b5b6000611130858286016110ca565b9250506020611141858286016110f6565b9150509250929050565b600061115682611081565b9050919050565b6111668161114b565b811461117157600080fd5b50565b6000813590506111838161115d565b92915050565b60006020828403121561119f5761119e61107c565b5b60006111ad84828501611174565b91505092915050565b6000602082840312156111cc576111cb61107c565b5b60006111da848285016110ca565b91505092915050565b6111ec816110a1565b82525050565b600060208201905061120760008301846111e3565b92915050565b6000602082840312156112235761122261107c565b5b6000611231848285016110f6565b91505092915050565b600082825260208201905092915050565b7f4f776e61626c653a2063616c6c6572206973206e6f7420746865206f776e6572600082015250565b600061128160208361123a565b915061128c8261124b565b602082019050919050565b600060208201905081810360008301526112b081611274565b9050919050565b7f4e6f206574686572206c65667420746f20776974686472617700000000000000600082015250565b60006112ed60198361123a565b91506112f8826112b7565b602082019050919050565b6000602082019050818103600083015261131c816112e0565b9050919050565b600081905092915050565b50565b600061133e600083611323565b91506113498261132e565b600082019050919050565b600061135f82611331565b9150819050919050565b7f5769746864726177616c206661696c6564000000000000000000000000000000600082015250565b600061139f60118361123a565b91506113aa82611369565b602082019050919050565b600060208201905081810360008301526113ce81611392565b9050919050565b60008115159050919050565b6113ea816113d5565b82525050565b600081519050919050565b600082825260208201905092915050565b60005b8381101561142a57808201518184015260208101905061140f565b83811115611439576000848401525b50505050565b6000601f19601f8301169050919050565b600061145b826113f0565b61146581856113fb565b935061147581856020860161140c565b61147e8161143f565b840191505092915050565b600060408201905061149e60008301856113e1565b81810360208301526114b08184611450565b90509392505050565b6000815190506114c8816110df565b92915050565b6000602082840312156114e4576114e361107c565b5b60006114f2848285016114b9565b91505092915050565b7f4e487b7100000000000000000000000000000000000000000000000000000000600052601160045260246000fd5b600061153582611048565b915061154083611048565b9250827fffffffffffffffffffffffffffffffffffffffffffffffffffffffffffffffff03821115611575576115746114fb565b5b828201905092915050565b7f4e6f206d6f7265206c65667420746f206d696e74000000000000000000000000600082015250565b60006115b660148361123a565b91506115c182611580565b602082019050919050565b600060208201905081810360008301526115e5816115a9565b9050919050565b7f596f752068617665206d696e74656420796f75722077616c6c6574206c696d6960008201527f7400000000000000000000000000000000000000000000000000000000000000602082015250565b600061164860218361123a565b9150611653826115ec565b604082019050919050565b600060208201905081810360008301526116778161163b565b9050919050565b600061168982611048565b915061169483611048565b9250817fffffffffffffffffffffffffffffffffffffffffffffffffffffffffffffffff04831182151516156116cd576116cc6114fb565b5b828202905092915050565b7f4e65656420746f2073656e64206d6f7265206574686572000000000000000000600082015250565b600061170e60178361123a565b9150611719826116d8565b602082019050919050565b6000602082019050818103600083015261173d81611701565b9050919050565b600061174f82611048565b91507fffffffffffffffffffffffffffffffffffffffffffffffffffffffffffffffff821415611782576117816114fb565b5b600182019050919050565b60006040820190506117a26000830185611052565b6117af6020830184611052565b9392505050565b6117bf816113d5565b81146117ca57600080fd5b50565b6000815190506117dc816117b6565b92915050565b6000602082840312156117f8576117f761107c565b5b6000611806848285016117cd565b91505092915050565b7f557365722069736e742077686974656c69737465640000000000000000000000600082015250565b600061184560158361123a565b91506118508261180f565b602082019050919050565b6000602082019050818103600083015261187481611838565b9050919050565b7f4f776e61626c653a206e6577206f776e657220697320746865207a65726f206160008201527f6464726573730000000000000000000000000000000000000000000000000000602082015250565b60006118d760268361123a565b91506118e28261187b565b604082019050919050565b60006020820190508181036000830152611906816118ca565b905091905056fea2646970667358221220289fc1f57295817ba6602c8f5de271e364ae6890c4edb84a9b47741419c4fe6164736f6c634300080b0033",
  "immutableReferences": {},
  "source": "// SPDX-License-Identifier: MIT\npragma solidity ^0.8.11;\n\nimport '@openzeppelin/contracts/access/Ownable.sol';\nimport './JBA.sol';\n\ncontract Minter is Ownable {\n  uint256 public BASE_PRICE = 0.05 ether;\n  uint256 public constant MAX_PER_WALLET = 5;\n  uint256 public constant MAX_JBA = 888;\n  uint256 public constant FREE_MINT = 444;\n\n  JBA private tokens;\n  address private JBAAddress;\n\n  event Log(uint256 amount, uint256 gas);\n  event ResultsFromCall(bool success, bytes data);\n\n  constructor(address payable _JBAAddress) {\n    JBAAddress = _JBAAddress;\n    tokens = JBA(_JBAAddress);\n  }\n\n  receive() external payable {}\n\n  fallback() external payable {}\n\n  /**\n  ***************************\n  Public\n  ***************************\n   */\n\n  function getBalance() public view returns (uint256) {\n    return address(this).balance;\n  }\n\n  function mint(address to) public payable {\n    require(tokens.isWhiteListed(to), \"User isnt whitelisted\");\n    require(tokens.totalSupply() < MAX_JBA, 'No more left to mint');\n    require(tokens.balanceOf(to) < MAX_PER_WALLET, 'You have minted your wallet limit');\n\n    if (tokens.totalSupply() < FREE_MINT) {\n      // free minting\n      tokens.safeMint(to);\n    } else {\n      require(msg.value >= BASE_PRICE, 'Need to send more ether');\n      tokens.safeMint(to);\n    }\n\n    emit Log(msg.value, gasleft());\n  }\n\n  function batchMint(address to, uint256 batchMintAmt) public payable {\n    // no free minting for batch\n\n    require((tokens.totalSupply() + batchMintAmt) <= MAX_JBA, 'No more left to mint');\n    require((tokens.balanceOf(to) + batchMintAmt) <= MAX_PER_WALLET, 'You have minted your wallet limit');\n    require(msg.value >= (BASE_PRICE * batchMintAmt), 'Need to send more ether');\n\n    for (uint256 index = 0; index < batchMintAmt; index++) {\n      tokens.safeMint(to);\n    }\n\n    emit Log(msg.value, gasleft());\n  }\n\n  /**\n  ***************************\n  Only Owner\n  ***************************\n   */\n\n  function withdraw() external onlyOwner {\n    uint256 balance = address(this).balance;\n    require(balance > 0, 'No ether left to withdraw');\n\n    (bool success, bytes memory data) = (msg.sender).call{value: balance}('');\n    require(success, 'Withdrawal failed');\n    emit ResultsFromCall(success, data);\n  }\n\n  /**\n  ***************************\n  Customization for the contract\n  ***************************\n   */\n\n  function setContractAddress(address payable _address) external onlyOwner {\n    JBAAddress = _address;\n    tokens = JBA(_address);\n  }\n\n  function setBasePrice(uint256 _basePrice) public onlyOwner {\n    BASE_PRICE = _basePrice;\n  }\n}\n",
  "sourcePath": "/home/hungdevjs/Documents/blockchain-tuts/smart-contract-react/truffle/contracts/Minter.sol",
  "compiler": {
    "name": "solc",
    "version": "0.8.11+commit.d7f03943.Emscripten.clang"
  },
  "schemaVersion": "3.4.5",
  "updatedAt": "2022-02-22T11:43:29.702Z",
  "networkType": "ethereum",
  "devdoc": {
    "kind": "dev",
    "methods": {
      "owner()": {
        "details": "Returns the address of the current owner."
      },
      "renounceOwnership()": {
        "details": "Leaves the contract without owner. It will not be possible to call `onlyOwner` functions anymore. Can only be called by the current owner. NOTE: Renouncing ownership will leave the contract without an owner, thereby removing any functionality that is only available to the owner."
      },
      "transferOwnership(address)": {
        "details": "Transfers ownership of the contract to a new account (`newOwner`). Can only be called by the current owner."
      }
    },
    "version": 1
  },
  "userdoc": {
    "kind": "user",
    "methods": {
      "getBalance()": {
        "notice": "*************************** Public***************************"
      },
      "setContractAddress(address)": {
        "notice": "*************************** Customization for the contract***************************"
      },
      "withdraw()": {
        "notice": "*************************** Only Owner***************************"
      }
    },
    "version": 1
  }
}