{
  "contractName": "Minter",
  "abi": [
    {
      "inputs": [
        {
          "internalType": "address payable",
          "name": "_JBAAddress",
          "type": "address"
        }
      ],
      "stateMutability": "nonpayable",
      "type": "constructor"
    },
    {
      "anonymous": false,
      "inputs": [
        {
          "indexed": false,
          "internalType": "uint256",
          "name": "amount",
          "type": "uint256"
        },
        {
          "indexed": false,
          "internalType": "uint256",
          "name": "gas",
          "type": "uint256"
        }
      ],
      "name": "Log",
      "type": "event"
    },
    {
      "anonymous": false,
      "inputs": [
        {
          "indexed": true,
          "internalType": "address",
          "name": "previousOwner",
          "type": "address"
        },
        {
          "indexed": true,
          "internalType": "address",
          "name": "newOwner",
          "type": "address"
        }
      ],
      "name": "OwnershipTransferred",
      "type": "event"
    },
    {
      "anonymous": false,
      "inputs": [
        {
          "indexed": false,
          "internalType": "bool",
          "name": "success",
          "type": "bool"
        },
        {
          "indexed": false,
          "internalType": "bytes",
          "name": "data",
          "type": "bytes"
        }
      ],
      "name": "ResultsFromCall",
      "type": "event"
    },
    {
      "stateMutability": "payable",
      "type": "fallback"
    },
    {
      "inputs": [],
      "name": "BASE_PRICE",
      "outputs": [
        {
          "internalType": "uint256",
          "name": "",
          "type": "uint256"
        }
      ],
      "stateMutability": "view",
      "type": "function"
    },
    {
      "inputs": [],
      "name": "FREE_MINT",
      "outputs": [
        {
          "internalType": "uint256",
          "name": "",
          "type": "uint256"
        }
      ],
      "stateMutability": "view",
      "type": "function"
    },
    {
      "inputs": [],
      "name": "MAX_JBA",
      "outputs": [
        {
          "internalType": "uint256",
          "name": "",
          "type": "uint256"
        }
      ],
      "stateMutability": "view",
      "type": "function"
    },
    {
      "inputs": [],
      "name": "MAX_PER_WALLET",
      "outputs": [
        {
          "internalType": "uint256",
          "name": "",
          "type": "uint256"
        }
      ],
      "stateMutability": "view",
      "type": "function"
    },
    {
      "inputs": [],
      "name": "merkleRoot",
      "outputs": [
        {
          "internalType": "bytes32",
          "name": "",
          "type": "bytes32"
        }
      ],
      "stateMutability": "view",
      "type": "function"
    },
    {
      "inputs": [],
      "name": "owner",
      "outputs": [
        {
          "internalType": "address",
          "name": "",
          "type": "address"
        }
      ],
      "stateMutability": "view",
      "type": "function"
    },
    {
      "inputs": [],
      "name": "renounceOwnership",
      "outputs": [],
      "stateMutability": "nonpayable",
      "type": "function"
    },
    {
      "inputs": [
        {
          "internalType": "address",
          "name": "newOwner",
          "type": "address"
        }
      ],
      "name": "transferOwnership",
      "outputs": [],
      "stateMutability": "nonpayable",
      "type": "function"
    },
    {
      "stateMutability": "payable",
      "type": "receive"
    },
    {
      "inputs": [],
      "name": "getBalance",
      "outputs": [
        {
          "internalType": "uint256",
          "name": "",
          "type": "uint256"
        }
      ],
      "stateMutability": "view",
      "type": "function"
    },
    {
      "inputs": [
        {
          "internalType": "address",
          "name": "to",
          "type": "address"
        },
        {
          "internalType": "bytes32[]",
          "name": "merkleProof",
          "type": "bytes32[]"
        }
      ],
      "name": "mint",
      "outputs": [],
      "stateMutability": "payable",
      "type": "function"
    },
    {
      "inputs": [
        {
          "internalType": "address",
          "name": "to",
          "type": "address"
        },
        {
          "internalType": "bytes32[]",
          "name": "merkleProof",
          "type": "bytes32[]"
        },
        {
          "internalType": "uint256",
          "name": "batchMintAmt",
          "type": "uint256"
        }
      ],
      "name": "batchMint",
      "outputs": [],
      "stateMutability": "payable",
      "type": "function"
    },
    {
      "inputs": [],
      "name": "withdraw",
      "outputs": [],
      "stateMutability": "nonpayable",
      "type": "function"
    },
    {
      "inputs": [
        {
          "internalType": "address payable",
          "name": "_address",
          "type": "address"
        }
      ],
      "name": "setContractAddress",
      "outputs": [],
      "stateMutability": "nonpayable",
      "type": "function"
    },
    {
      "inputs": [
        {
          "internalType": "uint256",
          "name": "_basePrice",
          "type": "uint256"
        }
      ],
      "name": "setBasePrice",
      "outputs": [],
      "stateMutability": "nonpayable",
      "type": "function"
    }
  ],
  "bytecode": "0x608060405266b1a2bc2ec500006065553480156200001c57600080fd5b5060405162001d9a38038062001d9a833981810160405281019062000042919062000135565b80606760006101000a81548173ffffffffffffffffffffffffffffffffffffffff021916908373ffffffffffffffffffffffffffffffffffffffff16021790555080606660006101000a81548173ffffffffffffffffffffffffffffffffffffffff021916908373ffffffffffffffffffffffffffffffffffffffff1602179055505062000167565b600080fd5b600073ffffffffffffffffffffffffffffffffffffffff82169050919050565b6000620000fd82620000d0565b9050919050565b6200010f81620000f0565b81146200011b57600080fd5b50565b6000815190506200012f8162000104565b92915050565b6000602082840312156200014e576200014d620000cb565b5b60006200015e848285016200011e565b91505092915050565b611c2380620001776000396000f3fe6080604052600436106100e15760003560e01c80637bf322701161007f578063db065b1d11610059578063db065b1d14610250578063de4b32621461027b578063f2fde38b146102a4578063f86325ed146102cd576100e8565b80637bf32270146101ed5780638da5cb5b14610209578063974513e514610234576100e8565b80632eb4a7ab116100bb5780632eb4a7ab1461016b5780633ccfd60b14610196578063477bddaa146101ad578063715018a6146101d6576100e8565b80630a74d75f146100ea5780630f2cdd6c1461011557806312065fe014610140576100e8565b366100e857005b005b3480156100f657600080fd5b506100ff6102f8565b60405161010c91906111d6565b60405180910390f35b34801561012157600080fd5b5061012a6102fe565b60405161013791906111d6565b60405180910390f35b34801561014c57600080fd5b50610155610303565b60405161016291906111d6565b60405180910390f35b34801561017757600080fd5b5061018061030b565b60405161018d919061120a565b60405180910390f35b3480156101a257600080fd5b506101ab610332565b005b3480156101b957600080fd5b506101d460048036038101906101cf919061128d565b6104e2565b005b3480156101e257600080fd5b506101eb6105e3565b005b6102076004803603810190610202919061135d565b61066b565b005b34801561021557600080fd5b5061021e610aa4565b60405161022b91906113cc565b60405180910390f35b61024e60048036038101906102499190611413565b610ace565b005b34801561025c57600080fd5b50610265610e1d565b60405161027291906111d6565b60405180910390f35b34801561028757600080fd5b506102a2600480360381019061029d9190611487565b610e23565b005b3480156102b057600080fd5b506102cb60048036038101906102c691906114b4565b610ea9565b005b3480156102d957600080fd5b506102e2610fa1565b6040516102ef91906111d6565b60405180910390f35b61037881565b600581565b600047905090565b7f61efffbebd403d9f2c9887e53aac7039ef8ac2fe331358983d8ee975c12020ff60001b81565b61033a610fa7565b73ffffffffffffffffffffffffffffffffffffffff16610358610aa4565b73ffffffffffffffffffffffffffffffffffffffff16146103ae576040517f08c379a00000000000000000000000000000000000000000000000000000000081526004016103a59061153e565b60405180910390fd5b6000479050600081116103f6576040517f08c379a00000000000000000000000000000000000000000000000000000000081526004016103ed906115aa565b60405180910390fd5b6000803373ffffffffffffffffffffffffffffffffffffffff168360405161041d906115fb565b60006040518083038185875af1925050503d806000811461045a576040519150601f19603f3d011682016040523d82523d6000602084013e61045f565b606091505b5091509150816104a4576040517f08c379a000000000000000000000000000000000000000000000000000000000815260040161049b9061165c565b60405180910390fd5b7ffe0c8fdb7358cac52628b197c1f1419c599e01d9894a88eefab41a1a1839d29182826040516104d5929190611730565b60405180910390a1505050565b6104ea610fa7565b73ffffffffffffffffffffffffffffffffffffffff16610508610aa4565b73ffffffffffffffffffffffffffffffffffffffff161461055e576040517f08c379a00000000000000000000000000000000000000000000000000000000081526004016105559061153e565b60405180910390fd5b80606760006101000a81548173ffffffffffffffffffffffffffffffffffffffff021916908373ffffffffffffffffffffffffffffffffffffffff16021790555080606660006101000a81548173ffffffffffffffffffffffffffffffffffffffff021916908373ffffffffffffffffffffffffffffffffffffffff16021790555050565b6105eb610fa7565b73ffffffffffffffffffffffffffffffffffffffff16610609610aa4565b73ffffffffffffffffffffffffffffffffffffffff161461065f576040517f08c379a00000000000000000000000000000000000000000000000000000000081526004016106569061153e565b60405180910390fd5b6106696000610faf565b565b610676828285611075565b6106b5576040517f08c379a00000000000000000000000000000000000000000000000000000000081526004016106ac906117ac565b60405180910390fd5b610378606660009054906101000a900473ffffffffffffffffffffffffffffffffffffffff1673ffffffffffffffffffffffffffffffffffffffff166318160ddd6040518163ffffffff1660e01b8152600401602060405180830381865afa158015610725573d6000803e3d6000fd5b505050506040513d601f19601f8201168201806040525081019061074991906117e1565b10610789576040517f08c379a00000000000000000000000000000000000000000000000000000000081526004016107809061185a565b60405180910390fd5b6005606660009054906101000a900473ffffffffffffffffffffffffffffffffffffffff1673ffffffffffffffffffffffffffffffffffffffff166370a08231856040518263ffffffff1660e01b81526004016107e691906113cc565b602060405180830381865afa158015610803573d6000803e3d6000fd5b505050506040513d601f19601f8201168201806040525081019061082791906117e1565b10610867576040517f08c379a000000000000000000000000000000000000000000000000000000000815260040161085e906118ec565b60405180910390fd5b6101bc606660009054906101000a900473ffffffffffffffffffffffffffffffffffffffff1673ffffffffffffffffffffffffffffffffffffffff166318160ddd6040518163ffffffff1660e01b8152600401602060405180830381865afa1580156108d7573d6000803e3d6000fd5b505050506040513d601f19601f820116820180604052508101906108fb91906117e1565b101561099357606660009054906101000a900473ffffffffffffffffffffffffffffffffffffffff1673ffffffffffffffffffffffffffffffffffffffff166340d097c3846040518263ffffffff1660e01b815260040161095c91906113cc565b600060405180830381600087803b15801561097657600080fd5b505af115801561098a573d6000803e3d6000fd5b50505050610a66565b6065543410156109d8576040517f08c379a00000000000000000000000000000000000000000000000000000000081526004016109cf90611958565b60405180910390fd5b606660009054906101000a900473ffffffffffffffffffffffffffffffffffffffff1673ffffffffffffffffffffffffffffffffffffffff166340d097c3846040518263ffffffff1660e01b8152600401610a3391906113cc565b600060405180830381600087803b158015610a4d57600080fd5b505af1158015610a61573d6000803e3d6000fd5b505050505b7fbd0faddf87043dd749c1b9d4dca8a12589b8cb5e2106832111ce23f219b14367345a604051610a97929190611978565b60405180910390a1505050565b6000603360009054906101000a900473ffffffffffffffffffffffffffffffffffffffff16905090565b610ad9838386611075565b610b18576040517f08c379a0000000000000000000000000000000000000000000000000000000008152600401610b0f906117ac565b60405180910390fd5b61037881606660009054906101000a900473ffffffffffffffffffffffffffffffffffffffff1673ffffffffffffffffffffffffffffffffffffffff166318160ddd6040518163ffffffff1660e01b8152600401602060405180830381865afa158015610b89573d6000803e3d6000fd5b505050506040513d601f19601f82011682018060405250810190610bad91906117e1565b610bb791906119d0565b1115610bf8576040517f08c379a0000000000000000000000000000000000000000000000000000000008152600401610bef9061185a565b60405180910390fd5b600581606660009054906101000a900473ffffffffffffffffffffffffffffffffffffffff1673ffffffffffffffffffffffffffffffffffffffff166370a08231876040518263ffffffff1660e01b8152600401610c5691906113cc565b602060405180830381865afa158015610c73573d6000803e3d6000fd5b505050506040513d601f19601f82011682018060405250810190610c9791906117e1565b610ca191906119d0565b1115610ce2576040517f08c379a0000000000000000000000000000000000000000000000000000000008152600401610cd9906118ec565b60405180910390fd5b80606554610cf09190611a26565b341015610d32576040517f08c379a0000000000000000000000000000000000000000000000000000000008152600401610d2990611958565b60405180910390fd5b60005b81811015610ddd57606660009054906101000a900473ffffffffffffffffffffffffffffffffffffffff1673ffffffffffffffffffffffffffffffffffffffff166340d097c3866040518263ffffffff1660e01b8152600401610d9891906113cc565b600060405180830381600087803b158015610db257600080fd5b505af1158015610dc6573d6000803e3d6000fd5b505050508080610dd590611a80565b915050610d35565b507fbd0faddf87043dd749c1b9d4dca8a12589b8cb5e2106832111ce23f219b14367345a604051610e0f929190611978565b60405180910390a150505050565b6101bc81565b610e2b610fa7565b73ffffffffffffffffffffffffffffffffffffffff16610e49610aa4565b73ffffffffffffffffffffffffffffffffffffffff1614610e9f576040517f08c379a0000000000000000000000000000000000000000000000000000000008152600401610e969061153e565b60405180910390fd5b8060658190555050565b610eb1610fa7565b73ffffffffffffffffffffffffffffffffffffffff16610ecf610aa4565b73ffffffffffffffffffffffffffffffffffffffff1614610f25576040517f08c379a0000000000000000000000000000000000000000000000000000000008152600401610f1c9061153e565b60405180910390fd5b600073ffffffffffffffffffffffffffffffffffffffff168173ffffffffffffffffffffffffffffffffffffffff161415610f95576040517f08c379a0000000000000000000000000000000000000000000000000000000008152600401610f8c90611b3b565b60405180910390fd5b610f9e81610faf565b50565b60655481565b600033905090565b6000603360009054906101000a900473ffffffffffffffffffffffffffffffffffffffff16905081603360006101000a81548173ffffffffffffffffffffffffffffffffffffffff021916908373ffffffffffffffffffffffffffffffffffffffff1602179055508173ffffffffffffffffffffffffffffffffffffffff168173ffffffffffffffffffffffffffffffffffffffff167f8be0079c531659141344cd1fd0a4f28419497f9722a3daafe3b4186f6b6457e060405160405180910390a35050565b600080826040516020016110899190611ba3565b604051602081830303815290604052805190602001209050611110858580806020026020016040519081016040528093929190818152602001838360200280828437600081840152601f19601f820116905080830192505050505050507f61efffbebd403d9f2c9887e53aac7039ef8ac2fe331358983d8ee975c12020ff60001b8361111a565b9150509392505050565b6000826111278584611131565b1490509392505050565b60008082905060005b845181101561119b57600085828151811061115857611157611bbe565b5b6020026020010151905080831161117a5761117383826111a6565b9250611187565b61118481846111a6565b92505b50808061119390611a80565b91505061113a565b508091505092915050565b600082600052816020526040600020905092915050565b6000819050919050565b6111d0816111bd565b82525050565b60006020820190506111eb60008301846111c7565b92915050565b6000819050919050565b611204816111f1565b82525050565b600060208201905061121f60008301846111fb565b92915050565b600080fd5b600080fd5b600073ffffffffffffffffffffffffffffffffffffffff82169050919050565b600061125a8261122f565b9050919050565b61126a8161124f565b811461127557600080fd5b50565b60008135905061128781611261565b92915050565b6000602082840312156112a3576112a2611225565b5b60006112b184828501611278565b91505092915050565b60006112c58261122f565b9050919050565b6112d5816112ba565b81146112e057600080fd5b50565b6000813590506112f2816112cc565b92915050565b600080fd5b600080fd5b600080fd5b60008083601f84011261131d5761131c6112f8565b5b8235905067ffffffffffffffff81111561133a576113396112fd565b5b60208301915083602082028301111561135657611355611302565b5b9250929050565b60008060006040848603121561137657611375611225565b5b6000611384868287016112e3565b935050602084013567ffffffffffffffff8111156113a5576113a461122a565b5b6113b186828701611307565b92509250509250925092565b6113c6816112ba565b82525050565b60006020820190506113e160008301846113bd565b92915050565b6113f0816111bd565b81146113fb57600080fd5b50565b60008135905061140d816113e7565b92915050565b6000806000806060858703121561142d5761142c611225565b5b600061143b878288016112e3565b945050602085013567ffffffffffffffff81111561145c5761145b61122a565b5b61146887828801611307565b9350935050604061147b878288016113fe565b91505092959194509250565b60006020828403121561149d5761149c611225565b5b60006114ab848285016113fe565b91505092915050565b6000602082840312156114ca576114c9611225565b5b60006114d8848285016112e3565b91505092915050565b600082825260208201905092915050565b7f4f776e61626c653a2063616c6c6572206973206e6f7420746865206f776e6572600082015250565b60006115286020836114e1565b9150611533826114f2565b602082019050919050565b600060208201905081810360008301526115578161151b565b9050919050565b7f4e6f206574686572206c65667420746f20776974686472617700000000000000600082015250565b60006115946019836114e1565b915061159f8261155e565b602082019050919050565b600060208201905081810360008301526115c381611587565b9050919050565b600081905092915050565b50565b60006115e56000836115ca565b91506115f0826115d5565b600082019050919050565b6000611606826115d8565b9150819050919050565b7f5769746864726177616c206661696c6564000000000000000000000000000000600082015250565b60006116466011836114e1565b915061165182611610565b602082019050919050565b6000602082019050818103600083015261167581611639565b9050919050565b60008115159050919050565b6116918161167c565b82525050565b600081519050919050565b600082825260208201905092915050565b60005b838110156116d15780820151818401526020810190506116b6565b838111156116e0576000848401525b50505050565b6000601f19601f8301169050919050565b600061170282611697565b61170c81856116a2565b935061171c8185602086016116b3565b611725816116e6565b840191505092915050565b60006040820190506117456000830185611688565b818103602083015261175781846116f7565b90509392505050565b7f557365722069736e742077686974656c69737465640000000000000000000000600082015250565b60006117966015836114e1565b91506117a182611760565b602082019050919050565b600060208201905081810360008301526117c581611789565b9050919050565b6000815190506117db816113e7565b92915050565b6000602082840312156117f7576117f6611225565b5b6000611805848285016117cc565b91505092915050565b7f4e6f206d6f7265206c65667420746f206d696e74000000000000000000000000600082015250565b60006118446014836114e1565b915061184f8261180e565b602082019050919050565b6000602082019050818103600083015261187381611837565b9050919050565b7f596f752068617665206d696e74656420796f75722077616c6c6574206c696d6960008201527f7400000000000000000000000000000000000000000000000000000000000000602082015250565b60006118d66021836114e1565b91506118e18261187a565b604082019050919050565b60006020820190508181036000830152611905816118c9565b9050919050565b7f4e65656420746f2073656e64206d6f7265206574686572000000000000000000600082015250565b60006119426017836114e1565b915061194d8261190c565b602082019050919050565b6000602082019050818103600083015261197181611935565b9050919050565b600060408201905061198d60008301856111c7565b61199a60208301846111c7565b9392505050565b7f4e487b7100000000000000000000000000000000000000000000000000000000600052601160045260246000fd5b60006119db826111bd565b91506119e6836111bd565b9250827fffffffffffffffffffffffffffffffffffffffffffffffffffffffffffffffff03821115611a1b57611a1a6119a1565b5b828201905092915050565b6000611a31826111bd565b9150611a3c836111bd565b9250817fffffffffffffffffffffffffffffffffffffffffffffffffffffffffffffffff0483118215151615611a7557611a746119a1565b5b828202905092915050565b6000611a8b826111bd565b91507fffffffffffffffffffffffffffffffffffffffffffffffffffffffffffffffff821415611abe57611abd6119a1565b5b600182019050919050565b7f4f776e61626c653a206e6577206f776e657220697320746865207a65726f206160008201527f6464726573730000000000000000000000000000000000000000000000000000602082015250565b6000611b256026836114e1565b9150611b3082611ac9565b604082019050919050565b60006020820190508181036000830152611b5481611b18565b9050919050565b60008160601b9050919050565b6000611b7382611b5b565b9050919050565b6000611b8582611b68565b9050919050565b611b9d611b98826112ba565b611b7a565b82525050565b6000611baf8284611b8c565b60148201915081905092915050565b7f4e487b7100000000000000000000000000000000000000000000000000000000600052603260045260246000fdfea264697066735822122091e65aeaed5d938266c4756d322443110d0226d21ad64a18040687b84307919564736f6c634300080b0033",
  "immutableReferences": {},
  "source": "// SPDX-License-Identifier: MIT\npragma solidity ^0.8.11;\n\nimport '@openzeppelin/contracts-upgradeable/access/OwnableUpgradeable.sol';\nimport \"@openzeppelin/contracts-upgradeable/utils/cryptography/MerkleProofUpgradeable.sol\";\nimport './JBA.sol';\n\ncontract Minter is OwnableUpgradeable {\n  bytes32 public constant merkleRoot = 0x61efffbebd403d9f2c9887e53aac7039ef8ac2fe331358983d8ee975c12020ff;\n  uint256 public BASE_PRICE = 0.05 ether;\n  uint256 public constant MAX_PER_WALLET = 5;\n  uint256 public constant MAX_JBA = 888;\n  uint256 public constant FREE_MINT = 444;\n\n  JBA private tokens;\n  address private JBAAddress;\n\n  event Log(uint256 amount, uint256 gas);\n  event ResultsFromCall(bool success, bytes data);\n\n  constructor(address payable _JBAAddress) {\n    JBAAddress = _JBAAddress;\n    tokens = JBA(_JBAAddress);\n  }\n\n  receive() external payable {}\n\n  fallback() external payable {}\n\n  function validateWhiteList(bytes32[] calldata merkleProof, address sender) private pure returns (bool) {\n    bytes32 leaf = keccak256(abi.encodePacked(sender));\n    return MerkleProofUpgradeable.verify(merkleProof, merkleRoot, leaf);\n  }\n\n  /**\n  ***************************\n  Public\n  ***************************\n   */\n\n  function getBalance() public view returns (uint256) {\n    return address(this).balance;\n  }\n\n  function mint(address to, bytes32[] calldata merkleProof) public payable {\n    require(validateWhiteList(merkleProof, to), \"User isnt whitelisted\");\n    require(tokens.totalSupply() < MAX_JBA, 'No more left to mint');\n    require(tokens.balanceOf(to) < MAX_PER_WALLET, 'You have minted your wallet limit');\n\n    if (tokens.totalSupply() < FREE_MINT) {\n      // free minting\n      tokens.safeMint(to);\n    } else {\n      require(msg.value >= BASE_PRICE, 'Need to send more ether');\n      tokens.safeMint(to);\n    }\n\n    emit Log(msg.value, gasleft());\n  }\n\n  function batchMint(address to, bytes32[] calldata merkleProof, uint256 batchMintAmt) public payable {\n    // no free minting for batch\n    require(validateWhiteList(merkleProof, to), \"User isnt whitelisted\");\n    require((tokens.totalSupply() + batchMintAmt) <= MAX_JBA, 'No more left to mint');\n    require((tokens.balanceOf(to) + batchMintAmt) <= MAX_PER_WALLET, 'You have minted your wallet limit');\n    require(msg.value >= (BASE_PRICE * batchMintAmt), 'Need to send more ether');\n\n    for (uint256 index = 0; index < batchMintAmt; index++) {\n      tokens.safeMint(to);\n    }\n\n    emit Log(msg.value, gasleft());\n  }\n\n  /**\n  ***************************\n  Only Owner\n  ***************************\n   */\n\n  function withdraw() external onlyOwner {\n    uint256 balance = address(this).balance;\n    require(balance > 0, 'No ether left to withdraw');\n\n    (bool success, bytes memory data) = (msg.sender).call{value: balance}('');\n    require(success, 'Withdrawal failed');\n    emit ResultsFromCall(success, data);\n  }\n\n  /**\n  ***************************\n  Customization for the contract\n  ***************************\n   */\n\n  function setContractAddress(address payable _address) external onlyOwner {\n    JBAAddress = _address;\n    tokens = JBA(_address);\n  }\n\n  function setBasePrice(uint256 _basePrice) public onlyOwner {\n    BASE_PRICE = _basePrice;\n  }\n}\n",
  "sourcePath": "/home/hungdevjs/Documents/blockchain-tuts/smart-contract-react/truffle/contracts/Minter.sol",
  "compiler": {
    "name": "solc",
    "version": "0.8.11+commit.d7f03943.Emscripten.clang"
  },
  "schemaVersion": "3.4.5",
  "updatedAt": "2022-02-24T05:30:09.278Z",
  "devdoc": {
    "kind": "dev",
    "methods": {
      "owner()": {
        "details": "Returns the address of the current owner."
      },
      "renounceOwnership()": {
        "details": "Leaves the contract without owner. It will not be possible to call `onlyOwner` functions anymore. Can only be called by the current owner. NOTE: Renouncing ownership will leave the contract without an owner, thereby removing any functionality that is only available to the owner."
      },
      "transferOwnership(address)": {
        "details": "Transfers ownership of the contract to a new account (`newOwner`). Can only be called by the current owner."
      }
    },
    "version": 1
  },
  "userdoc": {
    "kind": "user",
    "methods": {
      "getBalance()": {
        "notice": "*************************** Public***************************"
      },
      "setContractAddress(address)": {
        "notice": "*************************** Customization for the contract***************************"
      },
      "withdraw()": {
        "notice": "*************************** Only Owner***************************"
      }
    },
    "version": 1
  }
}