{
  "contractName": "Minter",
  "abi": [
    {
      "inputs": [
        {
          "internalType": "address payable",
          "name": "_MIRLsAddress",
          "type": "address"
        }
      ],
      "stateMutability": "nonpayable",
      "type": "constructor"
    },
    {
      "anonymous": false,
      "inputs": [
        {
          "indexed": false,
          "internalType": "uint256",
          "name": "amount",
          "type": "uint256"
        },
        {
          "indexed": false,
          "internalType": "uint256",
          "name": "gas",
          "type": "uint256"
        }
      ],
      "name": "Log",
      "type": "event"
    },
    {
      "anonymous": false,
      "inputs": [
        {
          "indexed": true,
          "internalType": "address",
          "name": "previousOwner",
          "type": "address"
        },
        {
          "indexed": true,
          "internalType": "address",
          "name": "newOwner",
          "type": "address"
        }
      ],
      "name": "OwnershipTransferred",
      "type": "event"
    },
    {
      "anonymous": false,
      "inputs": [
        {
          "indexed": false,
          "internalType": "bool",
          "name": "success",
          "type": "bool"
        },
        {
          "indexed": false,
          "internalType": "bytes",
          "name": "data",
          "type": "bytes"
        }
      ],
      "name": "ResultsFromCall",
      "type": "event"
    },
    {
      "stateMutability": "payable",
      "type": "fallback"
    },
    {
      "inputs": [],
      "name": "BASE_PRICE",
      "outputs": [
        {
          "internalType": "uint256",
          "name": "",
          "type": "uint256"
        }
      ],
      "stateMutability": "view",
      "type": "function"
    },
    {
      "inputs": [],
      "name": "FREE_MINT",
      "outputs": [
        {
          "internalType": "uint256",
          "name": "",
          "type": "uint256"
        }
      ],
      "stateMutability": "view",
      "type": "function"
    },
    {
      "inputs": [],
      "name": "MAX_MIRLS",
      "outputs": [
        {
          "internalType": "uint256",
          "name": "",
          "type": "uint256"
        }
      ],
      "stateMutability": "view",
      "type": "function"
    },
    {
      "inputs": [],
      "name": "MAX_PER_WALLET",
      "outputs": [
        {
          "internalType": "uint256",
          "name": "",
          "type": "uint256"
        }
      ],
      "stateMutability": "view",
      "type": "function"
    },
    {
      "inputs": [],
      "name": "owner",
      "outputs": [
        {
          "internalType": "address",
          "name": "",
          "type": "address"
        }
      ],
      "stateMutability": "view",
      "type": "function"
    },
    {
      "inputs": [],
      "name": "renounceOwnership",
      "outputs": [],
      "stateMutability": "nonpayable",
      "type": "function"
    },
    {
      "inputs": [
        {
          "internalType": "address",
          "name": "newOwner",
          "type": "address"
        }
      ],
      "name": "transferOwnership",
      "outputs": [],
      "stateMutability": "nonpayable",
      "type": "function"
    },
    {
      "stateMutability": "payable",
      "type": "receive"
    },
    {
      "inputs": [],
      "name": "getBalance",
      "outputs": [
        {
          "internalType": "uint256",
          "name": "",
          "type": "uint256"
        }
      ],
      "stateMutability": "view",
      "type": "function"
    },
    {
      "inputs": [
        {
          "internalType": "address",
          "name": "to",
          "type": "address"
        }
      ],
      "name": "mint",
      "outputs": [],
      "stateMutability": "payable",
      "type": "function"
    },
    {
      "inputs": [
        {
          "internalType": "address",
          "name": "to",
          "type": "address"
        },
        {
          "internalType": "uint256",
          "name": "batchMintAmt",
          "type": "uint256"
        }
      ],
      "name": "batchMint",
      "outputs": [],
      "stateMutability": "payable",
      "type": "function"
    },
    {
      "inputs": [],
      "name": "withdraw",
      "outputs": [],
      "stateMutability": "nonpayable",
      "type": "function"
    },
    {
      "inputs": [
        {
          "internalType": "address payable",
          "name": "_address",
          "type": "address"
        }
      ],
      "name": "setContractAddress",
      "outputs": [],
      "stateMutability": "nonpayable",
      "type": "function"
    },
    {
      "inputs": [
        {
          "internalType": "uint256",
          "name": "_basePrice",
          "type": "uint256"
        }
      ],
      "name": "setBasePrice",
      "outputs": [],
      "stateMutability": "nonpayable",
      "type": "function"
    }
  ],
  "bytecode": "0x608060405266b1a2bc2ec500006001553480156200001c57600080fd5b5060405162001a0638038062001a06833981810160405281019062000042919062000221565b6200006262000056620000eb60201b60201c565b620000f360201b60201c565b80600360006101000a81548173ffffffffffffffffffffffffffffffffffffffff021916908373ffffffffffffffffffffffffffffffffffffffff16021790555080600260006101000a81548173ffffffffffffffffffffffffffffffffffffffff021916908373ffffffffffffffffffffffffffffffffffffffff1602179055505062000253565b600033905090565b60008060009054906101000a900473ffffffffffffffffffffffffffffffffffffffff169050816000806101000a81548173ffffffffffffffffffffffffffffffffffffffff021916908373ffffffffffffffffffffffffffffffffffffffff1602179055508173ffffffffffffffffffffffffffffffffffffffff168173ffffffffffffffffffffffffffffffffffffffff167f8be0079c531659141344cd1fd0a4f28419497f9722a3daafe3b4186f6b6457e060405160405180910390a35050565b600080fd5b600073ffffffffffffffffffffffffffffffffffffffff82169050919050565b6000620001e982620001bc565b9050919050565b620001fb81620001dc565b81146200020757600080fd5b50565b6000815190506200021b81620001f0565b92915050565b6000602082840312156200023a5762000239620001b7565b5b60006200024a848285016200020a565b91505092915050565b6117a380620002636000396000f3fe6080604052600436106100c65760003560e01c8063715018a61161007f578063db065b1d11610059578063db065b1d1461020a578063de4b326214610235578063f2fde38b1461025e578063f86325ed14610287576100cd565b8063715018a61461019d5780638da5cb5b146101b4578063a90ec74a146101df576100cd565b80630f2cdd6c146100cf57806312065fe0146100fa5780633ccfd60b1461012557806343508b051461013c578063477bddaa146101585780636a62784214610181576100cd565b366100cd57005b005b3480156100db57600080fd5b506100e46102b2565b6040516100f19190610f86565b60405180910390f35b34801561010657600080fd5b5061010f6102b7565b60405161011c9190610f86565b60405180910390f35b34801561013157600080fd5b5061013a6102bf565b005b61015660048036038101906101519190611030565b61046f565b005b34801561016457600080fd5b5061017f600480360381019061017a91906110ae565b610772565b005b61019b600480360381019061019691906110db565b610873565b005b3480156101a957600080fd5b506101b2610c60565b005b3480156101c057600080fd5b506101c9610ce8565b6040516101d69190611117565b60405180910390f35b3480156101eb57600080fd5b506101f4610d11565b6040516102019190610f86565b60405180910390f35b34801561021657600080fd5b5061021f610d17565b60405161022c9190610f86565b60405180910390f35b34801561024157600080fd5b5061025c60048036038101906102579190611132565b610d1d565b005b34801561026a57600080fd5b50610285600480360381019061028091906110db565b610da3565b005b34801561029357600080fd5b5061029c610e9b565b6040516102a99190610f86565b60405180910390f35b600581565b600047905090565b6102c7610ea1565b73ffffffffffffffffffffffffffffffffffffffff166102e5610ce8565b73ffffffffffffffffffffffffffffffffffffffff161461033b576040517f08c379a0000000000000000000000000000000000000000000000000000000008152600401610332906111bc565b60405180910390fd5b600047905060008111610383576040517f08c379a000000000000000000000000000000000000000000000000000000000815260040161037a90611228565b60405180910390fd5b6000803373ffffffffffffffffffffffffffffffffffffffff16836040516103aa90611279565b60006040518083038185875af1925050503d80600081146103e7576040519150601f19603f3d011682016040523d82523d6000602084013e6103ec565b606091505b509150915081610431576040517f08c379a0000000000000000000000000000000000000000000000000000000008152600401610428906112da565b60405180910390fd5b7ffe0c8fdb7358cac52628b197c1f1419c599e01d9894a88eefab41a1a1839d29182826040516104629291906113ae565b60405180910390a1505050565b61037881600260009054906101000a900473ffffffffffffffffffffffffffffffffffffffff1673ffffffffffffffffffffffffffffffffffffffff166318160ddd6040518163ffffffff1660e01b8152600401602060405180830381865afa1580156104e0573d6000803e3d6000fd5b505050506040513d601f19601f8201168201806040525081019061050491906113f3565b61050e919061144f565b111561054f576040517f08c379a0000000000000000000000000000000000000000000000000000000008152600401610546906114f1565b60405180910390fd5b600581600260009054906101000a900473ffffffffffffffffffffffffffffffffffffffff1673ffffffffffffffffffffffffffffffffffffffff166370a08231856040518263ffffffff1660e01b81526004016105ad9190611117565b602060405180830381865afa1580156105ca573d6000803e3d6000fd5b505050506040513d601f19601f820116820180604052508101906105ee91906113f3565b6105f8919061144f565b1115610639576040517f08c379a000000000000000000000000000000000000000000000000000000000815260040161063090611583565b60405180910390fd5b8060015461064791906115a3565b341015610689576040517f08c379a000000000000000000000000000000000000000000000000000000000815260040161068090611649565b60405180910390fd5b60005b8181101561073457600260009054906101000a900473ffffffffffffffffffffffffffffffffffffffff1673ffffffffffffffffffffffffffffffffffffffff166340d097c3846040518263ffffffff1660e01b81526004016106ef9190611117565b600060405180830381600087803b15801561070957600080fd5b505af115801561071d573d6000803e3d6000fd5b50505050808061072c90611669565b91505061068c565b507fbd0faddf87043dd749c1b9d4dca8a12589b8cb5e2106832111ce23f219b14367345a6040516107669291906116b2565b60405180910390a15050565b61077a610ea1565b73ffffffffffffffffffffffffffffffffffffffff16610798610ce8565b73ffffffffffffffffffffffffffffffffffffffff16146107ee576040517f08c379a00000000000000000000000000000000000000000000000000000000081526004016107e5906111bc565b60405180910390fd5b80600360006101000a81548173ffffffffffffffffffffffffffffffffffffffff021916908373ffffffffffffffffffffffffffffffffffffffff16021790555080600260006101000a81548173ffffffffffffffffffffffffffffffffffffffff021916908373ffffffffffffffffffffffffffffffffffffffff16021790555050565b610378600260009054906101000a900473ffffffffffffffffffffffffffffffffffffffff1673ffffffffffffffffffffffffffffffffffffffff166318160ddd6040518163ffffffff1660e01b8152600401602060405180830381865afa1580156108e3573d6000803e3d6000fd5b505050506040513d601f19601f8201168201806040525081019061090791906113f3565b10610947576040517f08c379a000000000000000000000000000000000000000000000000000000000815260040161093e906114f1565b60405180910390fd5b6005600260009054906101000a900473ffffffffffffffffffffffffffffffffffffffff1673ffffffffffffffffffffffffffffffffffffffff166370a08231836040518263ffffffff1660e01b81526004016109a49190611117565b602060405180830381865afa1580156109c1573d6000803e3d6000fd5b505050506040513d601f19601f820116820180604052508101906109e591906113f3565b10610a25576040517f08c379a0000000000000000000000000000000000000000000000000000000008152600401610a1c90611583565b60405180910390fd5b6101bc600260009054906101000a900473ffffffffffffffffffffffffffffffffffffffff1673ffffffffffffffffffffffffffffffffffffffff166318160ddd6040518163ffffffff1660e01b8152600401602060405180830381865afa158015610a95573d6000803e3d6000fd5b505050506040513d601f19601f82011682018060405250810190610ab991906113f3565b1015610b5157600260009054906101000a900473ffffffffffffffffffffffffffffffffffffffff1673ffffffffffffffffffffffffffffffffffffffff166340d097c3826040518263ffffffff1660e01b8152600401610b1a9190611117565b600060405180830381600087803b158015610b3457600080fd5b505af1158015610b48573d6000803e3d6000fd5b50505050610c24565b600154341015610b96576040517f08c379a0000000000000000000000000000000000000000000000000000000008152600401610b8d90611649565b60405180910390fd5b600260009054906101000a900473ffffffffffffffffffffffffffffffffffffffff1673ffffffffffffffffffffffffffffffffffffffff166340d097c3826040518263ffffffff1660e01b8152600401610bf19190611117565b600060405180830381600087803b158015610c0b57600080fd5b505af1158015610c1f573d6000803e3d6000fd5b505050505b7fbd0faddf87043dd749c1b9d4dca8a12589b8cb5e2106832111ce23f219b14367345a604051610c559291906116b2565b60405180910390a150565b610c68610ea1565b73ffffffffffffffffffffffffffffffffffffffff16610c86610ce8565b73ffffffffffffffffffffffffffffffffffffffff1614610cdc576040517f08c379a0000000000000000000000000000000000000000000000000000000008152600401610cd3906111bc565b60405180910390fd5b610ce66000610ea9565b565b60008060009054906101000a900473ffffffffffffffffffffffffffffffffffffffff16905090565b61037881565b6101bc81565b610d25610ea1565b73ffffffffffffffffffffffffffffffffffffffff16610d43610ce8565b73ffffffffffffffffffffffffffffffffffffffff1614610d99576040517f08c379a0000000000000000000000000000000000000000000000000000000008152600401610d90906111bc565b60405180910390fd5b8060018190555050565b610dab610ea1565b73ffffffffffffffffffffffffffffffffffffffff16610dc9610ce8565b73ffffffffffffffffffffffffffffffffffffffff1614610e1f576040517f08c379a0000000000000000000000000000000000000000000000000000000008152600401610e16906111bc565b60405180910390fd5b600073ffffffffffffffffffffffffffffffffffffffff168173ffffffffffffffffffffffffffffffffffffffff161415610e8f576040517f08c379a0000000000000000000000000000000000000000000000000000000008152600401610e869061174d565b60405180910390fd5b610e9881610ea9565b50565b60015481565b600033905090565b60008060009054906101000a900473ffffffffffffffffffffffffffffffffffffffff169050816000806101000a81548173ffffffffffffffffffffffffffffffffffffffff021916908373ffffffffffffffffffffffffffffffffffffffff1602179055508173ffffffffffffffffffffffffffffffffffffffff168173ffffffffffffffffffffffffffffffffffffffff167f8be0079c531659141344cd1fd0a4f28419497f9722a3daafe3b4186f6b6457e060405160405180910390a35050565b6000819050919050565b610f8081610f6d565b82525050565b6000602082019050610f9b6000830184610f77565b92915050565b600080fd5b600073ffffffffffffffffffffffffffffffffffffffff82169050919050565b6000610fd182610fa6565b9050919050565b610fe181610fc6565b8114610fec57600080fd5b50565b600081359050610ffe81610fd8565b92915050565b61100d81610f6d565b811461101857600080fd5b50565b60008135905061102a81611004565b92915050565b6000806040838503121561104757611046610fa1565b5b600061105585828601610fef565b92505060206110668582860161101b565b9150509250929050565b600061107b82610fa6565b9050919050565b61108b81611070565b811461109657600080fd5b50565b6000813590506110a881611082565b92915050565b6000602082840312156110c4576110c3610fa1565b5b60006110d284828501611099565b91505092915050565b6000602082840312156110f1576110f0610fa1565b5b60006110ff84828501610fef565b91505092915050565b61111181610fc6565b82525050565b600060208201905061112c6000830184611108565b92915050565b60006020828403121561114857611147610fa1565b5b60006111568482850161101b565b91505092915050565b600082825260208201905092915050565b7f4f776e61626c653a2063616c6c6572206973206e6f7420746865206f776e6572600082015250565b60006111a660208361115f565b91506111b182611170565b602082019050919050565b600060208201905081810360008301526111d581611199565b9050919050565b7f4e6f206574686572206c65667420746f20776974686472617700000000000000600082015250565b600061121260198361115f565b915061121d826111dc565b602082019050919050565b6000602082019050818103600083015261124181611205565b9050919050565b600081905092915050565b50565b6000611263600083611248565b915061126e82611253565b600082019050919050565b600061128482611256565b9150819050919050565b7f5769746864726177616c206661696c6564000000000000000000000000000000600082015250565b60006112c460118361115f565b91506112cf8261128e565b602082019050919050565b600060208201905081810360008301526112f3816112b7565b9050919050565b60008115159050919050565b61130f816112fa565b82525050565b600081519050919050565b600082825260208201905092915050565b60005b8381101561134f578082015181840152602081019050611334565b8381111561135e576000848401525b50505050565b6000601f19601f8301169050919050565b600061138082611315565b61138a8185611320565b935061139a818560208601611331565b6113a381611364565b840191505092915050565b60006040820190506113c36000830185611306565b81810360208301526113d58184611375565b90509392505050565b6000815190506113ed81611004565b92915050565b60006020828403121561140957611408610fa1565b5b6000611417848285016113de565b91505092915050565b7f4e487b7100000000000000000000000000000000000000000000000000000000600052601160045260246000fd5b600061145a82610f6d565b915061146583610f6d565b9250827fffffffffffffffffffffffffffffffffffffffffffffffffffffffffffffffff0382111561149a57611499611420565b5b828201905092915050565b7f4e6f206d6f7265206c65667420746f206d696e74000000000000000000000000600082015250565b60006114db60148361115f565b91506114e6826114a5565b602082019050919050565b6000602082019050818103600083015261150a816114ce565b9050919050565b7f596f752068617665206d696e74656420796f75722077616c6c6574206c696d6960008201527f7400000000000000000000000000000000000000000000000000000000000000602082015250565b600061156d60218361115f565b915061157882611511565b604082019050919050565b6000602082019050818103600083015261159c81611560565b9050919050565b60006115ae82610f6d565b91506115b983610f6d565b9250817fffffffffffffffffffffffffffffffffffffffffffffffffffffffffffffffff04831182151516156115f2576115f1611420565b5b828202905092915050565b7f4e65656420746f2073656e64206d6f7265206574686572000000000000000000600082015250565b600061163360178361115f565b915061163e826115fd565b602082019050919050565b6000602082019050818103600083015261166281611626565b9050919050565b600061167482610f6d565b91507fffffffffffffffffffffffffffffffffffffffffffffffffffffffffffffffff8214156116a7576116a6611420565b5b600182019050919050565b60006040820190506116c76000830185610f77565b6116d46020830184610f77565b9392505050565b7f4f776e61626c653a206e6577206f776e657220697320746865207a65726f206160008201527f6464726573730000000000000000000000000000000000000000000000000000602082015250565b600061173760268361115f565b9150611742826116db565b604082019050919050565b600060208201905081810360008301526117668161172a565b905091905056fea2646970667358221220c97cff8bd9120bd710df4781bd84820dc57b2b7554c30571b3f6566a3dd8288964736f6c634300080b0033",
  "immutableReferences": {},
  "source": "// SPDX-License-Identifier: MIT\npragma solidity ^0.8.11;\n\nimport '@openzeppelin/contracts/access/Ownable.sol';\nimport './MIRLs.sol';\n\ncontract Minter is Ownable {\n  uint256 public BASE_PRICE = 0.05 ether;\n  uint256 public constant MAX_PER_WALLET = 5;\n  uint256 public constant MAX_MIRLS = 888;\n  uint256 public constant FREE_MINT = 444;\n\n  MIRLs private tokens;\n  address private MIRLsAddress;\n\n  event Log(uint256 amount, uint256 gas);\n  event ResultsFromCall(bool success, bytes data);\n\n  constructor(address payable _MIRLsAddress) {\n    MIRLsAddress = _MIRLsAddress;\n    tokens = MIRLs(_MIRLsAddress);\n  }\n\n  receive() external payable {}\n\n  fallback() external payable {}\n\n  /**\n  ***************************\n  Public\n  ***************************\n   */\n\n  function getBalance() public view returns (uint256) {\n    return address(this).balance;\n  }\n\n  function mint(address to) public payable {\n    require(tokens.totalSupply() < MAX_MIRLS, 'No more left to mint');\n    require(tokens.balanceOf(to) < MAX_PER_WALLET, 'You have minted your wallet limit');\n\n    if (tokens.totalSupply() < FREE_MINT) {\n      // free minting\n      tokens.safeMint(to);\n    } else {\n      require(msg.value >= BASE_PRICE, 'Need to send more ether');\n      tokens.safeMint(to);\n    }\n\n    emit Log(msg.value, gasleft());\n  }\n\n  function batchMint(address to, uint256 batchMintAmt) public payable {\n    // no free minting for batch\n\n    require((tokens.totalSupply() + batchMintAmt) <= MAX_MIRLS, 'No more left to mint');\n    require((tokens.balanceOf(to) + batchMintAmt) <= MAX_PER_WALLET, 'You have minted your wallet limit');\n    require(msg.value >= (BASE_PRICE * batchMintAmt), 'Need to send more ether');\n\n    for (uint256 index = 0; index < batchMintAmt; index++) {\n      tokens.safeMint(to);\n    }\n\n    emit Log(msg.value, gasleft());\n  }\n\n  /**\n  ***************************\n  Only Owner\n  ***************************\n   */\n\n  function withdraw() external onlyOwner {\n    uint256 balance = address(this).balance;\n    require(balance > 0, 'No ether left to withdraw');\n\n    (bool success, bytes memory data) = (msg.sender).call{value: balance}('');\n    require(success, 'Withdrawal failed');\n    emit ResultsFromCall(success, data);\n  }\n\n  /**\n  ***************************\n  Customization for the contract\n  ***************************\n   */\n\n  function setContractAddress(address payable _address) external onlyOwner {\n    MIRLsAddress = _address;\n    tokens = MIRLs(_address);\n  }\n\n  function setBasePrice(uint256 _basePrice) public onlyOwner {\n    BASE_PRICE = _basePrice;\n  }\n}\n",
  "sourcePath": "/home/hungdevjs/Documents/blockchain-tuts/smart-contract-react/truffle/contracts/Minter.sol",
  "compiler": {
    "name": "solc",
    "version": "0.8.11+commit.d7f03943.Emscripten.clang"
  },
  "schemaVersion": "3.4.5",
  "updatedAt": "2022-02-22T09:42:20.377Z",
  "devdoc": {
    "kind": "dev",
    "methods": {
      "owner()": {
        "details": "Returns the address of the current owner."
      },
      "renounceOwnership()": {
        "details": "Leaves the contract without owner. It will not be possible to call `onlyOwner` functions anymore. Can only be called by the current owner. NOTE: Renouncing ownership will leave the contract without an owner, thereby removing any functionality that is only available to the owner."
      },
      "transferOwnership(address)": {
        "details": "Transfers ownership of the contract to a new account (`newOwner`). Can only be called by the current owner."
      }
    },
    "version": 1
  },
  "userdoc": {
    "kind": "user",
    "methods": {
      "getBalance()": {
        "notice": "*************************** Public***************************"
      },
      "setContractAddress(address)": {
        "notice": "*************************** Customization for the contract***************************"
      },
      "withdraw()": {
        "notice": "*************************** Only Owner***************************"
      }
    },
    "version": 1
  }
}