{
  "contractName": "Minter",
  "abi": [
    {
      "inputs": [
        {
          "internalType": "address payable",
          "name": "_MIRLsAddress",
          "type": "address"
        }
      ],
      "stateMutability": "nonpayable",
      "type": "constructor"
    },
    {
      "anonymous": false,
      "inputs": [
        {
          "indexed": false,
          "internalType": "uint256",
          "name": "amount",
          "type": "uint256"
        },
        {
          "indexed": false,
          "internalType": "uint256",
          "name": "gas",
          "type": "uint256"
        }
      ],
      "name": "Log",
      "type": "event"
    },
    {
      "anonymous": false,
      "inputs": [
        {
          "indexed": true,
          "internalType": "address",
          "name": "previousOwner",
          "type": "address"
        },
        {
          "indexed": true,
          "internalType": "address",
          "name": "newOwner",
          "type": "address"
        }
      ],
      "name": "OwnershipTransferred",
      "type": "event"
    },
    {
      "anonymous": false,
      "inputs": [
        {
          "indexed": false,
          "internalType": "bool",
          "name": "success",
          "type": "bool"
        },
        {
          "indexed": false,
          "internalType": "bytes",
          "name": "data",
          "type": "bytes"
        }
      ],
      "name": "ResultsFromCall",
      "type": "event"
    },
    {
      "stateMutability": "payable",
      "type": "fallback",
      "payable": true
    },
    {
      "inputs": [],
      "name": "BASE_PRICE",
      "outputs": [
        {
          "internalType": "uint256",
          "name": "",
          "type": "uint256"
        }
      ],
      "stateMutability": "view",
      "type": "function",
      "constant": true
    },
    {
      "inputs": [],
      "name": "FREE_MINT",
      "outputs": [
        {
          "internalType": "uint256",
          "name": "",
          "type": "uint256"
        }
      ],
      "stateMutability": "view",
      "type": "function",
      "constant": true
    },
    {
      "inputs": [],
      "name": "MAX_MIRLS",
      "outputs": [
        {
          "internalType": "uint256",
          "name": "",
          "type": "uint256"
        }
      ],
      "stateMutability": "view",
      "type": "function",
      "constant": true
    },
    {
      "inputs": [],
      "name": "MAX_PER_WALLET",
      "outputs": [
        {
          "internalType": "uint256",
          "name": "",
          "type": "uint256"
        }
      ],
      "stateMutability": "view",
      "type": "function",
      "constant": true
    },
    {
      "inputs": [],
      "name": "owner",
      "outputs": [
        {
          "internalType": "address",
          "name": "",
          "type": "address"
        }
      ],
      "stateMutability": "view",
      "type": "function",
      "constant": true
    },
    {
      "inputs": [],
      "name": "renounceOwnership",
      "outputs": [],
      "stateMutability": "nonpayable",
      "type": "function"
    },
    {
      "inputs": [
        {
          "internalType": "address",
          "name": "newOwner",
          "type": "address"
        }
      ],
      "name": "transferOwnership",
      "outputs": [],
      "stateMutability": "nonpayable",
      "type": "function"
    },
    {
      "stateMutability": "payable",
      "type": "receive",
      "payable": true
    },
    {
      "inputs": [],
      "name": "getBalance",
      "outputs": [
        {
          "internalType": "uint256",
          "name": "",
          "type": "uint256"
        }
      ],
      "stateMutability": "view",
      "type": "function",
      "constant": true
    },
    {
      "inputs": [
        {
          "internalType": "address",
          "name": "to",
          "type": "address"
        }
      ],
      "name": "mint",
      "outputs": [],
      "stateMutability": "payable",
      "type": "function",
      "payable": true
    },
    {
      "inputs": [
        {
          "internalType": "address",
          "name": "to",
          "type": "address"
        },
        {
          "internalType": "uint256",
          "name": "batchMintAmt",
          "type": "uint256"
        }
      ],
      "name": "batchMint",
      "outputs": [],
      "stateMutability": "payable",
      "type": "function",
      "payable": true
    },
    {
      "inputs": [],
      "name": "withdraw",
      "outputs": [],
      "stateMutability": "nonpayable",
      "type": "function"
    },
    {
      "inputs": [
        {
          "internalType": "address payable",
          "name": "_address",
          "type": "address"
        }
      ],
      "name": "setContractAddress",
      "outputs": [],
      "stateMutability": "nonpayable",
      "type": "function"
    },
    {
      "inputs": [
        {
          "internalType": "uint256",
          "name": "_basePrice",
          "type": "uint256"
        }
      ],
      "name": "setBasePrice",
      "outputs": [],
      "stateMutability": "nonpayable",
      "type": "function"
    }
  ],
  "bytecode": "0x608060405266b1a2bc2ec500006065553480156200001c57600080fd5b506040516200191d3803806200191d833981810160405281019062000042919062000135565b80606760006101000a81548173ffffffffffffffffffffffffffffffffffffffff021916908373ffffffffffffffffffffffffffffffffffffffff16021790555080606660006101000a81548173ffffffffffffffffffffffffffffffffffffffff021916908373ffffffffffffffffffffffffffffffffffffffff1602179055505062000167565b600080fd5b600073ffffffffffffffffffffffffffffffffffffffff82169050919050565b6000620000fd82620000d0565b9050919050565b6200010f81620000f0565b81146200011b57600080fd5b50565b6000815190506200012f8162000104565b92915050565b6000602082840312156200014e576200014d620000cb565b5b60006200015e848285016200011e565b91505092915050565b6117a680620001776000396000f3fe6080604052600436106100c65760003560e01c8063715018a61161007f578063db065b1d11610059578063db065b1d1461020a578063de4b326214610235578063f2fde38b1461025e578063f86325ed14610287576100cd565b8063715018a61461019d5780638da5cb5b146101b4578063a90ec74a146101df576100cd565b80630f2cdd6c146100cf57806312065fe0146100fa5780633ccfd60b1461012557806343508b051461013c578063477bddaa146101585780636a62784214610181576100cd565b366100cd57005b005b3480156100db57600080fd5b506100e46102b2565b6040516100f19190610f89565b60405180910390f35b34801561010657600080fd5b5061010f6102b7565b60405161011c9190610f89565b60405180910390f35b34801561013157600080fd5b5061013a6102bf565b005b61015660048036038101906101519190611033565b61046f565b005b34801561016457600080fd5b5061017f600480360381019061017a91906110b1565b610772565b005b61019b600480360381019061019691906110de565b610873565b005b3480156101a957600080fd5b506101b2610c60565b005b3480156101c057600080fd5b506101c9610ce8565b6040516101d6919061111a565b60405180910390f35b3480156101eb57600080fd5b506101f4610d12565b6040516102019190610f89565b60405180910390f35b34801561021657600080fd5b5061021f610d18565b60405161022c9190610f89565b60405180910390f35b34801561024157600080fd5b5061025c60048036038101906102579190611135565b610d1e565b005b34801561026a57600080fd5b50610285600480360381019061028091906110de565b610da4565b005b34801561029357600080fd5b5061029c610e9c565b6040516102a99190610f89565b60405180910390f35b600281565b600047905090565b6102c7610ea2565b73ffffffffffffffffffffffffffffffffffffffff166102e5610ce8565b73ffffffffffffffffffffffffffffffffffffffff161461033b576040517f08c379a0000000000000000000000000000000000000000000000000000000008152600401610332906111bf565b60405180910390fd5b600047905060008111610383576040517f08c379a000000000000000000000000000000000000000000000000000000000815260040161037a9061122b565b60405180910390fd5b6000803373ffffffffffffffffffffffffffffffffffffffff16836040516103aa9061127c565b60006040518083038185875af1925050503d80600081146103e7576040519150601f19603f3d011682016040523d82523d6000602084013e6103ec565b606091505b509150915081610431576040517f08c379a0000000000000000000000000000000000000000000000000000000008152600401610428906112dd565b60405180910390fd5b7ffe0c8fdb7358cac52628b197c1f1419c599e01d9894a88eefab41a1a1839d29182826040516104629291906113b1565b60405180910390a1505050565b61037881606660009054906101000a900473ffffffffffffffffffffffffffffffffffffffff1673ffffffffffffffffffffffffffffffffffffffff166318160ddd6040518163ffffffff1660e01b8152600401602060405180830381865afa1580156104e0573d6000803e3d6000fd5b505050506040513d601f19601f8201168201806040525081019061050491906113f6565b61050e9190611452565b111561054f576040517f08c379a0000000000000000000000000000000000000000000000000000000008152600401610546906114f4565b60405180910390fd5b600281606660009054906101000a900473ffffffffffffffffffffffffffffffffffffffff1673ffffffffffffffffffffffffffffffffffffffff166370a08231856040518263ffffffff1660e01b81526004016105ad919061111a565b602060405180830381865afa1580156105ca573d6000803e3d6000fd5b505050506040513d601f19601f820116820180604052508101906105ee91906113f6565b6105f89190611452565b1115610639576040517f08c379a000000000000000000000000000000000000000000000000000000000815260040161063090611586565b60405180910390fd5b8060655461064791906115a6565b341015610689576040517f08c379a00000000000000000000000000000000000000000000000000000000081526004016106809061164c565b60405180910390fd5b60005b8181101561073457606660009054906101000a900473ffffffffffffffffffffffffffffffffffffffff1673ffffffffffffffffffffffffffffffffffffffff166340d097c3846040518263ffffffff1660e01b81526004016106ef919061111a565b600060405180830381600087803b15801561070957600080fd5b505af115801561071d573d6000803e3d6000fd5b50505050808061072c9061166c565b91505061068c565b507fbd0faddf87043dd749c1b9d4dca8a12589b8cb5e2106832111ce23f219b14367345a6040516107669291906116b5565b60405180910390a15050565b61077a610ea2565b73ffffffffffffffffffffffffffffffffffffffff16610798610ce8565b73ffffffffffffffffffffffffffffffffffffffff16146107ee576040517f08c379a00000000000000000000000000000000000000000000000000000000081526004016107e5906111bf565b60405180910390fd5b80606760006101000a81548173ffffffffffffffffffffffffffffffffffffffff021916908373ffffffffffffffffffffffffffffffffffffffff16021790555080606660006101000a81548173ffffffffffffffffffffffffffffffffffffffff021916908373ffffffffffffffffffffffffffffffffffffffff16021790555050565b610378606660009054906101000a900473ffffffffffffffffffffffffffffffffffffffff1673ffffffffffffffffffffffffffffffffffffffff166318160ddd6040518163ffffffff1660e01b8152600401602060405180830381865afa1580156108e3573d6000803e3d6000fd5b505050506040513d601f19601f8201168201806040525081019061090791906113f6565b10610947576040517f08c379a000000000000000000000000000000000000000000000000000000000815260040161093e906114f4565b60405180910390fd5b6002606660009054906101000a900473ffffffffffffffffffffffffffffffffffffffff1673ffffffffffffffffffffffffffffffffffffffff166370a08231836040518263ffffffff1660e01b81526004016109a4919061111a565b602060405180830381865afa1580156109c1573d6000803e3d6000fd5b505050506040513d601f19601f820116820180604052508101906109e591906113f6565b10610a25576040517f08c379a0000000000000000000000000000000000000000000000000000000008152600401610a1c90611586565b60405180910390fd5b6101bc606660009054906101000a900473ffffffffffffffffffffffffffffffffffffffff1673ffffffffffffffffffffffffffffffffffffffff166318160ddd6040518163ffffffff1660e01b8152600401602060405180830381865afa158015610a95573d6000803e3d6000fd5b505050506040513d601f19601f82011682018060405250810190610ab991906113f6565b1015610b5157606660009054906101000a900473ffffffffffffffffffffffffffffffffffffffff1673ffffffffffffffffffffffffffffffffffffffff166340d097c3826040518263ffffffff1660e01b8152600401610b1a919061111a565b600060405180830381600087803b158015610b3457600080fd5b505af1158015610b48573d6000803e3d6000fd5b50505050610c24565b606554341015610b96576040517f08c379a0000000000000000000000000000000000000000000000000000000008152600401610b8d9061164c565b60405180910390fd5b606660009054906101000a900473ffffffffffffffffffffffffffffffffffffffff1673ffffffffffffffffffffffffffffffffffffffff166340d097c3826040518263ffffffff1660e01b8152600401610bf1919061111a565b600060405180830381600087803b158015610c0b57600080fd5b505af1158015610c1f573d6000803e3d6000fd5b505050505b7fbd0faddf87043dd749c1b9d4dca8a12589b8cb5e2106832111ce23f219b14367345a604051610c559291906116b5565b60405180910390a150565b610c68610ea2565b73ffffffffffffffffffffffffffffffffffffffff16610c86610ce8565b73ffffffffffffffffffffffffffffffffffffffff1614610cdc576040517f08c379a0000000000000000000000000000000000000000000000000000000008152600401610cd3906111bf565b60405180910390fd5b610ce66000610eaa565b565b6000603360009054906101000a900473ffffffffffffffffffffffffffffffffffffffff16905090565b61037881565b6101bc81565b610d26610ea2565b73ffffffffffffffffffffffffffffffffffffffff16610d44610ce8565b73ffffffffffffffffffffffffffffffffffffffff1614610d9a576040517f08c379a0000000000000000000000000000000000000000000000000000000008152600401610d91906111bf565b60405180910390fd5b8060658190555050565b610dac610ea2565b73ffffffffffffffffffffffffffffffffffffffff16610dca610ce8565b73ffffffffffffffffffffffffffffffffffffffff1614610e20576040517f08c379a0000000000000000000000000000000000000000000000000000000008152600401610e17906111bf565b60405180910390fd5b600073ffffffffffffffffffffffffffffffffffffffff168173ffffffffffffffffffffffffffffffffffffffff161415610e90576040517f08c379a0000000000000000000000000000000000000000000000000000000008152600401610e8790611750565b60405180910390fd5b610e9981610eaa565b50565b60655481565b600033905090565b6000603360009054906101000a900473ffffffffffffffffffffffffffffffffffffffff16905081603360006101000a81548173ffffffffffffffffffffffffffffffffffffffff021916908373ffffffffffffffffffffffffffffffffffffffff1602179055508173ffffffffffffffffffffffffffffffffffffffff168173ffffffffffffffffffffffffffffffffffffffff167f8be0079c531659141344cd1fd0a4f28419497f9722a3daafe3b4186f6b6457e060405160405180910390a35050565b6000819050919050565b610f8381610f70565b82525050565b6000602082019050610f9e6000830184610f7a565b92915050565b600080fd5b600073ffffffffffffffffffffffffffffffffffffffff82169050919050565b6000610fd482610fa9565b9050919050565b610fe481610fc9565b8114610fef57600080fd5b50565b60008135905061100181610fdb565b92915050565b61101081610f70565b811461101b57600080fd5b50565b60008135905061102d81611007565b92915050565b6000806040838503121561104a57611049610fa4565b5b600061105885828601610ff2565b92505060206110698582860161101e565b9150509250929050565b600061107e82610fa9565b9050919050565b61108e81611073565b811461109957600080fd5b50565b6000813590506110ab81611085565b92915050565b6000602082840312156110c7576110c6610fa4565b5b60006110d58482850161109c565b91505092915050565b6000602082840312156110f4576110f3610fa4565b5b600061110284828501610ff2565b91505092915050565b61111481610fc9565b82525050565b600060208201905061112f600083018461110b565b92915050565b60006020828403121561114b5761114a610fa4565b5b60006111598482850161101e565b91505092915050565b600082825260208201905092915050565b7f4f776e61626c653a2063616c6c6572206973206e6f7420746865206f776e6572600082015250565b60006111a9602083611162565b91506111b482611173565b602082019050919050565b600060208201905081810360008301526111d88161119c565b9050919050565b7f4e6f206574686572206c65667420746f20776974686472617700000000000000600082015250565b6000611215601983611162565b9150611220826111df565b602082019050919050565b6000602082019050818103600083015261124481611208565b9050919050565b600081905092915050565b50565b600061126660008361124b565b915061127182611256565b600082019050919050565b600061128782611259565b9150819050919050565b7f5769746864726177616c206661696c6564000000000000000000000000000000600082015250565b60006112c7601183611162565b91506112d282611291565b602082019050919050565b600060208201905081810360008301526112f6816112ba565b9050919050565b60008115159050919050565b611312816112fd565b82525050565b600081519050919050565b600082825260208201905092915050565b60005b83811015611352578082015181840152602081019050611337565b83811115611361576000848401525b50505050565b6000601f19601f8301169050919050565b600061138382611318565b61138d8185611323565b935061139d818560208601611334565b6113a681611367565b840191505092915050565b60006040820190506113c66000830185611309565b81810360208301526113d88184611378565b90509392505050565b6000815190506113f081611007565b92915050565b60006020828403121561140c5761140b610fa4565b5b600061141a848285016113e1565b91505092915050565b7f4e487b7100000000000000000000000000000000000000000000000000000000600052601160045260246000fd5b600061145d82610f70565b915061146883610f70565b9250827fffffffffffffffffffffffffffffffffffffffffffffffffffffffffffffffff0382111561149d5761149c611423565b5b828201905092915050565b7f4e6f206d6f7265206c65667420746f206d696e74000000000000000000000000600082015250565b60006114de601483611162565b91506114e9826114a8565b602082019050919050565b6000602082019050818103600083015261150d816114d1565b9050919050565b7f596f752068617665206d696e74656420796f75722077616c6c6574206c696d6960008201527f7400000000000000000000000000000000000000000000000000000000000000602082015250565b6000611570602183611162565b915061157b82611514565b604082019050919050565b6000602082019050818103600083015261159f81611563565b9050919050565b60006115b182610f70565b91506115bc83610f70565b9250817fffffffffffffffffffffffffffffffffffffffffffffffffffffffffffffffff04831182151516156115f5576115f4611423565b5b828202905092915050565b7f4e65656420746f2073656e64206d6f7265206574686572000000000000000000600082015250565b6000611636601783611162565b915061164182611600565b602082019050919050565b6000602082019050818103600083015261166581611629565b9050919050565b600061167782610f70565b91507fffffffffffffffffffffffffffffffffffffffffffffffffffffffffffffffff8214156116aa576116a9611423565b5b600182019050919050565b60006040820190506116ca6000830185610f7a565b6116d76020830184610f7a565b9392505050565b7f4f776e61626c653a206e6577206f776e657220697320746865207a65726f206160008201527f6464726573730000000000000000000000000000000000000000000000000000602082015250565b600061173a602683611162565b9150611745826116de565b604082019050919050565b600060208201905081810360008301526117698161172d565b905091905056fea2646970667358221220d58acdbc372249da92b2e1cc1f24e46fa381b8b01d4defc4697a2dafe8ec1d5564736f6c634300080b0033",
  "immutableReferences": {},
  "source": "// SPDX-License-Identifier: MIT\npragma solidity ^0.8.2;\n\nimport '@openzeppelin/contracts-upgradeable/access/OwnableUpgradeable.sol';\nimport './MIRLs.sol';\n\ncontract Minter is OwnableUpgradeable {\n  uint256 public BASE_PRICE = 0.05 ether;\n  uint256 public constant MAX_PER_WALLET = 2;\n  uint256 public constant MAX_MIRLS = 888;\n  uint256 public constant FREE_MINT = 444;\n\n  MIRLs private tokens;\n  address private MIRLsAddress;\n\n  event Log(uint256 amount, uint256 gas);\n  event ResultsFromCall(bool success, bytes data);\n\n  constructor(address payable _MIRLsAddress) {\n    MIRLsAddress = _MIRLsAddress;\n    tokens = MIRLs(_MIRLsAddress);\n  }\n\n  receive() external payable {}\n\n  fallback() external payable {}\n\n  /**\n  ***************************\n  Public\n  ***************************\n   */\n\n  function getBalance() public view returns (uint256) {\n    return address(this).balance;\n  }\n\n  function mint(address to) public payable {\n    require(tokens.totalSupply() < MAX_MIRLS, 'No more left to mint');\n    require(tokens.balanceOf(to) < MAX_PER_WALLET, 'You have minted your wallet limit');\n\n    if (tokens.totalSupply() < FREE_MINT) {\n      // free minting\n      tokens.safeMint(to);\n    } else {\n      require(msg.value >= BASE_PRICE, 'Need to send more ether');\n      tokens.safeMint(to);\n    }\n\n    emit Log(msg.value, gasleft());\n  }\n\n  function batchMint(address to, uint256 batchMintAmt) public payable {\n    // no free minting for batch\n\n    require((tokens.totalSupply() + batchMintAmt) <= MAX_MIRLS, 'No more left to mint');\n    require((tokens.balanceOf(to) + batchMintAmt) <= MAX_PER_WALLET, 'You have minted your wallet limit');\n    require(msg.value >= (BASE_PRICE * batchMintAmt), 'Need to send more ether');\n\n    for (uint256 index = 0; index < batchMintAmt; index++) {\n      tokens.safeMint(to);\n    }\n\n    emit Log(msg.value, gasleft());\n  }\n\n  /**\n  ***************************\n  Only Owner\n  ***************************\n   */\n\n  function withdraw() external onlyOwner {\n    uint256 balance = address(this).balance;\n    require(balance > 0, 'No ether left to withdraw');\n\n    (bool success, bytes memory data) = (msg.sender).call{value: balance}('');\n    require(success, 'Withdrawal failed');\n    emit ResultsFromCall(success, data);\n  }\n\n  /**\n  ***************************\n  Customization for the contract\n  ***************************\n   */\n\n  function setContractAddress(address payable _address) external onlyOwner {\n    MIRLsAddress = _address;\n    tokens = MIRLs(_address);\n  }\n\n  function setBasePrice(uint256 _basePrice) public onlyOwner {\n    BASE_PRICE = _basePrice;\n  }\n}\n",
  "sourcePath": "/home/hungdevjs/Documents/blockchain-tuts/smart-contract-react/truffle/contracts/Minter.sol",
  "compiler": {
    "name": "solc",
    "version": "0.8.11+commit.d7f03943.Emscripten.clang"
  },
  "schemaVersion": "3.4.5",
  "updatedAt": "2022-02-21T14:01:17.103Z",
  "networkType": "ethereum",
  "devdoc": {
    "kind": "dev",
    "methods": {
      "owner()": {
        "details": "Returns the address of the current owner."
      },
      "renounceOwnership()": {
        "details": "Leaves the contract without owner. It will not be possible to call `onlyOwner` functions anymore. Can only be called by the current owner. NOTE: Renouncing ownership will leave the contract without an owner, thereby removing any functionality that is only available to the owner."
      },
      "transferOwnership(address)": {
        "details": "Transfers ownership of the contract to a new account (`newOwner`). Can only be called by the current owner."
      }
    },
    "version": 1
  },
  "userdoc": {
    "kind": "user",
    "methods": {
      "getBalance()": {
        "notice": "*************************** Public***************************"
      },
      "setContractAddress(address)": {
        "notice": "*************************** Customization for the contract***************************"
      },
      "withdraw()": {
        "notice": "*************************** Only Owner***************************"
      }
    },
    "version": 1
  }
}