{
  "contractName": "Minter",
  "abi": [
    {
      "inputs": [
        {
          "internalType": "address payable",
          "name": "_JBAAddress",
          "type": "address"
        }
      ],
      "stateMutability": "nonpayable",
      "type": "constructor"
    },
    {
      "anonymous": false,
      "inputs": [
        {
          "indexed": false,
          "internalType": "uint256",
          "name": "amount",
          "type": "uint256"
        },
        {
          "indexed": false,
          "internalType": "uint256",
          "name": "gas",
          "type": "uint256"
        }
      ],
      "name": "Log",
      "type": "event"
    },
    {
      "anonymous": false,
      "inputs": [
        {
          "indexed": true,
          "internalType": "address",
          "name": "previousOwner",
          "type": "address"
        },
        {
          "indexed": true,
          "internalType": "address",
          "name": "newOwner",
          "type": "address"
        }
      ],
      "name": "OwnershipTransferred",
      "type": "event"
    },
    {
      "anonymous": false,
      "inputs": [
        {
          "indexed": false,
          "internalType": "bool",
          "name": "success",
          "type": "bool"
        },
        {
          "indexed": false,
          "internalType": "bytes",
          "name": "data",
          "type": "bytes"
        }
      ],
      "name": "ResultsFromCall",
      "type": "event"
    },
    {
      "stateMutability": "payable",
      "type": "fallback",
      "payable": true
    },
    {
      "inputs": [],
      "name": "BASE_PRICE",
      "outputs": [
        {
          "internalType": "uint256",
          "name": "",
          "type": "uint256"
        }
      ],
      "stateMutability": "view",
      "type": "function",
      "constant": true
    },
    {
      "inputs": [],
      "name": "FREE_MINT",
      "outputs": [
        {
          "internalType": "uint256",
          "name": "",
          "type": "uint256"
        }
      ],
      "stateMutability": "view",
      "type": "function",
      "constant": true
    },
    {
      "inputs": [],
      "name": "MAX_JBA",
      "outputs": [
        {
          "internalType": "uint256",
          "name": "",
          "type": "uint256"
        }
      ],
      "stateMutability": "view",
      "type": "function",
      "constant": true
    },
    {
      "inputs": [],
      "name": "MAX_PER_WALLET",
      "outputs": [
        {
          "internalType": "uint256",
          "name": "",
          "type": "uint256"
        }
      ],
      "stateMutability": "view",
      "type": "function",
      "constant": true
    },
    {
      "inputs": [],
      "name": "merkleRoot",
      "outputs": [
        {
          "internalType": "bytes32",
          "name": "",
          "type": "bytes32"
        }
      ],
      "stateMutability": "view",
      "type": "function",
      "constant": true
    },
    {
      "inputs": [],
      "name": "owner",
      "outputs": [
        {
          "internalType": "address",
          "name": "",
          "type": "address"
        }
      ],
      "stateMutability": "view",
      "type": "function",
      "constant": true
    },
    {
      "inputs": [],
      "name": "renounceOwnership",
      "outputs": [],
      "stateMutability": "nonpayable",
      "type": "function"
    },
    {
      "inputs": [
        {
          "internalType": "address",
          "name": "newOwner",
          "type": "address"
        }
      ],
      "name": "transferOwnership",
      "outputs": [],
      "stateMutability": "nonpayable",
      "type": "function"
    },
    {
      "stateMutability": "payable",
      "type": "receive",
      "payable": true
    },
    {
      "inputs": [],
      "name": "getBalance",
      "outputs": [
        {
          "internalType": "uint256",
          "name": "",
          "type": "uint256"
        }
      ],
      "stateMutability": "view",
      "type": "function",
      "constant": true
    },
    {
      "inputs": [
        {
          "internalType": "address",
          "name": "to",
          "type": "address"
        },
        {
          "internalType": "bytes32[]",
          "name": "merkleProof",
          "type": "bytes32[]"
        }
      ],
      "name": "mint",
      "outputs": [],
      "stateMutability": "payable",
      "type": "function",
      "payable": true
    },
    {
      "inputs": [
        {
          "internalType": "address",
          "name": "to",
          "type": "address"
        },
        {
          "internalType": "bytes32[]",
          "name": "merkleProof",
          "type": "bytes32[]"
        },
        {
          "internalType": "uint256",
          "name": "batchMintAmt",
          "type": "uint256"
        }
      ],
      "name": "batchMint",
      "outputs": [],
      "stateMutability": "payable",
      "type": "function",
      "payable": true
    },
    {
      "inputs": [],
      "name": "withdraw",
      "outputs": [],
      "stateMutability": "nonpayable",
      "type": "function"
    },
    {
      "inputs": [
        {
          "internalType": "address payable",
          "name": "_address",
          "type": "address"
        }
      ],
      "name": "setContractAddress",
      "outputs": [],
      "stateMutability": "nonpayable",
      "type": "function"
    },
    {
      "inputs": [
        {
          "internalType": "uint256",
          "name": "_basePrice",
          "type": "uint256"
        }
      ],
      "name": "setBasePrice",
      "outputs": [],
      "stateMutability": "nonpayable",
      "type": "function"
    }
  ],
  "bytecode": "0x608060405266b1a2bc2ec500006001553480156200001c57600080fd5b5060405162001e8338038062001e83833981810160405281019062000042919062000221565b6200006262000056620000eb60201b60201c565b620000f360201b60201c565b80600360006101000a81548173ffffffffffffffffffffffffffffffffffffffff021916908373ffffffffffffffffffffffffffffffffffffffff16021790555080600260006101000a81548173ffffffffffffffffffffffffffffffffffffffff021916908373ffffffffffffffffffffffffffffffffffffffff1602179055505062000253565b600033905090565b60008060009054906101000a900473ffffffffffffffffffffffffffffffffffffffff169050816000806101000a81548173ffffffffffffffffffffffffffffffffffffffff021916908373ffffffffffffffffffffffffffffffffffffffff1602179055508173ffffffffffffffffffffffffffffffffffffffff168173ffffffffffffffffffffffffffffffffffffffff167f8be0079c531659141344cd1fd0a4f28419497f9722a3daafe3b4186f6b6457e060405160405180910390a35050565b600080fd5b600073ffffffffffffffffffffffffffffffffffffffff82169050919050565b6000620001e982620001bc565b9050919050565b620001fb81620001dc565b81146200020757600080fd5b50565b6000815190506200021b81620001f0565b92915050565b6000602082840312156200023a5762000239620001b7565b5b60006200024a848285016200020a565b91505092915050565b611c2080620002636000396000f3fe6080604052600436106100e15760003560e01c80637bf322701161007f578063db065b1d11610059578063db065b1d14610250578063de4b32621461027b578063f2fde38b146102a4578063f86325ed146102cd576100e8565b80637bf32270146101ed5780638da5cb5b14610209578063974513e514610234576100e8565b80632eb4a7ab116100bb5780632eb4a7ab1461016b5780633ccfd60b14610196578063477bddaa146101ad578063715018a6146101d6576100e8565b80630a74d75f146100ea5780630f2cdd6c1461011557806312065fe014610140576100e8565b366100e857005b005b3480156100f657600080fd5b506100ff6102f8565b60405161010c91906111d3565b60405180910390f35b34801561012157600080fd5b5061012a6102fe565b60405161013791906111d3565b60405180910390f35b34801561014c57600080fd5b50610155610303565b60405161016291906111d3565b60405180910390f35b34801561017757600080fd5b5061018061030b565b60405161018d9190611207565b60405180910390f35b3480156101a257600080fd5b506101ab610332565b005b3480156101b957600080fd5b506101d460048036038101906101cf919061128a565b6104e2565b005b3480156101e257600080fd5b506101eb6105e3565b005b6102076004803603810190610202919061135a565b61066b565b005b34801561021557600080fd5b5061021e610aa4565b60405161022b91906113c9565b60405180910390f35b61024e60048036038101906102499190611410565b610acd565b005b34801561025c57600080fd5b50610265610e1c565b60405161027291906111d3565b60405180910390f35b34801561028757600080fd5b506102a2600480360381019061029d9190611484565b610e22565b005b3480156102b057600080fd5b506102cb60048036038101906102c691906114b1565b610ea8565b005b3480156102d957600080fd5b506102e2610fa0565b6040516102ef91906111d3565b60405180910390f35b61037881565b600581565b600047905090565b7fad394490230bbfbf2d72242f35618fb76505aa96b686a91c7ef775f263d98cd860001b81565b61033a610fa6565b73ffffffffffffffffffffffffffffffffffffffff16610358610aa4565b73ffffffffffffffffffffffffffffffffffffffff16146103ae576040517f08c379a00000000000000000000000000000000000000000000000000000000081526004016103a59061153b565b60405180910390fd5b6000479050600081116103f6576040517f08c379a00000000000000000000000000000000000000000000000000000000081526004016103ed906115a7565b60405180910390fd5b6000803373ffffffffffffffffffffffffffffffffffffffff168360405161041d906115f8565b60006040518083038185875af1925050503d806000811461045a576040519150601f19603f3d011682016040523d82523d6000602084013e61045f565b606091505b5091509150816104a4576040517f08c379a000000000000000000000000000000000000000000000000000000000815260040161049b90611659565b60405180910390fd5b7ffe0c8fdb7358cac52628b197c1f1419c599e01d9894a88eefab41a1a1839d29182826040516104d592919061172d565b60405180910390a1505050565b6104ea610fa6565b73ffffffffffffffffffffffffffffffffffffffff16610508610aa4565b73ffffffffffffffffffffffffffffffffffffffff161461055e576040517f08c379a00000000000000000000000000000000000000000000000000000000081526004016105559061153b565b60405180910390fd5b80600360006101000a81548173ffffffffffffffffffffffffffffffffffffffff021916908373ffffffffffffffffffffffffffffffffffffffff16021790555080600260006101000a81548173ffffffffffffffffffffffffffffffffffffffff021916908373ffffffffffffffffffffffffffffffffffffffff16021790555050565b6105eb610fa6565b73ffffffffffffffffffffffffffffffffffffffff16610609610aa4565b73ffffffffffffffffffffffffffffffffffffffff161461065f576040517f08c379a00000000000000000000000000000000000000000000000000000000081526004016106569061153b565b60405180910390fd5b6106696000610fae565b565b610676828285611072565b6106b5576040517f08c379a00000000000000000000000000000000000000000000000000000000081526004016106ac906117a9565b60405180910390fd5b610378600260009054906101000a900473ffffffffffffffffffffffffffffffffffffffff1673ffffffffffffffffffffffffffffffffffffffff166318160ddd6040518163ffffffff1660e01b8152600401602060405180830381865afa158015610725573d6000803e3d6000fd5b505050506040513d601f19601f8201168201806040525081019061074991906117de565b10610789576040517f08c379a000000000000000000000000000000000000000000000000000000000815260040161078090611857565b60405180910390fd5b6005600260009054906101000a900473ffffffffffffffffffffffffffffffffffffffff1673ffffffffffffffffffffffffffffffffffffffff166370a08231856040518263ffffffff1660e01b81526004016107e691906113c9565b602060405180830381865afa158015610803573d6000803e3d6000fd5b505050506040513d601f19601f8201168201806040525081019061082791906117de565b10610867576040517f08c379a000000000000000000000000000000000000000000000000000000000815260040161085e906118e9565b60405180910390fd5b6101bc600260009054906101000a900473ffffffffffffffffffffffffffffffffffffffff1673ffffffffffffffffffffffffffffffffffffffff166318160ddd6040518163ffffffff1660e01b8152600401602060405180830381865afa1580156108d7573d6000803e3d6000fd5b505050506040513d601f19601f820116820180604052508101906108fb91906117de565b101561099357600260009054906101000a900473ffffffffffffffffffffffffffffffffffffffff1673ffffffffffffffffffffffffffffffffffffffff166340d097c3846040518263ffffffff1660e01b815260040161095c91906113c9565b600060405180830381600087803b15801561097657600080fd5b505af115801561098a573d6000803e3d6000fd5b50505050610a66565b6001543410156109d8576040517f08c379a00000000000000000000000000000000000000000000000000000000081526004016109cf90611955565b60405180910390fd5b600260009054906101000a900473ffffffffffffffffffffffffffffffffffffffff1673ffffffffffffffffffffffffffffffffffffffff166340d097c3846040518263ffffffff1660e01b8152600401610a3391906113c9565b600060405180830381600087803b158015610a4d57600080fd5b505af1158015610a61573d6000803e3d6000fd5b505050505b7fbd0faddf87043dd749c1b9d4dca8a12589b8cb5e2106832111ce23f219b14367345a604051610a97929190611975565b60405180910390a1505050565b60008060009054906101000a900473ffffffffffffffffffffffffffffffffffffffff16905090565b610ad8838386611072565b610b17576040517f08c379a0000000000000000000000000000000000000000000000000000000008152600401610b0e906117a9565b60405180910390fd5b61037881600260009054906101000a900473ffffffffffffffffffffffffffffffffffffffff1673ffffffffffffffffffffffffffffffffffffffff166318160ddd6040518163ffffffff1660e01b8152600401602060405180830381865afa158015610b88573d6000803e3d6000fd5b505050506040513d601f19601f82011682018060405250810190610bac91906117de565b610bb691906119cd565b1115610bf7576040517f08c379a0000000000000000000000000000000000000000000000000000000008152600401610bee90611857565b60405180910390fd5b600581600260009054906101000a900473ffffffffffffffffffffffffffffffffffffffff1673ffffffffffffffffffffffffffffffffffffffff166370a08231876040518263ffffffff1660e01b8152600401610c5591906113c9565b602060405180830381865afa158015610c72573d6000803e3d6000fd5b505050506040513d601f19601f82011682018060405250810190610c9691906117de565b610ca091906119cd565b1115610ce1576040517f08c379a0000000000000000000000000000000000000000000000000000000008152600401610cd8906118e9565b60405180910390fd5b80600154610cef9190611a23565b341015610d31576040517f08c379a0000000000000000000000000000000000000000000000000000000008152600401610d2890611955565b60405180910390fd5b60005b81811015610ddc57600260009054906101000a900473ffffffffffffffffffffffffffffffffffffffff1673ffffffffffffffffffffffffffffffffffffffff166340d097c3866040518263ffffffff1660e01b8152600401610d9791906113c9565b600060405180830381600087803b158015610db157600080fd5b505af1158015610dc5573d6000803e3d6000fd5b505050508080610dd490611a7d565b915050610d34565b507fbd0faddf87043dd749c1b9d4dca8a12589b8cb5e2106832111ce23f219b14367345a604051610e0e929190611975565b60405180910390a150505050565b6101bc81565b610e2a610fa6565b73ffffffffffffffffffffffffffffffffffffffff16610e48610aa4565b73ffffffffffffffffffffffffffffffffffffffff1614610e9e576040517f08c379a0000000000000000000000000000000000000000000000000000000008152600401610e959061153b565b60405180910390fd5b8060018190555050565b610eb0610fa6565b73ffffffffffffffffffffffffffffffffffffffff16610ece610aa4565b73ffffffffffffffffffffffffffffffffffffffff1614610f24576040517f08c379a0000000000000000000000000000000000000000000000000000000008152600401610f1b9061153b565b60405180910390fd5b600073ffffffffffffffffffffffffffffffffffffffff168173ffffffffffffffffffffffffffffffffffffffff161415610f94576040517f08c379a0000000000000000000000000000000000000000000000000000000008152600401610f8b90611b38565b60405180910390fd5b610f9d81610fae565b50565b60015481565b600033905090565b60008060009054906101000a900473ffffffffffffffffffffffffffffffffffffffff169050816000806101000a81548173ffffffffffffffffffffffffffffffffffffffff021916908373ffffffffffffffffffffffffffffffffffffffff1602179055508173ffffffffffffffffffffffffffffffffffffffff168173ffffffffffffffffffffffffffffffffffffffff167f8be0079c531659141344cd1fd0a4f28419497f9722a3daafe3b4186f6b6457e060405160405180910390a35050565b600080826040516020016110869190611ba0565b60405160208183030381529060405280519060200120905061110d858580806020026020016040519081016040528093929190818152602001838360200280828437600081840152601f19601f820116905080830192505050505050507fad394490230bbfbf2d72242f35618fb76505aa96b686a91c7ef775f263d98cd860001b83611117565b9150509392505050565b600082611124858461112e565b1490509392505050565b60008082905060005b845181101561119857600085828151811061115557611154611bbb565b5b602002602001015190508083116111775761117083826111a3565b9250611184565b61118181846111a3565b92505b50808061119090611a7d565b915050611137565b508091505092915050565b600082600052816020526040600020905092915050565b6000819050919050565b6111cd816111ba565b82525050565b60006020820190506111e860008301846111c4565b92915050565b6000819050919050565b611201816111ee565b82525050565b600060208201905061121c60008301846111f8565b92915050565b600080fd5b600080fd5b600073ffffffffffffffffffffffffffffffffffffffff82169050919050565b60006112578261122c565b9050919050565b6112678161124c565b811461127257600080fd5b50565b6000813590506112848161125e565b92915050565b6000602082840312156112a05761129f611222565b5b60006112ae84828501611275565b91505092915050565b60006112c28261122c565b9050919050565b6112d2816112b7565b81146112dd57600080fd5b50565b6000813590506112ef816112c9565b92915050565b600080fd5b600080fd5b600080fd5b60008083601f84011261131a576113196112f5565b5b8235905067ffffffffffffffff811115611337576113366112fa565b5b602083019150836020820283011115611353576113526112ff565b5b9250929050565b60008060006040848603121561137357611372611222565b5b6000611381868287016112e0565b935050602084013567ffffffffffffffff8111156113a2576113a1611227565b5b6113ae86828701611304565b92509250509250925092565b6113c3816112b7565b82525050565b60006020820190506113de60008301846113ba565b92915050565b6113ed816111ba565b81146113f857600080fd5b50565b60008135905061140a816113e4565b92915050565b6000806000806060858703121561142a57611429611222565b5b6000611438878288016112e0565b945050602085013567ffffffffffffffff81111561145957611458611227565b5b61146587828801611304565b93509350506040611478878288016113fb565b91505092959194509250565b60006020828403121561149a57611499611222565b5b60006114a8848285016113fb565b91505092915050565b6000602082840312156114c7576114c6611222565b5b60006114d5848285016112e0565b91505092915050565b600082825260208201905092915050565b7f4f776e61626c653a2063616c6c6572206973206e6f7420746865206f776e6572600082015250565b60006115256020836114de565b9150611530826114ef565b602082019050919050565b6000602082019050818103600083015261155481611518565b9050919050565b7f4e6f206574686572206c65667420746f20776974686472617700000000000000600082015250565b60006115916019836114de565b915061159c8261155b565b602082019050919050565b600060208201905081810360008301526115c081611584565b9050919050565b600081905092915050565b50565b60006115e26000836115c7565b91506115ed826115d2565b600082019050919050565b6000611603826115d5565b9150819050919050565b7f5769746864726177616c206661696c6564000000000000000000000000000000600082015250565b60006116436011836114de565b915061164e8261160d565b602082019050919050565b6000602082019050818103600083015261167281611636565b9050919050565b60008115159050919050565b61168e81611679565b82525050565b600081519050919050565b600082825260208201905092915050565b60005b838110156116ce5780820151818401526020810190506116b3565b838111156116dd576000848401525b50505050565b6000601f19601f8301169050919050565b60006116ff82611694565b611709818561169f565b93506117198185602086016116b0565b611722816116e3565b840191505092915050565b60006040820190506117426000830185611685565b818103602083015261175481846116f4565b90509392505050565b7f557365722069736e742077686974656c69737465640000000000000000000000600082015250565b60006117936015836114de565b915061179e8261175d565b602082019050919050565b600060208201905081810360008301526117c281611786565b9050919050565b6000815190506117d8816113e4565b92915050565b6000602082840312156117f4576117f3611222565b5b6000611802848285016117c9565b91505092915050565b7f4e6f206d6f7265206c65667420746f206d696e74000000000000000000000000600082015250565b60006118416014836114de565b915061184c8261180b565b602082019050919050565b6000602082019050818103600083015261187081611834565b9050919050565b7f596f752068617665206d696e74656420796f75722077616c6c6574206c696d6960008201527f7400000000000000000000000000000000000000000000000000000000000000602082015250565b60006118d36021836114de565b91506118de82611877565b604082019050919050565b60006020820190508181036000830152611902816118c6565b9050919050565b7f4e65656420746f2073656e64206d6f7265206574686572000000000000000000600082015250565b600061193f6017836114de565b915061194a82611909565b602082019050919050565b6000602082019050818103600083015261196e81611932565b9050919050565b600060408201905061198a60008301856111c4565b61199760208301846111c4565b9392505050565b7f4e487b7100000000000000000000000000000000000000000000000000000000600052601160045260246000fd5b60006119d8826111ba565b91506119e3836111ba565b9250827fffffffffffffffffffffffffffffffffffffffffffffffffffffffffffffffff03821115611a1857611a1761199e565b5b828201905092915050565b6000611a2e826111ba565b9150611a39836111ba565b9250817fffffffffffffffffffffffffffffffffffffffffffffffffffffffffffffffff0483118215151615611a7257611a7161199e565b5b828202905092915050565b6000611a88826111ba565b91507fffffffffffffffffffffffffffffffffffffffffffffffffffffffffffffffff821415611abb57611aba61199e565b5b600182019050919050565b7f4f776e61626c653a206e6577206f776e657220697320746865207a65726f206160008201527f6464726573730000000000000000000000000000000000000000000000000000602082015250565b6000611b226026836114de565b9150611b2d82611ac6565b604082019050919050565b60006020820190508181036000830152611b5181611b15565b9050919050565b60008160601b9050919050565b6000611b7082611b58565b9050919050565b6000611b8282611b65565b9050919050565b611b9a611b95826112b7565b611b77565b82525050565b6000611bac8284611b89565b60148201915081905092915050565b7f4e487b7100000000000000000000000000000000000000000000000000000000600052603260045260246000fdfea2646970667358221220e262e26110c5f5eb00aebc85430a38b7e519f094004dd47b6f4f3d62ab448e9164736f6c634300080b0033",
  "immutableReferences": {},
  "source": "// SPDX-License-Identifier: MIT\npragma solidity ^0.8.11;\n\nimport '@openzeppelin/contracts/access/Ownable.sol';\nimport \"@openzeppelin/contracts/utils/cryptography/MerkleProof.sol\";\nimport './JBA.sol';\n\ncontract Minter is Ownable {\n  bytes32 public constant merkleRoot = 0xad394490230bbfbf2d72242f35618fb76505aa96b686a91c7ef775f263d98cd8;\n  uint256 public BASE_PRICE = 0.05 ether;\n  uint256 public constant MAX_PER_WALLET = 5;\n  uint256 public constant MAX_JBA = 888;\n  uint256 public constant FREE_MINT = 444;\n\n  JBA private tokens;\n  address private JBAAddress;\n\n  event Log(uint256 amount, uint256 gas);\n  event ResultsFromCall(bool success, bytes data);\n\n  constructor(address payable _JBAAddress) {\n    JBAAddress = _JBAAddress;\n    tokens = JBA(_JBAAddress);\n  }\n\n  receive() external payable {}\n\n  fallback() external payable {}\n\n  function validateWhiteList(bytes32[] calldata merkleProof, address sender) private pure returns (bool) {\n    bytes32 leaf = keccak256(abi.encodePacked(sender));\n    return MerkleProof.verify(merkleProof, merkleRoot, leaf);\n  }\n\n  /**\n  ***************************\n  Public\n  ***************************\n   */\n\n  function getBalance() public view returns (uint256) {\n    return address(this).balance;\n  }\n\n  function mint(address to, bytes32[] calldata merkleProof) public payable {\n    require(validateWhiteList(merkleProof, to), \"User isnt whitelisted\");\n    require(tokens.totalSupply() < MAX_JBA, 'No more left to mint');\n    require(tokens.balanceOf(to) < MAX_PER_WALLET, 'You have minted your wallet limit');\n\n    if (tokens.totalSupply() < FREE_MINT) {\n      // free minting\n      tokens.safeMint(to);\n    } else {\n      require(msg.value >= BASE_PRICE, 'Need to send more ether');\n      tokens.safeMint(to);\n    }\n\n    emit Log(msg.value, gasleft());\n  }\n\n  function batchMint(address to, bytes32[] calldata merkleProof, uint256 batchMintAmt) public payable {\n    // no free minting for batch\n    require(validateWhiteList(merkleProof, to), \"User isnt whitelisted\");\n    require((tokens.totalSupply() + batchMintAmt) <= MAX_JBA, 'No more left to mint');\n    require((tokens.balanceOf(to) + batchMintAmt) <= MAX_PER_WALLET, 'You have minted your wallet limit');\n    require(msg.value >= (BASE_PRICE * batchMintAmt), 'Need to send more ether');\n\n    for (uint256 index = 0; index < batchMintAmt; index++) {\n      tokens.safeMint(to);\n    }\n\n    emit Log(msg.value, gasleft());\n  }\n\n  /**\n  ***************************\n  Only Owner\n  ***************************\n   */\n\n  function withdraw() external onlyOwner {\n    uint256 balance = address(this).balance;\n    require(balance > 0, 'No ether left to withdraw');\n\n    (bool success, bytes memory data) = (msg.sender).call{value: balance}('');\n    require(success, 'Withdrawal failed');\n    emit ResultsFromCall(success, data);\n  }\n\n  /**\n  ***************************\n  Customization for the contract\n  ***************************\n   */\n\n  function setContractAddress(address payable _address) external onlyOwner {\n    JBAAddress = _address;\n    tokens = JBA(_address);\n  }\n\n  function setBasePrice(uint256 _basePrice) public onlyOwner {\n    BASE_PRICE = _basePrice;\n  }\n}\n",
  "sourcePath": "/home/hungdevjs/Documents/blockchain-tuts/smart-contract-react/truffle/contracts/Minter.sol",
  "compiler": {
    "name": "solc",
    "version": "0.8.11+commit.d7f03943.Emscripten.clang"
  },
  "schemaVersion": "3.4.5",
  "updatedAt": "2022-02-23T08:37:13.652Z",
  "networkType": "ethereum",
  "devdoc": {
    "kind": "dev",
    "methods": {
      "owner()": {
        "details": "Returns the address of the current owner."
      },
      "renounceOwnership()": {
        "details": "Leaves the contract without owner. It will not be possible to call `onlyOwner` functions anymore. Can only be called by the current owner. NOTE: Renouncing ownership will leave the contract without an owner, thereby removing any functionality that is only available to the owner."
      },
      "transferOwnership(address)": {
        "details": "Transfers ownership of the contract to a new account (`newOwner`). Can only be called by the current owner."
      }
    },
    "version": 1
  },
  "userdoc": {
    "kind": "user",
    "methods": {
      "getBalance()": {
        "notice": "*************************** Public***************************"
      },
      "setContractAddress(address)": {
        "notice": "*************************** Customization for the contract***************************"
      },
      "withdraw()": {
        "notice": "*************************** Only Owner***************************"
      }
    },
    "version": 1
  }
}