{
  "contractName": "MIRLs",
  "abi": [
    {
      "inputs": [],
      "stateMutability": "nonpayable",
      "type": "constructor"
    },
    {
      "anonymous": false,
      "inputs": [
        {
          "indexed": true,
          "internalType": "address",
          "name": "owner",
          "type": "address"
        },
        {
          "indexed": true,
          "internalType": "address",
          "name": "approved",
          "type": "address"
        },
        {
          "indexed": true,
          "internalType": "uint256",
          "name": "tokenId",
          "type": "uint256"
        }
      ],
      "name": "Approval",
      "type": "event"
    },
    {
      "anonymous": false,
      "inputs": [
        {
          "indexed": true,
          "internalType": "address",
          "name": "owner",
          "type": "address"
        },
        {
          "indexed": true,
          "internalType": "address",
          "name": "operator",
          "type": "address"
        },
        {
          "indexed": false,
          "internalType": "bool",
          "name": "approved",
          "type": "bool"
        }
      ],
      "name": "ApprovalForAll",
      "type": "event"
    },
    {
      "anonymous": false,
      "inputs": [
        {
          "indexed": false,
          "internalType": "string",
          "name": "str",
          "type": "string"
        }
      ],
      "name": "Log",
      "type": "event"
    },
    {
      "anonymous": false,
      "inputs": [
        {
          "indexed": false,
          "internalType": "address",
          "name": "account",
          "type": "address"
        }
      ],
      "name": "Paused",
      "type": "event"
    },
    {
      "anonymous": false,
      "inputs": [
        {
          "indexed": true,
          "internalType": "bytes32",
          "name": "role",
          "type": "bytes32"
        },
        {
          "indexed": true,
          "internalType": "bytes32",
          "name": "previousAdminRole",
          "type": "bytes32"
        },
        {
          "indexed": true,
          "internalType": "bytes32",
          "name": "newAdminRole",
          "type": "bytes32"
        }
      ],
      "name": "RoleAdminChanged",
      "type": "event"
    },
    {
      "anonymous": false,
      "inputs": [
        {
          "indexed": true,
          "internalType": "bytes32",
          "name": "role",
          "type": "bytes32"
        },
        {
          "indexed": true,
          "internalType": "address",
          "name": "account",
          "type": "address"
        },
        {
          "indexed": true,
          "internalType": "address",
          "name": "sender",
          "type": "address"
        }
      ],
      "name": "RoleGranted",
      "type": "event"
    },
    {
      "anonymous": false,
      "inputs": [
        {
          "indexed": true,
          "internalType": "bytes32",
          "name": "role",
          "type": "bytes32"
        },
        {
          "indexed": true,
          "internalType": "address",
          "name": "account",
          "type": "address"
        },
        {
          "indexed": true,
          "internalType": "address",
          "name": "sender",
          "type": "address"
        }
      ],
      "name": "RoleRevoked",
      "type": "event"
    },
    {
      "anonymous": false,
      "inputs": [
        {
          "indexed": true,
          "internalType": "address",
          "name": "from",
          "type": "address"
        },
        {
          "indexed": true,
          "internalType": "address",
          "name": "to",
          "type": "address"
        },
        {
          "indexed": true,
          "internalType": "uint256",
          "name": "tokenId",
          "type": "uint256"
        }
      ],
      "name": "Transfer",
      "type": "event"
    },
    {
      "anonymous": false,
      "inputs": [
        {
          "indexed": false,
          "internalType": "address",
          "name": "account",
          "type": "address"
        }
      ],
      "name": "Unpaused",
      "type": "event"
    },
    {
      "inputs": [],
      "name": "DEFAULT_ADMIN_ROLE",
      "outputs": [
        {
          "internalType": "bytes32",
          "name": "",
          "type": "bytes32"
        }
      ],
      "stateMutability": "view",
      "type": "function",
      "constant": true
    },
    {
      "inputs": [],
      "name": "MINTER_ROLE",
      "outputs": [
        {
          "internalType": "bytes32",
          "name": "",
          "type": "bytes32"
        }
      ],
      "stateMutability": "view",
      "type": "function",
      "constant": true
    },
    {
      "inputs": [],
      "name": "PAUSER_ROLE",
      "outputs": [
        {
          "internalType": "bytes32",
          "name": "",
          "type": "bytes32"
        }
      ],
      "stateMutability": "view",
      "type": "function",
      "constant": true
    },
    {
      "inputs": [],
      "name": "WHITE_LIST_ROLE",
      "outputs": [
        {
          "internalType": "bytes32",
          "name": "",
          "type": "bytes32"
        }
      ],
      "stateMutability": "view",
      "type": "function",
      "constant": true
    },
    {
      "inputs": [
        {
          "internalType": "address",
          "name": "to",
          "type": "address"
        },
        {
          "internalType": "uint256",
          "name": "tokenId",
          "type": "uint256"
        }
      ],
      "name": "approve",
      "outputs": [],
      "stateMutability": "nonpayable",
      "type": "function"
    },
    {
      "inputs": [
        {
          "internalType": "address",
          "name": "owner",
          "type": "address"
        }
      ],
      "name": "balanceOf",
      "outputs": [
        {
          "internalType": "uint256",
          "name": "",
          "type": "uint256"
        }
      ],
      "stateMutability": "view",
      "type": "function",
      "constant": true
    },
    {
      "inputs": [
        {
          "internalType": "uint256",
          "name": "tokenId",
          "type": "uint256"
        }
      ],
      "name": "burn",
      "outputs": [],
      "stateMutability": "nonpayable",
      "type": "function"
    },
    {
      "inputs": [
        {
          "internalType": "uint256",
          "name": "tokenId",
          "type": "uint256"
        }
      ],
      "name": "getApproved",
      "outputs": [
        {
          "internalType": "address",
          "name": "",
          "type": "address"
        }
      ],
      "stateMutability": "view",
      "type": "function",
      "constant": true
    },
    {
      "inputs": [
        {
          "internalType": "bytes32",
          "name": "role",
          "type": "bytes32"
        }
      ],
      "name": "getRoleAdmin",
      "outputs": [
        {
          "internalType": "bytes32",
          "name": "",
          "type": "bytes32"
        }
      ],
      "stateMutability": "view",
      "type": "function",
      "constant": true
    },
    {
      "inputs": [
        {
          "internalType": "bytes32",
          "name": "role",
          "type": "bytes32"
        },
        {
          "internalType": "address",
          "name": "account",
          "type": "address"
        }
      ],
      "name": "grantRole",
      "outputs": [],
      "stateMutability": "nonpayable",
      "type": "function"
    },
    {
      "inputs": [
        {
          "internalType": "bytes32",
          "name": "role",
          "type": "bytes32"
        },
        {
          "internalType": "address",
          "name": "account",
          "type": "address"
        }
      ],
      "name": "hasRole",
      "outputs": [
        {
          "internalType": "bool",
          "name": "",
          "type": "bool"
        }
      ],
      "stateMutability": "view",
      "type": "function",
      "constant": true
    },
    {
      "inputs": [
        {
          "internalType": "address",
          "name": "owner",
          "type": "address"
        },
        {
          "internalType": "address",
          "name": "operator",
          "type": "address"
        }
      ],
      "name": "isApprovedForAll",
      "outputs": [
        {
          "internalType": "bool",
          "name": "",
          "type": "bool"
        }
      ],
      "stateMutability": "view",
      "type": "function",
      "constant": true
    },
    {
      "inputs": [],
      "name": "name",
      "outputs": [
        {
          "internalType": "string",
          "name": "",
          "type": "string"
        }
      ],
      "stateMutability": "view",
      "type": "function",
      "constant": true
    },
    {
      "inputs": [
        {
          "internalType": "uint256",
          "name": "tokenId",
          "type": "uint256"
        }
      ],
      "name": "ownerOf",
      "outputs": [
        {
          "internalType": "address",
          "name": "",
          "type": "address"
        }
      ],
      "stateMutability": "view",
      "type": "function",
      "constant": true
    },
    {
      "inputs": [],
      "name": "paused",
      "outputs": [
        {
          "internalType": "bool",
          "name": "",
          "type": "bool"
        }
      ],
      "stateMutability": "view",
      "type": "function",
      "constant": true
    },
    {
      "inputs": [
        {
          "internalType": "bytes32",
          "name": "role",
          "type": "bytes32"
        },
        {
          "internalType": "address",
          "name": "account",
          "type": "address"
        }
      ],
      "name": "renounceRole",
      "outputs": [],
      "stateMutability": "nonpayable",
      "type": "function"
    },
    {
      "inputs": [
        {
          "internalType": "bytes32",
          "name": "role",
          "type": "bytes32"
        },
        {
          "internalType": "address",
          "name": "account",
          "type": "address"
        }
      ],
      "name": "revokeRole",
      "outputs": [],
      "stateMutability": "nonpayable",
      "type": "function"
    },
    {
      "inputs": [
        {
          "internalType": "address",
          "name": "from",
          "type": "address"
        },
        {
          "internalType": "address",
          "name": "to",
          "type": "address"
        },
        {
          "internalType": "uint256",
          "name": "tokenId",
          "type": "uint256"
        }
      ],
      "name": "safeTransferFrom",
      "outputs": [],
      "stateMutability": "nonpayable",
      "type": "function"
    },
    {
      "inputs": [
        {
          "internalType": "address",
          "name": "from",
          "type": "address"
        },
        {
          "internalType": "address",
          "name": "to",
          "type": "address"
        },
        {
          "internalType": "uint256",
          "name": "tokenId",
          "type": "uint256"
        },
        {
          "internalType": "bytes",
          "name": "_data",
          "type": "bytes"
        }
      ],
      "name": "safeTransferFrom",
      "outputs": [],
      "stateMutability": "nonpayable",
      "type": "function"
    },
    {
      "inputs": [
        {
          "internalType": "address",
          "name": "operator",
          "type": "address"
        },
        {
          "internalType": "bool",
          "name": "approved",
          "type": "bool"
        }
      ],
      "name": "setApprovalForAll",
      "outputs": [],
      "stateMutability": "nonpayable",
      "type": "function"
    },
    {
      "inputs": [],
      "name": "symbol",
      "outputs": [
        {
          "internalType": "string",
          "name": "",
          "type": "string"
        }
      ],
      "stateMutability": "view",
      "type": "function",
      "constant": true
    },
    {
      "inputs": [
        {
          "internalType": "uint256",
          "name": "index",
          "type": "uint256"
        }
      ],
      "name": "tokenByIndex",
      "outputs": [
        {
          "internalType": "uint256",
          "name": "",
          "type": "uint256"
        }
      ],
      "stateMutability": "view",
      "type": "function",
      "constant": true
    },
    {
      "inputs": [
        {
          "internalType": "address",
          "name": "owner",
          "type": "address"
        },
        {
          "internalType": "uint256",
          "name": "index",
          "type": "uint256"
        }
      ],
      "name": "tokenOfOwnerByIndex",
      "outputs": [
        {
          "internalType": "uint256",
          "name": "",
          "type": "uint256"
        }
      ],
      "stateMutability": "view",
      "type": "function",
      "constant": true
    },
    {
      "inputs": [
        {
          "internalType": "uint256",
          "name": "tokenId",
          "type": "uint256"
        }
      ],
      "name": "tokenURI",
      "outputs": [
        {
          "internalType": "string",
          "name": "",
          "type": "string"
        }
      ],
      "stateMutability": "view",
      "type": "function",
      "constant": true
    },
    {
      "inputs": [],
      "name": "totalSupply",
      "outputs": [
        {
          "internalType": "uint256",
          "name": "",
          "type": "uint256"
        }
      ],
      "stateMutability": "view",
      "type": "function",
      "constant": true
    },
    {
      "inputs": [
        {
          "internalType": "address",
          "name": "from",
          "type": "address"
        },
        {
          "internalType": "address",
          "name": "to",
          "type": "address"
        },
        {
          "internalType": "uint256",
          "name": "tokenId",
          "type": "uint256"
        }
      ],
      "name": "transferFrom",
      "outputs": [],
      "stateMutability": "nonpayable",
      "type": "function"
    },
    {
      "inputs": [],
      "name": "initialize",
      "outputs": [],
      "stateMutability": "nonpayable",
      "type": "function"
    },
    {
      "inputs": [],
      "name": "pause",
      "outputs": [],
      "stateMutability": "nonpayable",
      "type": "function"
    },
    {
      "inputs": [],
      "name": "unpause",
      "outputs": [],
      "stateMutability": "nonpayable",
      "type": "function"
    },
    {
      "inputs": [],
      "name": "checkRole",
      "outputs": [
        {
          "components": [
            {
              "internalType": "bool",
              "name": "isAdmin",
              "type": "bool"
            },
            {
              "internalType": "bool",
              "name": "isMinter",
              "type": "bool"
            },
            {
              "internalType": "bool",
              "name": "isPauser",
              "type": "bool"
            },
            {
              "internalType": "bool",
              "name": "isWhiteListed",
              "type": "bool"
            }
          ],
          "internalType": "struct MIRLs.Roles",
          "name": "",
          "type": "tuple"
        }
      ],
      "stateMutability": "view",
      "type": "function",
      "constant": true
    },
    {
      "inputs": [
        {
          "internalType": "address",
          "name": "to",
          "type": "address"
        }
      ],
      "name": "safeMint",
      "outputs": [],
      "stateMutability": "nonpayable",
      "type": "function"
    },
    {
      "inputs": [
        {
          "internalType": "bytes4",
          "name": "interfaceId",
          "type": "bytes4"
        }
      ],
      "name": "supportsInterface",
      "outputs": [
        {
          "internalType": "bool",
          "name": "",
          "type": "bool"
        }
      ],
      "stateMutability": "view",
      "type": "function",
      "constant": true
    }
  ],
  "bytecode": "0x60806040523480156200001157600080fd5b50600060019054906101000a900460ff166200003c5760008054906101000a900460ff16156200004d565b6200004c6200010960201b60201c565b5b6200008f576040517f08c379a00000000000000000000000000000000000000000000000000000000081526004016200008690620001d1565b60405180910390fd5b60008060019054906101000a900460ff161590508015620000e0576001600060016101000a81548160ff02191690831515021790555060016000806101000a81548160ff0219169083151502179055505b8015620001025760008060016101000a81548160ff0219169083151502179055505b50620001f3565b600062000121306200012760201b620013871760201c565b15905090565b6000808273ffffffffffffffffffffffffffffffffffffffff163b119050919050565b600082825260208201905092915050565b7f496e697469616c697a61626c653a20636f6e747261637420697320616c72656160008201527f647920696e697469616c697a6564000000000000000000000000000000000000602082015250565b6000620001b9602e836200014a565b9150620001c6826200015b565b604082019050919050565b60006020820190508181036000830152620001ec81620001aa565b9050919050565b61492e80620002036000396000f3fe608060405234801561001057600080fd5b50600436106101f05760003560e01c80635c975abb1161010f578063a22cb465116100a2578063d539139311610071578063d539139314610591578063d547741f146105af578063e63ab1e9146105cb578063e985e9c5146105e9576101f0565b8063a22cb4651461050b578063b88d4fde14610527578063c50a557c14610543578063c87b56dd14610561576101f0565b80638456cb59116100de5780638456cb591461049557806391d148541461049f57806395d89b41146104cf578063a217fddf146104ed576101f0565b80635c975abb1461040d5780636352211e1461042b57806370a082311461045b5780638129fc1c1461048b576101f0565b80632f2ff15d1161018757806340d097c31161015657806340d097c31461038957806342842e0e146103a557806342966c68146103c15780634f6ccce7146103dd576101f0565b80632f2ff15d146103175780632f745c591461033357806336568abe146103635780633f4ba83a1461037f576101f0565b8063095ea7b3116101c3578063095ea7b31461029157806318160ddd146102ad57806323b872dd146102cb578063248a9ca3146102e7576101f0565b806301ffc9a7146101f55780630482aa821461022557806306fdde0314610243578063081812fc14610261575b600080fd5b61020f600480360381019061020a9190613130565b610619565b60405161021c9190613178565b60405180910390f35b61022d61062b565b60405161023a91906131f7565b60405180910390f35b61024b6106e8565b60405161025891906132ab565b60405180910390f35b61027b60048036038101906102769190613303565b61077a565b6040516102889190613371565b60405180910390f35b6102ab60048036038101906102a691906133b8565b6107ff565b005b6102b5610917565b6040516102c29190613407565b60405180910390f35b6102e560048036038101906102e09190613422565b610924565b005b61030160048036038101906102fc91906134ab565b610984565b60405161030e91906134e7565b60405180910390f35b610331600480360381019061032c9190613502565b6109a4565b005b61034d600480360381019061034891906133b8565b6109cd565b60405161035a9190613407565b60405180910390f35b61037d60048036038101906103789190613502565b610a72565b005b610387610af5565b005b6103a3600480360381019061039e9190613542565b610b32565b005b6103bf60048036038101906103ba9190613422565b610b8d565b005b6103db60048036038101906103d69190613303565b610bad565b005b6103f760048036038101906103f29190613303565b610c09565b6040516104049190613407565b60405180910390f35b610415610c7a565b6040516104229190613178565b60405180910390f35b61044560048036038101906104409190613303565b610c91565b6040516104529190613371565b60405180910390f35b61047560048036038101906104709190613542565b610d43565b6040516104829190613407565b60405180910390f35b610493610dfb565b005b61049d610ffe565b005b6104b960048036038101906104b49190613502565b61103b565b6040516104c69190613178565b60405180910390f35b6104d76110a6565b6040516104e491906132ab565b60405180910390f35b6104f5611138565b60405161050291906134e7565b60405180910390f35b6105256004803603810190610520919061359b565b61113f565b005b610541600480360381019061053c9190613710565b611155565b005b61054b6111b7565b60405161055891906134e7565b60405180910390f35b61057b60048036038101906105769190613303565b6111db565b60405161058891906132ab565b60405180910390f35b610599611282565b6040516105a691906134e7565b60405180910390f35b6105c960048036038101906105c49190613502565b6112a6565b005b6105d36112cf565b6040516105e091906134e7565b60405180910390f35b61060360048036038101906105fe9190613793565b6112f3565b6040516106109190613178565b60405180910390f35b6000610624826113aa565b9050919050565b610633612ff1565b604051806080016040528061064b6000801b3361103b565b1515815260200161067c7f9f2df0fed2c77648de5860a4cc508cd0818c85b8b8a1ab4ceeef8d981c8956a63361103b565b151581526020016106ad7f65d7a28e3265b37a6474929f336521b332c1681b933f6cb9f3376673440d862a3361103b565b151581526020016106de7f86024e89529ee90561d266fe70772355cdf7be9c9e97e3ac6b5d90ddbc8533653361103b565b1515815250905090565b6060606580546106f790613802565b80601f016020809104026020016040519081016040528092919081815260200182805461072390613802565b80156107705780601f1061074557610100808354040283529160200191610770565b820191906000526020600020905b81548152906001019060200180831161075357829003601f168201915b5050505050905090565b600061078582611424565b6107c4576040517f08c379a00000000000000000000000000000000000000000000000000000000081526004016107bb906138a6565b60405180910390fd5b6069600083815260200190815260200160002060009054906101000a900473ffffffffffffffffffffffffffffffffffffffff169050919050565b600061080a82610c91565b90508073ffffffffffffffffffffffffffffffffffffffff168373ffffffffffffffffffffffffffffffffffffffff16141561087b576040517f08c379a000000000000000000000000000000000000000000000000000000000815260040161087290613938565b60405180910390fd5b8073ffffffffffffffffffffffffffffffffffffffff1661089a611490565b73ffffffffffffffffffffffffffffffffffffffff1614806108c957506108c8816108c3611490565b6112f3565b5b610908576040517f08c379a00000000000000000000000000000000000000000000000000000000081526004016108ff906139ca565b60405180910390fd5b6109128383611498565b505050565b6000609980549050905090565b61093561092f611490565b82611551565b610974576040517f08c379a000000000000000000000000000000000000000000000000000000000815260040161096b90613a5c565b60405180910390fd5b61097f83838361162f565b505050565b600060fb6000838152602001908152602001600020600101549050919050565b6109ad82610984565b6109be816109b9611490565b611896565b6109c88383611933565b505050565b60006109d883610d43565b8210610a19576040517f08c379a0000000000000000000000000000000000000000000000000000000008152600401610a1090613aee565b60405180910390fd5b609760008473ffffffffffffffffffffffffffffffffffffffff1673ffffffffffffffffffffffffffffffffffffffff168152602001908152602001600020600083815260200190815260200160002054905092915050565b610a7a611490565b73ffffffffffffffffffffffffffffffffffffffff168173ffffffffffffffffffffffffffffffffffffffff1614610ae7576040517f08c379a0000000000000000000000000000000000000000000000000000000008152600401610ade90613b80565b60405180910390fd5b610af18282611a14565b5050565b7f65d7a28e3265b37a6474929f336521b332c1681b933f6cb9f3376673440d862a610b2781610b22611490565b611896565b610b2f611af6565b50565b7f9f2df0fed2c77648de5860a4cc508cd0818c85b8b8a1ab4ceeef8d981c8956a6610b6481610b5f611490565b611896565b6000610b7161015f611b98565b9050610b7e61015f611ba6565b610b888382611bbc565b505050565b610ba883838360405180602001604052806000815250611155565b505050565b610bbe610bb8611490565b82611551565b610bfd576040517f08c379a0000000000000000000000000000000000000000000000000000000008152600401610bf490613c12565b60405180910390fd5b610c0681611bda565b50565b6000610c13610917565b8210610c54576040517f08c379a0000000000000000000000000000000000000000000000000000000008152600401610c4b90613ca4565b60405180910390fd5b60998281548110610c6857610c67613cc4565b5b90600052602060002001549050919050565b600060c960009054906101000a900460ff16905090565b6000806067600084815260200190815260200160002060009054906101000a900473ffffffffffffffffffffffffffffffffffffffff169050600073ffffffffffffffffffffffffffffffffffffffff168173ffffffffffffffffffffffffffffffffffffffff161415610d3a576040517f08c379a0000000000000000000000000000000000000000000000000000000008152600401610d3190613d65565b60405180910390fd5b80915050919050565b60008073ffffffffffffffffffffffffffffffffffffffff168273ffffffffffffffffffffffffffffffffffffffff161415610db4576040517f08c379a0000000000000000000000000000000000000000000000000000000008152600401610dab90613df7565b60405180910390fd5b606860008373ffffffffffffffffffffffffffffffffffffffff1673ffffffffffffffffffffffffffffffffffffffff168152602001908152602001600020549050919050565b600060019054906101000a900460ff16610e235760008054906101000a900460ff1615610e2c565b610e2b611cf7565b5b610e6b576040517f08c379a0000000000000000000000000000000000000000000000000000000008152600401610e6290613e89565b60405180910390fd5b60008060019054906101000a900460ff161590508015610ebb576001600060016101000a81548160ff02191690831515021790555060016000806101000a81548160ff0219169083151502179055505b610f2f6040518060400160405280600581526020017f4d49524c730000000000000000000000000000000000000000000000000000008152506040518060400160405280600581526020017f4d49524c73000000000000000000000000000000000000000000000000000000815250611d08565b610f37611d65565b610f3f611db6565b610f47611e0f565b610f4f611e60565b610f5c6000801b33611eb1565b610f867f65d7a28e3265b37a6474929f336521b332c1681b933f6cb9f3376673440d862a33611eb1565b610fb07f9f2df0fed2c77648de5860a4cc508cd0818c85b8b8a1ab4ceeef8d981c8956a633611eb1565b610fda7f86024e89529ee90561d266fe70772355cdf7be9c9e97e3ac6b5d90ddbc85336533611eb1565b8015610ffb5760008060016101000a81548160ff0219169083151502179055505b50565b7f65d7a28e3265b37a6474929f336521b332c1681b933f6cb9f3376673440d862a6110308161102b611490565b611896565b611038611ebf565b50565b600060fb600084815260200190815260200160002060000160008373ffffffffffffffffffffffffffffffffffffffff1673ffffffffffffffffffffffffffffffffffffffff16815260200190815260200160002060009054906101000a900460ff16905092915050565b6060606680546110b590613802565b80601f01602080910402602001604051908101604052809291908181526020018280546110e190613802565b801561112e5780601f106111035761010080835404028352916020019161112e565b820191906000526020600020905b81548152906001019060200180831161111157829003601f168201915b5050505050905090565b6000801b81565b61115161114a611490565b8383611f62565b5050565b611166611160611490565b83611551565b6111a5576040517f08c379a000000000000000000000000000000000000000000000000000000000815260040161119c90613a5c565b60405180910390fd5b6111b1848484846120cf565b50505050565b7f86024e89529ee90561d266fe70772355cdf7be9c9e97e3ac6b5d90ddbc85336581565b60606111e682611424565b611225576040517f08c379a000000000000000000000000000000000000000000000000000000000815260040161121c90613f1b565b60405180910390fd5b600061122f61212b565b9050600081511161124f576040518060200160405280600081525061127a565b8061125984612168565b60405160200161126a929190613f77565b6040516020818303038152906040525b915050919050565b7f9f2df0fed2c77648de5860a4cc508cd0818c85b8b8a1ab4ceeef8d981c8956a681565b6112af82610984565b6112c0816112bb611490565b611896565b6112ca8383611a14565b505050565b7f65d7a28e3265b37a6474929f336521b332c1681b933f6cb9f3376673440d862a81565b6000606a60008473ffffffffffffffffffffffffffffffffffffffff1673ffffffffffffffffffffffffffffffffffffffff16815260200190815260200160002060008373ffffffffffffffffffffffffffffffffffffffff1673ffffffffffffffffffffffffffffffffffffffff16815260200190815260200160002060009054906101000a900460ff16905092915050565b6000808273ffffffffffffffffffffffffffffffffffffffff163b119050919050565b60007f7965db0b000000000000000000000000000000000000000000000000000000007bffffffffffffffffffffffffffffffffffffffffffffffffffffffff1916827bffffffffffffffffffffffffffffffffffffffffffffffffffffffff1916148061141d575061141c826122c9565b5b9050919050565b60008073ffffffffffffffffffffffffffffffffffffffff166067600084815260200190815260200160002060009054906101000a900473ffffffffffffffffffffffffffffffffffffffff1673ffffffffffffffffffffffffffffffffffffffff1614159050919050565b600033905090565b816069600083815260200190815260200160002060006101000a81548173ffffffffffffffffffffffffffffffffffffffff021916908373ffffffffffffffffffffffffffffffffffffffff160217905550808273ffffffffffffffffffffffffffffffffffffffff1661150b83610c91565b73ffffffffffffffffffffffffffffffffffffffff167f8c5be1e5ebec7d5bd14f71427d1e84f3dd0314c0f7b2291e5b200ac8c7c3b92560405160405180910390a45050565b600061155c82611424565b61159b576040517f08c379a00000000000000000000000000000000000000000000000000000000081526004016115929061400d565b60405180910390fd5b60006115a683610c91565b90508073ffffffffffffffffffffffffffffffffffffffff168473ffffffffffffffffffffffffffffffffffffffff16148061161557508373ffffffffffffffffffffffffffffffffffffffff166115fd8461077a565b73ffffffffffffffffffffffffffffffffffffffff16145b80611626575061162581856112f3565b5b91505092915050565b8273ffffffffffffffffffffffffffffffffffffffff1661164f82610c91565b73ffffffffffffffffffffffffffffffffffffffff16146116a5576040517f08c379a000000000000000000000000000000000000000000000000000000000815260040161169c9061409f565b60405180910390fd5b600073ffffffffffffffffffffffffffffffffffffffff168273ffffffffffffffffffffffffffffffffffffffff161415611715576040517f08c379a000000000000000000000000000000000000000000000000000000000815260040161170c90614131565b60405180910390fd5b611720838383612343565b61172b600082611498565b6001606860008573ffffffffffffffffffffffffffffffffffffffff1673ffffffffffffffffffffffffffffffffffffffff168152602001908152602001600020600082825461177b9190614180565b925050819055506001606860008473ffffffffffffffffffffffffffffffffffffffff1673ffffffffffffffffffffffffffffffffffffffff16815260200190815260200160002060008282546117d291906141b4565b92505081905550816067600083815260200190815260200160002060006101000a81548173ffffffffffffffffffffffffffffffffffffffff021916908373ffffffffffffffffffffffffffffffffffffffff160217905550808273ffffffffffffffffffffffffffffffffffffffff168473ffffffffffffffffffffffffffffffffffffffff167fddf252ad1be2c89b69c2b068fc378daa952ba7f163c4a11628f55a4df523b3ef60405160405180910390a461189183838361239b565b505050565b6118a0828261103b565b61192f576118c58173ffffffffffffffffffffffffffffffffffffffff1660146123a0565b6118d38360001c60206123a0565b6040516020016118e49291906142a2565b6040516020818303038152906040526040517f08c379a000000000000000000000000000000000000000000000000000000000815260040161192691906132ab565b60405180910390fd5b5050565b61193d828261103b565b611a1057600160fb600084815260200190815260200160002060000160008373ffffffffffffffffffffffffffffffffffffffff1673ffffffffffffffffffffffffffffffffffffffff16815260200190815260200160002060006101000a81548160ff0219169083151502179055506119b5611490565b73ffffffffffffffffffffffffffffffffffffffff168173ffffffffffffffffffffffffffffffffffffffff16837f2f8788117e7eff1d82e926ec794901d17c78024a50270940304540a733656f0d60405160405180910390a45b5050565b611a1e828261103b565b15611af257600060fb600084815260200190815260200160002060000160008373ffffffffffffffffffffffffffffffffffffffff1673ffffffffffffffffffffffffffffffffffffffff16815260200190815260200160002060006101000a81548160ff021916908315150217905550611a97611490565b73ffffffffffffffffffffffffffffffffffffffff168173ffffffffffffffffffffffffffffffffffffffff16837ff6391f5c32d9c69d2a47ea670b442974b53935d1edc7fd64eb21e047a839171b60405160405180910390a45b5050565b611afe610c7a565b611b3d576040517f08c379a0000000000000000000000000000000000000000000000000000000008152600401611b3490614328565b60405180910390fd5b600060c960006101000a81548160ff0219169083151502179055507f5db9ee0a495bf2e6ff9c91a7834c1ba4fdd244a5e8aa4e537bd38aeae4b073aa611b81611490565b604051611b8e9190613371565b60405180910390a1565b600081600001549050919050565b6001816000016000828254019250508190555050565b611bd68282604051806020016040528060008152506125dc565b5050565b6000611be582610c91565b9050611bf381600084612343565b611bfe600083611498565b6001606860008373ffffffffffffffffffffffffffffffffffffffff1673ffffffffffffffffffffffffffffffffffffffff1681526020019081526020016000206000828254611c4e9190614180565b925050819055506067600083815260200190815260200160002060006101000a81549073ffffffffffffffffffffffffffffffffffffffff021916905581600073ffffffffffffffffffffffffffffffffffffffff168273ffffffffffffffffffffffffffffffffffffffff167fddf252ad1be2c89b69c2b068fc378daa952ba7f163c4a11628f55a4df523b3ef60405160405180910390a4611cf38160008461239b565b5050565b6000611d0230611387565b15905090565b600060019054906101000a900460ff16611d57576040517f08c379a0000000000000000000000000000000000000000000000000000000008152600401611d4e906143ba565b60405180910390fd5b611d618282612637565b5050565b600060019054906101000a900460ff16611db4576040517f08c379a0000000000000000000000000000000000000000000000000000000008152600401611dab906143ba565b60405180910390fd5b565b600060019054906101000a900460ff16611e05576040517f08c379a0000000000000000000000000000000000000000000000000000000008152600401611dfc906143ba565b60405180910390fd5b611e0d6126b8565b565b600060019054906101000a900460ff16611e5e576040517f08c379a0000000000000000000000000000000000000000000000000000000008152600401611e55906143ba565b60405180910390fd5b565b600060019054906101000a900460ff16611eaf576040517f08c379a0000000000000000000000000000000000000000000000000000000008152600401611ea6906143ba565b60405180910390fd5b565b611ebb8282611933565b5050565b611ec7610c7a565b15611f07576040517f08c379a0000000000000000000000000000000000000000000000000000000008152600401611efe90614426565b60405180910390fd5b600160c960006101000a81548160ff0219169083151502179055507f62e78cea01bee320cd4e420270b5ea74000d11b0c9f74754ebdbfc544b05a258611f4b611490565b604051611f589190613371565b60405180910390a1565b8173ffffffffffffffffffffffffffffffffffffffff168373ffffffffffffffffffffffffffffffffffffffff161415611fd1576040517f08c379a0000000000000000000000000000000000000000000000000000000008152600401611fc890614492565b60405180910390fd5b80606a60008573ffffffffffffffffffffffffffffffffffffffff1673ffffffffffffffffffffffffffffffffffffffff16815260200190815260200160002060008473ffffffffffffffffffffffffffffffffffffffff1673ffffffffffffffffffffffffffffffffffffffff16815260200190815260200160002060006101000a81548160ff0219169083151502179055508173ffffffffffffffffffffffffffffffffffffffff168373ffffffffffffffffffffffffffffffffffffffff167f17307eab39ab6107e8899845ad3d59bd9653f200f220920489ca2b5937696c31836040516120c29190613178565b60405180910390a3505050565b6120da84848461162f565b6120e684848484612724565b612125576040517f08c379a000000000000000000000000000000000000000000000000000000000815260040161211c90614524565b60405180910390fd5b50505050565b60606040518060400160405280601281526020017f68747470733a2f2f72616e646f6d2e636f6d0000000000000000000000000000815250905090565b606060008214156121b0576040518060400160405280600181526020017f300000000000000000000000000000000000000000000000000000000000000081525090506122c4565b600082905060005b600082146121e25780806121cb90614544565b915050600a826121db91906145bc565b91506121b8565b60008167ffffffffffffffff8111156121fe576121fd6135e5565b5b6040519080825280601f01601f1916602001820160405280156122305781602001600182028036833780820191505090505b5090505b600085146122bd576001826122499190614180565b9150600a8561225891906145ed565b603061226491906141b4565b60f81b81838151811061227a57612279613cc4565b5b60200101907effffffffffffffffffffffffffffffffffffffffffffffffffffffffffffff1916908160001a905350600a856122b691906145bc565b9450612234565b8093505050505b919050565b60007f780e9d63000000000000000000000000000000000000000000000000000000007bffffffffffffffffffffffffffffffffffffffffffffffffffffffff1916827bffffffffffffffffffffffffffffffffffffffffffffffffffffffff1916148061233c575061233b826128ac565b5b9050919050565b61234b610c7a565b1561238b576040517f08c379a000000000000000000000000000000000000000000000000000000000815260040161238290614426565b60405180910390fd5b61239683838361298e565b505050565b505050565b6060600060028360026123b3919061461e565b6123bd91906141b4565b67ffffffffffffffff8111156123d6576123d56135e5565b5b6040519080825280601f01601f1916602001820160405280156124085781602001600182028036833780820191505090505b5090507f3000000000000000000000000000000000000000000000000000000000000000816000815181106124405761243f613cc4565b5b60200101907effffffffffffffffffffffffffffffffffffffffffffffffffffffffffffff1916908160001a9053507f7800000000000000000000000000000000000000000000000000000000000000816001815181106124a4576124a3613cc4565b5b60200101907effffffffffffffffffffffffffffffffffffffffffffffffffffffffffffff1916908160001a905350600060018460026124e4919061461e565b6124ee91906141b4565b90505b600181111561258e577f3031323334353637383961626364656600000000000000000000000000000000600f8616601081106125305761252f613cc4565b5b1a60f81b82828151811061254757612546613cc4565b5b60200101907effffffffffffffffffffffffffffffffffffffffffffffffffffffffffffff1916908160001a905350600485901c94508061258790614678565b90506124f1565b50600084146125d2576040517f08c379a00000000000000000000000000000000000000000000000000000000081526004016125c9906146ee565b60405180910390fd5b8091505092915050565b6125e68383612aa2565b6125f36000848484612724565b612632576040517f08c379a000000000000000000000000000000000000000000000000000000000815260040161262990614524565b60405180910390fd5b505050565b600060019054906101000a900460ff16612686576040517f08c379a000000000000000000000000000000000000000000000000000000000815260040161267d906143ba565b60405180910390fd5b816065908051906020019061269c929190613021565b5080606690805190602001906126b3929190613021565b505050565b600060019054906101000a900460ff16612707576040517f08c379a00000000000000000000000000000000000000000000000000000000081526004016126fe906143ba565b60405180910390fd5b600060c960006101000a81548160ff021916908315150217905550565b60006127458473ffffffffffffffffffffffffffffffffffffffff16611387565b1561289f578373ffffffffffffffffffffffffffffffffffffffff1663150b7a0261276e611490565b8786866040518563ffffffff1660e01b81526004016127909493929190614763565b6020604051808303816000875af19250505080156127cc57506040513d601f19601f820116820180604052508101906127c991906147c4565b60015b61284f573d80600081146127fc576040519150601f19603f3d011682016040523d82523d6000602084013e612801565b606091505b50600081511415612847576040517f08c379a000000000000000000000000000000000000000000000000000000000815260040161283e90614524565b60405180910390fd5b805181602001fd5b63150b7a0260e01b7bffffffffffffffffffffffffffffffffffffffffffffffffffffffff1916817bffffffffffffffffffffffffffffffffffffffffffffffffffffffff1916149150506128a4565b600190505b949350505050565b60007f80ac58cd000000000000000000000000000000000000000000000000000000007bffffffffffffffffffffffffffffffffffffffffffffffffffffffff1916827bffffffffffffffffffffffffffffffffffffffffffffffffffffffff1916148061297757507f5b5e139f000000000000000000000000000000000000000000000000000000007bffffffffffffffffffffffffffffffffffffffffffffffffffffffff1916827bffffffffffffffffffffffffffffffffffffffffffffffffffffffff1916145b80612987575061298682612c7c565b5b9050919050565b612999838383612ce6565b600073ffffffffffffffffffffffffffffffffffffffff168373ffffffffffffffffffffffffffffffffffffffff1614156129dc576129d781612ceb565b612a1b565b8173ffffffffffffffffffffffffffffffffffffffff168373ffffffffffffffffffffffffffffffffffffffff1614612a1a57612a198382612d34565b5b5b600073ffffffffffffffffffffffffffffffffffffffff168273ffffffffffffffffffffffffffffffffffffffff161415612a5e57612a5981612ea1565b612a9d565b8273ffffffffffffffffffffffffffffffffffffffff168273ffffffffffffffffffffffffffffffffffffffff1614612a9c57612a9b8282612f72565b5b5b505050565b600073ffffffffffffffffffffffffffffffffffffffff168273ffffffffffffffffffffffffffffffffffffffff161415612b12576040517f08c379a0000000000000000000000000000000000000000000000000000000008152600401612b099061483d565b60405180910390fd5b612b1b81611424565b15612b5b576040517f08c379a0000000000000000000000000000000000000000000000000000000008152600401612b52906148a9565b60405180910390fd5b612b6760008383612343565b6001606860008473ffffffffffffffffffffffffffffffffffffffff1673ffffffffffffffffffffffffffffffffffffffff1681526020019081526020016000206000828254612bb791906141b4565b92505081905550816067600083815260200190815260200160002060006101000a81548173ffffffffffffffffffffffffffffffffffffffff021916908373ffffffffffffffffffffffffffffffffffffffff160217905550808273ffffffffffffffffffffffffffffffffffffffff16600073ffffffffffffffffffffffffffffffffffffffff167fddf252ad1be2c89b69c2b068fc378daa952ba7f163c4a11628f55a4df523b3ef60405160405180910390a4612c786000838361239b565b5050565b60007f01ffc9a7000000000000000000000000000000000000000000000000000000007bffffffffffffffffffffffffffffffffffffffffffffffffffffffff1916827bffffffffffffffffffffffffffffffffffffffffffffffffffffffff1916149050919050565b505050565b609980549050609a600083815260200190815260200160002081905550609981908060018154018082558091505060019003906000526020600020016000909190919091505550565b60006001612d4184610d43565b612d4b9190614180565b9050600060986000848152602001908152602001600020549050818114612e30576000609760008673ffffffffffffffffffffffffffffffffffffffff1673ffffffffffffffffffffffffffffffffffffffff168152602001908152602001600020600084815260200190815260200160002054905080609760008773ffffffffffffffffffffffffffffffffffffffff1673ffffffffffffffffffffffffffffffffffffffff168152602001908152602001600020600084815260200190815260200160002081905550816098600083815260200190815260200160002081905550505b6098600084815260200190815260200160002060009055609760008573ffffffffffffffffffffffffffffffffffffffff1673ffffffffffffffffffffffffffffffffffffffff16815260200190815260200160002060008381526020019081526020016000206000905550505050565b60006001609980549050612eb59190614180565b90506000609a6000848152602001908152602001600020549050600060998381548110612ee557612ee4613cc4565b5b906000526020600020015490508060998381548110612f0757612f06613cc4565b5b906000526020600020018190555081609a600083815260200190815260200160002081905550609a6000858152602001908152602001600020600090556099805480612f5657612f556148c9565b5b6001900381819060005260206000200160009055905550505050565b6000612f7d83610d43565b905081609760008573ffffffffffffffffffffffffffffffffffffffff1673ffffffffffffffffffffffffffffffffffffffff168152602001908152602001600020600083815260200190815260200160002081905550806098600084815260200190815260200160002081905550505050565b60405180608001604052806000151581526020016000151581526020016000151581526020016000151581525090565b82805461302d90613802565b90600052602060002090601f01602090048101928261304f5760008555613096565b82601f1061306857805160ff1916838001178555613096565b82800160010185558215613096579182015b8281111561309557825182559160200191906001019061307a565b5b5090506130a391906130a7565b5090565b5b808211156130c05760008160009055506001016130a8565b5090565b6000604051905090565b600080fd5b600080fd5b60007fffffffff0000000000000000000000000000000000000000000000000000000082169050919050565b61310d816130d8565b811461311857600080fd5b50565b60008135905061312a81613104565b92915050565b600060208284031215613146576131456130ce565b5b60006131548482850161311b565b91505092915050565b60008115159050919050565b6131728161315d565b82525050565b600060208201905061318d6000830184613169565b92915050565b61319c8161315d565b82525050565b6080820160008201516131b86000850182613193565b5060208201516131cb6020850182613193565b5060408201516131de6040850182613193565b5060608201516131f16060850182613193565b50505050565b600060808201905061320c60008301846131a2565b92915050565b600081519050919050565b600082825260208201905092915050565b60005b8381101561324c578082015181840152602081019050613231565b8381111561325b576000848401525b50505050565b6000601f19601f8301169050919050565b600061327d82613212565b613287818561321d565b935061329781856020860161322e565b6132a081613261565b840191505092915050565b600060208201905081810360008301526132c58184613272565b905092915050565b6000819050919050565b6132e0816132cd565b81146132eb57600080fd5b50565b6000813590506132fd816132d7565b92915050565b600060208284031215613319576133186130ce565b5b6000613327848285016132ee565b91505092915050565b600073ffffffffffffffffffffffffffffffffffffffff82169050919050565b600061335b82613330565b9050919050565b61336b81613350565b82525050565b60006020820190506133866000830184613362565b92915050565b61339581613350565b81146133a057600080fd5b50565b6000813590506133b28161338c565b92915050565b600080604083850312156133cf576133ce6130ce565b5b60006133dd858286016133a3565b92505060206133ee858286016132ee565b9150509250929050565b613401816132cd565b82525050565b600060208201905061341c60008301846133f8565b92915050565b60008060006060848603121561343b5761343a6130ce565b5b6000613449868287016133a3565b935050602061345a868287016133a3565b925050604061346b868287016132ee565b9150509250925092565b6000819050919050565b61348881613475565b811461349357600080fd5b50565b6000813590506134a58161347f565b92915050565b6000602082840312156134c1576134c06130ce565b5b60006134cf84828501613496565b91505092915050565b6134e181613475565b82525050565b60006020820190506134fc60008301846134d8565b92915050565b60008060408385031215613519576135186130ce565b5b600061352785828601613496565b9250506020613538858286016133a3565b9150509250929050565b600060208284031215613558576135576130ce565b5b6000613566848285016133a3565b91505092915050565b6135788161315d565b811461358357600080fd5b50565b6000813590506135958161356f565b92915050565b600080604083850312156135b2576135b16130ce565b5b60006135c0858286016133a3565b92505060206135d185828601613586565b9150509250929050565b600080fd5b600080fd5b7f4e487b7100000000000000000000000000000000000000000000000000000000600052604160045260246000fd5b61361d82613261565b810181811067ffffffffffffffff8211171561363c5761363b6135e5565b5b80604052505050565b600061364f6130c4565b905061365b8282613614565b919050565b600067ffffffffffffffff82111561367b5761367a6135e5565b5b61368482613261565b9050602081019050919050565b82818337600083830152505050565b60006136b36136ae84613660565b613645565b9050828152602081018484840111156136cf576136ce6135e0565b5b6136da848285613691565b509392505050565b600082601f8301126136f7576136f66135db565b5b81356137078482602086016136a0565b91505092915050565b6000806000806080858703121561372a576137296130ce565b5b6000613738878288016133a3565b9450506020613749878288016133a3565b935050604061375a878288016132ee565b925050606085013567ffffffffffffffff81111561377b5761377a6130d3565b5b613787878288016136e2565b91505092959194509250565b600080604083850312156137aa576137a96130ce565b5b60006137b8858286016133a3565b92505060206137c9858286016133a3565b9150509250929050565b7f4e487b7100000000000000000000000000000000000000000000000000000000600052602260045260246000fd5b6000600282049050600182168061381a57607f821691505b6020821081141561382e5761382d6137d3565b5b50919050565b7f4552433732313a20617070726f76656420717565727920666f72206e6f6e657860008201527f697374656e7420746f6b656e0000000000000000000000000000000000000000602082015250565b6000613890602c8361321d565b915061389b82613834565b604082019050919050565b600060208201905081810360008301526138bf81613883565b9050919050565b7f4552433732313a20617070726f76616c20746f2063757272656e74206f776e6560008201527f7200000000000000000000000000000000000000000000000000000000000000602082015250565b600061392260218361321d565b915061392d826138c6565b604082019050919050565b6000602082019050818103600083015261395181613915565b9050919050565b7f4552433732313a20617070726f76652063616c6c6572206973206e6f74206f7760008201527f6e6572206e6f7220617070726f76656420666f7220616c6c0000000000000000602082015250565b60006139b460388361321d565b91506139bf82613958565b604082019050919050565b600060208201905081810360008301526139e3816139a7565b9050919050565b7f4552433732313a207472616e736665722063616c6c6572206973206e6f74206f60008201527f776e6572206e6f7220617070726f766564000000000000000000000000000000602082015250565b6000613a4660318361321d565b9150613a51826139ea565b604082019050919050565b60006020820190508181036000830152613a7581613a39565b9050919050565b7f455243373231456e756d657261626c653a206f776e657220696e646578206f7560008201527f74206f6620626f756e6473000000000000000000000000000000000000000000602082015250565b6000613ad8602b8361321d565b9150613ae382613a7c565b604082019050919050565b60006020820190508181036000830152613b0781613acb565b9050919050565b7f416363657373436f6e74726f6c3a2063616e206f6e6c792072656e6f756e636560008201527f20726f6c657320666f722073656c660000000000000000000000000000000000602082015250565b6000613b6a602f8361321d565b9150613b7582613b0e565b604082019050919050565b60006020820190508181036000830152613b9981613b5d565b9050919050565b7f4552433732314275726e61626c653a2063616c6c6572206973206e6f74206f7760008201527f6e6572206e6f7220617070726f76656400000000000000000000000000000000602082015250565b6000613bfc60308361321d565b9150613c0782613ba0565b604082019050919050565b60006020820190508181036000830152613c2b81613bef565b9050919050565b7f455243373231456e756d657261626c653a20676c6f62616c20696e646578206f60008201527f7574206f6620626f756e64730000000000000000000000000000000000000000602082015250565b6000613c8e602c8361321d565b9150613c9982613c32565b604082019050919050565b60006020820190508181036000830152613cbd81613c81565b9050919050565b7f4e487b7100000000000000000000000000000000000000000000000000000000600052603260045260246000fd5b7f4552433732313a206f776e657220717565727920666f72206e6f6e657869737460008201527f656e7420746f6b656e0000000000000000000000000000000000000000000000602082015250565b6000613d4f60298361321d565b9150613d5a82613cf3565b604082019050919050565b60006020820190508181036000830152613d7e81613d42565b9050919050565b7f4552433732313a2062616c616e636520717565727920666f7220746865207a6560008201527f726f206164647265737300000000000000000000000000000000000000000000602082015250565b6000613de1602a8361321d565b9150613dec82613d85565b604082019050919050565b60006020820190508181036000830152613e1081613dd4565b9050919050565b7f496e697469616c697a61626c653a20636f6e747261637420697320616c72656160008201527f647920696e697469616c697a6564000000000000000000000000000000000000602082015250565b6000613e73602e8361321d565b9150613e7e82613e17565b604082019050919050565b60006020820190508181036000830152613ea281613e66565b9050919050565b7f4552433732314d657461646174613a2055524920717565727920666f72206e6f60008201527f6e6578697374656e7420746f6b656e0000000000000000000000000000000000602082015250565b6000613f05602f8361321d565b9150613f1082613ea9565b604082019050919050565b60006020820190508181036000830152613f3481613ef8565b9050919050565b600081905092915050565b6000613f5182613212565b613f5b8185613f3b565b9350613f6b81856020860161322e565b80840191505092915050565b6000613f838285613f46565b9150613f8f8284613f46565b91508190509392505050565b7f4552433732313a206f70657261746f7220717565727920666f72206e6f6e657860008201527f697374656e7420746f6b656e0000000000000000000000000000000000000000602082015250565b6000613ff7602c8361321d565b915061400282613f9b565b604082019050919050565b6000602082019050818103600083015261402681613fea565b9050919050565b7f4552433732313a207472616e736665722066726f6d20696e636f72726563742060008201527f6f776e6572000000000000000000000000000000000000000000000000000000602082015250565b600061408960258361321d565b91506140948261402d565b604082019050919050565b600060208201905081810360008301526140b88161407c565b9050919050565b7f4552433732313a207472616e7366657220746f20746865207a65726f2061646460008201527f7265737300000000000000000000000000000000000000000000000000000000602082015250565b600061411b60248361321d565b9150614126826140bf565b604082019050919050565b6000602082019050818103600083015261414a8161410e565b9050919050565b7f4e487b7100000000000000000000000000000000000000000000000000000000600052601160045260246000fd5b600061418b826132cd565b9150614196836132cd565b9250828210156141a9576141a8614151565b5b828203905092915050565b60006141bf826132cd565b91506141ca836132cd565b9250827fffffffffffffffffffffffffffffffffffffffffffffffffffffffffffffffff038211156141ff576141fe614151565b5b828201905092915050565b7f416363657373436f6e74726f6c3a206163636f756e7420000000000000000000600082015250565b6000614240601783613f3b565b915061424b8261420a565b601782019050919050565b7f206973206d697373696e6720726f6c6520000000000000000000000000000000600082015250565b600061428c601183613f3b565b915061429782614256565b601182019050919050565b60006142ad82614233565b91506142b98285613f46565b91506142c48261427f565b91506142d08284613f46565b91508190509392505050565b7f5061757361626c653a206e6f7420706175736564000000000000000000000000600082015250565b600061431260148361321d565b915061431d826142dc565b602082019050919050565b6000602082019050818103600083015261434181614305565b9050919050565b7f496e697469616c697a61626c653a20636f6e7472616374206973206e6f74206960008201527f6e697469616c697a696e67000000000000000000000000000000000000000000602082015250565b60006143a4602b8361321d565b91506143af82614348565b604082019050919050565b600060208201905081810360008301526143d381614397565b9050919050565b7f5061757361626c653a2070617573656400000000000000000000000000000000600082015250565b600061441060108361321d565b915061441b826143da565b602082019050919050565b6000602082019050818103600083015261443f81614403565b9050919050565b7f4552433732313a20617070726f766520746f2063616c6c657200000000000000600082015250565b600061447c60198361321d565b915061448782614446565b602082019050919050565b600060208201905081810360008301526144ab8161446f565b9050919050565b7f4552433732313a207472616e7366657220746f206e6f6e20455243373231526560008201527f63656976657220696d706c656d656e7465720000000000000000000000000000602082015250565b600061450e60328361321d565b9150614519826144b2565b604082019050919050565b6000602082019050818103600083015261453d81614501565b9050919050565b600061454f826132cd565b91507fffffffffffffffffffffffffffffffffffffffffffffffffffffffffffffffff82141561458257614581614151565b5b600182019050919050565b7f4e487b7100000000000000000000000000000000000000000000000000000000600052601260045260246000fd5b60006145c7826132cd565b91506145d2836132cd565b9250826145e2576145e161458d565b5b828204905092915050565b60006145f8826132cd565b9150614603836132cd565b9250826146135761461261458d565b5b828206905092915050565b6000614629826132cd565b9150614634836132cd565b9250817fffffffffffffffffffffffffffffffffffffffffffffffffffffffffffffffff048311821515161561466d5761466c614151565b5b828202905092915050565b6000614683826132cd565b9150600082141561469757614696614151565b5b600182039050919050565b7f537472696e67733a20686578206c656e67746820696e73756666696369656e74600082015250565b60006146d860208361321d565b91506146e3826146a2565b602082019050919050565b60006020820190508181036000830152614707816146cb565b9050919050565b600081519050919050565b600082825260208201905092915050565b60006147358261470e565b61473f8185614719565b935061474f81856020860161322e565b61475881613261565b840191505092915050565b60006080820190506147786000830187613362565b6147856020830186613362565b61479260408301856133f8565b81810360608301526147a4818461472a565b905095945050505050565b6000815190506147be81613104565b92915050565b6000602082840312156147da576147d96130ce565b5b60006147e8848285016147af565b91505092915050565b7f4552433732313a206d696e7420746f20746865207a65726f2061646472657373600082015250565b600061482760208361321d565b9150614832826147f1565b602082019050919050565b600060208201905081810360008301526148568161481a565b9050919050565b7f4552433732313a20746f6b656e20616c7265616479206d696e74656400000000600082015250565b6000614893601c8361321d565b915061489e8261485d565b602082019050919050565b600060208201905081810360008301526148c281614886565b9050919050565b7f4e487b7100000000000000000000000000000000000000000000000000000000600052603160045260246000fdfea26469706673582212203371e724a59574295f6ecf8691fe874756346b4bddd178f59298f98c9cf7f68364736f6c634300080b0033",
  "immutableReferences": {},
  "source": "// SPDX-License-Identifier: MIT\npragma solidity ^0.8.11;\n\nimport \"@openzeppelin/contracts-upgradeable/token/ERC721/ERC721Upgradeable.sol\";\nimport \"@openzeppelin/contracts-upgradeable/token/ERC721/extensions/ERC721EnumerableUpgradeable.sol\";\nimport \"@openzeppelin/contracts-upgradeable/security/PausableUpgradeable.sol\";\nimport \"@openzeppelin/contracts-upgradeable/access/AccessControlUpgradeable.sol\";\nimport \"@openzeppelin/contracts-upgradeable/token/ERC721/extensions/ERC721BurnableUpgradeable.sol\";\nimport \"@openzeppelin/contracts-upgradeable/proxy/utils/Initializable.sol\";\nimport \"@openzeppelin/contracts-upgradeable/utils/CountersUpgradeable.sol\";\n\ncontract MIRLs is Initializable, ERC721Upgradeable, ERC721EnumerableUpgradeable, PausableUpgradeable, AccessControlUpgradeable, ERC721BurnableUpgradeable {\n    using CountersUpgradeable for CountersUpgradeable.Counter;\n\n    bytes32 public constant PAUSER_ROLE = keccak256(\"PAUSER_ROLE\");\n    bytes32 public constant MINTER_ROLE = keccak256(\"MINTER_ROLE\");\n    bytes32 public constant WHITE_LIST_ROLE = keccak256(\"WHITE_LIST_ROLE\");\n\n    CountersUpgradeable.Counter private _tokenIdCounter;\n    event Log(string str);\n\n    /// @custom:oz-upgrades-unsafe-allow constructor\n    constructor() initializer {}\n\n    function initialize() initializer public {\n        __ERC721_init(\"MIRLs\", \"MIRLs\");\n        __ERC721Enumerable_init();\n        __Pausable_init();\n        __AccessControl_init();\n        __ERC721Burnable_init();\n\n        _setupRole(DEFAULT_ADMIN_ROLE, msg.sender);\n        _setupRole(PAUSER_ROLE, msg.sender);\n        _setupRole(MINTER_ROLE, msg.sender);\n        _setupRole(WHITE_LIST_ROLE, msg.sender);\n    }\n\n    function _baseURI() internal pure override returns (string memory) {\n        return \"https://random.com\";\n    }\n\n    function pause() public onlyRole(PAUSER_ROLE) {\n        _pause();\n    }\n\n    function unpause() public onlyRole(PAUSER_ROLE) {\n        _unpause();\n    }\n\n    struct Roles {\n        bool isAdmin;\n        bool isMinter;\n        bool isPauser;\n        bool isWhiteListed;\n    }\n\n    function checkRole() view public returns (Roles memory) {\n        return Roles(hasRole(DEFAULT_ADMIN_ROLE, msg.sender), hasRole(MINTER_ROLE, msg.sender), hasRole(PAUSER_ROLE, msg.sender), hasRole(WHITE_LIST_ROLE, msg.sender));\n    }\n\n    function safeMint(address to) public onlyRole(MINTER_ROLE) {\n        // require(hasRole(MINTER_ROLE, msg.sender), \"Address is not whitelisted\");\n        uint256 tokenId = _tokenIdCounter.current();\n        _tokenIdCounter.increment();\n        _safeMint(to, tokenId);\n    }\n\n    function _beforeTokenTransfer(address from, address to, uint256 tokenId)\n        internal\n        whenNotPaused\n        override(ERC721Upgradeable, ERC721EnumerableUpgradeable)\n    {\n        super._beforeTokenTransfer(from, to, tokenId);\n    }\n\n    // The following functions are overrides required by Solidity.\n\n    function supportsInterface(bytes4 interfaceId)\n        public\n        view\n        override(ERC721Upgradeable, ERC721EnumerableUpgradeable, AccessControlUpgradeable)\n        returns (bool)\n    {\n        return super.supportsInterface(interfaceId);\n    }\n}\n",
  "sourcePath": "/home/hungdevjs/Documents/blockchain-tuts/smart-contract-react/truffle/contracts/MIRLs.sol",
  "compiler": {
    "name": "solc",
    "version": "0.8.11+commit.d7f03943.Emscripten.clang"
  },
  "schemaVersion": "3.4.5",
  "updatedAt": "2022-02-22T07:30:37.557Z",
  "networkType": "ethereum",
  "devdoc": {
    "kind": "dev",
    "methods": {
      "approve(address,uint256)": {
        "details": "See {IERC721-approve}."
      },
      "balanceOf(address)": {
        "details": "See {IERC721-balanceOf}."
      },
      "burn(uint256)": {
        "details": "Burns `tokenId`. See {ERC721-_burn}. Requirements: - The caller must own `tokenId` or be an approved operator."
      },
      "constructor": {
        "custom:oz-upgrades-unsafe-allow": "constructor"
      },
      "getApproved(uint256)": {
        "details": "See {IERC721-getApproved}."
      },
      "getRoleAdmin(bytes32)": {
        "details": "Returns the admin role that controls `role`. See {grantRole} and {revokeRole}. To change a role's admin, use {_setRoleAdmin}."
      },
      "grantRole(bytes32,address)": {
        "details": "Grants `role` to `account`. If `account` had not been already granted `role`, emits a {RoleGranted} event. Requirements: - the caller must have ``role``'s admin role."
      },
      "hasRole(bytes32,address)": {
        "details": "Returns `true` if `account` has been granted `role`."
      },
      "isApprovedForAll(address,address)": {
        "details": "See {IERC721-isApprovedForAll}."
      },
      "name()": {
        "details": "See {IERC721Metadata-name}."
      },
      "ownerOf(uint256)": {
        "details": "See {IERC721-ownerOf}."
      },
      "paused()": {
        "details": "Returns true if the contract is paused, and false otherwise."
      },
      "renounceRole(bytes32,address)": {
        "details": "Revokes `role` from the calling account. Roles are often managed via {grantRole} and {revokeRole}: this function's purpose is to provide a mechanism for accounts to lose their privileges if they are compromised (such as when a trusted device is misplaced). If the calling account had been revoked `role`, emits a {RoleRevoked} event. Requirements: - the caller must be `account`."
      },
      "revokeRole(bytes32,address)": {
        "details": "Revokes `role` from `account`. If `account` had been granted `role`, emits a {RoleRevoked} event. Requirements: - the caller must have ``role``'s admin role."
      },
      "safeTransferFrom(address,address,uint256)": {
        "details": "See {IERC721-safeTransferFrom}."
      },
      "safeTransferFrom(address,address,uint256,bytes)": {
        "details": "See {IERC721-safeTransferFrom}."
      },
      "setApprovalForAll(address,bool)": {
        "details": "See {IERC721-setApprovalForAll}."
      },
      "symbol()": {
        "details": "See {IERC721Metadata-symbol}."
      },
      "tokenByIndex(uint256)": {
        "details": "See {IERC721Enumerable-tokenByIndex}."
      },
      "tokenOfOwnerByIndex(address,uint256)": {
        "details": "See {IERC721Enumerable-tokenOfOwnerByIndex}."
      },
      "tokenURI(uint256)": {
        "details": "See {IERC721Metadata-tokenURI}."
      },
      "totalSupply()": {
        "details": "See {IERC721Enumerable-totalSupply}."
      },
      "transferFrom(address,address,uint256)": {
        "details": "See {IERC721-transferFrom}."
      }
    },
    "version": 1
  },
  "userdoc": {
    "kind": "user",
    "methods": {},
    "version": 1
  }
}