{
  "contractName": "MIRLs",
  "abi": [
    {
      "inputs": [],
      "stateMutability": "nonpayable",
      "type": "constructor"
    },
    {
      "anonymous": false,
      "inputs": [
        {
          "indexed": true,
          "internalType": "address",
          "name": "owner",
          "type": "address"
        },
        {
          "indexed": true,
          "internalType": "address",
          "name": "approved",
          "type": "address"
        },
        {
          "indexed": true,
          "internalType": "uint256",
          "name": "tokenId",
          "type": "uint256"
        }
      ],
      "name": "Approval",
      "type": "event"
    },
    {
      "anonymous": false,
      "inputs": [
        {
          "indexed": true,
          "internalType": "address",
          "name": "owner",
          "type": "address"
        },
        {
          "indexed": true,
          "internalType": "address",
          "name": "operator",
          "type": "address"
        },
        {
          "indexed": false,
          "internalType": "bool",
          "name": "approved",
          "type": "bool"
        }
      ],
      "name": "ApprovalForAll",
      "type": "event"
    },
    {
      "anonymous": false,
      "inputs": [
        {
          "indexed": false,
          "internalType": "address",
          "name": "account",
          "type": "address"
        }
      ],
      "name": "Paused",
      "type": "event"
    },
    {
      "anonymous": false,
      "inputs": [
        {
          "indexed": true,
          "internalType": "bytes32",
          "name": "role",
          "type": "bytes32"
        },
        {
          "indexed": true,
          "internalType": "bytes32",
          "name": "previousAdminRole",
          "type": "bytes32"
        },
        {
          "indexed": true,
          "internalType": "bytes32",
          "name": "newAdminRole",
          "type": "bytes32"
        }
      ],
      "name": "RoleAdminChanged",
      "type": "event"
    },
    {
      "anonymous": false,
      "inputs": [
        {
          "indexed": true,
          "internalType": "bytes32",
          "name": "role",
          "type": "bytes32"
        },
        {
          "indexed": true,
          "internalType": "address",
          "name": "account",
          "type": "address"
        },
        {
          "indexed": true,
          "internalType": "address",
          "name": "sender",
          "type": "address"
        }
      ],
      "name": "RoleGranted",
      "type": "event"
    },
    {
      "anonymous": false,
      "inputs": [
        {
          "indexed": true,
          "internalType": "bytes32",
          "name": "role",
          "type": "bytes32"
        },
        {
          "indexed": true,
          "internalType": "address",
          "name": "account",
          "type": "address"
        },
        {
          "indexed": true,
          "internalType": "address",
          "name": "sender",
          "type": "address"
        }
      ],
      "name": "RoleRevoked",
      "type": "event"
    },
    {
      "anonymous": false,
      "inputs": [
        {
          "indexed": true,
          "internalType": "address",
          "name": "from",
          "type": "address"
        },
        {
          "indexed": true,
          "internalType": "address",
          "name": "to",
          "type": "address"
        },
        {
          "indexed": true,
          "internalType": "uint256",
          "name": "tokenId",
          "type": "uint256"
        }
      ],
      "name": "Transfer",
      "type": "event"
    },
    {
      "anonymous": false,
      "inputs": [
        {
          "indexed": false,
          "internalType": "address",
          "name": "account",
          "type": "address"
        }
      ],
      "name": "Unpaused",
      "type": "event"
    },
    {
      "inputs": [],
      "name": "DEFAULT_ADMIN_ROLE",
      "outputs": [
        {
          "internalType": "bytes32",
          "name": "",
          "type": "bytes32"
        }
      ],
      "stateMutability": "view",
      "type": "function"
    },
    {
      "inputs": [],
      "name": "MINTER_ROLE",
      "outputs": [
        {
          "internalType": "bytes32",
          "name": "",
          "type": "bytes32"
        }
      ],
      "stateMutability": "view",
      "type": "function"
    },
    {
      "inputs": [],
      "name": "PAUSER_ROLE",
      "outputs": [
        {
          "internalType": "bytes32",
          "name": "",
          "type": "bytes32"
        }
      ],
      "stateMutability": "view",
      "type": "function"
    },
    {
      "inputs": [
        {
          "internalType": "address",
          "name": "to",
          "type": "address"
        },
        {
          "internalType": "uint256",
          "name": "tokenId",
          "type": "uint256"
        }
      ],
      "name": "approve",
      "outputs": [],
      "stateMutability": "nonpayable",
      "type": "function"
    },
    {
      "inputs": [
        {
          "internalType": "address",
          "name": "owner",
          "type": "address"
        }
      ],
      "name": "balanceOf",
      "outputs": [
        {
          "internalType": "uint256",
          "name": "",
          "type": "uint256"
        }
      ],
      "stateMutability": "view",
      "type": "function"
    },
    {
      "inputs": [
        {
          "internalType": "uint256",
          "name": "tokenId",
          "type": "uint256"
        }
      ],
      "name": "burn",
      "outputs": [],
      "stateMutability": "nonpayable",
      "type": "function"
    },
    {
      "inputs": [
        {
          "internalType": "uint256",
          "name": "tokenId",
          "type": "uint256"
        }
      ],
      "name": "getApproved",
      "outputs": [
        {
          "internalType": "address",
          "name": "",
          "type": "address"
        }
      ],
      "stateMutability": "view",
      "type": "function"
    },
    {
      "inputs": [
        {
          "internalType": "bytes32",
          "name": "role",
          "type": "bytes32"
        }
      ],
      "name": "getRoleAdmin",
      "outputs": [
        {
          "internalType": "bytes32",
          "name": "",
          "type": "bytes32"
        }
      ],
      "stateMutability": "view",
      "type": "function"
    },
    {
      "inputs": [
        {
          "internalType": "bytes32",
          "name": "role",
          "type": "bytes32"
        },
        {
          "internalType": "address",
          "name": "account",
          "type": "address"
        }
      ],
      "name": "grantRole",
      "outputs": [],
      "stateMutability": "nonpayable",
      "type": "function"
    },
    {
      "inputs": [
        {
          "internalType": "bytes32",
          "name": "role",
          "type": "bytes32"
        },
        {
          "internalType": "address",
          "name": "account",
          "type": "address"
        }
      ],
      "name": "hasRole",
      "outputs": [
        {
          "internalType": "bool",
          "name": "",
          "type": "bool"
        }
      ],
      "stateMutability": "view",
      "type": "function"
    },
    {
      "inputs": [
        {
          "internalType": "address",
          "name": "owner",
          "type": "address"
        },
        {
          "internalType": "address",
          "name": "operator",
          "type": "address"
        }
      ],
      "name": "isApprovedForAll",
      "outputs": [
        {
          "internalType": "bool",
          "name": "",
          "type": "bool"
        }
      ],
      "stateMutability": "view",
      "type": "function"
    },
    {
      "inputs": [],
      "name": "name",
      "outputs": [
        {
          "internalType": "string",
          "name": "",
          "type": "string"
        }
      ],
      "stateMutability": "view",
      "type": "function"
    },
    {
      "inputs": [
        {
          "internalType": "uint256",
          "name": "tokenId",
          "type": "uint256"
        }
      ],
      "name": "ownerOf",
      "outputs": [
        {
          "internalType": "address",
          "name": "",
          "type": "address"
        }
      ],
      "stateMutability": "view",
      "type": "function"
    },
    {
      "inputs": [],
      "name": "paused",
      "outputs": [
        {
          "internalType": "bool",
          "name": "",
          "type": "bool"
        }
      ],
      "stateMutability": "view",
      "type": "function"
    },
    {
      "inputs": [
        {
          "internalType": "bytes32",
          "name": "role",
          "type": "bytes32"
        },
        {
          "internalType": "address",
          "name": "account",
          "type": "address"
        }
      ],
      "name": "renounceRole",
      "outputs": [],
      "stateMutability": "nonpayable",
      "type": "function"
    },
    {
      "inputs": [
        {
          "internalType": "bytes32",
          "name": "role",
          "type": "bytes32"
        },
        {
          "internalType": "address",
          "name": "account",
          "type": "address"
        }
      ],
      "name": "revokeRole",
      "outputs": [],
      "stateMutability": "nonpayable",
      "type": "function"
    },
    {
      "inputs": [
        {
          "internalType": "address",
          "name": "from",
          "type": "address"
        },
        {
          "internalType": "address",
          "name": "to",
          "type": "address"
        },
        {
          "internalType": "uint256",
          "name": "tokenId",
          "type": "uint256"
        }
      ],
      "name": "safeTransferFrom",
      "outputs": [],
      "stateMutability": "nonpayable",
      "type": "function"
    },
    {
      "inputs": [
        {
          "internalType": "address",
          "name": "from",
          "type": "address"
        },
        {
          "internalType": "address",
          "name": "to",
          "type": "address"
        },
        {
          "internalType": "uint256",
          "name": "tokenId",
          "type": "uint256"
        },
        {
          "internalType": "bytes",
          "name": "_data",
          "type": "bytes"
        }
      ],
      "name": "safeTransferFrom",
      "outputs": [],
      "stateMutability": "nonpayable",
      "type": "function"
    },
    {
      "inputs": [
        {
          "internalType": "address",
          "name": "operator",
          "type": "address"
        },
        {
          "internalType": "bool",
          "name": "approved",
          "type": "bool"
        }
      ],
      "name": "setApprovalForAll",
      "outputs": [],
      "stateMutability": "nonpayable",
      "type": "function"
    },
    {
      "inputs": [],
      "name": "symbol",
      "outputs": [
        {
          "internalType": "string",
          "name": "",
          "type": "string"
        }
      ],
      "stateMutability": "view",
      "type": "function"
    },
    {
      "inputs": [
        {
          "internalType": "uint256",
          "name": "index",
          "type": "uint256"
        }
      ],
      "name": "tokenByIndex",
      "outputs": [
        {
          "internalType": "uint256",
          "name": "",
          "type": "uint256"
        }
      ],
      "stateMutability": "view",
      "type": "function"
    },
    {
      "inputs": [
        {
          "internalType": "address",
          "name": "owner",
          "type": "address"
        },
        {
          "internalType": "uint256",
          "name": "index",
          "type": "uint256"
        }
      ],
      "name": "tokenOfOwnerByIndex",
      "outputs": [
        {
          "internalType": "uint256",
          "name": "",
          "type": "uint256"
        }
      ],
      "stateMutability": "view",
      "type": "function"
    },
    {
      "inputs": [
        {
          "internalType": "uint256",
          "name": "tokenId",
          "type": "uint256"
        }
      ],
      "name": "tokenURI",
      "outputs": [
        {
          "internalType": "string",
          "name": "",
          "type": "string"
        }
      ],
      "stateMutability": "view",
      "type": "function"
    },
    {
      "inputs": [],
      "name": "totalSupply",
      "outputs": [
        {
          "internalType": "uint256",
          "name": "",
          "type": "uint256"
        }
      ],
      "stateMutability": "view",
      "type": "function"
    },
    {
      "inputs": [
        {
          "internalType": "address",
          "name": "from",
          "type": "address"
        },
        {
          "internalType": "address",
          "name": "to",
          "type": "address"
        },
        {
          "internalType": "uint256",
          "name": "tokenId",
          "type": "uint256"
        }
      ],
      "name": "transferFrom",
      "outputs": [],
      "stateMutability": "nonpayable",
      "type": "function"
    },
    {
      "inputs": [],
      "name": "initialize",
      "outputs": [],
      "stateMutability": "nonpayable",
      "type": "function"
    },
    {
      "inputs": [],
      "name": "pause",
      "outputs": [],
      "stateMutability": "nonpayable",
      "type": "function"
    },
    {
      "inputs": [],
      "name": "unpause",
      "outputs": [],
      "stateMutability": "nonpayable",
      "type": "function"
    },
    {
      "inputs": [
        {
          "internalType": "address",
          "name": "to",
          "type": "address"
        }
      ],
      "name": "safeMint",
      "outputs": [],
      "stateMutability": "nonpayable",
      "type": "function"
    },
    {
      "inputs": [
        {
          "internalType": "bytes4",
          "name": "interfaceId",
          "type": "bytes4"
        }
      ],
      "name": "supportsInterface",
      "outputs": [
        {
          "internalType": "bool",
          "name": "",
          "type": "bool"
        }
      ],
      "stateMutability": "view",
      "type": "function"
    }
  ],
  "bytecode": "0x60806040523480156200001157600080fd5b50600060019054906101000a900460ff166200003c5760008054906101000a900460ff16156200004d565b6200004c6200010960201b60201c565b5b6200008f576040517f08c379a00000000000000000000000000000000000000000000000000000000081526004016200008690620001d1565b60405180910390fd5b60008060019054906101000a900460ff161590508015620000e0576001600060016101000a81548160ff02191690831515021790555060016000806101000a81548160ff0219169083151502179055505b8015620001025760008060016101000a81548160ff0219169083151502179055505b50620001f3565b600062000121306200012760201b620011f71760201c565b15905090565b6000808273ffffffffffffffffffffffffffffffffffffffff163b119050919050565b600082825260208201905092915050565b7f496e697469616c697a61626c653a20636f6e747261637420697320616c72656160008201527f647920696e697469616c697a6564000000000000000000000000000000000000602082015250565b6000620001b9602e836200014a565b9150620001c6826200015b565b604082019050919050565b60006020820190508181036000830152620001ec81620001aa565b9050919050565b6146e180620002036000396000f3fe608060405234801561001057600080fd5b50600436106101da5760003560e01c80635c975abb11610104578063a217fddf116100a2578063d539139311610071578063d53913931461053f578063d547741f1461055d578063e63ab1e914610579578063e985e9c514610597576101da565b8063a217fddf146104b9578063a22cb465146104d7578063b88d4fde146104f3578063c87b56dd1461050f576101da565b80638129fc1c116100de5780638129fc1c146104575780638456cb591461046157806391d148541461046b57806395d89b411461049b576101da565b80635c975abb146103d95780636352211e146103f757806370a0823114610427576101da565b80632f2ff15d1161017c57806340d097c31161014b57806340d097c31461035557806342842e0e1461037157806342966c681461038d5780634f6ccce7146103a9576101da565b80632f2ff15d146102e35780632f745c59146102ff57806336568abe1461032f5780633f4ba83a1461034b576101da565b8063095ea7b3116101b8578063095ea7b31461025d57806318160ddd1461027957806323b872dd14610297578063248a9ca3146102b3576101da565b806301ffc9a7146101df57806306fdde031461020f578063081812fc1461022d575b600080fd5b6101f960048036038101906101f49190612f62565b6105c7565b6040516102069190612faa565b60405180910390f35b6102176105d9565b604051610224919061305e565b60405180910390f35b610247600480360381019061024291906130b6565b61066b565b6040516102549190613124565b60405180910390f35b6102776004803603810190610272919061316b565b6106f0565b005b610281610808565b60405161028e91906131ba565b60405180910390f35b6102b160048036038101906102ac91906131d5565b610815565b005b6102cd60048036038101906102c8919061325e565b610875565b6040516102da919061329a565b60405180910390f35b6102fd60048036038101906102f891906132b5565b610895565b005b6103196004803603810190610314919061316b565b6108be565b60405161032691906131ba565b60405180910390f35b610349600480360381019061034491906132b5565b610963565b005b6103536109e6565b005b61036f600480360381019061036a91906132f5565b610a23565b005b61038b600480360381019061038691906131d5565b610a4b565b005b6103a760048036038101906103a291906130b6565b610a6b565b005b6103c360048036038101906103be91906130b6565b610ac7565b6040516103d091906131ba565b60405180910390f35b6103e1610b38565b6040516103ee9190612faa565b60405180910390f35b610411600480360381019061040c91906130b6565b610b4f565b60405161041e9190613124565b60405180910390f35b610441600480360381019061043c91906132f5565b610c01565b60405161044e91906131ba565b60405180910390f35b61045f610cb9565b005b610469610e92565b005b610485600480360381019061048091906132b5565b610ecf565b6040516104929190612faa565b60405180910390f35b6104a3610f3a565b6040516104b0919061305e565b60405180910390f35b6104c1610fcc565b6040516104ce919061329a565b60405180910390f35b6104f160048036038101906104ec919061334e565b610fd3565b005b61050d600480360381019061050891906134c3565b610fe9565b005b610529600480360381019061052491906130b6565b61104b565b604051610536919061305e565b60405180910390f35b6105476110f2565b604051610554919061329a565b60405180910390f35b610577600480360381019061057291906132b5565b611116565b005b61058161113f565b60405161058e919061329a565b60405180910390f35b6105b160048036038101906105ac9190613546565b611163565b6040516105be9190612faa565b60405180910390f35b60006105d28261121a565b9050919050565b6060606580546105e8906135b5565b80601f0160208091040260200160405190810160405280929190818152602001828054610614906135b5565b80156106615780601f1061063657610100808354040283529160200191610661565b820191906000526020600020905b81548152906001019060200180831161064457829003601f168201915b5050505050905090565b600061067682611294565b6106b5576040517f08c379a00000000000000000000000000000000000000000000000000000000081526004016106ac90613659565b60405180910390fd5b6069600083815260200190815260200160002060009054906101000a900473ffffffffffffffffffffffffffffffffffffffff169050919050565b60006106fb82610b4f565b90508073ffffffffffffffffffffffffffffffffffffffff168373ffffffffffffffffffffffffffffffffffffffff16141561076c576040517f08c379a0000000000000000000000000000000000000000000000000000000008152600401610763906136eb565b60405180910390fd5b8073ffffffffffffffffffffffffffffffffffffffff1661078b611300565b73ffffffffffffffffffffffffffffffffffffffff1614806107ba57506107b9816107b4611300565b611163565b5b6107f9576040517f08c379a00000000000000000000000000000000000000000000000000000000081526004016107f09061377d565b60405180910390fd5b6108038383611308565b505050565b6000609980549050905090565b610826610820611300565b826113c1565b610865576040517f08c379a000000000000000000000000000000000000000000000000000000000815260040161085c9061380f565b60405180910390fd5b61087083838361149f565b505050565b600060fb6000838152602001908152602001600020600101549050919050565b61089e82610875565b6108af816108aa611300565b611706565b6108b983836117a3565b505050565b60006108c983610c01565b821061090a576040517f08c379a0000000000000000000000000000000000000000000000000000000008152600401610901906138a1565b60405180910390fd5b609760008473ffffffffffffffffffffffffffffffffffffffff1673ffffffffffffffffffffffffffffffffffffffff168152602001908152602001600020600083815260200190815260200160002054905092915050565b61096b611300565b73ffffffffffffffffffffffffffffffffffffffff168173ffffffffffffffffffffffffffffffffffffffff16146109d8576040517f08c379a00000000000000000000000000000000000000000000000000000000081526004016109cf90613933565b60405180910390fd5b6109e28282611884565b5050565b7f65d7a28e3265b37a6474929f336521b332c1681b933f6cb9f3376673440d862a610a1881610a13611300565b611706565b610a20611966565b50565b6000610a3061015f611a08565b9050610a3d61015f611a16565b610a478282611a2c565b5050565b610a6683838360405180602001604052806000815250610fe9565b505050565b610a7c610a76611300565b826113c1565b610abb576040517f08c379a0000000000000000000000000000000000000000000000000000000008152600401610ab2906139c5565b60405180910390fd5b610ac481611a4a565b50565b6000610ad1610808565b8210610b12576040517f08c379a0000000000000000000000000000000000000000000000000000000008152600401610b0990613a57565b60405180910390fd5b60998281548110610b2657610b25613a77565b5b90600052602060002001549050919050565b600060c960009054906101000a900460ff16905090565b6000806067600084815260200190815260200160002060009054906101000a900473ffffffffffffffffffffffffffffffffffffffff169050600073ffffffffffffffffffffffffffffffffffffffff168173ffffffffffffffffffffffffffffffffffffffff161415610bf8576040517f08c379a0000000000000000000000000000000000000000000000000000000008152600401610bef90613b18565b60405180910390fd5b80915050919050565b60008073ffffffffffffffffffffffffffffffffffffffff168273ffffffffffffffffffffffffffffffffffffffff161415610c72576040517f08c379a0000000000000000000000000000000000000000000000000000000008152600401610c6990613baa565b60405180910390fd5b606860008373ffffffffffffffffffffffffffffffffffffffff1673ffffffffffffffffffffffffffffffffffffffff168152602001908152602001600020549050919050565b600060019054906101000a900460ff16610ce15760008054906101000a900460ff1615610cea565b610ce9611b67565b5b610d29576040517f08c379a0000000000000000000000000000000000000000000000000000000008152600401610d2090613c3c565b60405180910390fd5b60008060019054906101000a900460ff161590508015610d79576001600060016101000a81548160ff02191690831515021790555060016000806101000a81548160ff0219169083151502179055505b610ded6040518060400160405280600581526020017f4d49524c730000000000000000000000000000000000000000000000000000008152506040518060400160405280600581526020017f4d49524c73000000000000000000000000000000000000000000000000000000815250611b78565b610df5611bd5565b610dfd611c26565b610e05611c7f565b610e0d611cd0565b610e1a6000801b336117a3565b610e447f65d7a28e3265b37a6474929f336521b332c1681b933f6cb9f3376673440d862a336117a3565b610e6e7f9f2df0fed2c77648de5860a4cc508cd0818c85b8b8a1ab4ceeef8d981c8956a6336117a3565b8015610e8f5760008060016101000a81548160ff0219169083151502179055505b50565b7f65d7a28e3265b37a6474929f336521b332c1681b933f6cb9f3376673440d862a610ec481610ebf611300565b611706565b610ecc611d21565b50565b600060fb600084815260200190815260200160002060000160008373ffffffffffffffffffffffffffffffffffffffff1673ffffffffffffffffffffffffffffffffffffffff16815260200190815260200160002060009054906101000a900460ff16905092915050565b606060668054610f49906135b5565b80601f0160208091040260200160405190810160405280929190818152602001828054610f75906135b5565b8015610fc25780601f10610f9757610100808354040283529160200191610fc2565b820191906000526020600020905b815481529060010190602001808311610fa557829003601f168201915b5050505050905090565b6000801b81565b610fe5610fde611300565b8383611dc4565b5050565b610ffa610ff4611300565b836113c1565b611039576040517f08c379a00000000000000000000000000000000000000000000000000000000081526004016110309061380f565b60405180910390fd5b61104584848484611f31565b50505050565b606061105682611294565b611095576040517f08c379a000000000000000000000000000000000000000000000000000000000815260040161108c90613cce565b60405180910390fd5b600061109f611f8d565b905060008151116110bf57604051806020016040528060008152506110ea565b806110c984611fca565b6040516020016110da929190613d2a565b6040516020818303038152906040525b915050919050565b7f9f2df0fed2c77648de5860a4cc508cd0818c85b8b8a1ab4ceeef8d981c8956a681565b61111f82610875565b6111308161112b611300565b611706565b61113a8383611884565b505050565b7f65d7a28e3265b37a6474929f336521b332c1681b933f6cb9f3376673440d862a81565b6000606a60008473ffffffffffffffffffffffffffffffffffffffff1673ffffffffffffffffffffffffffffffffffffffff16815260200190815260200160002060008373ffffffffffffffffffffffffffffffffffffffff1673ffffffffffffffffffffffffffffffffffffffff16815260200190815260200160002060009054906101000a900460ff16905092915050565b6000808273ffffffffffffffffffffffffffffffffffffffff163b119050919050565b60007f7965db0b000000000000000000000000000000000000000000000000000000007bffffffffffffffffffffffffffffffffffffffffffffffffffffffff1916827bffffffffffffffffffffffffffffffffffffffffffffffffffffffff1916148061128d575061128c8261212b565b5b9050919050565b60008073ffffffffffffffffffffffffffffffffffffffff166067600084815260200190815260200160002060009054906101000a900473ffffffffffffffffffffffffffffffffffffffff1673ffffffffffffffffffffffffffffffffffffffff1614159050919050565b600033905090565b816069600083815260200190815260200160002060006101000a81548173ffffffffffffffffffffffffffffffffffffffff021916908373ffffffffffffffffffffffffffffffffffffffff160217905550808273ffffffffffffffffffffffffffffffffffffffff1661137b83610b4f565b73ffffffffffffffffffffffffffffffffffffffff167f8c5be1e5ebec7d5bd14f71427d1e84f3dd0314c0f7b2291e5b200ac8c7c3b92560405160405180910390a45050565b60006113cc82611294565b61140b576040517f08c379a000000000000000000000000000000000000000000000000000000000815260040161140290613dc0565b60405180910390fd5b600061141683610b4f565b90508073ffffffffffffffffffffffffffffffffffffffff168473ffffffffffffffffffffffffffffffffffffffff16148061148557508373ffffffffffffffffffffffffffffffffffffffff1661146d8461066b565b73ffffffffffffffffffffffffffffffffffffffff16145b8061149657506114958185611163565b5b91505092915050565b8273ffffffffffffffffffffffffffffffffffffffff166114bf82610b4f565b73ffffffffffffffffffffffffffffffffffffffff1614611515576040517f08c379a000000000000000000000000000000000000000000000000000000000815260040161150c90613e52565b60405180910390fd5b600073ffffffffffffffffffffffffffffffffffffffff168273ffffffffffffffffffffffffffffffffffffffff161415611585576040517f08c379a000000000000000000000000000000000000000000000000000000000815260040161157c90613ee4565b60405180910390fd5b6115908383836121a5565b61159b600082611308565b6001606860008573ffffffffffffffffffffffffffffffffffffffff1673ffffffffffffffffffffffffffffffffffffffff16815260200190815260200160002060008282546115eb9190613f33565b925050819055506001606860008473ffffffffffffffffffffffffffffffffffffffff1673ffffffffffffffffffffffffffffffffffffffff16815260200190815260200160002060008282546116429190613f67565b92505081905550816067600083815260200190815260200160002060006101000a81548173ffffffffffffffffffffffffffffffffffffffff021916908373ffffffffffffffffffffffffffffffffffffffff160217905550808273ffffffffffffffffffffffffffffffffffffffff168473ffffffffffffffffffffffffffffffffffffffff167fddf252ad1be2c89b69c2b068fc378daa952ba7f163c4a11628f55a4df523b3ef60405160405180910390a46117018383836121fd565b505050565b6117108282610ecf565b61179f576117358173ffffffffffffffffffffffffffffffffffffffff166014612202565b6117438360001c6020612202565b604051602001611754929190614055565b6040516020818303038152906040526040517f08c379a0000000000000000000000000000000000000000000000000000000008152600401611796919061305e565b60405180910390fd5b5050565b6117ad8282610ecf565b61188057600160fb600084815260200190815260200160002060000160008373ffffffffffffffffffffffffffffffffffffffff1673ffffffffffffffffffffffffffffffffffffffff16815260200190815260200160002060006101000a81548160ff021916908315150217905550611825611300565b73ffffffffffffffffffffffffffffffffffffffff168173ffffffffffffffffffffffffffffffffffffffff16837f2f8788117e7eff1d82e926ec794901d17c78024a50270940304540a733656f0d60405160405180910390a45b5050565b61188e8282610ecf565b1561196257600060fb600084815260200190815260200160002060000160008373ffffffffffffffffffffffffffffffffffffffff1673ffffffffffffffffffffffffffffffffffffffff16815260200190815260200160002060006101000a81548160ff021916908315150217905550611907611300565b73ffffffffffffffffffffffffffffffffffffffff168173ffffffffffffffffffffffffffffffffffffffff16837ff6391f5c32d9c69d2a47ea670b442974b53935d1edc7fd64eb21e047a839171b60405160405180910390a45b5050565b61196e610b38565b6119ad576040517f08c379a00000000000000000000000000000000000000000000000000000000081526004016119a4906140db565b60405180910390fd5b600060c960006101000a81548160ff0219169083151502179055507f5db9ee0a495bf2e6ff9c91a7834c1ba4fdd244a5e8aa4e537bd38aeae4b073aa6119f1611300565b6040516119fe9190613124565b60405180910390a1565b600081600001549050919050565b6001816000016000828254019250508190555050565b611a4682826040518060200160405280600081525061243e565b5050565b6000611a5582610b4f565b9050611a63816000846121a5565b611a6e600083611308565b6001606860008373ffffffffffffffffffffffffffffffffffffffff1673ffffffffffffffffffffffffffffffffffffffff1681526020019081526020016000206000828254611abe9190613f33565b925050819055506067600083815260200190815260200160002060006101000a81549073ffffffffffffffffffffffffffffffffffffffff021916905581600073ffffffffffffffffffffffffffffffffffffffff168273ffffffffffffffffffffffffffffffffffffffff167fddf252ad1be2c89b69c2b068fc378daa952ba7f163c4a11628f55a4df523b3ef60405160405180910390a4611b63816000846121fd565b5050565b6000611b72306111f7565b15905090565b600060019054906101000a900460ff16611bc7576040517f08c379a0000000000000000000000000000000000000000000000000000000008152600401611bbe9061416d565b60405180910390fd5b611bd18282612499565b5050565b600060019054906101000a900460ff16611c24576040517f08c379a0000000000000000000000000000000000000000000000000000000008152600401611c1b9061416d565b60405180910390fd5b565b600060019054906101000a900460ff16611c75576040517f08c379a0000000000000000000000000000000000000000000000000000000008152600401611c6c9061416d565b60405180910390fd5b611c7d61251a565b565b600060019054906101000a900460ff16611cce576040517f08c379a0000000000000000000000000000000000000000000000000000000008152600401611cc59061416d565b60405180910390fd5b565b600060019054906101000a900460ff16611d1f576040517f08c379a0000000000000000000000000000000000000000000000000000000008152600401611d169061416d565b60405180910390fd5b565b611d29610b38565b15611d69576040517f08c379a0000000000000000000000000000000000000000000000000000000008152600401611d60906141d9565b60405180910390fd5b600160c960006101000a81548160ff0219169083151502179055507f62e78cea01bee320cd4e420270b5ea74000d11b0c9f74754ebdbfc544b05a258611dad611300565b604051611dba9190613124565b60405180910390a1565b8173ffffffffffffffffffffffffffffffffffffffff168373ffffffffffffffffffffffffffffffffffffffff161415611e33576040517f08c379a0000000000000000000000000000000000000000000000000000000008152600401611e2a90614245565b60405180910390fd5b80606a60008573ffffffffffffffffffffffffffffffffffffffff1673ffffffffffffffffffffffffffffffffffffffff16815260200190815260200160002060008473ffffffffffffffffffffffffffffffffffffffff1673ffffffffffffffffffffffffffffffffffffffff16815260200190815260200160002060006101000a81548160ff0219169083151502179055508173ffffffffffffffffffffffffffffffffffffffff168373ffffffffffffffffffffffffffffffffffffffff167f17307eab39ab6107e8899845ad3d59bd9653f200f220920489ca2b5937696c3183604051611f249190612faa565b60405180910390a3505050565b611f3c84848461149f565b611f4884848484612586565b611f87576040517f08c379a0000000000000000000000000000000000000000000000000000000008152600401611f7e906142d7565b60405180910390fd5b50505050565b60606040518060400160405280601281526020017f68747470733a2f2f72616e646f6d2e636f6d0000000000000000000000000000815250905090565b60606000821415612012576040518060400160405280600181526020017f30000000000000000000000000000000000000000000000000000000000000008152509050612126565b600082905060005b6000821461204457808061202d906142f7565b915050600a8261203d919061436f565b915061201a565b60008167ffffffffffffffff8111156120605761205f613398565b5b6040519080825280601f01601f1916602001820160405280156120925781602001600182028036833780820191505090505b5090505b6000851461211f576001826120ab9190613f33565b9150600a856120ba91906143a0565b60306120c69190613f67565b60f81b8183815181106120dc576120db613a77565b5b60200101907effffffffffffffffffffffffffffffffffffffffffffffffffffffffffffff1916908160001a905350600a85612118919061436f565b9450612096565b8093505050505b919050565b60007f780e9d63000000000000000000000000000000000000000000000000000000007bffffffffffffffffffffffffffffffffffffffffffffffffffffffff1916827bffffffffffffffffffffffffffffffffffffffffffffffffffffffff1916148061219e575061219d8261270e565b5b9050919050565b6121ad610b38565b156121ed576040517f08c379a00000000000000000000000000000000000000000000000000000000081526004016121e4906141d9565b60405180910390fd5b6121f88383836127f0565b505050565b505050565b60606000600283600261221591906143d1565b61221f9190613f67565b67ffffffffffffffff81111561223857612237613398565b5b6040519080825280601f01601f19166020018201604052801561226a5781602001600182028036833780820191505090505b5090507f3000000000000000000000000000000000000000000000000000000000000000816000815181106122a2576122a1613a77565b5b60200101907effffffffffffffffffffffffffffffffffffffffffffffffffffffffffffff1916908160001a9053507f78000000000000000000000000000000000000000000000000000000000000008160018151811061230657612305613a77565b5b60200101907effffffffffffffffffffffffffffffffffffffffffffffffffffffffffffff1916908160001a9053506000600184600261234691906143d1565b6123509190613f67565b90505b60018111156123f0577f3031323334353637383961626364656600000000000000000000000000000000600f86166010811061239257612391613a77565b5b1a60f81b8282815181106123a9576123a8613a77565b5b60200101907effffffffffffffffffffffffffffffffffffffffffffffffffffffffffffff1916908160001a905350600485901c9450806123e99061442b565b9050612353565b5060008414612434576040517f08c379a000000000000000000000000000000000000000000000000000000000815260040161242b906144a1565b60405180910390fd5b8091505092915050565b6124488383612904565b6124556000848484612586565b612494576040517f08c379a000000000000000000000000000000000000000000000000000000000815260040161248b906142d7565b60405180910390fd5b505050565b600060019054906101000a900460ff166124e8576040517f08c379a00000000000000000000000000000000000000000000000000000000081526004016124df9061416d565b60405180910390fd5b81606590805190602001906124fe929190612e53565b508060669080519060200190612515929190612e53565b505050565b600060019054906101000a900460ff16612569576040517f08c379a00000000000000000000000000000000000000000000000000000000081526004016125609061416d565b60405180910390fd5b600060c960006101000a81548160ff021916908315150217905550565b60006125a78473ffffffffffffffffffffffffffffffffffffffff166111f7565b15612701578373ffffffffffffffffffffffffffffffffffffffff1663150b7a026125d0611300565b8786866040518563ffffffff1660e01b81526004016125f29493929190614516565b6020604051808303816000875af192505050801561262e57506040513d601f19601f8201168201806040525081019061262b9190614577565b60015b6126b1573d806000811461265e576040519150601f19603f3d011682016040523d82523d6000602084013e612663565b606091505b506000815114156126a9576040517f08c379a00000000000000000000000000000000000000000000000000000000081526004016126a0906142d7565b60405180910390fd5b805181602001fd5b63150b7a0260e01b7bffffffffffffffffffffffffffffffffffffffffffffffffffffffff1916817bffffffffffffffffffffffffffffffffffffffffffffffffffffffff191614915050612706565b600190505b949350505050565b60007f80ac58cd000000000000000000000000000000000000000000000000000000007bffffffffffffffffffffffffffffffffffffffffffffffffffffffff1916827bffffffffffffffffffffffffffffffffffffffffffffffffffffffff191614806127d957507f5b5e139f000000000000000000000000000000000000000000000000000000007bffffffffffffffffffffffffffffffffffffffffffffffffffffffff1916827bffffffffffffffffffffffffffffffffffffffffffffffffffffffff1916145b806127e957506127e882612ade565b5b9050919050565b6127fb838383612b48565b600073ffffffffffffffffffffffffffffffffffffffff168373ffffffffffffffffffffffffffffffffffffffff16141561283e5761283981612b4d565b61287d565b8173ffffffffffffffffffffffffffffffffffffffff168373ffffffffffffffffffffffffffffffffffffffff161461287c5761287b8382612b96565b5b5b600073ffffffffffffffffffffffffffffffffffffffff168273ffffffffffffffffffffffffffffffffffffffff1614156128c0576128bb81612d03565b6128ff565b8273ffffffffffffffffffffffffffffffffffffffff168273ffffffffffffffffffffffffffffffffffffffff16146128fe576128fd8282612dd4565b5b5b505050565b600073ffffffffffffffffffffffffffffffffffffffff168273ffffffffffffffffffffffffffffffffffffffff161415612974576040517f08c379a000000000000000000000000000000000000000000000000000000000815260040161296b906145f0565b60405180910390fd5b61297d81611294565b156129bd576040517f08c379a00000000000000000000000000000000000000000000000000000000081526004016129b49061465c565b60405180910390fd5b6129c9600083836121a5565b6001606860008473ffffffffffffffffffffffffffffffffffffffff1673ffffffffffffffffffffffffffffffffffffffff1681526020019081526020016000206000828254612a199190613f67565b92505081905550816067600083815260200190815260200160002060006101000a81548173ffffffffffffffffffffffffffffffffffffffff021916908373ffffffffffffffffffffffffffffffffffffffff160217905550808273ffffffffffffffffffffffffffffffffffffffff16600073ffffffffffffffffffffffffffffffffffffffff167fddf252ad1be2c89b69c2b068fc378daa952ba7f163c4a11628f55a4df523b3ef60405160405180910390a4612ada600083836121fd565b5050565b60007f01ffc9a7000000000000000000000000000000000000000000000000000000007bffffffffffffffffffffffffffffffffffffffffffffffffffffffff1916827bffffffffffffffffffffffffffffffffffffffffffffffffffffffff1916149050919050565b505050565b609980549050609a600083815260200190815260200160002081905550609981908060018154018082558091505060019003906000526020600020016000909190919091505550565b60006001612ba384610c01565b612bad9190613f33565b9050600060986000848152602001908152602001600020549050818114612c92576000609760008673ffffffffffffffffffffffffffffffffffffffff1673ffffffffffffffffffffffffffffffffffffffff168152602001908152602001600020600084815260200190815260200160002054905080609760008773ffffffffffffffffffffffffffffffffffffffff1673ffffffffffffffffffffffffffffffffffffffff168152602001908152602001600020600084815260200190815260200160002081905550816098600083815260200190815260200160002081905550505b6098600084815260200190815260200160002060009055609760008573ffffffffffffffffffffffffffffffffffffffff1673ffffffffffffffffffffffffffffffffffffffff16815260200190815260200160002060008381526020019081526020016000206000905550505050565b60006001609980549050612d179190613f33565b90506000609a6000848152602001908152602001600020549050600060998381548110612d4757612d46613a77565b5b906000526020600020015490508060998381548110612d6957612d68613a77565b5b906000526020600020018190555081609a600083815260200190815260200160002081905550609a6000858152602001908152602001600020600090556099805480612db857612db761467c565b5b6001900381819060005260206000200160009055905550505050565b6000612ddf83610c01565b905081609760008573ffffffffffffffffffffffffffffffffffffffff1673ffffffffffffffffffffffffffffffffffffffff168152602001908152602001600020600083815260200190815260200160002081905550806098600084815260200190815260200160002081905550505050565b828054612e5f906135b5565b90600052602060002090601f016020900481019282612e815760008555612ec8565b82601f10612e9a57805160ff1916838001178555612ec8565b82800160010185558215612ec8579182015b82811115612ec7578251825591602001919060010190612eac565b5b509050612ed59190612ed9565b5090565b5b80821115612ef2576000816000905550600101612eda565b5090565b6000604051905090565b600080fd5b600080fd5b60007fffffffff0000000000000000000000000000000000000000000000000000000082169050919050565b612f3f81612f0a565b8114612f4a57600080fd5b50565b600081359050612f5c81612f36565b92915050565b600060208284031215612f7857612f77612f00565b5b6000612f8684828501612f4d565b91505092915050565b60008115159050919050565b612fa481612f8f565b82525050565b6000602082019050612fbf6000830184612f9b565b92915050565b600081519050919050565b600082825260208201905092915050565b60005b83811015612fff578082015181840152602081019050612fe4565b8381111561300e576000848401525b50505050565b6000601f19601f8301169050919050565b600061303082612fc5565b61303a8185612fd0565b935061304a818560208601612fe1565b61305381613014565b840191505092915050565b600060208201905081810360008301526130788184613025565b905092915050565b6000819050919050565b61309381613080565b811461309e57600080fd5b50565b6000813590506130b08161308a565b92915050565b6000602082840312156130cc576130cb612f00565b5b60006130da848285016130a1565b91505092915050565b600073ffffffffffffffffffffffffffffffffffffffff82169050919050565b600061310e826130e3565b9050919050565b61311e81613103565b82525050565b60006020820190506131396000830184613115565b92915050565b61314881613103565b811461315357600080fd5b50565b6000813590506131658161313f565b92915050565b6000806040838503121561318257613181612f00565b5b600061319085828601613156565b92505060206131a1858286016130a1565b9150509250929050565b6131b481613080565b82525050565b60006020820190506131cf60008301846131ab565b92915050565b6000806000606084860312156131ee576131ed612f00565b5b60006131fc86828701613156565b935050602061320d86828701613156565b925050604061321e868287016130a1565b9150509250925092565b6000819050919050565b61323b81613228565b811461324657600080fd5b50565b60008135905061325881613232565b92915050565b60006020828403121561327457613273612f00565b5b600061328284828501613249565b91505092915050565b61329481613228565b82525050565b60006020820190506132af600083018461328b565b92915050565b600080604083850312156132cc576132cb612f00565b5b60006132da85828601613249565b92505060206132eb85828601613156565b9150509250929050565b60006020828403121561330b5761330a612f00565b5b600061331984828501613156565b91505092915050565b61332b81612f8f565b811461333657600080fd5b50565b60008135905061334881613322565b92915050565b6000806040838503121561336557613364612f00565b5b600061337385828601613156565b925050602061338485828601613339565b9150509250929050565b600080fd5b600080fd5b7f4e487b7100000000000000000000000000000000000000000000000000000000600052604160045260246000fd5b6133d082613014565b810181811067ffffffffffffffff821117156133ef576133ee613398565b5b80604052505050565b6000613402612ef6565b905061340e82826133c7565b919050565b600067ffffffffffffffff82111561342e5761342d613398565b5b61343782613014565b9050602081019050919050565b82818337600083830152505050565b600061346661346184613413565b6133f8565b90508281526020810184848401111561348257613481613393565b5b61348d848285613444565b509392505050565b600082601f8301126134aa576134a961338e565b5b81356134ba848260208601613453565b91505092915050565b600080600080608085870312156134dd576134dc612f00565b5b60006134eb87828801613156565b94505060206134fc87828801613156565b935050604061350d878288016130a1565b925050606085013567ffffffffffffffff81111561352e5761352d612f05565b5b61353a87828801613495565b91505092959194509250565b6000806040838503121561355d5761355c612f00565b5b600061356b85828601613156565b925050602061357c85828601613156565b9150509250929050565b7f4e487b7100000000000000000000000000000000000000000000000000000000600052602260045260246000fd5b600060028204905060018216806135cd57607f821691505b602082108114156135e1576135e0613586565b5b50919050565b7f4552433732313a20617070726f76656420717565727920666f72206e6f6e657860008201527f697374656e7420746f6b656e0000000000000000000000000000000000000000602082015250565b6000613643602c83612fd0565b915061364e826135e7565b604082019050919050565b6000602082019050818103600083015261367281613636565b9050919050565b7f4552433732313a20617070726f76616c20746f2063757272656e74206f776e6560008201527f7200000000000000000000000000000000000000000000000000000000000000602082015250565b60006136d5602183612fd0565b91506136e082613679565b604082019050919050565b60006020820190508181036000830152613704816136c8565b9050919050565b7f4552433732313a20617070726f76652063616c6c6572206973206e6f74206f7760008201527f6e6572206e6f7220617070726f76656420666f7220616c6c0000000000000000602082015250565b6000613767603883612fd0565b91506137728261370b565b604082019050919050565b600060208201905081810360008301526137968161375a565b9050919050565b7f4552433732313a207472616e736665722063616c6c6572206973206e6f74206f60008201527f776e6572206e6f7220617070726f766564000000000000000000000000000000602082015250565b60006137f9603183612fd0565b91506138048261379d565b604082019050919050565b60006020820190508181036000830152613828816137ec565b9050919050565b7f455243373231456e756d657261626c653a206f776e657220696e646578206f7560008201527f74206f6620626f756e6473000000000000000000000000000000000000000000602082015250565b600061388b602b83612fd0565b91506138968261382f565b604082019050919050565b600060208201905081810360008301526138ba8161387e565b9050919050565b7f416363657373436f6e74726f6c3a2063616e206f6e6c792072656e6f756e636560008201527f20726f6c657320666f722073656c660000000000000000000000000000000000602082015250565b600061391d602f83612fd0565b9150613928826138c1565b604082019050919050565b6000602082019050818103600083015261394c81613910565b9050919050565b7f4552433732314275726e61626c653a2063616c6c6572206973206e6f74206f7760008201527f6e6572206e6f7220617070726f76656400000000000000000000000000000000602082015250565b60006139af603083612fd0565b91506139ba82613953565b604082019050919050565b600060208201905081810360008301526139de816139a2565b9050919050565b7f455243373231456e756d657261626c653a20676c6f62616c20696e646578206f60008201527f7574206f6620626f756e64730000000000000000000000000000000000000000602082015250565b6000613a41602c83612fd0565b9150613a4c826139e5565b604082019050919050565b60006020820190508181036000830152613a7081613a34565b9050919050565b7f4e487b7100000000000000000000000000000000000000000000000000000000600052603260045260246000fd5b7f4552433732313a206f776e657220717565727920666f72206e6f6e657869737460008201527f656e7420746f6b656e0000000000000000000000000000000000000000000000602082015250565b6000613b02602983612fd0565b9150613b0d82613aa6565b604082019050919050565b60006020820190508181036000830152613b3181613af5565b9050919050565b7f4552433732313a2062616c616e636520717565727920666f7220746865207a6560008201527f726f206164647265737300000000000000000000000000000000000000000000602082015250565b6000613b94602a83612fd0565b9150613b9f82613b38565b604082019050919050565b60006020820190508181036000830152613bc381613b87565b9050919050565b7f496e697469616c697a61626c653a20636f6e747261637420697320616c72656160008201527f647920696e697469616c697a6564000000000000000000000000000000000000602082015250565b6000613c26602e83612fd0565b9150613c3182613bca565b604082019050919050565b60006020820190508181036000830152613c5581613c19565b9050919050565b7f4552433732314d657461646174613a2055524920717565727920666f72206e6f60008201527f6e6578697374656e7420746f6b656e0000000000000000000000000000000000602082015250565b6000613cb8602f83612fd0565b9150613cc382613c5c565b604082019050919050565b60006020820190508181036000830152613ce781613cab565b9050919050565b600081905092915050565b6000613d0482612fc5565b613d0e8185613cee565b9350613d1e818560208601612fe1565b80840191505092915050565b6000613d368285613cf9565b9150613d428284613cf9565b91508190509392505050565b7f4552433732313a206f70657261746f7220717565727920666f72206e6f6e657860008201527f697374656e7420746f6b656e0000000000000000000000000000000000000000602082015250565b6000613daa602c83612fd0565b9150613db582613d4e565b604082019050919050565b60006020820190508181036000830152613dd981613d9d565b9050919050565b7f4552433732313a207472616e736665722066726f6d20696e636f72726563742060008201527f6f776e6572000000000000000000000000000000000000000000000000000000602082015250565b6000613e3c602583612fd0565b9150613e4782613de0565b604082019050919050565b60006020820190508181036000830152613e6b81613e2f565b9050919050565b7f4552433732313a207472616e7366657220746f20746865207a65726f2061646460008201527f7265737300000000000000000000000000000000000000000000000000000000602082015250565b6000613ece602483612fd0565b9150613ed982613e72565b604082019050919050565b60006020820190508181036000830152613efd81613ec1565b9050919050565b7f4e487b7100000000000000000000000000000000000000000000000000000000600052601160045260246000fd5b6000613f3e82613080565b9150613f4983613080565b925082821015613f5c57613f5b613f04565b5b828203905092915050565b6000613f7282613080565b9150613f7d83613080565b9250827fffffffffffffffffffffffffffffffffffffffffffffffffffffffffffffffff03821115613fb257613fb1613f04565b5b828201905092915050565b7f416363657373436f6e74726f6c3a206163636f756e7420000000000000000000600082015250565b6000613ff3601783613cee565b9150613ffe82613fbd565b601782019050919050565b7f206973206d697373696e6720726f6c6520000000000000000000000000000000600082015250565b600061403f601183613cee565b915061404a82614009565b601182019050919050565b600061406082613fe6565b915061406c8285613cf9565b915061407782614032565b91506140838284613cf9565b91508190509392505050565b7f5061757361626c653a206e6f7420706175736564000000000000000000000000600082015250565b60006140c5601483612fd0565b91506140d08261408f565b602082019050919050565b600060208201905081810360008301526140f4816140b8565b9050919050565b7f496e697469616c697a61626c653a20636f6e7472616374206973206e6f74206960008201527f6e697469616c697a696e67000000000000000000000000000000000000000000602082015250565b6000614157602b83612fd0565b9150614162826140fb565b604082019050919050565b600060208201905081810360008301526141868161414a565b9050919050565b7f5061757361626c653a2070617573656400000000000000000000000000000000600082015250565b60006141c3601083612fd0565b91506141ce8261418d565b602082019050919050565b600060208201905081810360008301526141f2816141b6565b9050919050565b7f4552433732313a20617070726f766520746f2063616c6c657200000000000000600082015250565b600061422f601983612fd0565b915061423a826141f9565b602082019050919050565b6000602082019050818103600083015261425e81614222565b9050919050565b7f4552433732313a207472616e7366657220746f206e6f6e20455243373231526560008201527f63656976657220696d706c656d656e7465720000000000000000000000000000602082015250565b60006142c1603283612fd0565b91506142cc82614265565b604082019050919050565b600060208201905081810360008301526142f0816142b4565b9050919050565b600061430282613080565b91507fffffffffffffffffffffffffffffffffffffffffffffffffffffffffffffffff82141561433557614334613f04565b5b600182019050919050565b7f4e487b7100000000000000000000000000000000000000000000000000000000600052601260045260246000fd5b600061437a82613080565b915061438583613080565b92508261439557614394614340565b5b828204905092915050565b60006143ab82613080565b91506143b683613080565b9250826143c6576143c5614340565b5b828206905092915050565b60006143dc82613080565b91506143e783613080565b9250817fffffffffffffffffffffffffffffffffffffffffffffffffffffffffffffffff04831182151516156144205761441f613f04565b5b828202905092915050565b600061443682613080565b9150600082141561444a57614449613f04565b5b600182039050919050565b7f537472696e67733a20686578206c656e67746820696e73756666696369656e74600082015250565b600061448b602083612fd0565b915061449682614455565b602082019050919050565b600060208201905081810360008301526144ba8161447e565b9050919050565b600081519050919050565b600082825260208201905092915050565b60006144e8826144c1565b6144f281856144cc565b9350614502818560208601612fe1565b61450b81613014565b840191505092915050565b600060808201905061452b6000830187613115565b6145386020830186613115565b61454560408301856131ab565b818103606083015261455781846144dd565b905095945050505050565b60008151905061457181612f36565b92915050565b60006020828403121561458d5761458c612f00565b5b600061459b84828501614562565b91505092915050565b7f4552433732313a206d696e7420746f20746865207a65726f2061646472657373600082015250565b60006145da602083612fd0565b91506145e5826145a4565b602082019050919050565b60006020820190508181036000830152614609816145cd565b9050919050565b7f4552433732313a20746f6b656e20616c7265616479206d696e74656400000000600082015250565b6000614646601c83612fd0565b915061465182614610565b602082019050919050565b6000602082019050818103600083015261467581614639565b9050919050565b7f4e487b7100000000000000000000000000000000000000000000000000000000600052603160045260246000fdfea264697066735822122006b8f0954402b592c17778d1009bf7c27022c18ad8c7e646fe7e9bebb1bf776764736f6c634300080b0033",
  "immutableReferences": {},
  "source": "// SPDX-License-Identifier: MIT\npragma solidity ^0.8.11;\n\nimport \"@openzeppelin/contracts-upgradeable/token/ERC721/ERC721Upgradeable.sol\";\nimport \"@openzeppelin/contracts-upgradeable/token/ERC721/extensions/ERC721EnumerableUpgradeable.sol\";\nimport \"@openzeppelin/contracts-upgradeable/security/PausableUpgradeable.sol\";\nimport \"@openzeppelin/contracts-upgradeable/access/AccessControlUpgradeable.sol\";\nimport \"@openzeppelin/contracts-upgradeable/token/ERC721/extensions/ERC721BurnableUpgradeable.sol\";\nimport \"@openzeppelin/contracts-upgradeable/proxy/utils/Initializable.sol\";\nimport \"@openzeppelin/contracts-upgradeable/utils/CountersUpgradeable.sol\";\n\ncontract MIRLs is Initializable, ERC721Upgradeable, ERC721EnumerableUpgradeable, PausableUpgradeable, AccessControlUpgradeable, ERC721BurnableUpgradeable {\n    using CountersUpgradeable for CountersUpgradeable.Counter;\n\n    bytes32 public constant PAUSER_ROLE = keccak256(\"PAUSER_ROLE\");\n    bytes32 public constant MINTER_ROLE = keccak256(\"MINTER_ROLE\");\n    CountersUpgradeable.Counter private _tokenIdCounter;\n\n    /// @custom:oz-upgrades-unsafe-allow constructor\n    constructor() initializer {}\n\n    function initialize() initializer public {\n        __ERC721_init(\"MIRLs\", \"MIRLs\");\n        __ERC721Enumerable_init();\n        __Pausable_init();\n        __AccessControl_init();\n        __ERC721Burnable_init();\n\n        _grantRole(DEFAULT_ADMIN_ROLE, msg.sender);\n        _grantRole(PAUSER_ROLE, msg.sender);\n        _grantRole(MINTER_ROLE, msg.sender);\n    }\n\n    function _baseURI() internal pure override returns (string memory) {\n        return \"https://random.com\";\n    }\n\n    function pause() public onlyRole(PAUSER_ROLE) {\n        _pause();\n    }\n\n    function unpause() public onlyRole(PAUSER_ROLE) {\n        _unpause();\n    }\n\n    function safeMint(address to) public {\n        uint256 tokenId = _tokenIdCounter.current();\n        _tokenIdCounter.increment();\n        _safeMint(to, tokenId);\n    }\n\n    function _beforeTokenTransfer(address from, address to, uint256 tokenId)\n        internal\n        whenNotPaused\n        override(ERC721Upgradeable, ERC721EnumerableUpgradeable)\n    {\n        super._beforeTokenTransfer(from, to, tokenId);\n    }\n\n    // The following functions are overrides required by Solidity.\n\n    function supportsInterface(bytes4 interfaceId)\n        public\n        view\n        override(ERC721Upgradeable, ERC721EnumerableUpgradeable, AccessControlUpgradeable)\n        returns (bool)\n    {\n        return super.supportsInterface(interfaceId);\n    }\n}\n",
  "sourcePath": "/home/hungdevjs/Documents/blockchain-tuts/smart-contract-react/truffle/contracts/MIRLs.sol",
  "compiler": {
    "name": "solc",
    "version": "0.8.11+commit.d7f03943.Emscripten.clang"
  },
  "schemaVersion": "3.4.5",
  "updatedAt": "2022-02-21T15:34:10.565Z",
  "devdoc": {
    "kind": "dev",
    "methods": {
      "approve(address,uint256)": {
        "details": "See {IERC721-approve}."
      },
      "balanceOf(address)": {
        "details": "See {IERC721-balanceOf}."
      },
      "burn(uint256)": {
        "details": "Burns `tokenId`. See {ERC721-_burn}. Requirements: - The caller must own `tokenId` or be an approved operator."
      },
      "constructor": {
        "custom:oz-upgrades-unsafe-allow": "constructor"
      },
      "getApproved(uint256)": {
        "details": "See {IERC721-getApproved}."
      },
      "getRoleAdmin(bytes32)": {
        "details": "Returns the admin role that controls `role`. See {grantRole} and {revokeRole}. To change a role's admin, use {_setRoleAdmin}."
      },
      "grantRole(bytes32,address)": {
        "details": "Grants `role` to `account`. If `account` had not been already granted `role`, emits a {RoleGranted} event. Requirements: - the caller must have ``role``'s admin role."
      },
      "hasRole(bytes32,address)": {
        "details": "Returns `true` if `account` has been granted `role`."
      },
      "isApprovedForAll(address,address)": {
        "details": "See {IERC721-isApprovedForAll}."
      },
      "name()": {
        "details": "See {IERC721Metadata-name}."
      },
      "ownerOf(uint256)": {
        "details": "See {IERC721-ownerOf}."
      },
      "paused()": {
        "details": "Returns true if the contract is paused, and false otherwise."
      },
      "renounceRole(bytes32,address)": {
        "details": "Revokes `role` from the calling account. Roles are often managed via {grantRole} and {revokeRole}: this function's purpose is to provide a mechanism for accounts to lose their privileges if they are compromised (such as when a trusted device is misplaced). If the calling account had been revoked `role`, emits a {RoleRevoked} event. Requirements: - the caller must be `account`."
      },
      "revokeRole(bytes32,address)": {
        "details": "Revokes `role` from `account`. If `account` had been granted `role`, emits a {RoleRevoked} event. Requirements: - the caller must have ``role``'s admin role."
      },
      "safeTransferFrom(address,address,uint256)": {
        "details": "See {IERC721-safeTransferFrom}."
      },
      "safeTransferFrom(address,address,uint256,bytes)": {
        "details": "See {IERC721-safeTransferFrom}."
      },
      "setApprovalForAll(address,bool)": {
        "details": "See {IERC721-setApprovalForAll}."
      },
      "symbol()": {
        "details": "See {IERC721Metadata-symbol}."
      },
      "tokenByIndex(uint256)": {
        "details": "See {IERC721Enumerable-tokenByIndex}."
      },
      "tokenOfOwnerByIndex(address,uint256)": {
        "details": "See {IERC721Enumerable-tokenOfOwnerByIndex}."
      },
      "tokenURI(uint256)": {
        "details": "See {IERC721Metadata-tokenURI}."
      },
      "totalSupply()": {
        "details": "See {IERC721Enumerable-totalSupply}."
      },
      "transferFrom(address,address,uint256)": {
        "details": "See {IERC721-transferFrom}."
      }
    },
    "version": 1
  },
  "userdoc": {
    "kind": "user",
    "methods": {},
    "version": 1
  }
}