{
  "contractName": "MIRLs",
  "abi": [
    {
      "inputs": [],
      "stateMutability": "nonpayable",
      "type": "constructor"
    },
    {
      "anonymous": false,
      "inputs": [
        {
          "indexed": true,
          "internalType": "address",
          "name": "owner",
          "type": "address"
        },
        {
          "indexed": true,
          "internalType": "address",
          "name": "approved",
          "type": "address"
        },
        {
          "indexed": true,
          "internalType": "uint256",
          "name": "tokenId",
          "type": "uint256"
        }
      ],
      "name": "Approval",
      "type": "event"
    },
    {
      "anonymous": false,
      "inputs": [
        {
          "indexed": true,
          "internalType": "address",
          "name": "owner",
          "type": "address"
        },
        {
          "indexed": true,
          "internalType": "address",
          "name": "operator",
          "type": "address"
        },
        {
          "indexed": false,
          "internalType": "bool",
          "name": "approved",
          "type": "bool"
        }
      ],
      "name": "ApprovalForAll",
      "type": "event"
    },
    {
      "anonymous": false,
      "inputs": [
        {
          "indexed": false,
          "internalType": "address",
          "name": "account",
          "type": "address"
        }
      ],
      "name": "Paused",
      "type": "event"
    },
    {
      "anonymous": false,
      "inputs": [
        {
          "indexed": true,
          "internalType": "bytes32",
          "name": "role",
          "type": "bytes32"
        },
        {
          "indexed": true,
          "internalType": "bytes32",
          "name": "previousAdminRole",
          "type": "bytes32"
        },
        {
          "indexed": true,
          "internalType": "bytes32",
          "name": "newAdminRole",
          "type": "bytes32"
        }
      ],
      "name": "RoleAdminChanged",
      "type": "event"
    },
    {
      "anonymous": false,
      "inputs": [
        {
          "indexed": true,
          "internalType": "bytes32",
          "name": "role",
          "type": "bytes32"
        },
        {
          "indexed": true,
          "internalType": "address",
          "name": "account",
          "type": "address"
        },
        {
          "indexed": true,
          "internalType": "address",
          "name": "sender",
          "type": "address"
        }
      ],
      "name": "RoleGranted",
      "type": "event"
    },
    {
      "anonymous": false,
      "inputs": [
        {
          "indexed": true,
          "internalType": "bytes32",
          "name": "role",
          "type": "bytes32"
        },
        {
          "indexed": true,
          "internalType": "address",
          "name": "account",
          "type": "address"
        },
        {
          "indexed": true,
          "internalType": "address",
          "name": "sender",
          "type": "address"
        }
      ],
      "name": "RoleRevoked",
      "type": "event"
    },
    {
      "anonymous": false,
      "inputs": [
        {
          "indexed": true,
          "internalType": "address",
          "name": "from",
          "type": "address"
        },
        {
          "indexed": true,
          "internalType": "address",
          "name": "to",
          "type": "address"
        },
        {
          "indexed": true,
          "internalType": "uint256",
          "name": "tokenId",
          "type": "uint256"
        }
      ],
      "name": "Transfer",
      "type": "event"
    },
    {
      "anonymous": false,
      "inputs": [
        {
          "indexed": false,
          "internalType": "address",
          "name": "account",
          "type": "address"
        }
      ],
      "name": "Unpaused",
      "type": "event"
    },
    {
      "inputs": [],
      "name": "DEFAULT_ADMIN_ROLE",
      "outputs": [
        {
          "internalType": "bytes32",
          "name": "",
          "type": "bytes32"
        }
      ],
      "stateMutability": "view",
      "type": "function",
      "constant": true
    },
    {
      "inputs": [],
      "name": "MINTER_ROLE",
      "outputs": [
        {
          "internalType": "bytes32",
          "name": "",
          "type": "bytes32"
        }
      ],
      "stateMutability": "view",
      "type": "function",
      "constant": true
    },
    {
      "inputs": [],
      "name": "PAUSER_ROLE",
      "outputs": [
        {
          "internalType": "bytes32",
          "name": "",
          "type": "bytes32"
        }
      ],
      "stateMutability": "view",
      "type": "function",
      "constant": true
    },
    {
      "inputs": [],
      "name": "WHITE_LIST_ROLE",
      "outputs": [
        {
          "internalType": "bytes32",
          "name": "",
          "type": "bytes32"
        }
      ],
      "stateMutability": "view",
      "type": "function",
      "constant": true
    },
    {
      "inputs": [
        {
          "internalType": "address",
          "name": "to",
          "type": "address"
        },
        {
          "internalType": "uint256",
          "name": "tokenId",
          "type": "uint256"
        }
      ],
      "name": "approve",
      "outputs": [],
      "stateMutability": "nonpayable",
      "type": "function"
    },
    {
      "inputs": [
        {
          "internalType": "address",
          "name": "owner",
          "type": "address"
        }
      ],
      "name": "balanceOf",
      "outputs": [
        {
          "internalType": "uint256",
          "name": "",
          "type": "uint256"
        }
      ],
      "stateMutability": "view",
      "type": "function",
      "constant": true
    },
    {
      "inputs": [
        {
          "internalType": "uint256",
          "name": "tokenId",
          "type": "uint256"
        }
      ],
      "name": "burn",
      "outputs": [],
      "stateMutability": "nonpayable",
      "type": "function"
    },
    {
      "inputs": [
        {
          "internalType": "uint256",
          "name": "tokenId",
          "type": "uint256"
        }
      ],
      "name": "getApproved",
      "outputs": [
        {
          "internalType": "address",
          "name": "",
          "type": "address"
        }
      ],
      "stateMutability": "view",
      "type": "function",
      "constant": true
    },
    {
      "inputs": [
        {
          "internalType": "bytes32",
          "name": "role",
          "type": "bytes32"
        }
      ],
      "name": "getRoleAdmin",
      "outputs": [
        {
          "internalType": "bytes32",
          "name": "",
          "type": "bytes32"
        }
      ],
      "stateMutability": "view",
      "type": "function",
      "constant": true
    },
    {
      "inputs": [
        {
          "internalType": "bytes32",
          "name": "role",
          "type": "bytes32"
        },
        {
          "internalType": "address",
          "name": "account",
          "type": "address"
        }
      ],
      "name": "grantRole",
      "outputs": [],
      "stateMutability": "nonpayable",
      "type": "function"
    },
    {
      "inputs": [
        {
          "internalType": "bytes32",
          "name": "role",
          "type": "bytes32"
        },
        {
          "internalType": "address",
          "name": "account",
          "type": "address"
        }
      ],
      "name": "hasRole",
      "outputs": [
        {
          "internalType": "bool",
          "name": "",
          "type": "bool"
        }
      ],
      "stateMutability": "view",
      "type": "function",
      "constant": true
    },
    {
      "inputs": [
        {
          "internalType": "address",
          "name": "owner",
          "type": "address"
        },
        {
          "internalType": "address",
          "name": "operator",
          "type": "address"
        }
      ],
      "name": "isApprovedForAll",
      "outputs": [
        {
          "internalType": "bool",
          "name": "",
          "type": "bool"
        }
      ],
      "stateMutability": "view",
      "type": "function",
      "constant": true
    },
    {
      "inputs": [],
      "name": "name",
      "outputs": [
        {
          "internalType": "string",
          "name": "",
          "type": "string"
        }
      ],
      "stateMutability": "view",
      "type": "function",
      "constant": true
    },
    {
      "inputs": [
        {
          "internalType": "uint256",
          "name": "tokenId",
          "type": "uint256"
        }
      ],
      "name": "ownerOf",
      "outputs": [
        {
          "internalType": "address",
          "name": "",
          "type": "address"
        }
      ],
      "stateMutability": "view",
      "type": "function",
      "constant": true
    },
    {
      "inputs": [],
      "name": "paused",
      "outputs": [
        {
          "internalType": "bool",
          "name": "",
          "type": "bool"
        }
      ],
      "stateMutability": "view",
      "type": "function",
      "constant": true
    },
    {
      "inputs": [
        {
          "internalType": "bytes32",
          "name": "role",
          "type": "bytes32"
        },
        {
          "internalType": "address",
          "name": "account",
          "type": "address"
        }
      ],
      "name": "renounceRole",
      "outputs": [],
      "stateMutability": "nonpayable",
      "type": "function"
    },
    {
      "inputs": [
        {
          "internalType": "bytes32",
          "name": "role",
          "type": "bytes32"
        },
        {
          "internalType": "address",
          "name": "account",
          "type": "address"
        }
      ],
      "name": "revokeRole",
      "outputs": [],
      "stateMutability": "nonpayable",
      "type": "function"
    },
    {
      "inputs": [
        {
          "internalType": "address",
          "name": "from",
          "type": "address"
        },
        {
          "internalType": "address",
          "name": "to",
          "type": "address"
        },
        {
          "internalType": "uint256",
          "name": "tokenId",
          "type": "uint256"
        }
      ],
      "name": "safeTransferFrom",
      "outputs": [],
      "stateMutability": "nonpayable",
      "type": "function"
    },
    {
      "inputs": [
        {
          "internalType": "address",
          "name": "from",
          "type": "address"
        },
        {
          "internalType": "address",
          "name": "to",
          "type": "address"
        },
        {
          "internalType": "uint256",
          "name": "tokenId",
          "type": "uint256"
        },
        {
          "internalType": "bytes",
          "name": "_data",
          "type": "bytes"
        }
      ],
      "name": "safeTransferFrom",
      "outputs": [],
      "stateMutability": "nonpayable",
      "type": "function"
    },
    {
      "inputs": [
        {
          "internalType": "address",
          "name": "operator",
          "type": "address"
        },
        {
          "internalType": "bool",
          "name": "approved",
          "type": "bool"
        }
      ],
      "name": "setApprovalForAll",
      "outputs": [],
      "stateMutability": "nonpayable",
      "type": "function"
    },
    {
      "inputs": [],
      "name": "symbol",
      "outputs": [
        {
          "internalType": "string",
          "name": "",
          "type": "string"
        }
      ],
      "stateMutability": "view",
      "type": "function",
      "constant": true
    },
    {
      "inputs": [
        {
          "internalType": "uint256",
          "name": "index",
          "type": "uint256"
        }
      ],
      "name": "tokenByIndex",
      "outputs": [
        {
          "internalType": "uint256",
          "name": "",
          "type": "uint256"
        }
      ],
      "stateMutability": "view",
      "type": "function",
      "constant": true
    },
    {
      "inputs": [
        {
          "internalType": "address",
          "name": "owner",
          "type": "address"
        },
        {
          "internalType": "uint256",
          "name": "index",
          "type": "uint256"
        }
      ],
      "name": "tokenOfOwnerByIndex",
      "outputs": [
        {
          "internalType": "uint256",
          "name": "",
          "type": "uint256"
        }
      ],
      "stateMutability": "view",
      "type": "function",
      "constant": true
    },
    {
      "inputs": [
        {
          "internalType": "uint256",
          "name": "tokenId",
          "type": "uint256"
        }
      ],
      "name": "tokenURI",
      "outputs": [
        {
          "internalType": "string",
          "name": "",
          "type": "string"
        }
      ],
      "stateMutability": "view",
      "type": "function",
      "constant": true
    },
    {
      "inputs": [],
      "name": "totalSupply",
      "outputs": [
        {
          "internalType": "uint256",
          "name": "",
          "type": "uint256"
        }
      ],
      "stateMutability": "view",
      "type": "function",
      "constant": true
    },
    {
      "inputs": [
        {
          "internalType": "address",
          "name": "from",
          "type": "address"
        },
        {
          "internalType": "address",
          "name": "to",
          "type": "address"
        },
        {
          "internalType": "uint256",
          "name": "tokenId",
          "type": "uint256"
        }
      ],
      "name": "transferFrom",
      "outputs": [],
      "stateMutability": "nonpayable",
      "type": "function"
    },
    {
      "inputs": [],
      "name": "pause",
      "outputs": [],
      "stateMutability": "nonpayable",
      "type": "function"
    },
    {
      "inputs": [],
      "name": "unpause",
      "outputs": [],
      "stateMutability": "nonpayable",
      "type": "function"
    },
    {
      "inputs": [
        {
          "internalType": "address",
          "name": "to",
          "type": "address"
        }
      ],
      "name": "safeMint",
      "outputs": [],
      "stateMutability": "nonpayable",
      "type": "function"
    },
    {
      "inputs": [
        {
          "internalType": "bytes4",
          "name": "interfaceId",
          "type": "bytes4"
        }
      ],
      "name": "supportsInterface",
      "outputs": [
        {
          "internalType": "bool",
          "name": "",
          "type": "bool"
        }
      ],
      "stateMutability": "view",
      "type": "function",
      "constant": true
    }
  ],
  "bytecode": "0x60806040523480156200001157600080fd5b506040518060400160405280600581526020017f4d49524c730000000000000000000000000000000000000000000000000000008152506040518060400160405280600581526020017f4d49524c73000000000000000000000000000000000000000000000000000000815250816000908051906020019062000096929190620002e3565b508060019080519060200190620000af929190620002e3565b5050506000600a60006101000a81548160ff021916908315150217905550620000e26000801b336200017e60201b60201c565b620001147f65d7a28e3265b37a6474929f336521b332c1681b933f6cb9f3376673440d862a336200017e60201b60201c565b620001467f9f2df0fed2c77648de5860a4cc508cd0818c85b8b8a1ab4ceeef8d981c8956a6336200017e60201b60201c565b620001787f86024e89529ee90561d266fe70772355cdf7be9c9e97e3ac6b5d90ddbc853365336200017e60201b60201c565b620003f8565b6200019082826200027060201b60201c565b6200026c576001600b600084815260200190815260200160002060000160008373ffffffffffffffffffffffffffffffffffffffff1673ffffffffffffffffffffffffffffffffffffffff16815260200190815260200160002060006101000a81548160ff02191690831515021790555062000211620002db60201b60201c565b73ffffffffffffffffffffffffffffffffffffffff168173ffffffffffffffffffffffffffffffffffffffff16837f2f8788117e7eff1d82e926ec794901d17c78024a50270940304540a733656f0d60405160405180910390a45b5050565b6000600b600084815260200190815260200160002060000160008373ffffffffffffffffffffffffffffffffffffffff1673ffffffffffffffffffffffffffffffffffffffff16815260200190815260200160002060009054906101000a900460ff16905092915050565b600033905090565b828054620002f190620003c2565b90600052602060002090601f01602090048101928262000315576000855562000361565b82601f106200033057805160ff191683800117855562000361565b8280016001018555821562000361579182015b828111156200036057825182559160200191906001019062000343565b5b50905062000370919062000374565b5090565b5b808211156200038f57600081600090555060010162000375565b5090565b7f4e487b7100000000000000000000000000000000000000000000000000000000600052602260045260246000fd5b60006002820490506001821680620003db57607f821691505b60208210811415620003f257620003f162000393565b5b50919050565b6141d880620004086000396000f3fe608060405234801561001057600080fd5b50600436106101da5760003560e01c80635c975abb11610104578063a22cb465116100a2578063d539139311610071578063d539139314610553578063d547741f14610571578063e63ab1e91461058d578063e985e9c5146105ab576101da565b8063a22cb465146104cd578063b88d4fde146104e9578063c50a557c14610505578063c87b56dd14610523576101da565b80638456cb59116100de5780638456cb591461045757806391d148541461046157806395d89b4114610491578063a217fddf146104af576101da565b80635c975abb146103d95780636352211e146103f757806370a0823114610427576101da565b80632f2ff15d1161017c57806340d097c31161014b57806340d097c31461035557806342842e0e1461037157806342966c681461038d5780634f6ccce7146103a9576101da565b80632f2ff15d146102e35780632f745c59146102ff57806336568abe1461032f5780633f4ba83a1461034b576101da565b8063095ea7b3116101b8578063095ea7b31461025d57806318160ddd1461027957806323b872dd14610297578063248a9ca3146102b3576101da565b806301ffc9a7146101df57806306fdde031461020f578063081812fc1461022d575b600080fd5b6101f960048036038101906101f49190612b11565b6105db565b6040516102069190612b59565b60405180910390f35b6102176105ed565b6040516102249190612c0d565b60405180910390f35b61024760048036038101906102429190612c65565b61067f565b6040516102549190612cd3565b60405180910390f35b61027760048036038101906102729190612d1a565b610704565b005b61028161081c565b60405161028e9190612d69565b60405180910390f35b6102b160048036038101906102ac9190612d84565b610829565b005b6102cd60048036038101906102c89190612e0d565b610889565b6040516102da9190612e49565b60405180910390f35b6102fd60048036038101906102f89190612e64565b6108a9565b005b61031960048036038101906103149190612d1a565b6108d2565b6040516103269190612d69565b60405180910390f35b61034960048036038101906103449190612e64565b610977565b005b6103536109fa565b005b61036f600480360381019061036a9190612ea4565b610a37565b005b61038b60048036038101906103869190612d84565b610af9565b005b6103a760048036038101906103a29190612c65565b610b19565b005b6103c360048036038101906103be9190612c65565b610b75565b6040516103d09190612d69565b60405180910390f35b6103e1610be6565b6040516103ee9190612b59565b60405180910390f35b610411600480360381019061040c9190612c65565b610bfd565b60405161041e9190612cd3565b60405180910390f35b610441600480360381019061043c9190612ea4565b610caf565b60405161044e9190612d69565b60405180910390f35b61045f610d67565b005b61047b60048036038101906104769190612e64565b610da4565b6040516104889190612b59565b60405180910390f35b610499610e0f565b6040516104a69190612c0d565b60405180910390f35b6104b7610ea1565b6040516104c49190612e49565b60405180910390f35b6104e760048036038101906104e29190612efd565b610ea8565b005b61050360048036038101906104fe9190613072565b610ebe565b005b61050d610f20565b60405161051a9190612e49565b60405180910390f35b61053d60048036038101906105389190612c65565b610f44565b60405161054a9190612c0d565b60405180910390f35b61055b610feb565b6040516105689190612e49565b60405180910390f35b61058b60048036038101906105869190612e64565b61100f565b005b610595611038565b6040516105a29190612e49565b60405180910390f35b6105c560048036038101906105c091906130f5565b61105c565b6040516105d29190612b59565b60405180910390f35b60006105e6826110f0565b9050919050565b6060600080546105fc90613164565b80601f016020809104026020016040519081016040528092919081815260200182805461062890613164565b80156106755780601f1061064a57610100808354040283529160200191610675565b820191906000526020600020905b81548152906001019060200180831161065857829003601f168201915b5050505050905090565b600061068a8261116a565b6106c9576040517f08c379a00000000000000000000000000000000000000000000000000000000081526004016106c090613208565b60405180910390fd5b6004600083815260200190815260200160002060009054906101000a900473ffffffffffffffffffffffffffffffffffffffff169050919050565b600061070f82610bfd565b90508073ffffffffffffffffffffffffffffffffffffffff168373ffffffffffffffffffffffffffffffffffffffff161415610780576040517f08c379a00000000000000000000000000000000000000000000000000000000081526004016107779061329a565b60405180910390fd5b8073ffffffffffffffffffffffffffffffffffffffff1661079f6111d6565b73ffffffffffffffffffffffffffffffffffffffff1614806107ce57506107cd816107c86111d6565b61105c565b5b61080d576040517f08c379a00000000000000000000000000000000000000000000000000000000081526004016108049061332c565b60405180910390fd5b61081783836111de565b505050565b6000600880549050905090565b61083a6108346111d6565b82611297565b610879576040517f08c379a0000000000000000000000000000000000000000000000000000000008152600401610870906133be565b60405180910390fd5b610884838383611375565b505050565b6000600b6000838152602001908152602001600020600101549050919050565b6108b282610889565b6108c3816108be6111d6565b6115dc565b6108cd8383611679565b505050565b60006108dd83610caf565b821061091e576040517f08c379a000000000000000000000000000000000000000000000000000000000815260040161091590613450565b60405180910390fd5b600660008473ffffffffffffffffffffffffffffffffffffffff1673ffffffffffffffffffffffffffffffffffffffff168152602001908152602001600020600083815260200190815260200160002054905092915050565b61097f6111d6565b73ffffffffffffffffffffffffffffffffffffffff168173ffffffffffffffffffffffffffffffffffffffff16146109ec576040517f08c379a00000000000000000000000000000000000000000000000000000000081526004016109e3906134e2565b60405180910390fd5b6109f6828261175a565b5050565b7f65d7a28e3265b37a6474929f336521b332c1681b933f6cb9f3376673440d862a610a2c81610a276111d6565b6115dc565b610a3461183c565b50565b7f9f2df0fed2c77648de5860a4cc508cd0818c85b8b8a1ab4ceeef8d981c8956a6610a6981610a646111d6565b6115dc565b610a937f86024e89529ee90561d266fe70772355cdf7be9c9e97e3ac6b5d90ddbc85336583610da4565b610ad2576040517f08c379a0000000000000000000000000000000000000000000000000000000008152600401610ac99061354e565b60405180910390fd5b6000610ade600c6118de565b9050610aea600c6118ec565b610af48382611902565b505050565b610b1483838360405180602001604052806000815250610ebe565b505050565b610b2a610b246111d6565b82611297565b610b69576040517f08c379a0000000000000000000000000000000000000000000000000000000008152600401610b60906135e0565b60405180910390fd5b610b7281611920565b50565b6000610b7f61081c565b8210610bc0576040517f08c379a0000000000000000000000000000000000000000000000000000000008152600401610bb790613672565b60405180910390fd5b60088281548110610bd457610bd3613692565b5b90600052602060002001549050919050565b6000600a60009054906101000a900460ff16905090565b6000806002600084815260200190815260200160002060009054906101000a900473ffffffffffffffffffffffffffffffffffffffff169050600073ffffffffffffffffffffffffffffffffffffffff168173ffffffffffffffffffffffffffffffffffffffff161415610ca6576040517f08c379a0000000000000000000000000000000000000000000000000000000008152600401610c9d90613733565b60405180910390fd5b80915050919050565b60008073ffffffffffffffffffffffffffffffffffffffff168273ffffffffffffffffffffffffffffffffffffffff161415610d20576040517f08c379a0000000000000000000000000000000000000000000000000000000008152600401610d17906137c5565b60405180910390fd5b600360008373ffffffffffffffffffffffffffffffffffffffff1673ffffffffffffffffffffffffffffffffffffffff168152602001908152602001600020549050919050565b7f65d7a28e3265b37a6474929f336521b332c1681b933f6cb9f3376673440d862a610d9981610d946111d6565b6115dc565b610da1611a3d565b50565b6000600b600084815260200190815260200160002060000160008373ffffffffffffffffffffffffffffffffffffffff1673ffffffffffffffffffffffffffffffffffffffff16815260200190815260200160002060009054906101000a900460ff16905092915050565b606060018054610e1e90613164565b80601f0160208091040260200160405190810160405280929190818152602001828054610e4a90613164565b8015610e975780601f10610e6c57610100808354040283529160200191610e97565b820191906000526020600020905b815481529060010190602001808311610e7a57829003601f168201915b5050505050905090565b6000801b81565b610eba610eb36111d6565b8383611ae0565b5050565b610ecf610ec96111d6565b83611297565b610f0e576040517f08c379a0000000000000000000000000000000000000000000000000000000008152600401610f05906133be565b60405180910390fd5b610f1a84848484611c4d565b50505050565b7f86024e89529ee90561d266fe70772355cdf7be9c9e97e3ac6b5d90ddbc85336581565b6060610f4f8261116a565b610f8e576040517f08c379a0000000000000000000000000000000000000000000000000000000008152600401610f8590613857565b60405180910390fd5b6000610f98611ca9565b90506000815111610fb85760405180602001604052806000815250610fe3565b80610fc284611ce6565b604051602001610fd39291906138b3565b6040516020818303038152906040525b915050919050565b7f9f2df0fed2c77648de5860a4cc508cd0818c85b8b8a1ab4ceeef8d981c8956a681565b61101882610889565b611029816110246111d6565b6115dc565b611033838361175a565b505050565b7f65d7a28e3265b37a6474929f336521b332c1681b933f6cb9f3376673440d862a81565b6000600560008473ffffffffffffffffffffffffffffffffffffffff1673ffffffffffffffffffffffffffffffffffffffff16815260200190815260200160002060008373ffffffffffffffffffffffffffffffffffffffff1673ffffffffffffffffffffffffffffffffffffffff16815260200190815260200160002060009054906101000a900460ff16905092915050565b60007f7965db0b000000000000000000000000000000000000000000000000000000007bffffffffffffffffffffffffffffffffffffffffffffffffffffffff1916827bffffffffffffffffffffffffffffffffffffffffffffffffffffffff19161480611163575061116282611e47565b5b9050919050565b60008073ffffffffffffffffffffffffffffffffffffffff166002600084815260200190815260200160002060009054906101000a900473ffffffffffffffffffffffffffffffffffffffff1673ffffffffffffffffffffffffffffffffffffffff1614159050919050565b600033905090565b816004600083815260200190815260200160002060006101000a81548173ffffffffffffffffffffffffffffffffffffffff021916908373ffffffffffffffffffffffffffffffffffffffff160217905550808273ffffffffffffffffffffffffffffffffffffffff1661125183610bfd565b73ffffffffffffffffffffffffffffffffffffffff167f8c5be1e5ebec7d5bd14f71427d1e84f3dd0314c0f7b2291e5b200ac8c7c3b92560405160405180910390a45050565b60006112a28261116a565b6112e1576040517f08c379a00000000000000000000000000000000000000000000000000000000081526004016112d890613949565b60405180910390fd5b60006112ec83610bfd565b90508073ffffffffffffffffffffffffffffffffffffffff168473ffffffffffffffffffffffffffffffffffffffff16148061135b57508373ffffffffffffffffffffffffffffffffffffffff166113438461067f565b73ffffffffffffffffffffffffffffffffffffffff16145b8061136c575061136b818561105c565b5b91505092915050565b8273ffffffffffffffffffffffffffffffffffffffff1661139582610bfd565b73ffffffffffffffffffffffffffffffffffffffff16146113eb576040517f08c379a00000000000000000000000000000000000000000000000000000000081526004016113e2906139db565b60405180910390fd5b600073ffffffffffffffffffffffffffffffffffffffff168273ffffffffffffffffffffffffffffffffffffffff16141561145b576040517f08c379a000000000000000000000000000000000000000000000000000000000815260040161145290613a6d565b60405180910390fd5b611466838383611ec1565b6114716000826111de565b6001600360008573ffffffffffffffffffffffffffffffffffffffff1673ffffffffffffffffffffffffffffffffffffffff16815260200190815260200160002060008282546114c19190613abc565b925050819055506001600360008473ffffffffffffffffffffffffffffffffffffffff1673ffffffffffffffffffffffffffffffffffffffff16815260200190815260200160002060008282546115189190613af0565b92505081905550816002600083815260200190815260200160002060006101000a81548173ffffffffffffffffffffffffffffffffffffffff021916908373ffffffffffffffffffffffffffffffffffffffff160217905550808273ffffffffffffffffffffffffffffffffffffffff168473ffffffffffffffffffffffffffffffffffffffff167fddf252ad1be2c89b69c2b068fc378daa952ba7f163c4a11628f55a4df523b3ef60405160405180910390a46115d7838383611f19565b505050565b6115e68282610da4565b6116755761160b8173ffffffffffffffffffffffffffffffffffffffff166014611f1e565b6116198360001c6020611f1e565b60405160200161162a929190613bde565b6040516020818303038152906040526040517f08c379a000000000000000000000000000000000000000000000000000000000815260040161166c9190612c0d565b60405180910390fd5b5050565b6116838282610da4565b611756576001600b600084815260200190815260200160002060000160008373ffffffffffffffffffffffffffffffffffffffff1673ffffffffffffffffffffffffffffffffffffffff16815260200190815260200160002060006101000a81548160ff0219169083151502179055506116fb6111d6565b73ffffffffffffffffffffffffffffffffffffffff168173ffffffffffffffffffffffffffffffffffffffff16837f2f8788117e7eff1d82e926ec794901d17c78024a50270940304540a733656f0d60405160405180910390a45b5050565b6117648282610da4565b15611838576000600b600084815260200190815260200160002060000160008373ffffffffffffffffffffffffffffffffffffffff1673ffffffffffffffffffffffffffffffffffffffff16815260200190815260200160002060006101000a81548160ff0219169083151502179055506117dd6111d6565b73ffffffffffffffffffffffffffffffffffffffff168173ffffffffffffffffffffffffffffffffffffffff16837ff6391f5c32d9c69d2a47ea670b442974b53935d1edc7fd64eb21e047a839171b60405160405180910390a45b5050565b611844610be6565b611883576040517f08c379a000000000000000000000000000000000000000000000000000000000815260040161187a90613c64565b60405180910390fd5b6000600a60006101000a81548160ff0219169083151502179055507f5db9ee0a495bf2e6ff9c91a7834c1ba4fdd244a5e8aa4e537bd38aeae4b073aa6118c76111d6565b6040516118d49190612cd3565b60405180910390a1565b600081600001549050919050565b6001816000016000828254019250508190555050565b61191c82826040518060200160405280600081525061215a565b5050565b600061192b82610bfd565b905061193981600084611ec1565b6119446000836111de565b6001600360008373ffffffffffffffffffffffffffffffffffffffff1673ffffffffffffffffffffffffffffffffffffffff16815260200190815260200160002060008282546119949190613abc565b925050819055506002600083815260200190815260200160002060006101000a81549073ffffffffffffffffffffffffffffffffffffffff021916905581600073ffffffffffffffffffffffffffffffffffffffff168273ffffffffffffffffffffffffffffffffffffffff167fddf252ad1be2c89b69c2b068fc378daa952ba7f163c4a11628f55a4df523b3ef60405160405180910390a4611a3981600084611f19565b5050565b611a45610be6565b15611a85576040517f08c379a0000000000000000000000000000000000000000000000000000000008152600401611a7c90613cd0565b60405180910390fd5b6001600a60006101000a81548160ff0219169083151502179055507f62e78cea01bee320cd4e420270b5ea74000d11b0c9f74754ebdbfc544b05a258611ac96111d6565b604051611ad69190612cd3565b60405180910390a1565b8173ffffffffffffffffffffffffffffffffffffffff168373ffffffffffffffffffffffffffffffffffffffff161415611b4f576040517f08c379a0000000000000000000000000000000000000000000000000000000008152600401611b4690613d3c565b60405180910390fd5b80600560008573ffffffffffffffffffffffffffffffffffffffff1673ffffffffffffffffffffffffffffffffffffffff16815260200190815260200160002060008473ffffffffffffffffffffffffffffffffffffffff1673ffffffffffffffffffffffffffffffffffffffff16815260200190815260200160002060006101000a81548160ff0219169083151502179055508173ffffffffffffffffffffffffffffffffffffffff168373ffffffffffffffffffffffffffffffffffffffff167f17307eab39ab6107e8899845ad3d59bd9653f200f220920489ca2b5937696c3183604051611c409190612b59565b60405180910390a3505050565b611c58848484611375565b611c64848484846121b5565b611ca3576040517f08c379a0000000000000000000000000000000000000000000000000000000008152600401611c9a90613dce565b60405180910390fd5b50505050565b60606040518060400160405280601281526020017f68747470733a2f2f72616e646f6d2e636f6d0000000000000000000000000000815250905090565b60606000821415611d2e576040518060400160405280600181526020017f30000000000000000000000000000000000000000000000000000000000000008152509050611e42565b600082905060005b60008214611d60578080611d4990613dee565b915050600a82611d599190613e66565b9150611d36565b60008167ffffffffffffffff811115611d7c57611d7b612f47565b5b6040519080825280601f01601f191660200182016040528015611dae5781602001600182028036833780820191505090505b5090505b60008514611e3b57600182611dc79190613abc565b9150600a85611dd69190613e97565b6030611de29190613af0565b60f81b818381518110611df857611df7613692565b5b60200101907effffffffffffffffffffffffffffffffffffffffffffffffffffffffffffff1916908160001a905350600a85611e349190613e66565b9450611db2565b8093505050505b919050565b60007f780e9d63000000000000000000000000000000000000000000000000000000007bffffffffffffffffffffffffffffffffffffffffffffffffffffffff1916827bffffffffffffffffffffffffffffffffffffffffffffffffffffffff19161480611eba5750611eb98261233d565b5b9050919050565b611ec9610be6565b15611f09576040517f08c379a0000000000000000000000000000000000000000000000000000000008152600401611f0090613cd0565b60405180910390fd5b611f1483838361241f565b505050565b505050565b606060006002836002611f319190613ec8565b611f3b9190613af0565b67ffffffffffffffff811115611f5457611f53612f47565b5b6040519080825280601f01601f191660200182016040528015611f865781602001600182028036833780820191505090505b5090507f300000000000000000000000000000000000000000000000000000000000000081600081518110611fbe57611fbd613692565b5b60200101907effffffffffffffffffffffffffffffffffffffffffffffffffffffffffffff1916908160001a9053507f78000000000000000000000000000000000000000000000000000000000000008160018151811061202257612021613692565b5b60200101907effffffffffffffffffffffffffffffffffffffffffffffffffffffffffffff1916908160001a905350600060018460026120629190613ec8565b61206c9190613af0565b90505b600181111561210c577f3031323334353637383961626364656600000000000000000000000000000000600f8616601081106120ae576120ad613692565b5b1a60f81b8282815181106120c5576120c4613692565b5b60200101907effffffffffffffffffffffffffffffffffffffffffffffffffffffffffffff1916908160001a905350600485901c94508061210590613f22565b905061206f565b5060008414612150576040517f08c379a000000000000000000000000000000000000000000000000000000000815260040161214790613f98565b60405180910390fd5b8091505092915050565b6121648383612533565b61217160008484846121b5565b6121b0576040517f08c379a00000000000000000000000000000000000000000000000000000000081526004016121a790613dce565b60405180910390fd5b505050565b60006121d68473ffffffffffffffffffffffffffffffffffffffff1661270d565b15612330578373ffffffffffffffffffffffffffffffffffffffff1663150b7a026121ff6111d6565b8786866040518563ffffffff1660e01b8152600401612221949392919061400d565b6020604051808303816000875af192505050801561225d57506040513d601f19601f8201168201806040525081019061225a919061406e565b60015b6122e0573d806000811461228d576040519150601f19603f3d011682016040523d82523d6000602084013e612292565b606091505b506000815114156122d8576040517f08c379a00000000000000000000000000000000000000000000000000000000081526004016122cf90613dce565b60405180910390fd5b805181602001fd5b63150b7a0260e01b7bffffffffffffffffffffffffffffffffffffffffffffffffffffffff1916817bffffffffffffffffffffffffffffffffffffffffffffffffffffffff191614915050612335565b600190505b949350505050565b60007f80ac58cd000000000000000000000000000000000000000000000000000000007bffffffffffffffffffffffffffffffffffffffffffffffffffffffff1916827bffffffffffffffffffffffffffffffffffffffffffffffffffffffff1916148061240857507f5b5e139f000000000000000000000000000000000000000000000000000000007bffffffffffffffffffffffffffffffffffffffffffffffffffffffff1916827bffffffffffffffffffffffffffffffffffffffffffffffffffffffff1916145b80612418575061241782612730565b5b9050919050565b61242a83838361279a565b600073ffffffffffffffffffffffffffffffffffffffff168373ffffffffffffffffffffffffffffffffffffffff16141561246d576124688161279f565b6124ac565b8173ffffffffffffffffffffffffffffffffffffffff168373ffffffffffffffffffffffffffffffffffffffff16146124ab576124aa83826127e8565b5b5b600073ffffffffffffffffffffffffffffffffffffffff168273ffffffffffffffffffffffffffffffffffffffff1614156124ef576124ea81612955565b61252e565b8273ffffffffffffffffffffffffffffffffffffffff168273ffffffffffffffffffffffffffffffffffffffff161461252d5761252c8282612a26565b5b5b505050565b600073ffffffffffffffffffffffffffffffffffffffff168273ffffffffffffffffffffffffffffffffffffffff1614156125a3576040517f08c379a000000000000000000000000000000000000000000000000000000000815260040161259a906140e7565b60405180910390fd5b6125ac8161116a565b156125ec576040517f08c379a00000000000000000000000000000000000000000000000000000000081526004016125e390614153565b60405180910390fd5b6125f860008383611ec1565b6001600360008473ffffffffffffffffffffffffffffffffffffffff1673ffffffffffffffffffffffffffffffffffffffff16815260200190815260200160002060008282546126489190613af0565b92505081905550816002600083815260200190815260200160002060006101000a81548173ffffffffffffffffffffffffffffffffffffffff021916908373ffffffffffffffffffffffffffffffffffffffff160217905550808273ffffffffffffffffffffffffffffffffffffffff16600073ffffffffffffffffffffffffffffffffffffffff167fddf252ad1be2c89b69c2b068fc378daa952ba7f163c4a11628f55a4df523b3ef60405160405180910390a461270960008383611f19565b5050565b6000808273ffffffffffffffffffffffffffffffffffffffff163b119050919050565b60007f01ffc9a7000000000000000000000000000000000000000000000000000000007bffffffffffffffffffffffffffffffffffffffffffffffffffffffff1916827bffffffffffffffffffffffffffffffffffffffffffffffffffffffff1916149050919050565b505050565b6008805490506009600083815260200190815260200160002081905550600881908060018154018082558091505060019003906000526020600020016000909190919091505550565b600060016127f584610caf565b6127ff9190613abc565b90506000600760008481526020019081526020016000205490508181146128e4576000600660008673ffffffffffffffffffffffffffffffffffffffff1673ffffffffffffffffffffffffffffffffffffffff168152602001908152602001600020600084815260200190815260200160002054905080600660008773ffffffffffffffffffffffffffffffffffffffff1673ffffffffffffffffffffffffffffffffffffffff168152602001908152602001600020600084815260200190815260200160002081905550816007600083815260200190815260200160002081905550505b6007600084815260200190815260200160002060009055600660008573ffffffffffffffffffffffffffffffffffffffff1673ffffffffffffffffffffffffffffffffffffffff16815260200190815260200160002060008381526020019081526020016000206000905550505050565b600060016008805490506129699190613abc565b905060006009600084815260200190815260200160002054905060006008838154811061299957612998613692565b5b9060005260206000200154905080600883815481106129bb576129ba613692565b5b906000526020600020018190555081600960008381526020019081526020016000208190555060096000858152602001908152602001600020600090556008805480612a0a57612a09614173565b5b6001900381819060005260206000200160009055905550505050565b6000612a3183610caf565b905081600660008573ffffffffffffffffffffffffffffffffffffffff1673ffffffffffffffffffffffffffffffffffffffff168152602001908152602001600020600083815260200190815260200160002081905550806007600084815260200190815260200160002081905550505050565b6000604051905090565b600080fd5b600080fd5b60007fffffffff0000000000000000000000000000000000000000000000000000000082169050919050565b612aee81612ab9565b8114612af957600080fd5b50565b600081359050612b0b81612ae5565b92915050565b600060208284031215612b2757612b26612aaf565b5b6000612b3584828501612afc565b91505092915050565b60008115159050919050565b612b5381612b3e565b82525050565b6000602082019050612b6e6000830184612b4a565b92915050565b600081519050919050565b600082825260208201905092915050565b60005b83811015612bae578082015181840152602081019050612b93565b83811115612bbd576000848401525b50505050565b6000601f19601f8301169050919050565b6000612bdf82612b74565b612be98185612b7f565b9350612bf9818560208601612b90565b612c0281612bc3565b840191505092915050565b60006020820190508181036000830152612c278184612bd4565b905092915050565b6000819050919050565b612c4281612c2f565b8114612c4d57600080fd5b50565b600081359050612c5f81612c39565b92915050565b600060208284031215612c7b57612c7a612aaf565b5b6000612c8984828501612c50565b91505092915050565b600073ffffffffffffffffffffffffffffffffffffffff82169050919050565b6000612cbd82612c92565b9050919050565b612ccd81612cb2565b82525050565b6000602082019050612ce86000830184612cc4565b92915050565b612cf781612cb2565b8114612d0257600080fd5b50565b600081359050612d1481612cee565b92915050565b60008060408385031215612d3157612d30612aaf565b5b6000612d3f85828601612d05565b9250506020612d5085828601612c50565b9150509250929050565b612d6381612c2f565b82525050565b6000602082019050612d7e6000830184612d5a565b92915050565b600080600060608486031215612d9d57612d9c612aaf565b5b6000612dab86828701612d05565b9350506020612dbc86828701612d05565b9250506040612dcd86828701612c50565b9150509250925092565b6000819050919050565b612dea81612dd7565b8114612df557600080fd5b50565b600081359050612e0781612de1565b92915050565b600060208284031215612e2357612e22612aaf565b5b6000612e3184828501612df8565b91505092915050565b612e4381612dd7565b82525050565b6000602082019050612e5e6000830184612e3a565b92915050565b60008060408385031215612e7b57612e7a612aaf565b5b6000612e8985828601612df8565b9250506020612e9a85828601612d05565b9150509250929050565b600060208284031215612eba57612eb9612aaf565b5b6000612ec884828501612d05565b91505092915050565b612eda81612b3e565b8114612ee557600080fd5b50565b600081359050612ef781612ed1565b92915050565b60008060408385031215612f1457612f13612aaf565b5b6000612f2285828601612d05565b9250506020612f3385828601612ee8565b9150509250929050565b600080fd5b600080fd5b7f4e487b7100000000000000000000000000000000000000000000000000000000600052604160045260246000fd5b612f7f82612bc3565b810181811067ffffffffffffffff82111715612f9e57612f9d612f47565b5b80604052505050565b6000612fb1612aa5565b9050612fbd8282612f76565b919050565b600067ffffffffffffffff821115612fdd57612fdc612f47565b5b612fe682612bc3565b9050602081019050919050565b82818337600083830152505050565b600061301561301084612fc2565b612fa7565b90508281526020810184848401111561303157613030612f42565b5b61303c848285612ff3565b509392505050565b600082601f83011261305957613058612f3d565b5b8135613069848260208601613002565b91505092915050565b6000806000806080858703121561308c5761308b612aaf565b5b600061309a87828801612d05565b94505060206130ab87828801612d05565b93505060406130bc87828801612c50565b925050606085013567ffffffffffffffff8111156130dd576130dc612ab4565b5b6130e987828801613044565b91505092959194509250565b6000806040838503121561310c5761310b612aaf565b5b600061311a85828601612d05565b925050602061312b85828601612d05565b9150509250929050565b7f4e487b7100000000000000000000000000000000000000000000000000000000600052602260045260246000fd5b6000600282049050600182168061317c57607f821691505b602082108114156131905761318f613135565b5b50919050565b7f4552433732313a20617070726f76656420717565727920666f72206e6f6e657860008201527f697374656e7420746f6b656e0000000000000000000000000000000000000000602082015250565b60006131f2602c83612b7f565b91506131fd82613196565b604082019050919050565b60006020820190508181036000830152613221816131e5565b9050919050565b7f4552433732313a20617070726f76616c20746f2063757272656e74206f776e6560008201527f7200000000000000000000000000000000000000000000000000000000000000602082015250565b6000613284602183612b7f565b915061328f82613228565b604082019050919050565b600060208201905081810360008301526132b381613277565b9050919050565b7f4552433732313a20617070726f76652063616c6c6572206973206e6f74206f7760008201527f6e6572206e6f7220617070726f76656420666f7220616c6c0000000000000000602082015250565b6000613316603883612b7f565b9150613321826132ba565b604082019050919050565b6000602082019050818103600083015261334581613309565b9050919050565b7f4552433732313a207472616e736665722063616c6c6572206973206e6f74206f60008201527f776e6572206e6f7220617070726f766564000000000000000000000000000000602082015250565b60006133a8603183612b7f565b91506133b38261334c565b604082019050919050565b600060208201905081810360008301526133d78161339b565b9050919050565b7f455243373231456e756d657261626c653a206f776e657220696e646578206f7560008201527f74206f6620626f756e6473000000000000000000000000000000000000000000602082015250565b600061343a602b83612b7f565b9150613445826133de565b604082019050919050565b600060208201905081810360008301526134698161342d565b9050919050565b7f416363657373436f6e74726f6c3a2063616e206f6e6c792072656e6f756e636560008201527f20726f6c657320666f722073656c660000000000000000000000000000000000602082015250565b60006134cc602f83612b7f565b91506134d782613470565b604082019050919050565b600060208201905081810360008301526134fb816134bf565b9050919050565b7f55736572206163636f756e742069736e742077686974656c6973746564000000600082015250565b6000613538601d83612b7f565b915061354382613502565b602082019050919050565b600060208201905081810360008301526135678161352b565b9050919050565b7f4552433732314275726e61626c653a2063616c6c6572206973206e6f74206f7760008201527f6e6572206e6f7220617070726f76656400000000000000000000000000000000602082015250565b60006135ca603083612b7f565b91506135d58261356e565b604082019050919050565b600060208201905081810360008301526135f9816135bd565b9050919050565b7f455243373231456e756d657261626c653a20676c6f62616c20696e646578206f60008201527f7574206f6620626f756e64730000000000000000000000000000000000000000602082015250565b600061365c602c83612b7f565b915061366782613600565b604082019050919050565b6000602082019050818103600083015261368b8161364f565b9050919050565b7f4e487b7100000000000000000000000000000000000000000000000000000000600052603260045260246000fd5b7f4552433732313a206f776e657220717565727920666f72206e6f6e657869737460008201527f656e7420746f6b656e0000000000000000000000000000000000000000000000602082015250565b600061371d602983612b7f565b9150613728826136c1565b604082019050919050565b6000602082019050818103600083015261374c81613710565b9050919050565b7f4552433732313a2062616c616e636520717565727920666f7220746865207a6560008201527f726f206164647265737300000000000000000000000000000000000000000000602082015250565b60006137af602a83612b7f565b91506137ba82613753565b604082019050919050565b600060208201905081810360008301526137de816137a2565b9050919050565b7f4552433732314d657461646174613a2055524920717565727920666f72206e6f60008201527f6e6578697374656e7420746f6b656e0000000000000000000000000000000000602082015250565b6000613841602f83612b7f565b915061384c826137e5565b604082019050919050565b6000602082019050818103600083015261387081613834565b9050919050565b600081905092915050565b600061388d82612b74565b6138978185613877565b93506138a7818560208601612b90565b80840191505092915050565b60006138bf8285613882565b91506138cb8284613882565b91508190509392505050565b7f4552433732313a206f70657261746f7220717565727920666f72206e6f6e657860008201527f697374656e7420746f6b656e0000000000000000000000000000000000000000602082015250565b6000613933602c83612b7f565b915061393e826138d7565b604082019050919050565b6000602082019050818103600083015261396281613926565b9050919050565b7f4552433732313a207472616e736665722066726f6d20696e636f72726563742060008201527f6f776e6572000000000000000000000000000000000000000000000000000000602082015250565b60006139c5602583612b7f565b91506139d082613969565b604082019050919050565b600060208201905081810360008301526139f4816139b8565b9050919050565b7f4552433732313a207472616e7366657220746f20746865207a65726f2061646460008201527f7265737300000000000000000000000000000000000000000000000000000000602082015250565b6000613a57602483612b7f565b9150613a62826139fb565b604082019050919050565b60006020820190508181036000830152613a8681613a4a565b9050919050565b7f4e487b7100000000000000000000000000000000000000000000000000000000600052601160045260246000fd5b6000613ac782612c2f565b9150613ad283612c2f565b925082821015613ae557613ae4613a8d565b5b828203905092915050565b6000613afb82612c2f565b9150613b0683612c2f565b9250827fffffffffffffffffffffffffffffffffffffffffffffffffffffffffffffffff03821115613b3b57613b3a613a8d565b5b828201905092915050565b7f416363657373436f6e74726f6c3a206163636f756e7420000000000000000000600082015250565b6000613b7c601783613877565b9150613b8782613b46565b601782019050919050565b7f206973206d697373696e6720726f6c6520000000000000000000000000000000600082015250565b6000613bc8601183613877565b9150613bd382613b92565b601182019050919050565b6000613be982613b6f565b9150613bf58285613882565b9150613c0082613bbb565b9150613c0c8284613882565b91508190509392505050565b7f5061757361626c653a206e6f7420706175736564000000000000000000000000600082015250565b6000613c4e601483612b7f565b9150613c5982613c18565b602082019050919050565b60006020820190508181036000830152613c7d81613c41565b9050919050565b7f5061757361626c653a2070617573656400000000000000000000000000000000600082015250565b6000613cba601083612b7f565b9150613cc582613c84565b602082019050919050565b60006020820190508181036000830152613ce981613cad565b9050919050565b7f4552433732313a20617070726f766520746f2063616c6c657200000000000000600082015250565b6000613d26601983612b7f565b9150613d3182613cf0565b602082019050919050565b60006020820190508181036000830152613d5581613d19565b9050919050565b7f4552433732313a207472616e7366657220746f206e6f6e20455243373231526560008201527f63656976657220696d706c656d656e7465720000000000000000000000000000602082015250565b6000613db8603283612b7f565b9150613dc382613d5c565b604082019050919050565b60006020820190508181036000830152613de781613dab565b9050919050565b6000613df982612c2f565b91507fffffffffffffffffffffffffffffffffffffffffffffffffffffffffffffffff821415613e2c57613e2b613a8d565b5b600182019050919050565b7f4e487b7100000000000000000000000000000000000000000000000000000000600052601260045260246000fd5b6000613e7182612c2f565b9150613e7c83612c2f565b925082613e8c57613e8b613e37565b5b828204905092915050565b6000613ea282612c2f565b9150613ead83612c2f565b925082613ebd57613ebc613e37565b5b828206905092915050565b6000613ed382612c2f565b9150613ede83612c2f565b9250817fffffffffffffffffffffffffffffffffffffffffffffffffffffffffffffffff0483118215151615613f1757613f16613a8d565b5b828202905092915050565b6000613f2d82612c2f565b91506000821415613f4157613f40613a8d565b5b600182039050919050565b7f537472696e67733a20686578206c656e67746820696e73756666696369656e74600082015250565b6000613f82602083612b7f565b9150613f8d82613f4c565b602082019050919050565b60006020820190508181036000830152613fb181613f75565b9050919050565b600081519050919050565b600082825260208201905092915050565b6000613fdf82613fb8565b613fe98185613fc3565b9350613ff9818560208601612b90565b61400281612bc3565b840191505092915050565b60006080820190506140226000830187612cc4565b61402f6020830186612cc4565b61403c6040830185612d5a565b818103606083015261404e8184613fd4565b905095945050505050565b60008151905061406881612ae5565b92915050565b60006020828403121561408457614083612aaf565b5b600061409284828501614059565b91505092915050565b7f4552433732313a206d696e7420746f20746865207a65726f2061646472657373600082015250565b60006140d1602083612b7f565b91506140dc8261409b565b602082019050919050565b60006020820190508181036000830152614100816140c4565b9050919050565b7f4552433732313a20746f6b656e20616c7265616479206d696e74656400000000600082015250565b600061413d601c83612b7f565b915061414882614107565b602082019050919050565b6000602082019050818103600083015261416c81614130565b9050919050565b7f4e487b7100000000000000000000000000000000000000000000000000000000600052603160045260246000fdfea26469706673582212208c2c841f578d02f554934931bfd75a258230bf61c84badddbd7087620fc81cdb64736f6c634300080b0033",
  "immutableReferences": {},
  "source": "// SPDX-License-Identifier: MIT\npragma solidity ^0.8.11;\n\nimport \"@openzeppelin/contracts/token/ERC721/ERC721.sol\";\nimport \"@openzeppelin/contracts/token/ERC721/extensions/ERC721Enumerable.sol\";\nimport \"@openzeppelin/contracts/security/Pausable.sol\";\nimport \"@openzeppelin/contracts/access/AccessControl.sol\";\nimport \"@openzeppelin/contracts/token/ERC721/extensions/ERC721Burnable.sol\";\nimport \"@openzeppelin/contracts/utils/Counters.sol\";\n\ncontract MIRLs is ERC721, ERC721Enumerable, Pausable, AccessControl, ERC721Burnable {\n    using Counters for Counters.Counter;\n\n    bytes32 public constant PAUSER_ROLE = keccak256(\"PAUSER_ROLE\");\n    bytes32 public constant MINTER_ROLE = keccak256(\"MINTER_ROLE\");\n    bytes32 public constant WHITE_LIST_ROLE = keccak256(\"WHITE_LIST_ROLE\");\n\n    Counters.Counter private _tokenIdCounter;\n\n    constructor() ERC721(\"MIRLs\", \"MIRLs\") {\n        _grantRole(DEFAULT_ADMIN_ROLE, msg.sender);\n        _grantRole(PAUSER_ROLE, msg.sender);\n        _grantRole(MINTER_ROLE, msg.sender);\n        _grantRole(WHITE_LIST_ROLE, msg.sender);\n    }\n\n    function _baseURI() internal pure override returns (string memory) {\n        return \"https://random.com\";\n    }\n\n    function pause() public onlyRole(PAUSER_ROLE) {\n        _pause();\n    }\n\n    function unpause() public onlyRole(PAUSER_ROLE) {\n        _unpause();\n    }\n\n    function safeMint(address to) public onlyRole(MINTER_ROLE) {\n        require(hasRole(WHITE_LIST_ROLE, to), \"User account isnt whitelisted\");\n        uint256 tokenId = _tokenIdCounter.current();\n        _tokenIdCounter.increment();\n        _safeMint(to, tokenId);\n    }\n\n    function _beforeTokenTransfer(address from, address to, uint256 tokenId)\n        internal\n        whenNotPaused\n        override(ERC721, ERC721Enumerable)\n    {\n        super._beforeTokenTransfer(from, to, tokenId);\n    }\n\n    // The following functions are overrides required by Solidity.\n\n    function supportsInterface(bytes4 interfaceId)\n        public\n        view\n        override(ERC721, ERC721Enumerable, AccessControl)\n        returns (bool)\n    {\n        return super.supportsInterface(interfaceId);\n    }\n}\n",
  "sourcePath": "/home/hungdevjs/Documents/blockchain-tuts/smart-contract-react/truffle/contracts/MIRLs.sol",
  "compiler": {
    "name": "solc",
    "version": "0.8.11+commit.d7f03943.Emscripten.clang"
  },
  "schemaVersion": "3.4.5",
  "updatedAt": "2022-02-22T09:27:35.438Z",
  "networkType": "ethereum",
  "devdoc": {
    "kind": "dev",
    "methods": {
      "approve(address,uint256)": {
        "details": "See {IERC721-approve}."
      },
      "balanceOf(address)": {
        "details": "See {IERC721-balanceOf}."
      },
      "burn(uint256)": {
        "details": "Burns `tokenId`. See {ERC721-_burn}. Requirements: - The caller must own `tokenId` or be an approved operator."
      },
      "getApproved(uint256)": {
        "details": "See {IERC721-getApproved}."
      },
      "getRoleAdmin(bytes32)": {
        "details": "Returns the admin role that controls `role`. See {grantRole} and {revokeRole}. To change a role's admin, use {_setRoleAdmin}."
      },
      "grantRole(bytes32,address)": {
        "details": "Grants `role` to `account`. If `account` had not been already granted `role`, emits a {RoleGranted} event. Requirements: - the caller must have ``role``'s admin role."
      },
      "hasRole(bytes32,address)": {
        "details": "Returns `true` if `account` has been granted `role`."
      },
      "isApprovedForAll(address,address)": {
        "details": "See {IERC721-isApprovedForAll}."
      },
      "name()": {
        "details": "See {IERC721Metadata-name}."
      },
      "ownerOf(uint256)": {
        "details": "See {IERC721-ownerOf}."
      },
      "paused()": {
        "details": "Returns true if the contract is paused, and false otherwise."
      },
      "renounceRole(bytes32,address)": {
        "details": "Revokes `role` from the calling account. Roles are often managed via {grantRole} and {revokeRole}: this function's purpose is to provide a mechanism for accounts to lose their privileges if they are compromised (such as when a trusted device is misplaced). If the calling account had been revoked `role`, emits a {RoleRevoked} event. Requirements: - the caller must be `account`."
      },
      "revokeRole(bytes32,address)": {
        "details": "Revokes `role` from `account`. If `account` had been granted `role`, emits a {RoleRevoked} event. Requirements: - the caller must have ``role``'s admin role."
      },
      "safeTransferFrom(address,address,uint256)": {
        "details": "See {IERC721-safeTransferFrom}."
      },
      "safeTransferFrom(address,address,uint256,bytes)": {
        "details": "See {IERC721-safeTransferFrom}."
      },
      "setApprovalForAll(address,bool)": {
        "details": "See {IERC721-setApprovalForAll}."
      },
      "symbol()": {
        "details": "See {IERC721Metadata-symbol}."
      },
      "tokenByIndex(uint256)": {
        "details": "See {IERC721Enumerable-tokenByIndex}."
      },
      "tokenOfOwnerByIndex(address,uint256)": {
        "details": "See {IERC721Enumerable-tokenOfOwnerByIndex}."
      },
      "tokenURI(uint256)": {
        "details": "See {IERC721Metadata-tokenURI}."
      },
      "totalSupply()": {
        "details": "See {IERC721Enumerable-totalSupply}."
      },
      "transferFrom(address,address,uint256)": {
        "details": "See {IERC721-transferFrom}."
      }
    },
    "version": 1
  },
  "userdoc": {
    "kind": "user",
    "methods": {},
    "version": 1
  }
}