{
  "contractName": "MIRLs",
  "abi": [
    {
      "inputs": [],
      "stateMutability": "nonpayable",
      "type": "constructor"
    },
    {
      "anonymous": false,
      "inputs": [
        {
          "indexed": true,
          "internalType": "address",
          "name": "owner",
          "type": "address"
        },
        {
          "indexed": true,
          "internalType": "address",
          "name": "approved",
          "type": "address"
        },
        {
          "indexed": true,
          "internalType": "uint256",
          "name": "tokenId",
          "type": "uint256"
        }
      ],
      "name": "Approval",
      "type": "event"
    },
    {
      "anonymous": false,
      "inputs": [
        {
          "indexed": true,
          "internalType": "address",
          "name": "owner",
          "type": "address"
        },
        {
          "indexed": true,
          "internalType": "address",
          "name": "operator",
          "type": "address"
        },
        {
          "indexed": false,
          "internalType": "bool",
          "name": "approved",
          "type": "bool"
        }
      ],
      "name": "ApprovalForAll",
      "type": "event"
    },
    {
      "anonymous": false,
      "inputs": [
        {
          "indexed": false,
          "internalType": "address",
          "name": "account",
          "type": "address"
        }
      ],
      "name": "Paused",
      "type": "event"
    },
    {
      "anonymous": false,
      "inputs": [
        {
          "indexed": true,
          "internalType": "bytes32",
          "name": "role",
          "type": "bytes32"
        },
        {
          "indexed": true,
          "internalType": "bytes32",
          "name": "previousAdminRole",
          "type": "bytes32"
        },
        {
          "indexed": true,
          "internalType": "bytes32",
          "name": "newAdminRole",
          "type": "bytes32"
        }
      ],
      "name": "RoleAdminChanged",
      "type": "event"
    },
    {
      "anonymous": false,
      "inputs": [
        {
          "indexed": true,
          "internalType": "bytes32",
          "name": "role",
          "type": "bytes32"
        },
        {
          "indexed": true,
          "internalType": "address",
          "name": "account",
          "type": "address"
        },
        {
          "indexed": true,
          "internalType": "address",
          "name": "sender",
          "type": "address"
        }
      ],
      "name": "RoleGranted",
      "type": "event"
    },
    {
      "anonymous": false,
      "inputs": [
        {
          "indexed": true,
          "internalType": "bytes32",
          "name": "role",
          "type": "bytes32"
        },
        {
          "indexed": true,
          "internalType": "address",
          "name": "account",
          "type": "address"
        },
        {
          "indexed": true,
          "internalType": "address",
          "name": "sender",
          "type": "address"
        }
      ],
      "name": "RoleRevoked",
      "type": "event"
    },
    {
      "anonymous": false,
      "inputs": [
        {
          "indexed": true,
          "internalType": "address",
          "name": "from",
          "type": "address"
        },
        {
          "indexed": true,
          "internalType": "address",
          "name": "to",
          "type": "address"
        },
        {
          "indexed": true,
          "internalType": "uint256",
          "name": "tokenId",
          "type": "uint256"
        }
      ],
      "name": "Transfer",
      "type": "event"
    },
    {
      "anonymous": false,
      "inputs": [
        {
          "indexed": false,
          "internalType": "address",
          "name": "account",
          "type": "address"
        }
      ],
      "name": "Unpaused",
      "type": "event"
    },
    {
      "inputs": [],
      "name": "DEFAULT_ADMIN_ROLE",
      "outputs": [
        {
          "internalType": "bytes32",
          "name": "",
          "type": "bytes32"
        }
      ],
      "stateMutability": "view",
      "type": "function"
    },
    {
      "inputs": [],
      "name": "MINTER_ROLE",
      "outputs": [
        {
          "internalType": "bytes32",
          "name": "",
          "type": "bytes32"
        }
      ],
      "stateMutability": "view",
      "type": "function"
    },
    {
      "inputs": [],
      "name": "PAUSER_ROLE",
      "outputs": [
        {
          "internalType": "bytes32",
          "name": "",
          "type": "bytes32"
        }
      ],
      "stateMutability": "view",
      "type": "function"
    },
    {
      "inputs": [],
      "name": "WHITE_LIST_ROLE",
      "outputs": [
        {
          "internalType": "bytes32",
          "name": "",
          "type": "bytes32"
        }
      ],
      "stateMutability": "view",
      "type": "function"
    },
    {
      "inputs": [
        {
          "internalType": "address",
          "name": "to",
          "type": "address"
        },
        {
          "internalType": "uint256",
          "name": "tokenId",
          "type": "uint256"
        }
      ],
      "name": "approve",
      "outputs": [],
      "stateMutability": "nonpayable",
      "type": "function"
    },
    {
      "inputs": [
        {
          "internalType": "address",
          "name": "owner",
          "type": "address"
        }
      ],
      "name": "balanceOf",
      "outputs": [
        {
          "internalType": "uint256",
          "name": "",
          "type": "uint256"
        }
      ],
      "stateMutability": "view",
      "type": "function"
    },
    {
      "inputs": [
        {
          "internalType": "uint256",
          "name": "tokenId",
          "type": "uint256"
        }
      ],
      "name": "burn",
      "outputs": [],
      "stateMutability": "nonpayable",
      "type": "function"
    },
    {
      "inputs": [
        {
          "internalType": "uint256",
          "name": "tokenId",
          "type": "uint256"
        }
      ],
      "name": "getApproved",
      "outputs": [
        {
          "internalType": "address",
          "name": "",
          "type": "address"
        }
      ],
      "stateMutability": "view",
      "type": "function"
    },
    {
      "inputs": [
        {
          "internalType": "bytes32",
          "name": "role",
          "type": "bytes32"
        }
      ],
      "name": "getRoleAdmin",
      "outputs": [
        {
          "internalType": "bytes32",
          "name": "",
          "type": "bytes32"
        }
      ],
      "stateMutability": "view",
      "type": "function"
    },
    {
      "inputs": [
        {
          "internalType": "bytes32",
          "name": "role",
          "type": "bytes32"
        },
        {
          "internalType": "address",
          "name": "account",
          "type": "address"
        }
      ],
      "name": "grantRole",
      "outputs": [],
      "stateMutability": "nonpayable",
      "type": "function"
    },
    {
      "inputs": [
        {
          "internalType": "bytes32",
          "name": "role",
          "type": "bytes32"
        },
        {
          "internalType": "address",
          "name": "account",
          "type": "address"
        }
      ],
      "name": "hasRole",
      "outputs": [
        {
          "internalType": "bool",
          "name": "",
          "type": "bool"
        }
      ],
      "stateMutability": "view",
      "type": "function"
    },
    {
      "inputs": [
        {
          "internalType": "address",
          "name": "owner",
          "type": "address"
        },
        {
          "internalType": "address",
          "name": "operator",
          "type": "address"
        }
      ],
      "name": "isApprovedForAll",
      "outputs": [
        {
          "internalType": "bool",
          "name": "",
          "type": "bool"
        }
      ],
      "stateMutability": "view",
      "type": "function"
    },
    {
      "inputs": [],
      "name": "name",
      "outputs": [
        {
          "internalType": "string",
          "name": "",
          "type": "string"
        }
      ],
      "stateMutability": "view",
      "type": "function"
    },
    {
      "inputs": [
        {
          "internalType": "uint256",
          "name": "tokenId",
          "type": "uint256"
        }
      ],
      "name": "ownerOf",
      "outputs": [
        {
          "internalType": "address",
          "name": "",
          "type": "address"
        }
      ],
      "stateMutability": "view",
      "type": "function"
    },
    {
      "inputs": [],
      "name": "paused",
      "outputs": [
        {
          "internalType": "bool",
          "name": "",
          "type": "bool"
        }
      ],
      "stateMutability": "view",
      "type": "function"
    },
    {
      "inputs": [
        {
          "internalType": "bytes32",
          "name": "role",
          "type": "bytes32"
        },
        {
          "internalType": "address",
          "name": "account",
          "type": "address"
        }
      ],
      "name": "renounceRole",
      "outputs": [],
      "stateMutability": "nonpayable",
      "type": "function"
    },
    {
      "inputs": [
        {
          "internalType": "bytes32",
          "name": "role",
          "type": "bytes32"
        },
        {
          "internalType": "address",
          "name": "account",
          "type": "address"
        }
      ],
      "name": "revokeRole",
      "outputs": [],
      "stateMutability": "nonpayable",
      "type": "function"
    },
    {
      "inputs": [
        {
          "internalType": "address",
          "name": "from",
          "type": "address"
        },
        {
          "internalType": "address",
          "name": "to",
          "type": "address"
        },
        {
          "internalType": "uint256",
          "name": "tokenId",
          "type": "uint256"
        }
      ],
      "name": "safeTransferFrom",
      "outputs": [],
      "stateMutability": "nonpayable",
      "type": "function"
    },
    {
      "inputs": [
        {
          "internalType": "address",
          "name": "from",
          "type": "address"
        },
        {
          "internalType": "address",
          "name": "to",
          "type": "address"
        },
        {
          "internalType": "uint256",
          "name": "tokenId",
          "type": "uint256"
        },
        {
          "internalType": "bytes",
          "name": "_data",
          "type": "bytes"
        }
      ],
      "name": "safeTransferFrom",
      "outputs": [],
      "stateMutability": "nonpayable",
      "type": "function"
    },
    {
      "inputs": [
        {
          "internalType": "address",
          "name": "operator",
          "type": "address"
        },
        {
          "internalType": "bool",
          "name": "approved",
          "type": "bool"
        }
      ],
      "name": "setApprovalForAll",
      "outputs": [],
      "stateMutability": "nonpayable",
      "type": "function"
    },
    {
      "inputs": [],
      "name": "symbol",
      "outputs": [
        {
          "internalType": "string",
          "name": "",
          "type": "string"
        }
      ],
      "stateMutability": "view",
      "type": "function"
    },
    {
      "inputs": [
        {
          "internalType": "uint256",
          "name": "index",
          "type": "uint256"
        }
      ],
      "name": "tokenByIndex",
      "outputs": [
        {
          "internalType": "uint256",
          "name": "",
          "type": "uint256"
        }
      ],
      "stateMutability": "view",
      "type": "function"
    },
    {
      "inputs": [
        {
          "internalType": "address",
          "name": "owner",
          "type": "address"
        },
        {
          "internalType": "uint256",
          "name": "index",
          "type": "uint256"
        }
      ],
      "name": "tokenOfOwnerByIndex",
      "outputs": [
        {
          "internalType": "uint256",
          "name": "",
          "type": "uint256"
        }
      ],
      "stateMutability": "view",
      "type": "function"
    },
    {
      "inputs": [
        {
          "internalType": "uint256",
          "name": "tokenId",
          "type": "uint256"
        }
      ],
      "name": "tokenURI",
      "outputs": [
        {
          "internalType": "string",
          "name": "",
          "type": "string"
        }
      ],
      "stateMutability": "view",
      "type": "function"
    },
    {
      "inputs": [],
      "name": "totalSupply",
      "outputs": [
        {
          "internalType": "uint256",
          "name": "",
          "type": "uint256"
        }
      ],
      "stateMutability": "view",
      "type": "function"
    },
    {
      "inputs": [
        {
          "internalType": "address",
          "name": "from",
          "type": "address"
        },
        {
          "internalType": "address",
          "name": "to",
          "type": "address"
        },
        {
          "internalType": "uint256",
          "name": "tokenId",
          "type": "uint256"
        }
      ],
      "name": "transferFrom",
      "outputs": [],
      "stateMutability": "nonpayable",
      "type": "function"
    },
    {
      "inputs": [],
      "name": "initialize",
      "outputs": [],
      "stateMutability": "nonpayable",
      "type": "function"
    },
    {
      "inputs": [],
      "name": "pause",
      "outputs": [],
      "stateMutability": "nonpayable",
      "type": "function"
    },
    {
      "inputs": [],
      "name": "unpause",
      "outputs": [],
      "stateMutability": "nonpayable",
      "type": "function"
    },
    {
      "inputs": [
        {
          "internalType": "address",
          "name": "to",
          "type": "address"
        }
      ],
      "name": "safeMint",
      "outputs": [],
      "stateMutability": "nonpayable",
      "type": "function"
    },
    {
      "inputs": [
        {
          "internalType": "bytes4",
          "name": "interfaceId",
          "type": "bytes4"
        }
      ],
      "name": "supportsInterface",
      "outputs": [
        {
          "internalType": "bool",
          "name": "",
          "type": "bool"
        }
      ],
      "stateMutability": "view",
      "type": "function"
    }
  ],
  "bytecode": "0x60806040523480156200001157600080fd5b50600060019054906101000a900460ff166200003c5760008054906101000a900460ff16156200004d565b6200004c6200010960201b60201c565b5b6200008f576040517f08c379a00000000000000000000000000000000000000000000000000000000081526004016200008690620001d1565b60405180910390fd5b60008060019054906101000a900460ff161590508015620000e0576001600060016101000a81548160ff02191690831515021790555060016000806101000a81548160ff0219169083151502179055505b8015620001025760008060016101000a81548160ff0219169083151502179055505b50620001f3565b600062000121306200012760201b6200130a1760201c565b15905090565b6000808273ffffffffffffffffffffffffffffffffffffffff163b119050919050565b600082825260208201905092915050565b7f496e697469616c697a61626c653a20636f6e747261637420697320616c72656160008201527f647920696e697469616c697a6564000000000000000000000000000000000000602082015250565b6000620001b9602e836200014a565b9150620001c6826200015b565b604082019050919050565b60006020820190508181036000830152620001ec81620001aa565b9050919050565b61486080620002036000396000f3fe608060405234801561001057600080fd5b50600436106101e55760003560e01c80635c975abb1161010f578063a22cb465116100a2578063d539139311610071578063d539139314610568578063d547741f14610586578063e63ab1e9146105a2578063e985e9c5146105c0576101e5565b8063a22cb465146104e2578063b88d4fde146104fe578063c50a557c1461051a578063c87b56dd14610538576101e5565b80638456cb59116100de5780638456cb591461046c57806391d148541461047657806395d89b41146104a6578063a217fddf146104c4576101e5565b80635c975abb146103e45780636352211e1461040257806370a08231146104325780638129fc1c14610462576101e5565b80632f2ff15d1161018757806340d097c31161015657806340d097c31461036057806342842e0e1461037c57806342966c68146103985780634f6ccce7146103b4576101e5565b80632f2ff15d146102ee5780632f745c591461030a57806336568abe1461033a5780633f4ba83a14610356576101e5565b8063095ea7b3116101c3578063095ea7b31461026857806318160ddd1461028457806323b872dd146102a2578063248a9ca3146102be576101e5565b806301ffc9a7146101ea57806306fdde031461021a578063081812fc14610238575b600080fd5b61020460048036038101906101ff9190613075565b6105f0565b60405161021191906130bd565b60405180910390f35b610222610602565b60405161022f9190613171565b60405180910390f35b610252600480360381019061024d91906131c9565b610694565b60405161025f9190613237565b60405180910390f35b610282600480360381019061027d919061327e565b610719565b005b61028c610831565b60405161029991906132cd565b60405180910390f35b6102bc60048036038101906102b791906132e8565b61083e565b005b6102d860048036038101906102d39190613371565b61089e565b6040516102e591906133ad565b60405180910390f35b610308600480360381019061030391906133c8565b6108be565b005b610324600480360381019061031f919061327e565b6108e7565b60405161033191906132cd565b60405180910390f35b610354600480360381019061034f91906133c8565b61098c565b005b61035e610a0f565b005b61037a60048036038101906103759190613408565b610a4c565b005b610396600480360381019061039191906132e8565b610b10565b005b6103b260048036038101906103ad91906131c9565b610b30565b005b6103ce60048036038101906103c991906131c9565b610b8c565b6040516103db91906132cd565b60405180910390f35b6103ec610bfd565b6040516103f991906130bd565b60405180910390f35b61041c600480360381019061041791906131c9565b610c14565b6040516104299190613237565b60405180910390f35b61044c60048036038101906104479190613408565b610cc6565b60405161045991906132cd565b60405180910390f35b61046a610d7e565b005b610474610f81565b005b610490600480360381019061048b91906133c8565b610fbe565b60405161049d91906130bd565b60405180910390f35b6104ae611029565b6040516104bb9190613171565b60405180910390f35b6104cc6110bb565b6040516104d991906133ad565b60405180910390f35b6104fc60048036038101906104f79190613461565b6110c2565b005b610518600480360381019061051391906135d6565b6110d8565b005b61052261113a565b60405161052f91906133ad565b60405180910390f35b610552600480360381019061054d91906131c9565b61115e565b60405161055f9190613171565b60405180910390f35b610570611205565b60405161057d91906133ad565b60405180910390f35b6105a0600480360381019061059b91906133c8565b611229565b005b6105aa611252565b6040516105b791906133ad565b60405180910390f35b6105da60048036038101906105d59190613659565b611276565b6040516105e791906130bd565b60405180910390f35b60006105fb8261132d565b9050919050565b606060658054610611906136c8565b80601f016020809104026020016040519081016040528092919081815260200182805461063d906136c8565b801561068a5780601f1061065f5761010080835404028352916020019161068a565b820191906000526020600020905b81548152906001019060200180831161066d57829003601f168201915b5050505050905090565b600061069f826113a7565b6106de576040517f08c379a00000000000000000000000000000000000000000000000000000000081526004016106d59061376c565b60405180910390fd5b6069600083815260200190815260200160002060009054906101000a900473ffffffffffffffffffffffffffffffffffffffff169050919050565b600061072482610c14565b90508073ffffffffffffffffffffffffffffffffffffffff168373ffffffffffffffffffffffffffffffffffffffff161415610795576040517f08c379a000000000000000000000000000000000000000000000000000000000815260040161078c906137fe565b60405180910390fd5b8073ffffffffffffffffffffffffffffffffffffffff166107b4611413565b73ffffffffffffffffffffffffffffffffffffffff1614806107e357506107e2816107dd611413565b611276565b5b610822576040517f08c379a000000000000000000000000000000000000000000000000000000000815260040161081990613890565b60405180910390fd5b61082c838361141b565b505050565b6000609980549050905090565b61084f610849611413565b826114d4565b61088e576040517f08c379a000000000000000000000000000000000000000000000000000000000815260040161088590613922565b60405180910390fd5b6108998383836115b2565b505050565b600060fb6000838152602001908152602001600020600101549050919050565b6108c78261089e565b6108d8816108d3611413565b611819565b6108e283836118b6565b505050565b60006108f283610cc6565b8210610933576040517f08c379a000000000000000000000000000000000000000000000000000000000815260040161092a906139b4565b60405180910390fd5b609760008473ffffffffffffffffffffffffffffffffffffffff1673ffffffffffffffffffffffffffffffffffffffff168152602001908152602001600020600083815260200190815260200160002054905092915050565b610994611413565b73ffffffffffffffffffffffffffffffffffffffff168173ffffffffffffffffffffffffffffffffffffffff1614610a01576040517f08c379a00000000000000000000000000000000000000000000000000000000081526004016109f890613a46565b60405180910390fd5b610a0b8282611997565b5050565b7f65d7a28e3265b37a6474929f336521b332c1681b933f6cb9f3376673440d862a610a4181610a3c611413565b611819565b610a49611a79565b50565b7f9f2df0fed2c77648de5860a4cc508cd0818c85b8b8a1ab4ceeef8d981c8956a6610a7e81610a79611413565b611819565b610aa87f86024e89529ee90561d266fe70772355cdf7be9c9e97e3ac6b5d90ddbc85336533610fbe565b610ae7576040517f08c379a0000000000000000000000000000000000000000000000000000000008152600401610ade90613ab2565b60405180910390fd5b6000610af461015f611b1b565b9050610b0161015f611b29565b610b0b8382611b3f565b505050565b610b2b838383604051806020016040528060008152506110d8565b505050565b610b41610b3b611413565b826114d4565b610b80576040517f08c379a0000000000000000000000000000000000000000000000000000000008152600401610b7790613b44565b60405180910390fd5b610b8981611b5d565b50565b6000610b96610831565b8210610bd7576040517f08c379a0000000000000000000000000000000000000000000000000000000008152600401610bce90613bd6565b60405180910390fd5b60998281548110610beb57610bea613bf6565b5b90600052602060002001549050919050565b600060c960009054906101000a900460ff16905090565b6000806067600084815260200190815260200160002060009054906101000a900473ffffffffffffffffffffffffffffffffffffffff169050600073ffffffffffffffffffffffffffffffffffffffff168173ffffffffffffffffffffffffffffffffffffffff161415610cbd576040517f08c379a0000000000000000000000000000000000000000000000000000000008152600401610cb490613c97565b60405180910390fd5b80915050919050565b60008073ffffffffffffffffffffffffffffffffffffffff168273ffffffffffffffffffffffffffffffffffffffff161415610d37576040517f08c379a0000000000000000000000000000000000000000000000000000000008152600401610d2e90613d29565b60405180910390fd5b606860008373ffffffffffffffffffffffffffffffffffffffff1673ffffffffffffffffffffffffffffffffffffffff168152602001908152602001600020549050919050565b600060019054906101000a900460ff16610da65760008054906101000a900460ff1615610daf565b610dae611c7a565b5b610dee576040517f08c379a0000000000000000000000000000000000000000000000000000000008152600401610de590613dbb565b60405180910390fd5b60008060019054906101000a900460ff161590508015610e3e576001600060016101000a81548160ff02191690831515021790555060016000806101000a81548160ff0219169083151502179055505b610eb26040518060400160405280600581526020017f4d49524c730000000000000000000000000000000000000000000000000000008152506040518060400160405280600581526020017f4d49524c73000000000000000000000000000000000000000000000000000000815250611c8b565b610eba611ce8565b610ec2611d39565b610eca611d92565b610ed2611de3565b610edf6000801b336118b6565b610f097f65d7a28e3265b37a6474929f336521b332c1681b933f6cb9f3376673440d862a336118b6565b610f337f9f2df0fed2c77648de5860a4cc508cd0818c85b8b8a1ab4ceeef8d981c8956a6336118b6565b610f5d7f86024e89529ee90561d266fe70772355cdf7be9c9e97e3ac6b5d90ddbc853365336118b6565b8015610f7e5760008060016101000a81548160ff0219169083151502179055505b50565b7f65d7a28e3265b37a6474929f336521b332c1681b933f6cb9f3376673440d862a610fb381610fae611413565b611819565b610fbb611e34565b50565b600060fb600084815260200190815260200160002060000160008373ffffffffffffffffffffffffffffffffffffffff1673ffffffffffffffffffffffffffffffffffffffff16815260200190815260200160002060009054906101000a900460ff16905092915050565b606060668054611038906136c8565b80601f0160208091040260200160405190810160405280929190818152602001828054611064906136c8565b80156110b15780601f10611086576101008083540402835291602001916110b1565b820191906000526020600020905b81548152906001019060200180831161109457829003601f168201915b5050505050905090565b6000801b81565b6110d46110cd611413565b8383611ed7565b5050565b6110e96110e3611413565b836114d4565b611128576040517f08c379a000000000000000000000000000000000000000000000000000000000815260040161111f90613922565b60405180910390fd5b61113484848484612044565b50505050565b7f86024e89529ee90561d266fe70772355cdf7be9c9e97e3ac6b5d90ddbc85336581565b6060611169826113a7565b6111a8576040517f08c379a000000000000000000000000000000000000000000000000000000000815260040161119f90613e4d565b60405180910390fd5b60006111b26120a0565b905060008151116111d257604051806020016040528060008152506111fd565b806111dc846120dd565b6040516020016111ed929190613ea9565b6040516020818303038152906040525b915050919050565b7f9f2df0fed2c77648de5860a4cc508cd0818c85b8b8a1ab4ceeef8d981c8956a681565b6112328261089e565b6112438161123e611413565b611819565b61124d8383611997565b505050565b7f65d7a28e3265b37a6474929f336521b332c1681b933f6cb9f3376673440d862a81565b6000606a60008473ffffffffffffffffffffffffffffffffffffffff1673ffffffffffffffffffffffffffffffffffffffff16815260200190815260200160002060008373ffffffffffffffffffffffffffffffffffffffff1673ffffffffffffffffffffffffffffffffffffffff16815260200190815260200160002060009054906101000a900460ff16905092915050565b6000808273ffffffffffffffffffffffffffffffffffffffff163b119050919050565b60007f7965db0b000000000000000000000000000000000000000000000000000000007bffffffffffffffffffffffffffffffffffffffffffffffffffffffff1916827bffffffffffffffffffffffffffffffffffffffffffffffffffffffff191614806113a0575061139f8261223e565b5b9050919050565b60008073ffffffffffffffffffffffffffffffffffffffff166067600084815260200190815260200160002060009054906101000a900473ffffffffffffffffffffffffffffffffffffffff1673ffffffffffffffffffffffffffffffffffffffff1614159050919050565b600033905090565b816069600083815260200190815260200160002060006101000a81548173ffffffffffffffffffffffffffffffffffffffff021916908373ffffffffffffffffffffffffffffffffffffffff160217905550808273ffffffffffffffffffffffffffffffffffffffff1661148e83610c14565b73ffffffffffffffffffffffffffffffffffffffff167f8c5be1e5ebec7d5bd14f71427d1e84f3dd0314c0f7b2291e5b200ac8c7c3b92560405160405180910390a45050565b60006114df826113a7565b61151e576040517f08c379a000000000000000000000000000000000000000000000000000000000815260040161151590613f3f565b60405180910390fd5b600061152983610c14565b90508073ffffffffffffffffffffffffffffffffffffffff168473ffffffffffffffffffffffffffffffffffffffff16148061159857508373ffffffffffffffffffffffffffffffffffffffff1661158084610694565b73ffffffffffffffffffffffffffffffffffffffff16145b806115a957506115a88185611276565b5b91505092915050565b8273ffffffffffffffffffffffffffffffffffffffff166115d282610c14565b73ffffffffffffffffffffffffffffffffffffffff1614611628576040517f08c379a000000000000000000000000000000000000000000000000000000000815260040161161f90613fd1565b60405180910390fd5b600073ffffffffffffffffffffffffffffffffffffffff168273ffffffffffffffffffffffffffffffffffffffff161415611698576040517f08c379a000000000000000000000000000000000000000000000000000000000815260040161168f90614063565b60405180910390fd5b6116a38383836122b8565b6116ae60008261141b565b6001606860008573ffffffffffffffffffffffffffffffffffffffff1673ffffffffffffffffffffffffffffffffffffffff16815260200190815260200160002060008282546116fe91906140b2565b925050819055506001606860008473ffffffffffffffffffffffffffffffffffffffff1673ffffffffffffffffffffffffffffffffffffffff168152602001908152602001600020600082825461175591906140e6565b92505081905550816067600083815260200190815260200160002060006101000a81548173ffffffffffffffffffffffffffffffffffffffff021916908373ffffffffffffffffffffffffffffffffffffffff160217905550808273ffffffffffffffffffffffffffffffffffffffff168473ffffffffffffffffffffffffffffffffffffffff167fddf252ad1be2c89b69c2b068fc378daa952ba7f163c4a11628f55a4df523b3ef60405160405180910390a4611814838383612310565b505050565b6118238282610fbe565b6118b2576118488173ffffffffffffffffffffffffffffffffffffffff166014612315565b6118568360001c6020612315565b6040516020016118679291906141d4565b6040516020818303038152906040526040517f08c379a00000000000000000000000000000000000000000000000000000000081526004016118a99190613171565b60405180910390fd5b5050565b6118c08282610fbe565b61199357600160fb600084815260200190815260200160002060000160008373ffffffffffffffffffffffffffffffffffffffff1673ffffffffffffffffffffffffffffffffffffffff16815260200190815260200160002060006101000a81548160ff021916908315150217905550611938611413565b73ffffffffffffffffffffffffffffffffffffffff168173ffffffffffffffffffffffffffffffffffffffff16837f2f8788117e7eff1d82e926ec794901d17c78024a50270940304540a733656f0d60405160405180910390a45b5050565b6119a18282610fbe565b15611a7557600060fb600084815260200190815260200160002060000160008373ffffffffffffffffffffffffffffffffffffffff1673ffffffffffffffffffffffffffffffffffffffff16815260200190815260200160002060006101000a81548160ff021916908315150217905550611a1a611413565b73ffffffffffffffffffffffffffffffffffffffff168173ffffffffffffffffffffffffffffffffffffffff16837ff6391f5c32d9c69d2a47ea670b442974b53935d1edc7fd64eb21e047a839171b60405160405180910390a45b5050565b611a81610bfd565b611ac0576040517f08c379a0000000000000000000000000000000000000000000000000000000008152600401611ab79061425a565b60405180910390fd5b600060c960006101000a81548160ff0219169083151502179055507f5db9ee0a495bf2e6ff9c91a7834c1ba4fdd244a5e8aa4e537bd38aeae4b073aa611b04611413565b604051611b119190613237565b60405180910390a1565b600081600001549050919050565b6001816000016000828254019250508190555050565b611b59828260405180602001604052806000815250612551565b5050565b6000611b6882610c14565b9050611b76816000846122b8565b611b8160008361141b565b6001606860008373ffffffffffffffffffffffffffffffffffffffff1673ffffffffffffffffffffffffffffffffffffffff1681526020019081526020016000206000828254611bd191906140b2565b925050819055506067600083815260200190815260200160002060006101000a81549073ffffffffffffffffffffffffffffffffffffffff021916905581600073ffffffffffffffffffffffffffffffffffffffff168273ffffffffffffffffffffffffffffffffffffffff167fddf252ad1be2c89b69c2b068fc378daa952ba7f163c4a11628f55a4df523b3ef60405160405180910390a4611c7681600084612310565b5050565b6000611c853061130a565b15905090565b600060019054906101000a900460ff16611cda576040517f08c379a0000000000000000000000000000000000000000000000000000000008152600401611cd1906142ec565b60405180910390fd5b611ce482826125ac565b5050565b600060019054906101000a900460ff16611d37576040517f08c379a0000000000000000000000000000000000000000000000000000000008152600401611d2e906142ec565b60405180910390fd5b565b600060019054906101000a900460ff16611d88576040517f08c379a0000000000000000000000000000000000000000000000000000000008152600401611d7f906142ec565b60405180910390fd5b611d9061262d565b565b600060019054906101000a900460ff16611de1576040517f08c379a0000000000000000000000000000000000000000000000000000000008152600401611dd8906142ec565b60405180910390fd5b565b600060019054906101000a900460ff16611e32576040517f08c379a0000000000000000000000000000000000000000000000000000000008152600401611e29906142ec565b60405180910390fd5b565b611e3c610bfd565b15611e7c576040517f08c379a0000000000000000000000000000000000000000000000000000000008152600401611e7390614358565b60405180910390fd5b600160c960006101000a81548160ff0219169083151502179055507f62e78cea01bee320cd4e420270b5ea74000d11b0c9f74754ebdbfc544b05a258611ec0611413565b604051611ecd9190613237565b60405180910390a1565b8173ffffffffffffffffffffffffffffffffffffffff168373ffffffffffffffffffffffffffffffffffffffff161415611f46576040517f08c379a0000000000000000000000000000000000000000000000000000000008152600401611f3d906143c4565b60405180910390fd5b80606a60008573ffffffffffffffffffffffffffffffffffffffff1673ffffffffffffffffffffffffffffffffffffffff16815260200190815260200160002060008473ffffffffffffffffffffffffffffffffffffffff1673ffffffffffffffffffffffffffffffffffffffff16815260200190815260200160002060006101000a81548160ff0219169083151502179055508173ffffffffffffffffffffffffffffffffffffffff168373ffffffffffffffffffffffffffffffffffffffff167f17307eab39ab6107e8899845ad3d59bd9653f200f220920489ca2b5937696c318360405161203791906130bd565b60405180910390a3505050565b61204f8484846115b2565b61205b84848484612699565b61209a576040517f08c379a000000000000000000000000000000000000000000000000000000000815260040161209190614456565b60405180910390fd5b50505050565b60606040518060400160405280601281526020017f68747470733a2f2f72616e646f6d2e636f6d0000000000000000000000000000815250905090565b60606000821415612125576040518060400160405280600181526020017f30000000000000000000000000000000000000000000000000000000000000008152509050612239565b600082905060005b6000821461215757808061214090614476565b915050600a8261215091906144ee565b915061212d565b60008167ffffffffffffffff811115612173576121726134ab565b5b6040519080825280601f01601f1916602001820160405280156121a55781602001600182028036833780820191505090505b5090505b60008514612232576001826121be91906140b2565b9150600a856121cd919061451f565b60306121d991906140e6565b60f81b8183815181106121ef576121ee613bf6565b5b60200101907effffffffffffffffffffffffffffffffffffffffffffffffffffffffffffff1916908160001a905350600a8561222b91906144ee565b94506121a9565b8093505050505b919050565b60007f780e9d63000000000000000000000000000000000000000000000000000000007bffffffffffffffffffffffffffffffffffffffffffffffffffffffff1916827bffffffffffffffffffffffffffffffffffffffffffffffffffffffff191614806122b157506122b082612821565b5b9050919050565b6122c0610bfd565b15612300576040517f08c379a00000000000000000000000000000000000000000000000000000000081526004016122f790614358565b60405180910390fd5b61230b838383612903565b505050565b505050565b6060600060028360026123289190614550565b61233291906140e6565b67ffffffffffffffff81111561234b5761234a6134ab565b5b6040519080825280601f01601f19166020018201604052801561237d5781602001600182028036833780820191505090505b5090507f3000000000000000000000000000000000000000000000000000000000000000816000815181106123b5576123b4613bf6565b5b60200101907effffffffffffffffffffffffffffffffffffffffffffffffffffffffffffff1916908160001a9053507f78000000000000000000000000000000000000000000000000000000000000008160018151811061241957612418613bf6565b5b60200101907effffffffffffffffffffffffffffffffffffffffffffffffffffffffffffff1916908160001a905350600060018460026124599190614550565b61246391906140e6565b90505b6001811115612503577f3031323334353637383961626364656600000000000000000000000000000000600f8616601081106124a5576124a4613bf6565b5b1a60f81b8282815181106124bc576124bb613bf6565b5b60200101907effffffffffffffffffffffffffffffffffffffffffffffffffffffffffffff1916908160001a905350600485901c9450806124fc906145aa565b9050612466565b5060008414612547576040517f08c379a000000000000000000000000000000000000000000000000000000000815260040161253e90614620565b60405180910390fd5b8091505092915050565b61255b8383612a17565b6125686000848484612699565b6125a7576040517f08c379a000000000000000000000000000000000000000000000000000000000815260040161259e90614456565b60405180910390fd5b505050565b600060019054906101000a900460ff166125fb576040517f08c379a00000000000000000000000000000000000000000000000000000000081526004016125f2906142ec565b60405180910390fd5b8160659080519060200190612611929190612f66565b508060669080519060200190612628929190612f66565b505050565b600060019054906101000a900460ff1661267c576040517f08c379a0000000000000000000000000000000000000000000000000000000008152600401612673906142ec565b60405180910390fd5b600060c960006101000a81548160ff021916908315150217905550565b60006126ba8473ffffffffffffffffffffffffffffffffffffffff1661130a565b15612814578373ffffffffffffffffffffffffffffffffffffffff1663150b7a026126e3611413565b8786866040518563ffffffff1660e01b81526004016127059493929190614695565b6020604051808303816000875af192505050801561274157506040513d601f19601f8201168201806040525081019061273e91906146f6565b60015b6127c4573d8060008114612771576040519150601f19603f3d011682016040523d82523d6000602084013e612776565b606091505b506000815114156127bc576040517f08c379a00000000000000000000000000000000000000000000000000000000081526004016127b390614456565b60405180910390fd5b805181602001fd5b63150b7a0260e01b7bffffffffffffffffffffffffffffffffffffffffffffffffffffffff1916817bffffffffffffffffffffffffffffffffffffffffffffffffffffffff191614915050612819565b600190505b949350505050565b60007f80ac58cd000000000000000000000000000000000000000000000000000000007bffffffffffffffffffffffffffffffffffffffffffffffffffffffff1916827bffffffffffffffffffffffffffffffffffffffffffffffffffffffff191614806128ec57507f5b5e139f000000000000000000000000000000000000000000000000000000007bffffffffffffffffffffffffffffffffffffffffffffffffffffffff1916827bffffffffffffffffffffffffffffffffffffffffffffffffffffffff1916145b806128fc57506128fb82612bf1565b5b9050919050565b61290e838383612c5b565b600073ffffffffffffffffffffffffffffffffffffffff168373ffffffffffffffffffffffffffffffffffffffff1614156129515761294c81612c60565b612990565b8173ffffffffffffffffffffffffffffffffffffffff168373ffffffffffffffffffffffffffffffffffffffff161461298f5761298e8382612ca9565b5b5b600073ffffffffffffffffffffffffffffffffffffffff168273ffffffffffffffffffffffffffffffffffffffff1614156129d3576129ce81612e16565b612a12565b8273ffffffffffffffffffffffffffffffffffffffff168273ffffffffffffffffffffffffffffffffffffffff1614612a1157612a108282612ee7565b5b5b505050565b600073ffffffffffffffffffffffffffffffffffffffff168273ffffffffffffffffffffffffffffffffffffffff161415612a87576040517f08c379a0000000000000000000000000000000000000000000000000000000008152600401612a7e9061476f565b60405180910390fd5b612a90816113a7565b15612ad0576040517f08c379a0000000000000000000000000000000000000000000000000000000008152600401612ac7906147db565b60405180910390fd5b612adc600083836122b8565b6001606860008473ffffffffffffffffffffffffffffffffffffffff1673ffffffffffffffffffffffffffffffffffffffff1681526020019081526020016000206000828254612b2c91906140e6565b92505081905550816067600083815260200190815260200160002060006101000a81548173ffffffffffffffffffffffffffffffffffffffff021916908373ffffffffffffffffffffffffffffffffffffffff160217905550808273ffffffffffffffffffffffffffffffffffffffff16600073ffffffffffffffffffffffffffffffffffffffff167fddf252ad1be2c89b69c2b068fc378daa952ba7f163c4a11628f55a4df523b3ef60405160405180910390a4612bed60008383612310565b5050565b60007f01ffc9a7000000000000000000000000000000000000000000000000000000007bffffffffffffffffffffffffffffffffffffffffffffffffffffffff1916827bffffffffffffffffffffffffffffffffffffffffffffffffffffffff1916149050919050565b505050565b609980549050609a600083815260200190815260200160002081905550609981908060018154018082558091505060019003906000526020600020016000909190919091505550565b60006001612cb684610cc6565b612cc091906140b2565b9050600060986000848152602001908152602001600020549050818114612da5576000609760008673ffffffffffffffffffffffffffffffffffffffff1673ffffffffffffffffffffffffffffffffffffffff168152602001908152602001600020600084815260200190815260200160002054905080609760008773ffffffffffffffffffffffffffffffffffffffff1673ffffffffffffffffffffffffffffffffffffffff168152602001908152602001600020600084815260200190815260200160002081905550816098600083815260200190815260200160002081905550505b6098600084815260200190815260200160002060009055609760008573ffffffffffffffffffffffffffffffffffffffff1673ffffffffffffffffffffffffffffffffffffffff16815260200190815260200160002060008381526020019081526020016000206000905550505050565b60006001609980549050612e2a91906140b2565b90506000609a6000848152602001908152602001600020549050600060998381548110612e5a57612e59613bf6565b5b906000526020600020015490508060998381548110612e7c57612e7b613bf6565b5b906000526020600020018190555081609a600083815260200190815260200160002081905550609a6000858152602001908152602001600020600090556099805480612ecb57612eca6147fb565b5b6001900381819060005260206000200160009055905550505050565b6000612ef283610cc6565b905081609760008573ffffffffffffffffffffffffffffffffffffffff1673ffffffffffffffffffffffffffffffffffffffff168152602001908152602001600020600083815260200190815260200160002081905550806098600084815260200190815260200160002081905550505050565b828054612f72906136c8565b90600052602060002090601f016020900481019282612f945760008555612fdb565b82601f10612fad57805160ff1916838001178555612fdb565b82800160010185558215612fdb579182015b82811115612fda578251825591602001919060010190612fbf565b5b509050612fe89190612fec565b5090565b5b80821115613005576000816000905550600101612fed565b5090565b6000604051905090565b600080fd5b600080fd5b60007fffffffff0000000000000000000000000000000000000000000000000000000082169050919050565b6130528161301d565b811461305d57600080fd5b50565b60008135905061306f81613049565b92915050565b60006020828403121561308b5761308a613013565b5b600061309984828501613060565b91505092915050565b60008115159050919050565b6130b7816130a2565b82525050565b60006020820190506130d260008301846130ae565b92915050565b600081519050919050565b600082825260208201905092915050565b60005b838110156131125780820151818401526020810190506130f7565b83811115613121576000848401525b50505050565b6000601f19601f8301169050919050565b6000613143826130d8565b61314d81856130e3565b935061315d8185602086016130f4565b61316681613127565b840191505092915050565b6000602082019050818103600083015261318b8184613138565b905092915050565b6000819050919050565b6131a681613193565b81146131b157600080fd5b50565b6000813590506131c38161319d565b92915050565b6000602082840312156131df576131de613013565b5b60006131ed848285016131b4565b91505092915050565b600073ffffffffffffffffffffffffffffffffffffffff82169050919050565b6000613221826131f6565b9050919050565b61323181613216565b82525050565b600060208201905061324c6000830184613228565b92915050565b61325b81613216565b811461326657600080fd5b50565b60008135905061327881613252565b92915050565b6000806040838503121561329557613294613013565b5b60006132a385828601613269565b92505060206132b4858286016131b4565b9150509250929050565b6132c781613193565b82525050565b60006020820190506132e260008301846132be565b92915050565b60008060006060848603121561330157613300613013565b5b600061330f86828701613269565b935050602061332086828701613269565b9250506040613331868287016131b4565b9150509250925092565b6000819050919050565b61334e8161333b565b811461335957600080fd5b50565b60008135905061336b81613345565b92915050565b60006020828403121561338757613386613013565b5b60006133958482850161335c565b91505092915050565b6133a78161333b565b82525050565b60006020820190506133c2600083018461339e565b92915050565b600080604083850312156133df576133de613013565b5b60006133ed8582860161335c565b92505060206133fe85828601613269565b9150509250929050565b60006020828403121561341e5761341d613013565b5b600061342c84828501613269565b91505092915050565b61343e816130a2565b811461344957600080fd5b50565b60008135905061345b81613435565b92915050565b6000806040838503121561347857613477613013565b5b600061348685828601613269565b92505060206134978582860161344c565b9150509250929050565b600080fd5b600080fd5b7f4e487b7100000000000000000000000000000000000000000000000000000000600052604160045260246000fd5b6134e382613127565b810181811067ffffffffffffffff82111715613502576135016134ab565b5b80604052505050565b6000613515613009565b905061352182826134da565b919050565b600067ffffffffffffffff821115613541576135406134ab565b5b61354a82613127565b9050602081019050919050565b82818337600083830152505050565b600061357961357484613526565b61350b565b905082815260208101848484011115613595576135946134a6565b5b6135a0848285613557565b509392505050565b600082601f8301126135bd576135bc6134a1565b5b81356135cd848260208601613566565b91505092915050565b600080600080608085870312156135f0576135ef613013565b5b60006135fe87828801613269565b945050602061360f87828801613269565b9350506040613620878288016131b4565b925050606085013567ffffffffffffffff81111561364157613640613018565b5b61364d878288016135a8565b91505092959194509250565b600080604083850312156136705761366f613013565b5b600061367e85828601613269565b925050602061368f85828601613269565b9150509250929050565b7f4e487b7100000000000000000000000000000000000000000000000000000000600052602260045260246000fd5b600060028204905060018216806136e057607f821691505b602082108114156136f4576136f3613699565b5b50919050565b7f4552433732313a20617070726f76656420717565727920666f72206e6f6e657860008201527f697374656e7420746f6b656e0000000000000000000000000000000000000000602082015250565b6000613756602c836130e3565b9150613761826136fa565b604082019050919050565b6000602082019050818103600083015261378581613749565b9050919050565b7f4552433732313a20617070726f76616c20746f2063757272656e74206f776e6560008201527f7200000000000000000000000000000000000000000000000000000000000000602082015250565b60006137e86021836130e3565b91506137f38261378c565b604082019050919050565b60006020820190508181036000830152613817816137db565b9050919050565b7f4552433732313a20617070726f76652063616c6c6572206973206e6f74206f7760008201527f6e6572206e6f7220617070726f76656420666f7220616c6c0000000000000000602082015250565b600061387a6038836130e3565b91506138858261381e565b604082019050919050565b600060208201905081810360008301526138a98161386d565b9050919050565b7f4552433732313a207472616e736665722063616c6c6572206973206e6f74206f60008201527f776e6572206e6f7220617070726f766564000000000000000000000000000000602082015250565b600061390c6031836130e3565b9150613917826138b0565b604082019050919050565b6000602082019050818103600083015261393b816138ff565b9050919050565b7f455243373231456e756d657261626c653a206f776e657220696e646578206f7560008201527f74206f6620626f756e6473000000000000000000000000000000000000000000602082015250565b600061399e602b836130e3565b91506139a982613942565b604082019050919050565b600060208201905081810360008301526139cd81613991565b9050919050565b7f416363657373436f6e74726f6c3a2063616e206f6e6c792072656e6f756e636560008201527f20726f6c657320666f722073656c660000000000000000000000000000000000602082015250565b6000613a30602f836130e3565b9150613a3b826139d4565b604082019050919050565b60006020820190508181036000830152613a5f81613a23565b9050919050565b7f41646472657373206973206e6f742077686974656c6973746564000000000000600082015250565b6000613a9c601a836130e3565b9150613aa782613a66565b602082019050919050565b60006020820190508181036000830152613acb81613a8f565b9050919050565b7f4552433732314275726e61626c653a2063616c6c6572206973206e6f74206f7760008201527f6e6572206e6f7220617070726f76656400000000000000000000000000000000602082015250565b6000613b2e6030836130e3565b9150613b3982613ad2565b604082019050919050565b60006020820190508181036000830152613b5d81613b21565b9050919050565b7f455243373231456e756d657261626c653a20676c6f62616c20696e646578206f60008201527f7574206f6620626f756e64730000000000000000000000000000000000000000602082015250565b6000613bc0602c836130e3565b9150613bcb82613b64565b604082019050919050565b60006020820190508181036000830152613bef81613bb3565b9050919050565b7f4e487b7100000000000000000000000000000000000000000000000000000000600052603260045260246000fd5b7f4552433732313a206f776e657220717565727920666f72206e6f6e657869737460008201527f656e7420746f6b656e0000000000000000000000000000000000000000000000602082015250565b6000613c816029836130e3565b9150613c8c82613c25565b604082019050919050565b60006020820190508181036000830152613cb081613c74565b9050919050565b7f4552433732313a2062616c616e636520717565727920666f7220746865207a6560008201527f726f206164647265737300000000000000000000000000000000000000000000602082015250565b6000613d13602a836130e3565b9150613d1e82613cb7565b604082019050919050565b60006020820190508181036000830152613d4281613d06565b9050919050565b7f496e697469616c697a61626c653a20636f6e747261637420697320616c72656160008201527f647920696e697469616c697a6564000000000000000000000000000000000000602082015250565b6000613da5602e836130e3565b9150613db082613d49565b604082019050919050565b60006020820190508181036000830152613dd481613d98565b9050919050565b7f4552433732314d657461646174613a2055524920717565727920666f72206e6f60008201527f6e6578697374656e7420746f6b656e0000000000000000000000000000000000602082015250565b6000613e37602f836130e3565b9150613e4282613ddb565b604082019050919050565b60006020820190508181036000830152613e6681613e2a565b9050919050565b600081905092915050565b6000613e83826130d8565b613e8d8185613e6d565b9350613e9d8185602086016130f4565b80840191505092915050565b6000613eb58285613e78565b9150613ec18284613e78565b91508190509392505050565b7f4552433732313a206f70657261746f7220717565727920666f72206e6f6e657860008201527f697374656e7420746f6b656e0000000000000000000000000000000000000000602082015250565b6000613f29602c836130e3565b9150613f3482613ecd565b604082019050919050565b60006020820190508181036000830152613f5881613f1c565b9050919050565b7f4552433732313a207472616e736665722066726f6d20696e636f72726563742060008201527f6f776e6572000000000000000000000000000000000000000000000000000000602082015250565b6000613fbb6025836130e3565b9150613fc682613f5f565b604082019050919050565b60006020820190508181036000830152613fea81613fae565b9050919050565b7f4552433732313a207472616e7366657220746f20746865207a65726f2061646460008201527f7265737300000000000000000000000000000000000000000000000000000000602082015250565b600061404d6024836130e3565b915061405882613ff1565b604082019050919050565b6000602082019050818103600083015261407c81614040565b9050919050565b7f4e487b7100000000000000000000000000000000000000000000000000000000600052601160045260246000fd5b60006140bd82613193565b91506140c883613193565b9250828210156140db576140da614083565b5b828203905092915050565b60006140f182613193565b91506140fc83613193565b9250827fffffffffffffffffffffffffffffffffffffffffffffffffffffffffffffffff0382111561413157614130614083565b5b828201905092915050565b7f416363657373436f6e74726f6c3a206163636f756e7420000000000000000000600082015250565b6000614172601783613e6d565b915061417d8261413c565b601782019050919050565b7f206973206d697373696e6720726f6c6520000000000000000000000000000000600082015250565b60006141be601183613e6d565b91506141c982614188565b601182019050919050565b60006141df82614165565b91506141eb8285613e78565b91506141f6826141b1565b91506142028284613e78565b91508190509392505050565b7f5061757361626c653a206e6f7420706175736564000000000000000000000000600082015250565b60006142446014836130e3565b915061424f8261420e565b602082019050919050565b6000602082019050818103600083015261427381614237565b9050919050565b7f496e697469616c697a61626c653a20636f6e7472616374206973206e6f74206960008201527f6e697469616c697a696e67000000000000000000000000000000000000000000602082015250565b60006142d6602b836130e3565b91506142e18261427a565b604082019050919050565b60006020820190508181036000830152614305816142c9565b9050919050565b7f5061757361626c653a2070617573656400000000000000000000000000000000600082015250565b60006143426010836130e3565b915061434d8261430c565b602082019050919050565b6000602082019050818103600083015261437181614335565b9050919050565b7f4552433732313a20617070726f766520746f2063616c6c657200000000000000600082015250565b60006143ae6019836130e3565b91506143b982614378565b602082019050919050565b600060208201905081810360008301526143dd816143a1565b9050919050565b7f4552433732313a207472616e7366657220746f206e6f6e20455243373231526560008201527f63656976657220696d706c656d656e7465720000000000000000000000000000602082015250565b60006144406032836130e3565b915061444b826143e4565b604082019050919050565b6000602082019050818103600083015261446f81614433565b9050919050565b600061448182613193565b91507fffffffffffffffffffffffffffffffffffffffffffffffffffffffffffffffff8214156144b4576144b3614083565b5b600182019050919050565b7f4e487b7100000000000000000000000000000000000000000000000000000000600052601260045260246000fd5b60006144f982613193565b915061450483613193565b925082614514576145136144bf565b5b828204905092915050565b600061452a82613193565b915061453583613193565b925082614545576145446144bf565b5b828206905092915050565b600061455b82613193565b915061456683613193565b9250817fffffffffffffffffffffffffffffffffffffffffffffffffffffffffffffffff048311821515161561459f5761459e614083565b5b828202905092915050565b60006145b582613193565b915060008214156145c9576145c8614083565b5b600182039050919050565b7f537472696e67733a20686578206c656e67746820696e73756666696369656e74600082015250565b600061460a6020836130e3565b9150614615826145d4565b602082019050919050565b60006020820190508181036000830152614639816145fd565b9050919050565b600081519050919050565b600082825260208201905092915050565b600061466782614640565b614671818561464b565b93506146818185602086016130f4565b61468a81613127565b840191505092915050565b60006080820190506146aa6000830187613228565b6146b76020830186613228565b6146c460408301856132be565b81810360608301526146d6818461465c565b905095945050505050565b6000815190506146f081613049565b92915050565b60006020828403121561470c5761470b613013565b5b600061471a848285016146e1565b91505092915050565b7f4552433732313a206d696e7420746f20746865207a65726f2061646472657373600082015250565b60006147596020836130e3565b915061476482614723565b602082019050919050565b600060208201905081810360008301526147888161474c565b9050919050565b7f4552433732313a20746f6b656e20616c7265616479206d696e74656400000000600082015250565b60006147c5601c836130e3565b91506147d08261478f565b602082019050919050565b600060208201905081810360008301526147f4816147b8565b9050919050565b7f4e487b7100000000000000000000000000000000000000000000000000000000600052603160045260246000fdfea26469706673582212201640f68d4c2d3c00d903705ea65f8e74001ddbe2c5f0ed0f4b229859404e028264736f6c634300080b0033",
  "immutableReferences": {},
  "source": "// SPDX-License-Identifier: MIT\npragma solidity ^0.8.11;\n\nimport \"@openzeppelin/contracts-upgradeable/token/ERC721/ERC721Upgradeable.sol\";\nimport \"@openzeppelin/contracts-upgradeable/token/ERC721/extensions/ERC721EnumerableUpgradeable.sol\";\nimport \"@openzeppelin/contracts-upgradeable/security/PausableUpgradeable.sol\";\nimport \"@openzeppelin/contracts-upgradeable/access/AccessControlUpgradeable.sol\";\nimport \"@openzeppelin/contracts-upgradeable/token/ERC721/extensions/ERC721BurnableUpgradeable.sol\";\nimport \"@openzeppelin/contracts-upgradeable/proxy/utils/Initializable.sol\";\nimport \"@openzeppelin/contracts-upgradeable/utils/CountersUpgradeable.sol\";\n\ncontract MIRLs is Initializable, ERC721Upgradeable, ERC721EnumerableUpgradeable, PausableUpgradeable, AccessControlUpgradeable, ERC721BurnableUpgradeable {\n    using CountersUpgradeable for CountersUpgradeable.Counter;\n\n    bytes32 public constant PAUSER_ROLE = keccak256(\"PAUSER_ROLE\");\n    bytes32 public constant MINTER_ROLE = keccak256(\"MINTER_ROLE\");\n    bytes32 public constant WHITE_LIST_ROLE = keccak256(\"WHITE_LIST_ROLE\");\n\n    CountersUpgradeable.Counter private _tokenIdCounter;\n\n    /// @custom:oz-upgrades-unsafe-allow constructor\n    constructor() initializer {}\n\n    function initialize() initializer public {\n        __ERC721_init(\"MIRLs\", \"MIRLs\");\n        __ERC721Enumerable_init();\n        __Pausable_init();\n        __AccessControl_init();\n        __ERC721Burnable_init();\n\n        _grantRole(DEFAULT_ADMIN_ROLE, msg.sender);\n        _grantRole(PAUSER_ROLE, msg.sender);\n        _grantRole(MINTER_ROLE, msg.sender);\n        _grantRole(WHITE_LIST_ROLE, msg.sender);\n    }\n\n    function _baseURI() internal pure override returns (string memory) {\n        return \"https://random.com\";\n    }\n\n    function pause() public onlyRole(PAUSER_ROLE) {\n        _pause();\n    }\n\n    function unpause() public onlyRole(PAUSER_ROLE) {\n        _unpause();\n    }\n\n    function safeMint(address to) public onlyRole(MINTER_ROLE) {\n        require(hasRole(WHITE_LIST_ROLE, msg.sender), \"Address is not whitelisted\");\n        uint256 tokenId = _tokenIdCounter.current();\n        _tokenIdCounter.increment();\n        _safeMint(to, tokenId);\n    }\n\n    function _beforeTokenTransfer(address from, address to, uint256 tokenId)\n        internal\n        whenNotPaused\n        override(ERC721Upgradeable, ERC721EnumerableUpgradeable)\n    {\n        super._beforeTokenTransfer(from, to, tokenId);\n    }\n\n    // The following functions are overrides required by Solidity.\n\n    function supportsInterface(bytes4 interfaceId)\n        public\n        view\n        override(ERC721Upgradeable, ERC721EnumerableUpgradeable, AccessControlUpgradeable)\n        returns (bool)\n    {\n        return super.supportsInterface(interfaceId);\n    }\n}\n",
  "sourcePath": "/home/hungdevjs/Documents/blockchain-tuts/smart-contract-react/truffle/contracts/MIRLs.sol",
  "compiler": {
    "name": "solc",
    "version": "0.8.11+commit.d7f03943.Emscripten.clang"
  },
  "schemaVersion": "3.4.5",
  "updatedAt": "2022-02-22T04:24:22.959Z",
  "devdoc": {
    "kind": "dev",
    "methods": {
      "approve(address,uint256)": {
        "details": "See {IERC721-approve}."
      },
      "balanceOf(address)": {
        "details": "See {IERC721-balanceOf}."
      },
      "burn(uint256)": {
        "details": "Burns `tokenId`. See {ERC721-_burn}. Requirements: - The caller must own `tokenId` or be an approved operator."
      },
      "constructor": {
        "custom:oz-upgrades-unsafe-allow": "constructor"
      },
      "getApproved(uint256)": {
        "details": "See {IERC721-getApproved}."
      },
      "getRoleAdmin(bytes32)": {
        "details": "Returns the admin role that controls `role`. See {grantRole} and {revokeRole}. To change a role's admin, use {_setRoleAdmin}."
      },
      "grantRole(bytes32,address)": {
        "details": "Grants `role` to `account`. If `account` had not been already granted `role`, emits a {RoleGranted} event. Requirements: - the caller must have ``role``'s admin role."
      },
      "hasRole(bytes32,address)": {
        "details": "Returns `true` if `account` has been granted `role`."
      },
      "isApprovedForAll(address,address)": {
        "details": "See {IERC721-isApprovedForAll}."
      },
      "name()": {
        "details": "See {IERC721Metadata-name}."
      },
      "ownerOf(uint256)": {
        "details": "See {IERC721-ownerOf}."
      },
      "paused()": {
        "details": "Returns true if the contract is paused, and false otherwise."
      },
      "renounceRole(bytes32,address)": {
        "details": "Revokes `role` from the calling account. Roles are often managed via {grantRole} and {revokeRole}: this function's purpose is to provide a mechanism for accounts to lose their privileges if they are compromised (such as when a trusted device is misplaced). If the calling account had been revoked `role`, emits a {RoleRevoked} event. Requirements: - the caller must be `account`."
      },
      "revokeRole(bytes32,address)": {
        "details": "Revokes `role` from `account`. If `account` had been granted `role`, emits a {RoleRevoked} event. Requirements: - the caller must have ``role``'s admin role."
      },
      "safeTransferFrom(address,address,uint256)": {
        "details": "See {IERC721-safeTransferFrom}."
      },
      "safeTransferFrom(address,address,uint256,bytes)": {
        "details": "See {IERC721-safeTransferFrom}."
      },
      "setApprovalForAll(address,bool)": {
        "details": "See {IERC721-setApprovalForAll}."
      },
      "symbol()": {
        "details": "See {IERC721Metadata-symbol}."
      },
      "tokenByIndex(uint256)": {
        "details": "See {IERC721Enumerable-tokenByIndex}."
      },
      "tokenOfOwnerByIndex(address,uint256)": {
        "details": "See {IERC721Enumerable-tokenOfOwnerByIndex}."
      },
      "tokenURI(uint256)": {
        "details": "See {IERC721Metadata-tokenURI}."
      },
      "totalSupply()": {
        "details": "See {IERC721Enumerable-totalSupply}."
      },
      "transferFrom(address,address,uint256)": {
        "details": "See {IERC721-transferFrom}."
      }
    },
    "version": 1
  },
  "userdoc": {
    "kind": "user",
    "methods": {},
    "version": 1
  }
}