{
  "contractName": "MIRLs",
  "abi": [
    {
      "inputs": [],
      "stateMutability": "nonpayable",
      "type": "constructor"
    },
    {
      "anonymous": false,
      "inputs": [
        {
          "indexed": true,
          "internalType": "address",
          "name": "owner",
          "type": "address"
        },
        {
          "indexed": true,
          "internalType": "address",
          "name": "approved",
          "type": "address"
        },
        {
          "indexed": true,
          "internalType": "uint256",
          "name": "tokenId",
          "type": "uint256"
        }
      ],
      "name": "Approval",
      "type": "event"
    },
    {
      "anonymous": false,
      "inputs": [
        {
          "indexed": true,
          "internalType": "address",
          "name": "owner",
          "type": "address"
        },
        {
          "indexed": true,
          "internalType": "address",
          "name": "operator",
          "type": "address"
        },
        {
          "indexed": false,
          "internalType": "bool",
          "name": "approved",
          "type": "bool"
        }
      ],
      "name": "ApprovalForAll",
      "type": "event"
    },
    {
      "anonymous": false,
      "inputs": [
        {
          "indexed": false,
          "internalType": "address",
          "name": "account",
          "type": "address"
        }
      ],
      "name": "Paused",
      "type": "event"
    },
    {
      "anonymous": false,
      "inputs": [
        {
          "indexed": true,
          "internalType": "bytes32",
          "name": "role",
          "type": "bytes32"
        },
        {
          "indexed": true,
          "internalType": "bytes32",
          "name": "previousAdminRole",
          "type": "bytes32"
        },
        {
          "indexed": true,
          "internalType": "bytes32",
          "name": "newAdminRole",
          "type": "bytes32"
        }
      ],
      "name": "RoleAdminChanged",
      "type": "event"
    },
    {
      "anonymous": false,
      "inputs": [
        {
          "indexed": true,
          "internalType": "bytes32",
          "name": "role",
          "type": "bytes32"
        },
        {
          "indexed": true,
          "internalType": "address",
          "name": "account",
          "type": "address"
        },
        {
          "indexed": true,
          "internalType": "address",
          "name": "sender",
          "type": "address"
        }
      ],
      "name": "RoleGranted",
      "type": "event"
    },
    {
      "anonymous": false,
      "inputs": [
        {
          "indexed": true,
          "internalType": "bytes32",
          "name": "role",
          "type": "bytes32"
        },
        {
          "indexed": true,
          "internalType": "address",
          "name": "account",
          "type": "address"
        },
        {
          "indexed": true,
          "internalType": "address",
          "name": "sender",
          "type": "address"
        }
      ],
      "name": "RoleRevoked",
      "type": "event"
    },
    {
      "anonymous": false,
      "inputs": [
        {
          "indexed": true,
          "internalType": "address",
          "name": "from",
          "type": "address"
        },
        {
          "indexed": true,
          "internalType": "address",
          "name": "to",
          "type": "address"
        },
        {
          "indexed": true,
          "internalType": "uint256",
          "name": "tokenId",
          "type": "uint256"
        }
      ],
      "name": "Transfer",
      "type": "event"
    },
    {
      "anonymous": false,
      "inputs": [
        {
          "indexed": false,
          "internalType": "address",
          "name": "account",
          "type": "address"
        }
      ],
      "name": "Unpaused",
      "type": "event"
    },
    {
      "inputs": [],
      "name": "DEFAULT_ADMIN_ROLE",
      "outputs": [
        {
          "internalType": "bytes32",
          "name": "",
          "type": "bytes32"
        }
      ],
      "stateMutability": "view",
      "type": "function",
      "constant": true
    },
    {
      "inputs": [],
      "name": "MINTER_ROLE",
      "outputs": [
        {
          "internalType": "bytes32",
          "name": "",
          "type": "bytes32"
        }
      ],
      "stateMutability": "view",
      "type": "function",
      "constant": true
    },
    {
      "inputs": [],
      "name": "PAUSER_ROLE",
      "outputs": [
        {
          "internalType": "bytes32",
          "name": "",
          "type": "bytes32"
        }
      ],
      "stateMutability": "view",
      "type": "function",
      "constant": true
    },
    {
      "inputs": [
        {
          "internalType": "address",
          "name": "to",
          "type": "address"
        },
        {
          "internalType": "uint256",
          "name": "tokenId",
          "type": "uint256"
        }
      ],
      "name": "approve",
      "outputs": [],
      "stateMutability": "nonpayable",
      "type": "function"
    },
    {
      "inputs": [
        {
          "internalType": "address",
          "name": "owner",
          "type": "address"
        }
      ],
      "name": "balanceOf",
      "outputs": [
        {
          "internalType": "uint256",
          "name": "",
          "type": "uint256"
        }
      ],
      "stateMutability": "view",
      "type": "function",
      "constant": true
    },
    {
      "inputs": [
        {
          "internalType": "uint256",
          "name": "tokenId",
          "type": "uint256"
        }
      ],
      "name": "burn",
      "outputs": [],
      "stateMutability": "nonpayable",
      "type": "function"
    },
    {
      "inputs": [
        {
          "internalType": "uint256",
          "name": "tokenId",
          "type": "uint256"
        }
      ],
      "name": "getApproved",
      "outputs": [
        {
          "internalType": "address",
          "name": "",
          "type": "address"
        }
      ],
      "stateMutability": "view",
      "type": "function",
      "constant": true
    },
    {
      "inputs": [
        {
          "internalType": "bytes32",
          "name": "role",
          "type": "bytes32"
        }
      ],
      "name": "getRoleAdmin",
      "outputs": [
        {
          "internalType": "bytes32",
          "name": "",
          "type": "bytes32"
        }
      ],
      "stateMutability": "view",
      "type": "function",
      "constant": true
    },
    {
      "inputs": [
        {
          "internalType": "bytes32",
          "name": "role",
          "type": "bytes32"
        },
        {
          "internalType": "address",
          "name": "account",
          "type": "address"
        }
      ],
      "name": "grantRole",
      "outputs": [],
      "stateMutability": "nonpayable",
      "type": "function"
    },
    {
      "inputs": [
        {
          "internalType": "bytes32",
          "name": "role",
          "type": "bytes32"
        },
        {
          "internalType": "address",
          "name": "account",
          "type": "address"
        }
      ],
      "name": "hasRole",
      "outputs": [
        {
          "internalType": "bool",
          "name": "",
          "type": "bool"
        }
      ],
      "stateMutability": "view",
      "type": "function",
      "constant": true
    },
    {
      "inputs": [
        {
          "internalType": "address",
          "name": "owner",
          "type": "address"
        },
        {
          "internalType": "address",
          "name": "operator",
          "type": "address"
        }
      ],
      "name": "isApprovedForAll",
      "outputs": [
        {
          "internalType": "bool",
          "name": "",
          "type": "bool"
        }
      ],
      "stateMutability": "view",
      "type": "function",
      "constant": true
    },
    {
      "inputs": [],
      "name": "name",
      "outputs": [
        {
          "internalType": "string",
          "name": "",
          "type": "string"
        }
      ],
      "stateMutability": "view",
      "type": "function",
      "constant": true
    },
    {
      "inputs": [
        {
          "internalType": "uint256",
          "name": "tokenId",
          "type": "uint256"
        }
      ],
      "name": "ownerOf",
      "outputs": [
        {
          "internalType": "address",
          "name": "",
          "type": "address"
        }
      ],
      "stateMutability": "view",
      "type": "function",
      "constant": true
    },
    {
      "inputs": [],
      "name": "paused",
      "outputs": [
        {
          "internalType": "bool",
          "name": "",
          "type": "bool"
        }
      ],
      "stateMutability": "view",
      "type": "function",
      "constant": true
    },
    {
      "inputs": [
        {
          "internalType": "bytes32",
          "name": "role",
          "type": "bytes32"
        },
        {
          "internalType": "address",
          "name": "account",
          "type": "address"
        }
      ],
      "name": "renounceRole",
      "outputs": [],
      "stateMutability": "nonpayable",
      "type": "function"
    },
    {
      "inputs": [
        {
          "internalType": "bytes32",
          "name": "role",
          "type": "bytes32"
        },
        {
          "internalType": "address",
          "name": "account",
          "type": "address"
        }
      ],
      "name": "revokeRole",
      "outputs": [],
      "stateMutability": "nonpayable",
      "type": "function"
    },
    {
      "inputs": [
        {
          "internalType": "address",
          "name": "from",
          "type": "address"
        },
        {
          "internalType": "address",
          "name": "to",
          "type": "address"
        },
        {
          "internalType": "uint256",
          "name": "tokenId",
          "type": "uint256"
        }
      ],
      "name": "safeTransferFrom",
      "outputs": [],
      "stateMutability": "nonpayable",
      "type": "function"
    },
    {
      "inputs": [
        {
          "internalType": "address",
          "name": "from",
          "type": "address"
        },
        {
          "internalType": "address",
          "name": "to",
          "type": "address"
        },
        {
          "internalType": "uint256",
          "name": "tokenId",
          "type": "uint256"
        },
        {
          "internalType": "bytes",
          "name": "_data",
          "type": "bytes"
        }
      ],
      "name": "safeTransferFrom",
      "outputs": [],
      "stateMutability": "nonpayable",
      "type": "function"
    },
    {
      "inputs": [
        {
          "internalType": "address",
          "name": "operator",
          "type": "address"
        },
        {
          "internalType": "bool",
          "name": "approved",
          "type": "bool"
        }
      ],
      "name": "setApprovalForAll",
      "outputs": [],
      "stateMutability": "nonpayable",
      "type": "function"
    },
    {
      "inputs": [],
      "name": "symbol",
      "outputs": [
        {
          "internalType": "string",
          "name": "",
          "type": "string"
        }
      ],
      "stateMutability": "view",
      "type": "function",
      "constant": true
    },
    {
      "inputs": [
        {
          "internalType": "uint256",
          "name": "index",
          "type": "uint256"
        }
      ],
      "name": "tokenByIndex",
      "outputs": [
        {
          "internalType": "uint256",
          "name": "",
          "type": "uint256"
        }
      ],
      "stateMutability": "view",
      "type": "function",
      "constant": true
    },
    {
      "inputs": [
        {
          "internalType": "address",
          "name": "owner",
          "type": "address"
        },
        {
          "internalType": "uint256",
          "name": "index",
          "type": "uint256"
        }
      ],
      "name": "tokenOfOwnerByIndex",
      "outputs": [
        {
          "internalType": "uint256",
          "name": "",
          "type": "uint256"
        }
      ],
      "stateMutability": "view",
      "type": "function",
      "constant": true
    },
    {
      "inputs": [
        {
          "internalType": "uint256",
          "name": "tokenId",
          "type": "uint256"
        }
      ],
      "name": "tokenURI",
      "outputs": [
        {
          "internalType": "string",
          "name": "",
          "type": "string"
        }
      ],
      "stateMutability": "view",
      "type": "function",
      "constant": true
    },
    {
      "inputs": [],
      "name": "totalSupply",
      "outputs": [
        {
          "internalType": "uint256",
          "name": "",
          "type": "uint256"
        }
      ],
      "stateMutability": "view",
      "type": "function",
      "constant": true
    },
    {
      "inputs": [
        {
          "internalType": "address",
          "name": "from",
          "type": "address"
        },
        {
          "internalType": "address",
          "name": "to",
          "type": "address"
        },
        {
          "internalType": "uint256",
          "name": "tokenId",
          "type": "uint256"
        }
      ],
      "name": "transferFrom",
      "outputs": [],
      "stateMutability": "nonpayable",
      "type": "function"
    },
    {
      "inputs": [],
      "name": "initialize",
      "outputs": [],
      "stateMutability": "nonpayable",
      "type": "function"
    },
    {
      "inputs": [],
      "name": "pause",
      "outputs": [],
      "stateMutability": "nonpayable",
      "type": "function"
    },
    {
      "inputs": [],
      "name": "unpause",
      "outputs": [],
      "stateMutability": "nonpayable",
      "type": "function"
    },
    {
      "inputs": [
        {
          "internalType": "address",
          "name": "to",
          "type": "address"
        }
      ],
      "name": "safeMint",
      "outputs": [],
      "stateMutability": "nonpayable",
      "type": "function"
    },
    {
      "inputs": [
        {
          "internalType": "bytes4",
          "name": "interfaceId",
          "type": "bytes4"
        }
      ],
      "name": "supportsInterface",
      "outputs": [
        {
          "internalType": "bool",
          "name": "",
          "type": "bool"
        }
      ],
      "stateMutability": "view",
      "type": "function",
      "constant": true
    }
  ],
  "bytecode": "0x60806040523480156200001157600080fd5b50600060019054906101000a900460ff166200003c5760008054906101000a900460ff16156200004d565b6200004c6200010960201b60201c565b5b6200008f576040517f08c379a00000000000000000000000000000000000000000000000000000000081526004016200008690620001d1565b60405180910390fd5b60008060019054906101000a900460ff161590508015620000e0576001600060016101000a81548160ff02191690831515021790555060016000806101000a81548160ff0219169083151502179055505b8015620001025760008060016101000a81548160ff0219169083151502179055505b50620001f3565b600062000121306200012760201b6200122a1760201c565b15905090565b6000808273ffffffffffffffffffffffffffffffffffffffff163b119050919050565b600082825260208201905092915050565b7f496e697469616c697a61626c653a20636f6e747261637420697320616c72656160008201527f647920696e697469616c697a6564000000000000000000000000000000000000602082015250565b6000620001b9602e836200014a565b9150620001c6826200015b565b604082019050919050565b60006020820190508181036000830152620001ec81620001aa565b9050919050565b61471480620002036000396000f3fe608060405234801561001057600080fd5b50600436106101da5760003560e01c80635c975abb11610104578063a217fddf116100a2578063d539139311610071578063d53913931461053f578063d547741f1461055d578063e63ab1e914610579578063e985e9c514610597576101da565b8063a217fddf146104b9578063a22cb465146104d7578063b88d4fde146104f3578063c87b56dd1461050f576101da565b80638129fc1c116100de5780638129fc1c146104575780638456cb591461046157806391d148541461046b57806395d89b411461049b576101da565b80635c975abb146103d95780636352211e146103f757806370a0823114610427576101da565b80632f2ff15d1161017c57806340d097c31161014b57806340d097c31461035557806342842e0e1461037157806342966c681461038d5780634f6ccce7146103a9576101da565b80632f2ff15d146102e35780632f745c59146102ff57806336568abe1461032f5780633f4ba83a1461034b576101da565b8063095ea7b3116101b8578063095ea7b31461025d57806318160ddd1461027957806323b872dd14610297578063248a9ca3146102b3576101da565b806301ffc9a7146101df57806306fdde031461020f578063081812fc1461022d575b600080fd5b6101f960048036038101906101f49190612f95565b6105c7565b6040516102069190612fdd565b60405180910390f35b6102176105d9565b6040516102249190613091565b60405180910390f35b610247600480360381019061024291906130e9565b61066b565b6040516102549190613157565b60405180910390f35b6102776004803603810190610272919061319e565b6106f0565b005b610281610808565b60405161028e91906131ed565b60405180910390f35b6102b160048036038101906102ac9190613208565b610815565b005b6102cd60048036038101906102c89190613291565b610875565b6040516102da91906132cd565b60405180910390f35b6102fd60048036038101906102f891906132e8565b610895565b005b6103196004803603810190610314919061319e565b6108be565b60405161032691906131ed565b60405180910390f35b610349600480360381019061034491906132e8565b610963565b005b6103536109e6565b005b61036f600480360381019061036a9190613328565b610a23565b005b61038b60048036038101906103869190613208565b610a7e565b005b6103a760048036038101906103a291906130e9565b610a9e565b005b6103c360048036038101906103be91906130e9565b610afa565b6040516103d091906131ed565b60405180910390f35b6103e1610b6b565b6040516103ee9190612fdd565b60405180910390f35b610411600480360381019061040c91906130e9565b610b82565b60405161041e9190613157565b60405180910390f35b610441600480360381019061043c9190613328565b610c34565b60405161044e91906131ed565b60405180910390f35b61045f610cec565b005b610469610ec5565b005b610485600480360381019061048091906132e8565b610f02565b6040516104929190612fdd565b60405180910390f35b6104a3610f6d565b6040516104b09190613091565b60405180910390f35b6104c1610fff565b6040516104ce91906132cd565b60405180910390f35b6104f160048036038101906104ec9190613381565b611006565b005b61050d600480360381019061050891906134f6565b61101c565b005b610529600480360381019061052491906130e9565b61107e565b6040516105369190613091565b60405180910390f35b610547611125565b60405161055491906132cd565b60405180910390f35b610577600480360381019061057291906132e8565b611149565b005b610581611172565b60405161058e91906132cd565b60405180910390f35b6105b160048036038101906105ac9190613579565b611196565b6040516105be9190612fdd565b60405180910390f35b60006105d28261124d565b9050919050565b6060606580546105e8906135e8565b80601f0160208091040260200160405190810160405280929190818152602001828054610614906135e8565b80156106615780601f1061063657610100808354040283529160200191610661565b820191906000526020600020905b81548152906001019060200180831161064457829003601f168201915b5050505050905090565b6000610676826112c7565b6106b5576040517f08c379a00000000000000000000000000000000000000000000000000000000081526004016106ac9061368c565b60405180910390fd5b6069600083815260200190815260200160002060009054906101000a900473ffffffffffffffffffffffffffffffffffffffff169050919050565b60006106fb82610b82565b90508073ffffffffffffffffffffffffffffffffffffffff168373ffffffffffffffffffffffffffffffffffffffff16141561076c576040517f08c379a00000000000000000000000000000000000000000000000000000000081526004016107639061371e565b60405180910390fd5b8073ffffffffffffffffffffffffffffffffffffffff1661078b611333565b73ffffffffffffffffffffffffffffffffffffffff1614806107ba57506107b9816107b4611333565b611196565b5b6107f9576040517f08c379a00000000000000000000000000000000000000000000000000000000081526004016107f0906137b0565b60405180910390fd5b610803838361133b565b505050565b6000609980549050905090565b610826610820611333565b826113f4565b610865576040517f08c379a000000000000000000000000000000000000000000000000000000000815260040161085c90613842565b60405180910390fd5b6108708383836114d2565b505050565b600060fb6000838152602001908152602001600020600101549050919050565b61089e82610875565b6108af816108aa611333565b611739565b6108b983836117d6565b505050565b60006108c983610c34565b821061090a576040517f08c379a0000000000000000000000000000000000000000000000000000000008152600401610901906138d4565b60405180910390fd5b609760008473ffffffffffffffffffffffffffffffffffffffff1673ffffffffffffffffffffffffffffffffffffffff168152602001908152602001600020600083815260200190815260200160002054905092915050565b61096b611333565b73ffffffffffffffffffffffffffffffffffffffff168173ffffffffffffffffffffffffffffffffffffffff16146109d8576040517f08c379a00000000000000000000000000000000000000000000000000000000081526004016109cf90613966565b60405180910390fd5b6109e282826118b7565b5050565b7f65d7a28e3265b37a6474929f336521b332c1681b933f6cb9f3376673440d862a610a1881610a13611333565b611739565b610a20611999565b50565b7f9f2df0fed2c77648de5860a4cc508cd0818c85b8b8a1ab4ceeef8d981c8956a6610a5581610a50611333565b611739565b6000610a6261015f611a3b565b9050610a6f61015f611a49565b610a798382611a5f565b505050565b610a998383836040518060200160405280600081525061101c565b505050565b610aaf610aa9611333565b826113f4565b610aee576040517f08c379a0000000000000000000000000000000000000000000000000000000008152600401610ae5906139f8565b60405180910390fd5b610af781611a7d565b50565b6000610b04610808565b8210610b45576040517f08c379a0000000000000000000000000000000000000000000000000000000008152600401610b3c90613a8a565b60405180910390fd5b60998281548110610b5957610b58613aaa565b5b90600052602060002001549050919050565b600060c960009054906101000a900460ff16905090565b6000806067600084815260200190815260200160002060009054906101000a900473ffffffffffffffffffffffffffffffffffffffff169050600073ffffffffffffffffffffffffffffffffffffffff168173ffffffffffffffffffffffffffffffffffffffff161415610c2b576040517f08c379a0000000000000000000000000000000000000000000000000000000008152600401610c2290613b4b565b60405180910390fd5b80915050919050565b60008073ffffffffffffffffffffffffffffffffffffffff168273ffffffffffffffffffffffffffffffffffffffff161415610ca5576040517f08c379a0000000000000000000000000000000000000000000000000000000008152600401610c9c90613bdd565b60405180910390fd5b606860008373ffffffffffffffffffffffffffffffffffffffff1673ffffffffffffffffffffffffffffffffffffffff168152602001908152602001600020549050919050565b600060019054906101000a900460ff16610d145760008054906101000a900460ff1615610d1d565b610d1c611b9a565b5b610d5c576040517f08c379a0000000000000000000000000000000000000000000000000000000008152600401610d5390613c6f565b60405180910390fd5b60008060019054906101000a900460ff161590508015610dac576001600060016101000a81548160ff02191690831515021790555060016000806101000a81548160ff0219169083151502179055505b610e206040518060400160405280600581526020017f4d49524c730000000000000000000000000000000000000000000000000000008152506040518060400160405280600581526020017f4d49524c73000000000000000000000000000000000000000000000000000000815250611bab565b610e28611c08565b610e30611c59565b610e38611cb2565b610e40611d03565b610e4d6000801b336117d6565b610e777f65d7a28e3265b37a6474929f336521b332c1681b933f6cb9f3376673440d862a336117d6565b610ea17f9f2df0fed2c77648de5860a4cc508cd0818c85b8b8a1ab4ceeef8d981c8956a6336117d6565b8015610ec25760008060016101000a81548160ff0219169083151502179055505b50565b7f65d7a28e3265b37a6474929f336521b332c1681b933f6cb9f3376673440d862a610ef781610ef2611333565b611739565b610eff611d54565b50565b600060fb600084815260200190815260200160002060000160008373ffffffffffffffffffffffffffffffffffffffff1673ffffffffffffffffffffffffffffffffffffffff16815260200190815260200160002060009054906101000a900460ff16905092915050565b606060668054610f7c906135e8565b80601f0160208091040260200160405190810160405280929190818152602001828054610fa8906135e8565b8015610ff55780601f10610fca57610100808354040283529160200191610ff5565b820191906000526020600020905b815481529060010190602001808311610fd857829003601f168201915b5050505050905090565b6000801b81565b611018611011611333565b8383611df7565b5050565b61102d611027611333565b836113f4565b61106c576040517f08c379a000000000000000000000000000000000000000000000000000000000815260040161106390613842565b60405180910390fd5b61107884848484611f64565b50505050565b6060611089826112c7565b6110c8576040517f08c379a00000000000000000000000000000000000000000000000000000000081526004016110bf90613d01565b60405180910390fd5b60006110d2611fc0565b905060008151116110f2576040518060200160405280600081525061111d565b806110fc84611ffd565b60405160200161110d929190613d5d565b6040516020818303038152906040525b915050919050565b7f9f2df0fed2c77648de5860a4cc508cd0818c85b8b8a1ab4ceeef8d981c8956a681565b61115282610875565b6111638161115e611333565b611739565b61116d83836118b7565b505050565b7f65d7a28e3265b37a6474929f336521b332c1681b933f6cb9f3376673440d862a81565b6000606a60008473ffffffffffffffffffffffffffffffffffffffff1673ffffffffffffffffffffffffffffffffffffffff16815260200190815260200160002060008373ffffffffffffffffffffffffffffffffffffffff1673ffffffffffffffffffffffffffffffffffffffff16815260200190815260200160002060009054906101000a900460ff16905092915050565b6000808273ffffffffffffffffffffffffffffffffffffffff163b119050919050565b60007f7965db0b000000000000000000000000000000000000000000000000000000007bffffffffffffffffffffffffffffffffffffffffffffffffffffffff1916827bffffffffffffffffffffffffffffffffffffffffffffffffffffffff191614806112c057506112bf8261215e565b5b9050919050565b60008073ffffffffffffffffffffffffffffffffffffffff166067600084815260200190815260200160002060009054906101000a900473ffffffffffffffffffffffffffffffffffffffff1673ffffffffffffffffffffffffffffffffffffffff1614159050919050565b600033905090565b816069600083815260200190815260200160002060006101000a81548173ffffffffffffffffffffffffffffffffffffffff021916908373ffffffffffffffffffffffffffffffffffffffff160217905550808273ffffffffffffffffffffffffffffffffffffffff166113ae83610b82565b73ffffffffffffffffffffffffffffffffffffffff167f8c5be1e5ebec7d5bd14f71427d1e84f3dd0314c0f7b2291e5b200ac8c7c3b92560405160405180910390a45050565b60006113ff826112c7565b61143e576040517f08c379a000000000000000000000000000000000000000000000000000000000815260040161143590613df3565b60405180910390fd5b600061144983610b82565b90508073ffffffffffffffffffffffffffffffffffffffff168473ffffffffffffffffffffffffffffffffffffffff1614806114b857508373ffffffffffffffffffffffffffffffffffffffff166114a08461066b565b73ffffffffffffffffffffffffffffffffffffffff16145b806114c957506114c88185611196565b5b91505092915050565b8273ffffffffffffffffffffffffffffffffffffffff166114f282610b82565b73ffffffffffffffffffffffffffffffffffffffff1614611548576040517f08c379a000000000000000000000000000000000000000000000000000000000815260040161153f90613e85565b60405180910390fd5b600073ffffffffffffffffffffffffffffffffffffffff168273ffffffffffffffffffffffffffffffffffffffff1614156115b8576040517f08c379a00000000000000000000000000000000000000000000000000000000081526004016115af90613f17565b60405180910390fd5b6115c38383836121d8565b6115ce60008261133b565b6001606860008573ffffffffffffffffffffffffffffffffffffffff1673ffffffffffffffffffffffffffffffffffffffff168152602001908152602001600020600082825461161e9190613f66565b925050819055506001606860008473ffffffffffffffffffffffffffffffffffffffff1673ffffffffffffffffffffffffffffffffffffffff16815260200190815260200160002060008282546116759190613f9a565b92505081905550816067600083815260200190815260200160002060006101000a81548173ffffffffffffffffffffffffffffffffffffffff021916908373ffffffffffffffffffffffffffffffffffffffff160217905550808273ffffffffffffffffffffffffffffffffffffffff168473ffffffffffffffffffffffffffffffffffffffff167fddf252ad1be2c89b69c2b068fc378daa952ba7f163c4a11628f55a4df523b3ef60405160405180910390a4611734838383612230565b505050565b6117438282610f02565b6117d2576117688173ffffffffffffffffffffffffffffffffffffffff166014612235565b6117768360001c6020612235565b604051602001611787929190614088565b6040516020818303038152906040526040517f08c379a00000000000000000000000000000000000000000000000000000000081526004016117c99190613091565b60405180910390fd5b5050565b6117e08282610f02565b6118b357600160fb600084815260200190815260200160002060000160008373ffffffffffffffffffffffffffffffffffffffff1673ffffffffffffffffffffffffffffffffffffffff16815260200190815260200160002060006101000a81548160ff021916908315150217905550611858611333565b73ffffffffffffffffffffffffffffffffffffffff168173ffffffffffffffffffffffffffffffffffffffff16837f2f8788117e7eff1d82e926ec794901d17c78024a50270940304540a733656f0d60405160405180910390a45b5050565b6118c18282610f02565b1561199557600060fb600084815260200190815260200160002060000160008373ffffffffffffffffffffffffffffffffffffffff1673ffffffffffffffffffffffffffffffffffffffff16815260200190815260200160002060006101000a81548160ff02191690831515021790555061193a611333565b73ffffffffffffffffffffffffffffffffffffffff168173ffffffffffffffffffffffffffffffffffffffff16837ff6391f5c32d9c69d2a47ea670b442974b53935d1edc7fd64eb21e047a839171b60405160405180910390a45b5050565b6119a1610b6b565b6119e0576040517f08c379a00000000000000000000000000000000000000000000000000000000081526004016119d79061410e565b60405180910390fd5b600060c960006101000a81548160ff0219169083151502179055507f5db9ee0a495bf2e6ff9c91a7834c1ba4fdd244a5e8aa4e537bd38aeae4b073aa611a24611333565b604051611a319190613157565b60405180910390a1565b600081600001549050919050565b6001816000016000828254019250508190555050565b611a79828260405180602001604052806000815250612471565b5050565b6000611a8882610b82565b9050611a96816000846121d8565b611aa160008361133b565b6001606860008373ffffffffffffffffffffffffffffffffffffffff1673ffffffffffffffffffffffffffffffffffffffff1681526020019081526020016000206000828254611af19190613f66565b925050819055506067600083815260200190815260200160002060006101000a81549073ffffffffffffffffffffffffffffffffffffffff021916905581600073ffffffffffffffffffffffffffffffffffffffff168273ffffffffffffffffffffffffffffffffffffffff167fddf252ad1be2c89b69c2b068fc378daa952ba7f163c4a11628f55a4df523b3ef60405160405180910390a4611b9681600084612230565b5050565b6000611ba53061122a565b15905090565b600060019054906101000a900460ff16611bfa576040517f08c379a0000000000000000000000000000000000000000000000000000000008152600401611bf1906141a0565b60405180910390fd5b611c0482826124cc565b5050565b600060019054906101000a900460ff16611c57576040517f08c379a0000000000000000000000000000000000000000000000000000000008152600401611c4e906141a0565b60405180910390fd5b565b600060019054906101000a900460ff16611ca8576040517f08c379a0000000000000000000000000000000000000000000000000000000008152600401611c9f906141a0565b60405180910390fd5b611cb061254d565b565b600060019054906101000a900460ff16611d01576040517f08c379a0000000000000000000000000000000000000000000000000000000008152600401611cf8906141a0565b60405180910390fd5b565b600060019054906101000a900460ff16611d52576040517f08c379a0000000000000000000000000000000000000000000000000000000008152600401611d49906141a0565b60405180910390fd5b565b611d5c610b6b565b15611d9c576040517f08c379a0000000000000000000000000000000000000000000000000000000008152600401611d939061420c565b60405180910390fd5b600160c960006101000a81548160ff0219169083151502179055507f62e78cea01bee320cd4e420270b5ea74000d11b0c9f74754ebdbfc544b05a258611de0611333565b604051611ded9190613157565b60405180910390a1565b8173ffffffffffffffffffffffffffffffffffffffff168373ffffffffffffffffffffffffffffffffffffffff161415611e66576040517f08c379a0000000000000000000000000000000000000000000000000000000008152600401611e5d90614278565b60405180910390fd5b80606a60008573ffffffffffffffffffffffffffffffffffffffff1673ffffffffffffffffffffffffffffffffffffffff16815260200190815260200160002060008473ffffffffffffffffffffffffffffffffffffffff1673ffffffffffffffffffffffffffffffffffffffff16815260200190815260200160002060006101000a81548160ff0219169083151502179055508173ffffffffffffffffffffffffffffffffffffffff168373ffffffffffffffffffffffffffffffffffffffff167f17307eab39ab6107e8899845ad3d59bd9653f200f220920489ca2b5937696c3183604051611f579190612fdd565b60405180910390a3505050565b611f6f8484846114d2565b611f7b848484846125b9565b611fba576040517f08c379a0000000000000000000000000000000000000000000000000000000008152600401611fb19061430a565b60405180910390fd5b50505050565b60606040518060400160405280601281526020017f68747470733a2f2f72616e646f6d2e636f6d0000000000000000000000000000815250905090565b60606000821415612045576040518060400160405280600181526020017f30000000000000000000000000000000000000000000000000000000000000008152509050612159565b600082905060005b600082146120775780806120609061432a565b915050600a8261207091906143a2565b915061204d565b60008167ffffffffffffffff811115612093576120926133cb565b5b6040519080825280601f01601f1916602001820160405280156120c55781602001600182028036833780820191505090505b5090505b60008514612152576001826120de9190613f66565b9150600a856120ed91906143d3565b60306120f99190613f9a565b60f81b81838151811061210f5761210e613aaa565b5b60200101907effffffffffffffffffffffffffffffffffffffffffffffffffffffffffffff1916908160001a905350600a8561214b91906143a2565b94506120c9565b8093505050505b919050565b60007f780e9d63000000000000000000000000000000000000000000000000000000007bffffffffffffffffffffffffffffffffffffffffffffffffffffffff1916827bffffffffffffffffffffffffffffffffffffffffffffffffffffffff191614806121d157506121d082612741565b5b9050919050565b6121e0610b6b565b15612220576040517f08c379a00000000000000000000000000000000000000000000000000000000081526004016122179061420c565b60405180910390fd5b61222b838383612823565b505050565b505050565b6060600060028360026122489190614404565b6122529190613f9a565b67ffffffffffffffff81111561226b5761226a6133cb565b5b6040519080825280601f01601f19166020018201604052801561229d5781602001600182028036833780820191505090505b5090507f3000000000000000000000000000000000000000000000000000000000000000816000815181106122d5576122d4613aaa565b5b60200101907effffffffffffffffffffffffffffffffffffffffffffffffffffffffffffff1916908160001a9053507f78000000000000000000000000000000000000000000000000000000000000008160018151811061233957612338613aaa565b5b60200101907effffffffffffffffffffffffffffffffffffffffffffffffffffffffffffff1916908160001a905350600060018460026123799190614404565b6123839190613f9a565b90505b6001811115612423577f3031323334353637383961626364656600000000000000000000000000000000600f8616601081106123c5576123c4613aaa565b5b1a60f81b8282815181106123dc576123db613aaa565b5b60200101907effffffffffffffffffffffffffffffffffffffffffffffffffffffffffffff1916908160001a905350600485901c94508061241c9061445e565b9050612386565b5060008414612467576040517f08c379a000000000000000000000000000000000000000000000000000000000815260040161245e906144d4565b60405180910390fd5b8091505092915050565b61247b8383612937565b61248860008484846125b9565b6124c7576040517f08c379a00000000000000000000000000000000000000000000000000000000081526004016124be9061430a565b60405180910390fd5b505050565b600060019054906101000a900460ff1661251b576040517f08c379a0000000000000000000000000000000000000000000000000000000008152600401612512906141a0565b60405180910390fd5b8160659080519060200190612531929190612e86565b508060669080519060200190612548929190612e86565b505050565b600060019054906101000a900460ff1661259c576040517f08c379a0000000000000000000000000000000000000000000000000000000008152600401612593906141a0565b60405180910390fd5b600060c960006101000a81548160ff021916908315150217905550565b60006125da8473ffffffffffffffffffffffffffffffffffffffff1661122a565b15612734578373ffffffffffffffffffffffffffffffffffffffff1663150b7a02612603611333565b8786866040518563ffffffff1660e01b81526004016126259493929190614549565b6020604051808303816000875af192505050801561266157506040513d601f19601f8201168201806040525081019061265e91906145aa565b60015b6126e4573d8060008114612691576040519150601f19603f3d011682016040523d82523d6000602084013e612696565b606091505b506000815114156126dc576040517f08c379a00000000000000000000000000000000000000000000000000000000081526004016126d39061430a565b60405180910390fd5b805181602001fd5b63150b7a0260e01b7bffffffffffffffffffffffffffffffffffffffffffffffffffffffff1916817bffffffffffffffffffffffffffffffffffffffffffffffffffffffff191614915050612739565b600190505b949350505050565b60007f80ac58cd000000000000000000000000000000000000000000000000000000007bffffffffffffffffffffffffffffffffffffffffffffffffffffffff1916827bffffffffffffffffffffffffffffffffffffffffffffffffffffffff1916148061280c57507f5b5e139f000000000000000000000000000000000000000000000000000000007bffffffffffffffffffffffffffffffffffffffffffffffffffffffff1916827bffffffffffffffffffffffffffffffffffffffffffffffffffffffff1916145b8061281c575061281b82612b11565b5b9050919050565b61282e838383612b7b565b600073ffffffffffffffffffffffffffffffffffffffff168373ffffffffffffffffffffffffffffffffffffffff1614156128715761286c81612b80565b6128b0565b8173ffffffffffffffffffffffffffffffffffffffff168373ffffffffffffffffffffffffffffffffffffffff16146128af576128ae8382612bc9565b5b5b600073ffffffffffffffffffffffffffffffffffffffff168273ffffffffffffffffffffffffffffffffffffffff1614156128f3576128ee81612d36565b612932565b8273ffffffffffffffffffffffffffffffffffffffff168273ffffffffffffffffffffffffffffffffffffffff1614612931576129308282612e07565b5b5b505050565b600073ffffffffffffffffffffffffffffffffffffffff168273ffffffffffffffffffffffffffffffffffffffff1614156129a7576040517f08c379a000000000000000000000000000000000000000000000000000000000815260040161299e90614623565b60405180910390fd5b6129b0816112c7565b156129f0576040517f08c379a00000000000000000000000000000000000000000000000000000000081526004016129e79061468f565b60405180910390fd5b6129fc600083836121d8565b6001606860008473ffffffffffffffffffffffffffffffffffffffff1673ffffffffffffffffffffffffffffffffffffffff1681526020019081526020016000206000828254612a4c9190613f9a565b92505081905550816067600083815260200190815260200160002060006101000a81548173ffffffffffffffffffffffffffffffffffffffff021916908373ffffffffffffffffffffffffffffffffffffffff160217905550808273ffffffffffffffffffffffffffffffffffffffff16600073ffffffffffffffffffffffffffffffffffffffff167fddf252ad1be2c89b69c2b068fc378daa952ba7f163c4a11628f55a4df523b3ef60405160405180910390a4612b0d60008383612230565b5050565b60007f01ffc9a7000000000000000000000000000000000000000000000000000000007bffffffffffffffffffffffffffffffffffffffffffffffffffffffff1916827bffffffffffffffffffffffffffffffffffffffffffffffffffffffff1916149050919050565b505050565b609980549050609a600083815260200190815260200160002081905550609981908060018154018082558091505060019003906000526020600020016000909190919091505550565b60006001612bd684610c34565b612be09190613f66565b9050600060986000848152602001908152602001600020549050818114612cc5576000609760008673ffffffffffffffffffffffffffffffffffffffff1673ffffffffffffffffffffffffffffffffffffffff168152602001908152602001600020600084815260200190815260200160002054905080609760008773ffffffffffffffffffffffffffffffffffffffff1673ffffffffffffffffffffffffffffffffffffffff168152602001908152602001600020600084815260200190815260200160002081905550816098600083815260200190815260200160002081905550505b6098600084815260200190815260200160002060009055609760008573ffffffffffffffffffffffffffffffffffffffff1673ffffffffffffffffffffffffffffffffffffffff16815260200190815260200160002060008381526020019081526020016000206000905550505050565b60006001609980549050612d4a9190613f66565b90506000609a6000848152602001908152602001600020549050600060998381548110612d7a57612d79613aaa565b5b906000526020600020015490508060998381548110612d9c57612d9b613aaa565b5b906000526020600020018190555081609a600083815260200190815260200160002081905550609a6000858152602001908152602001600020600090556099805480612deb57612dea6146af565b5b6001900381819060005260206000200160009055905550505050565b6000612e1283610c34565b905081609760008573ffffffffffffffffffffffffffffffffffffffff1673ffffffffffffffffffffffffffffffffffffffff168152602001908152602001600020600083815260200190815260200160002081905550806098600084815260200190815260200160002081905550505050565b828054612e92906135e8565b90600052602060002090601f016020900481019282612eb45760008555612efb565b82601f10612ecd57805160ff1916838001178555612efb565b82800160010185558215612efb579182015b82811115612efa578251825591602001919060010190612edf565b5b509050612f089190612f0c565b5090565b5b80821115612f25576000816000905550600101612f0d565b5090565b6000604051905090565b600080fd5b600080fd5b60007fffffffff0000000000000000000000000000000000000000000000000000000082169050919050565b612f7281612f3d565b8114612f7d57600080fd5b50565b600081359050612f8f81612f69565b92915050565b600060208284031215612fab57612faa612f33565b5b6000612fb984828501612f80565b91505092915050565b60008115159050919050565b612fd781612fc2565b82525050565b6000602082019050612ff26000830184612fce565b92915050565b600081519050919050565b600082825260208201905092915050565b60005b83811015613032578082015181840152602081019050613017565b83811115613041576000848401525b50505050565b6000601f19601f8301169050919050565b600061306382612ff8565b61306d8185613003565b935061307d818560208601613014565b61308681613047565b840191505092915050565b600060208201905081810360008301526130ab8184613058565b905092915050565b6000819050919050565b6130c6816130b3565b81146130d157600080fd5b50565b6000813590506130e3816130bd565b92915050565b6000602082840312156130ff576130fe612f33565b5b600061310d848285016130d4565b91505092915050565b600073ffffffffffffffffffffffffffffffffffffffff82169050919050565b600061314182613116565b9050919050565b61315181613136565b82525050565b600060208201905061316c6000830184613148565b92915050565b61317b81613136565b811461318657600080fd5b50565b60008135905061319881613172565b92915050565b600080604083850312156131b5576131b4612f33565b5b60006131c385828601613189565b92505060206131d4858286016130d4565b9150509250929050565b6131e7816130b3565b82525050565b600060208201905061320260008301846131de565b92915050565b60008060006060848603121561322157613220612f33565b5b600061322f86828701613189565b935050602061324086828701613189565b9250506040613251868287016130d4565b9150509250925092565b6000819050919050565b61326e8161325b565b811461327957600080fd5b50565b60008135905061328b81613265565b92915050565b6000602082840312156132a7576132a6612f33565b5b60006132b58482850161327c565b91505092915050565b6132c78161325b565b82525050565b60006020820190506132e260008301846132be565b92915050565b600080604083850312156132ff576132fe612f33565b5b600061330d8582860161327c565b925050602061331e85828601613189565b9150509250929050565b60006020828403121561333e5761333d612f33565b5b600061334c84828501613189565b91505092915050565b61335e81612fc2565b811461336957600080fd5b50565b60008135905061337b81613355565b92915050565b6000806040838503121561339857613397612f33565b5b60006133a685828601613189565b92505060206133b78582860161336c565b9150509250929050565b600080fd5b600080fd5b7f4e487b7100000000000000000000000000000000000000000000000000000000600052604160045260246000fd5b61340382613047565b810181811067ffffffffffffffff82111715613422576134216133cb565b5b80604052505050565b6000613435612f29565b905061344182826133fa565b919050565b600067ffffffffffffffff821115613461576134606133cb565b5b61346a82613047565b9050602081019050919050565b82818337600083830152505050565b600061349961349484613446565b61342b565b9050828152602081018484840111156134b5576134b46133c6565b5b6134c0848285613477565b509392505050565b600082601f8301126134dd576134dc6133c1565b5b81356134ed848260208601613486565b91505092915050565b600080600080608085870312156135105761350f612f33565b5b600061351e87828801613189565b945050602061352f87828801613189565b9350506040613540878288016130d4565b925050606085013567ffffffffffffffff81111561356157613560612f38565b5b61356d878288016134c8565b91505092959194509250565b600080604083850312156135905761358f612f33565b5b600061359e85828601613189565b92505060206135af85828601613189565b9150509250929050565b7f4e487b7100000000000000000000000000000000000000000000000000000000600052602260045260246000fd5b6000600282049050600182168061360057607f821691505b60208210811415613614576136136135b9565b5b50919050565b7f4552433732313a20617070726f76656420717565727920666f72206e6f6e657860008201527f697374656e7420746f6b656e0000000000000000000000000000000000000000602082015250565b6000613676602c83613003565b91506136818261361a565b604082019050919050565b600060208201905081810360008301526136a581613669565b9050919050565b7f4552433732313a20617070726f76616c20746f2063757272656e74206f776e6560008201527f7200000000000000000000000000000000000000000000000000000000000000602082015250565b6000613708602183613003565b9150613713826136ac565b604082019050919050565b60006020820190508181036000830152613737816136fb565b9050919050565b7f4552433732313a20617070726f76652063616c6c6572206973206e6f74206f7760008201527f6e6572206e6f7220617070726f76656420666f7220616c6c0000000000000000602082015250565b600061379a603883613003565b91506137a58261373e565b604082019050919050565b600060208201905081810360008301526137c98161378d565b9050919050565b7f4552433732313a207472616e736665722063616c6c6572206973206e6f74206f60008201527f776e6572206e6f7220617070726f766564000000000000000000000000000000602082015250565b600061382c603183613003565b9150613837826137d0565b604082019050919050565b6000602082019050818103600083015261385b8161381f565b9050919050565b7f455243373231456e756d657261626c653a206f776e657220696e646578206f7560008201527f74206f6620626f756e6473000000000000000000000000000000000000000000602082015250565b60006138be602b83613003565b91506138c982613862565b604082019050919050565b600060208201905081810360008301526138ed816138b1565b9050919050565b7f416363657373436f6e74726f6c3a2063616e206f6e6c792072656e6f756e636560008201527f20726f6c657320666f722073656c660000000000000000000000000000000000602082015250565b6000613950602f83613003565b915061395b826138f4565b604082019050919050565b6000602082019050818103600083015261397f81613943565b9050919050565b7f4552433732314275726e61626c653a2063616c6c6572206973206e6f74206f7760008201527f6e6572206e6f7220617070726f76656400000000000000000000000000000000602082015250565b60006139e2603083613003565b91506139ed82613986565b604082019050919050565b60006020820190508181036000830152613a11816139d5565b9050919050565b7f455243373231456e756d657261626c653a20676c6f62616c20696e646578206f60008201527f7574206f6620626f756e64730000000000000000000000000000000000000000602082015250565b6000613a74602c83613003565b9150613a7f82613a18565b604082019050919050565b60006020820190508181036000830152613aa381613a67565b9050919050565b7f4e487b7100000000000000000000000000000000000000000000000000000000600052603260045260246000fd5b7f4552433732313a206f776e657220717565727920666f72206e6f6e657869737460008201527f656e7420746f6b656e0000000000000000000000000000000000000000000000602082015250565b6000613b35602983613003565b9150613b4082613ad9565b604082019050919050565b60006020820190508181036000830152613b6481613b28565b9050919050565b7f4552433732313a2062616c616e636520717565727920666f7220746865207a6560008201527f726f206164647265737300000000000000000000000000000000000000000000602082015250565b6000613bc7602a83613003565b9150613bd282613b6b565b604082019050919050565b60006020820190508181036000830152613bf681613bba565b9050919050565b7f496e697469616c697a61626c653a20636f6e747261637420697320616c72656160008201527f647920696e697469616c697a6564000000000000000000000000000000000000602082015250565b6000613c59602e83613003565b9150613c6482613bfd565b604082019050919050565b60006020820190508181036000830152613c8881613c4c565b9050919050565b7f4552433732314d657461646174613a2055524920717565727920666f72206e6f60008201527f6e6578697374656e7420746f6b656e0000000000000000000000000000000000602082015250565b6000613ceb602f83613003565b9150613cf682613c8f565b604082019050919050565b60006020820190508181036000830152613d1a81613cde565b9050919050565b600081905092915050565b6000613d3782612ff8565b613d418185613d21565b9350613d51818560208601613014565b80840191505092915050565b6000613d698285613d2c565b9150613d758284613d2c565b91508190509392505050565b7f4552433732313a206f70657261746f7220717565727920666f72206e6f6e657860008201527f697374656e7420746f6b656e0000000000000000000000000000000000000000602082015250565b6000613ddd602c83613003565b9150613de882613d81565b604082019050919050565b60006020820190508181036000830152613e0c81613dd0565b9050919050565b7f4552433732313a207472616e736665722066726f6d20696e636f72726563742060008201527f6f776e6572000000000000000000000000000000000000000000000000000000602082015250565b6000613e6f602583613003565b9150613e7a82613e13565b604082019050919050565b60006020820190508181036000830152613e9e81613e62565b9050919050565b7f4552433732313a207472616e7366657220746f20746865207a65726f2061646460008201527f7265737300000000000000000000000000000000000000000000000000000000602082015250565b6000613f01602483613003565b9150613f0c82613ea5565b604082019050919050565b60006020820190508181036000830152613f3081613ef4565b9050919050565b7f4e487b7100000000000000000000000000000000000000000000000000000000600052601160045260246000fd5b6000613f71826130b3565b9150613f7c836130b3565b925082821015613f8f57613f8e613f37565b5b828203905092915050565b6000613fa5826130b3565b9150613fb0836130b3565b9250827fffffffffffffffffffffffffffffffffffffffffffffffffffffffffffffffff03821115613fe557613fe4613f37565b5b828201905092915050565b7f416363657373436f6e74726f6c3a206163636f756e7420000000000000000000600082015250565b6000614026601783613d21565b915061403182613ff0565b601782019050919050565b7f206973206d697373696e6720726f6c6520000000000000000000000000000000600082015250565b6000614072601183613d21565b915061407d8261403c565b601182019050919050565b600061409382614019565b915061409f8285613d2c565b91506140aa82614065565b91506140b68284613d2c565b91508190509392505050565b7f5061757361626c653a206e6f7420706175736564000000000000000000000000600082015250565b60006140f8601483613003565b9150614103826140c2565b602082019050919050565b60006020820190508181036000830152614127816140eb565b9050919050565b7f496e697469616c697a61626c653a20636f6e7472616374206973206e6f74206960008201527f6e697469616c697a696e67000000000000000000000000000000000000000000602082015250565b600061418a602b83613003565b91506141958261412e565b604082019050919050565b600060208201905081810360008301526141b98161417d565b9050919050565b7f5061757361626c653a2070617573656400000000000000000000000000000000600082015250565b60006141f6601083613003565b9150614201826141c0565b602082019050919050565b60006020820190508181036000830152614225816141e9565b9050919050565b7f4552433732313a20617070726f766520746f2063616c6c657200000000000000600082015250565b6000614262601983613003565b915061426d8261422c565b602082019050919050565b6000602082019050818103600083015261429181614255565b9050919050565b7f4552433732313a207472616e7366657220746f206e6f6e20455243373231526560008201527f63656976657220696d706c656d656e7465720000000000000000000000000000602082015250565b60006142f4603283613003565b91506142ff82614298565b604082019050919050565b60006020820190508181036000830152614323816142e7565b9050919050565b6000614335826130b3565b91507fffffffffffffffffffffffffffffffffffffffffffffffffffffffffffffffff82141561436857614367613f37565b5b600182019050919050565b7f4e487b7100000000000000000000000000000000000000000000000000000000600052601260045260246000fd5b60006143ad826130b3565b91506143b8836130b3565b9250826143c8576143c7614373565b5b828204905092915050565b60006143de826130b3565b91506143e9836130b3565b9250826143f9576143f8614373565b5b828206905092915050565b600061440f826130b3565b915061441a836130b3565b9250817fffffffffffffffffffffffffffffffffffffffffffffffffffffffffffffffff048311821515161561445357614452613f37565b5b828202905092915050565b6000614469826130b3565b9150600082141561447d5761447c613f37565b5b600182039050919050565b7f537472696e67733a20686578206c656e67746820696e73756666696369656e74600082015250565b60006144be602083613003565b91506144c982614488565b602082019050919050565b600060208201905081810360008301526144ed816144b1565b9050919050565b600081519050919050565b600082825260208201905092915050565b600061451b826144f4565b61452581856144ff565b9350614535818560208601613014565b61453e81613047565b840191505092915050565b600060808201905061455e6000830187613148565b61456b6020830186613148565b61457860408301856131de565b818103606083015261458a8184614510565b905095945050505050565b6000815190506145a481612f69565b92915050565b6000602082840312156145c0576145bf612f33565b5b60006145ce84828501614595565b91505092915050565b7f4552433732313a206d696e7420746f20746865207a65726f2061646472657373600082015250565b600061460d602083613003565b9150614618826145d7565b602082019050919050565b6000602082019050818103600083015261463c81614600565b9050919050565b7f4552433732313a20746f6b656e20616c7265616479206d696e74656400000000600082015250565b6000614679601c83613003565b915061468482614643565b602082019050919050565b600060208201905081810360008301526146a88161466c565b9050919050565b7f4e487b7100000000000000000000000000000000000000000000000000000000600052603160045260246000fdfea264697066735822122099dfea5262902a9cbf8d540d4b361ac7ef30f32f561d3ffcdc6bf2a3bd54410064736f6c634300080b0033",
  "immutableReferences": {},
  "source": "// SPDX-License-Identifier: MIT\npragma solidity ^0.8.11;\n\nimport \"@openzeppelin/contracts-upgradeable/token/ERC721/ERC721Upgradeable.sol\";\nimport \"@openzeppelin/contracts-upgradeable/token/ERC721/extensions/ERC721EnumerableUpgradeable.sol\";\nimport \"@openzeppelin/contracts-upgradeable/security/PausableUpgradeable.sol\";\nimport \"@openzeppelin/contracts-upgradeable/access/AccessControlUpgradeable.sol\";\nimport \"@openzeppelin/contracts-upgradeable/token/ERC721/extensions/ERC721BurnableUpgradeable.sol\";\nimport \"@openzeppelin/contracts-upgradeable/proxy/utils/Initializable.sol\";\nimport \"@openzeppelin/contracts-upgradeable/utils/CountersUpgradeable.sol\";\n\ncontract MIRLs is Initializable, ERC721Upgradeable, ERC721EnumerableUpgradeable, PausableUpgradeable, AccessControlUpgradeable, ERC721BurnableUpgradeable {\n    using CountersUpgradeable for CountersUpgradeable.Counter;\n\n    bytes32 public constant PAUSER_ROLE = keccak256(\"PAUSER_ROLE\");\n    bytes32 public constant MINTER_ROLE = keccak256(\"MINTER_ROLE\");\n    CountersUpgradeable.Counter private _tokenIdCounter;\n\n    /// @custom:oz-upgrades-unsafe-allow constructor\n    constructor() initializer {}\n\n    function initialize() initializer public {\n        __ERC721_init(\"MIRLs\", \"MIRLs\");\n        __ERC721Enumerable_init();\n        __Pausable_init();\n        __AccessControl_init();\n        __ERC721Burnable_init();\n\n        _grantRole(DEFAULT_ADMIN_ROLE, msg.sender);\n        _grantRole(PAUSER_ROLE, msg.sender);\n        _grantRole(MINTER_ROLE, msg.sender);\n    }\n\n    function _baseURI() internal pure override returns (string memory) {\n        return \"https://random.com\";\n    }\n\n    function pause() public onlyRole(PAUSER_ROLE) {\n        _pause();\n    }\n\n    function unpause() public onlyRole(PAUSER_ROLE) {\n        _unpause();\n    }\n\n    function safeMint(address to) public onlyRole(MINTER_ROLE) {\n        uint256 tokenId = _tokenIdCounter.current();\n        _tokenIdCounter.increment();\n        _safeMint(to, tokenId);\n    }\n\n    function _beforeTokenTransfer(address from, address to, uint256 tokenId)\n        internal\n        whenNotPaused\n        override(ERC721Upgradeable, ERC721EnumerableUpgradeable)\n    {\n        super._beforeTokenTransfer(from, to, tokenId);\n    }\n\n    // The following functions are overrides required by Solidity.\n\n    function supportsInterface(bytes4 interfaceId)\n        public\n        view\n        override(ERC721Upgradeable, ERC721EnumerableUpgradeable, AccessControlUpgradeable)\n        returns (bool)\n    {\n        return super.supportsInterface(interfaceId);\n    }\n}\n",
  "sourcePath": "/home/hungdevjs/Documents/blockchain-tuts/smart-contract-react/truffle/contracts/MIRLs.sol",
  "compiler": {
    "name": "solc",
    "version": "0.8.11+commit.d7f03943.Emscripten.clang"
  },
  "schemaVersion": "3.4.5",
  "updatedAt": "2022-02-21T14:01:17.139Z",
  "networkType": "ethereum",
  "devdoc": {
    "kind": "dev",
    "methods": {
      "approve(address,uint256)": {
        "details": "See {IERC721-approve}."
      },
      "balanceOf(address)": {
        "details": "See {IERC721-balanceOf}."
      },
      "burn(uint256)": {
        "details": "Burns `tokenId`. See {ERC721-_burn}. Requirements: - The caller must own `tokenId` or be an approved operator."
      },
      "constructor": {
        "custom:oz-upgrades-unsafe-allow": "constructor"
      },
      "getApproved(uint256)": {
        "details": "See {IERC721-getApproved}."
      },
      "getRoleAdmin(bytes32)": {
        "details": "Returns the admin role that controls `role`. See {grantRole} and {revokeRole}. To change a role's admin, use {_setRoleAdmin}."
      },
      "grantRole(bytes32,address)": {
        "details": "Grants `role` to `account`. If `account` had not been already granted `role`, emits a {RoleGranted} event. Requirements: - the caller must have ``role``'s admin role."
      },
      "hasRole(bytes32,address)": {
        "details": "Returns `true` if `account` has been granted `role`."
      },
      "isApprovedForAll(address,address)": {
        "details": "See {IERC721-isApprovedForAll}."
      },
      "name()": {
        "details": "See {IERC721Metadata-name}."
      },
      "ownerOf(uint256)": {
        "details": "See {IERC721-ownerOf}."
      },
      "paused()": {
        "details": "Returns true if the contract is paused, and false otherwise."
      },
      "renounceRole(bytes32,address)": {
        "details": "Revokes `role` from the calling account. Roles are often managed via {grantRole} and {revokeRole}: this function's purpose is to provide a mechanism for accounts to lose their privileges if they are compromised (such as when a trusted device is misplaced). If the calling account had been revoked `role`, emits a {RoleRevoked} event. Requirements: - the caller must be `account`."
      },
      "revokeRole(bytes32,address)": {
        "details": "Revokes `role` from `account`. If `account` had been granted `role`, emits a {RoleRevoked} event. Requirements: - the caller must have ``role``'s admin role."
      },
      "safeTransferFrom(address,address,uint256)": {
        "details": "See {IERC721-safeTransferFrom}."
      },
      "safeTransferFrom(address,address,uint256,bytes)": {
        "details": "See {IERC721-safeTransferFrom}."
      },
      "setApprovalForAll(address,bool)": {
        "details": "See {IERC721-setApprovalForAll}."
      },
      "symbol()": {
        "details": "See {IERC721Metadata-symbol}."
      },
      "tokenByIndex(uint256)": {
        "details": "See {IERC721Enumerable-tokenByIndex}."
      },
      "tokenOfOwnerByIndex(address,uint256)": {
        "details": "See {IERC721Enumerable-tokenOfOwnerByIndex}."
      },
      "tokenURI(uint256)": {
        "details": "See {IERC721Metadata-tokenURI}."
      },
      "totalSupply()": {
        "details": "See {IERC721Enumerable-totalSupply}."
      },
      "transferFrom(address,address,uint256)": {
        "details": "See {IERC721-transferFrom}."
      }
    },
    "version": 1
  },
  "userdoc": {
    "kind": "user",
    "methods": {},
    "version": 1
  }
}